{
  "transactions": [
    {
      "hash": "0x33e14395560d775791108bfd26ab7343b94c0d301c595c9bd926811304e9d277",
      "transactionType": "CALL",
      "contractName": null,
      "contractAddress": "0x470da12469d3769c2a70a0d3a02549db2fb5e667",
      "function": "setBasePrice(uint256)",
      "arguments": [
        "5000000000000"
      ],
      "transaction": {
        "from": "0xbe1e2c05a20df20a3ecd0ec12617b296a58ee2a1",
        "to": "0x470da12469d3769c2a70a0d3a02549db2fb5e667",
        "gas": "0xc323",
        "value": "0x0",
        "input": "0xde4b32620000000000000000000000000000000000000000000000000000048c27395000",
        "nonce": "0x5ce",
        "chainId": "0x61"
      },
      "additionalContracts": [],
      "isFixedGasLimit": false
    },
    {
      "hash": "0x478c416671bbc262565cfa667e757fe94ffb761c10ea8be07c0c3dbad8e5a483",
      "transactionType": "CALL",
      "contractName": null,
      "contractAddress": "0x470da12469d3769c2a70a0d3a02549db2fb5e667",
      "function": "setUpPrice(uint256)",
      "arguments": [
        "20000000000000"
      ],
      "transaction": {
        "from": "0xbe1e2c05a20df20a3ecd0ec12617b296a58ee2a1",
        "to": "0x470da12469d3769c2a70a0d3a02549db2fb5e667",
        "gas": "0xc13c",
        "value": "0x0",
        "input": "0x7da062ec000000000000000000000000000000000000000000000000000012309ce54000",
        "nonce": "0x5cf",
        "chainId": "0x61"
      },
      "additionalContracts": [],
      "isFixedGasLimit": false
    },
    {
      "hash": "0x4069c92e44dd906e33f59d87a9d6bece67b962531e3722f6605e947c7fc737c2",
      "transactionType": "CALL",
      "contractName": null,
      "contractAddress": "0x470da12469d3769c2a70a0d3a02549db2fb5e667",
      "function": "setDownPrice(uint256)",
      "arguments": [
        "2500000000000"
      ],
      "transaction": {
        "from": "0xbe1e2c05a20df20a3ecd0ec12617b296a58ee2a1",
        "to": "0x470da12469d3769c2a70a0d3a02549db2fb5e667",
        "gas": "0xc3d5",
        "value": "0x0",
        "input": "0xfd8441c500000000000000000000000000000000000000000000000000000246139ca800",
        "nonce": "0x5d0",
        "chainId": "0x61"
      },
      "additionalContracts": [],
      "isFixedGasLimit": false
    }
  ],
  "receipts": [
    {
      "status": "0x1",
      "cumulativeGasUsed": "0x378ab",
      "logs": [
        {
          "address": "0x470da12469d3769c2a70a0d3a02549db2fb5e667",
          "topics": [
            "0xa2a9ee3bdae922edc2339f662c783441d0822b4ca5711b4c3821147e627e9969",
            "0x000000000000000000000000be1e2c05a20df20a3ecd0ec12617b296a58ee2a1"
          ],
          "data": "0x00000000000000000000000000000000000000000000000000b1a2bc2ec500000000000000000000000000000000000000000000000000000000048c273950000000000000000000000000000000000000000000000000000000000068c126fe",
          "blockHash": "0x7a5b5e3fe5796e25eebf504a632aff33a425e44b7c7ea8acdc019dc27cb0a6ac",
          "blockNumber": "0x3ddb49a",
          "transactionHash": "0x33e14395560d775791108bfd26ab7343b94c0d301c595c9bd926811304e9d277",
          "transactionIndex": "0x2",
          "logIndex": "0x4",
          "removed": false
        }
      ],
      "logsBloom": "0x00008000000000000000000000000000000000000000000000000000000000000000000000000000000000000000000080000000000000000800000000000080000000000000000000000000000000000000000000000020000000200000000000000000000000000000000000000000000000000000001000000000000000000000000000000000000000000000000000000000000000000000000000000000000000000000000000000000000000000000000000000000000000000000000000000000000000000000040000800000000000000000000000000000000000000000000000000000000000000000000000000000000000000000000000000000",
      "type": "0x0",
      "transactionHash": "0x33e14395560d775791108bfd26ab7343b94c0d301c595c9bd926811304e9d277",
      "transactionIndex": "0x2",
      "blockHash": "0x7a5b5e3fe5796e25eebf504a632aff33a425e44b7c7ea8acdc019dc27cb0a6ac",
      "blockNumber": "0x3ddb49a",
      "gasUsed": "0x8d47",
      "effectiveGasPrice": "0x3b9aca00",
      "from": "0xbe1e2c05a20df20a3ecd0ec12617b296a58ee2a1",
      "to": "0x470da12469d3769c2a70a0d3a02549db2fb5e667",
      "contractAddress": null
    },
    {
      "status": "0x1",
      "cumulativeGasUsed": "0x20193",
      "logs": [
        {
          "address": "0x470da12469d3769c2a70a0d3a02549db2fb5e667",
          "topics": [
            "0x822006e0d571a44ffcaa3d94eb550bbf10ef151beac2c7b5226d0f313717cbf3",
            "0x000000000000000000000000be1e2c05a20df20a3ecd0ec12617b296a58ee2a1"
          ],
          "data": "0x00000000000000000000000000000000000000000000000002c68af0bb140000000000000000000000000000000000000000000000000000000012309ce540000000000000000000000000000000000000000000000000000000000068c12700",
          "blockHash": "0xf69234345eb975b1b6724616ebd06ea8aeeb72f1a74fe6e5a3a4fcfda2b2cb20",
          "blockNumber": "0x3ddb49d",
          "transactionHash": "0x478c416671bbc262565cfa667e757fe94ffb761c10ea8be07c0c3dbad8e5a483",
          "transactionIndex": "0x1",
          "logIndex": "0x2",
          "removed": false
        }
      ],
      "logsBloom": "0x00208000000000000000000000000000000000000000000000000000000000000000000000000000008000000000000000000000000000000800000000000080000000000000000000000000000000000000000000000000000000200000000000000000000000000000000000000000000000000000000000000000000000000000000000000000000000000000000000000000000000000000000000000000400000000000000000000000000000000000000000000000000000000000000000000000000000000000040000800000000000000000000000000000000000000000000000000000000000000000000000000000000000000000000000000000",
      "type": "0x0",
      "transactionHash": "0x478c416671bbc262565cfa667e757fe94ffb761c10ea8be07c0c3dbad8e5a483",
      "transactionIndex": "0x1",
      "blockHash": "0xf69234345eb975b1b6724616ebd06ea8aeeb72f1a74fe6e5a3a4fcfda2b2cb20",
      "blockNumber": "0x3ddb49d",
      "gasUsed": "0x8be7",
      "effectiveGasPrice": "0x3b9aca00",
      "from": "0xbe1e2c05a20df20a3ecd0ec12617b296a58ee2a1",
      "to": "0x470da12469d3769c2a70a0d3a02549db2fb5e667",
      "contractAddress": null
    },
    {
      "status": "0x1",
      "cumulativeGasUsed": "0x8dc8",
      "logs": [
        {
          "address": "0x470da12469d3769c2a70a0d3a02549db2fb5e667",
          "topics": [
            "0x46cf7872d7284cff3ffeec61d1fad6e8cc2c02d1ff6d3147d81e334c0b7e36a2",
            "0x000000000000000000000000be1e2c05a20df20a3ecd0ec12617b296a58ee2a1"
          ],
          "data": "0x0000000000000000000000000000000000000000000000000058d15e1762800000000000000000000000000000000000000000000000000000000246139ca8000000000000000000000000000000000000000000000000000000000068c12702",
          "blockHash": "0xc39d896ef1358ce0231d4984c4b9b4da6a25468cefe3a3a510f47bea77a31339",
          "blockNumber": "0x3ddb49f",
          "transactionHash": "0x4069c92e44dd906e33f59d87a9d6bece67b962531e3722f6605e947c7fc737c2",
          "transactionIndex": "0x0",
          "logIndex": "0x0",
          "removed": false
        }
      ],
      "logsBloom": "0x00008000000000000000000000000000000000000000000000000000000000000000000000000000000000000000000000000000000000000800000000000080000000000000000000000000000000000000000000000000000000200000000000000000000000000000000000000000000000000000000000000000000000000000000000000000000000000000000000000000000000000000000000000000000000000000000000000000000000000000000000000000000000000000000000000000000000000000040000800040000000000000000000000000000000000000000000000000000000008004000000000000000000000000000000000000",
      "type": "0x0",
      "transactionHash": "0x4069c92e44dd906e33f59d87a9d6bece67b962531e3722f6605e947c7fc737c2",
      "transactionIndex": "0x0",
      "blockHash": "0xc39d896ef1358ce0231d4984c4b9b4da6a25468cefe3a3a510f47bea77a31339",
      "blockNumber": "0x3ddb49f",
      "gasUsed": "0x8dc8",
      "effectiveGasPrice": "0x3b9aca00",
      "from": "0xbe1e2c05a20df20a3ecd0ec12617b296a58ee2a1",
      "to": "0x470da12469d3769c2a70a0d3a02549db2fb5e667",
      "contractAddress": null
    }
  ],
  "libraries": [],
  "pending": [],
  "returns": {},
  "timestamp": 1757488899,
  "chain": 97,
  "commit": "9a6d40a"
}