{
  "transactions": [
    {
      "hash": "0x21993667dac62f76e2985fa353d088c81e5607a7a26683d2a04268e33db8d09d",
      "transactionType": "CALL",
      "contractName": null,
      "contractAddress": "0x9324c638417844e00e886b6593d924d1bc4b4a93",
      "function": "setOperator(address)",
      "arguments": [
        "0xfa59b5895B11517EE64Fb0F9dDED097F7628afDF"
      ],
      "transaction": {
        "from": "0xbe1e2c05a20df20a3ecd0ec12617b296a58ee2a1",
        "to": "0x9324c638417844e00e886b6593d924d1bc4b4a93",
        "gas": "0x14d0d",
        "value": "0x0",
        "input": "0xb3ab15fb000000000000000000000000fa59b5895b11517ee64fb0f9dded097f7628afdf",
        "nonce": "0x418",
        "chainId": "0x61"
      },
      "additionalContracts": [],
      "isFixedGasLimit": false
    }
  ],
  "receipts": [
    {
      "status": "0x1",
      "cumulativeGasUsed": "0xe3bb",
      "logs": [
        {
          "address": "0x9324c638417844e00e886b6593d924d1bc4b4a93",
          "topics": [
            "0x20c899c9053446f0d7a408c709f0196e2c26c6a985dcad854dc19ad567c4531f",
            "0x000000000000000000000000fa59b5895b11517ee64fb0f9dded097f7628afdf",
            "0x000000000000000000000000be1e2c05a20df20a3ecd0ec12617b296a58ee2a1"
          ],
          "data": "0x0000000000000000000000000000000000000000000000000000000068b8403d",
          "blockHash": "0x01ab748cc0b20d97ce3c3cea36f2a7b8d7dc906e9a0cbe9ff4dedcc8a452a6a3",
          "blockNumber": "0x3d1dc56",
          "transactionHash": "0x21993667dac62f76e2985fa353d088c81e5607a7a26683d2a04268e33db8d09d",
          "transactionIndex": "0x0",
          "logIndex": "0x0",
          "removed": false
        }
      ],
      "logsBloom": "0x000000000000000000000000000800000000000000000000000000000000000000000000000000000000000000000000000c0000000000000000000000000000000000000008000000000000000000000000000000000000000000200000000000000000000000000000000000020000000000000000000000000000000000200000000000000000000000000000000000000020000000000000000000000000000000000000000000000000000000000000000200000000000000000000000000000000000000800000040000800000000000000000000000000000000000000000000000000000000000000000000000000000000000000000000000000000",
      "type": "0x0",
      "transactionHash": "0x21993667dac62f76e2985fa353d088c81e5607a7a26683d2a04268e33db8d09d",
      "transactionIndex": "0x0",
      "blockHash": "0x01ab748cc0b20d97ce3c3cea36f2a7b8d7dc906e9a0cbe9ff4dedcc8a452a6a3",
      "blockNumber": "0x3d1dc56",
      "gasUsed": "0xe3bb",
      "effectiveGasPrice": "0x3b9aca00",
      "from": "0xbe1e2c05a20df20a3ecd0ec12617b296a58ee2a1",
      "to": "0x9324c638417844e00e886b6593d924d1bc4b4a93",
      "contractAddress": null
    }
  ],
  "libraries": [],
  "pending": [],
  "returns": {},
  "timestamp": 1756905535,
  "chain": 97,
  "commit": "9bc0fbb"
}