{
  "transactions": [
    {
      "hash": "0xcecd79016b79e6a1c099b8361d528ceb06831e4f7df74dfc3eceb881dce59a17",
      "transactionType": "CALL",
      "contractName": null,
      "contractAddress": "0x6f9756d1200cc1910ba3452b90596e1b6467d6dd",
      "function": "forceSetWithdrawCount(uint256)",
      "arguments": [
        "1000"
      ],
      "transaction": {
        "from": "0xbe1e2c05a20df20a3ecd0ec12617b296a58ee2a1",
        "to": "0x6f9756d1200cc1910ba3452b90596e1b6467d6dd",
        "gas": "0xc110",
        "value": "0x0",
        "input": "0x33ff86a900000000000000000000000000000000000000000000000000000000000003e8",
        "nonce": "0x4c2",
        "chainId": "0x61"
      },
      "additionalContracts": [],
      "isFixedGasLimit": false
    }
  ],
  "receipts": [
    {
      "status": "0x1",
      "cumulativeGasUsed": "0x1b9e0",
      "logs": [
        {
          "address": "0x6f9756d1200cc1910ba3452b90596e1b6467d6dd",
          "topics": [
            "0xd528d8798aeb8effa90f28e0b70983b2ca6cbcc95e4d51f848f39e0b3738da7d",
            "0x000000000000000000000000be1e2c05a20df20a3ecd0ec12617b296a58ee2a1"
          ],
          "data": "0x000000000000000000000000000000000000000000000000000000000000000200000000000000000000000000000000000000000000000000000000000003e80000000000000000000000000000000000000000000000000000000068bab0bd",
          "blockHash": "0x81c8e2e30f71d003c302376124256142c7fc145f1820234f21660fd01afd2022",
          "blockNumber": "0x3d51b9d",
          "transactionHash": "0xcecd79016b79e6a1c099b8361d528ceb06831e4f7df74dfc3eceb881dce59a17",
          "transactionIndex": "0x1",
          "logIndex": "0x1",
          "removed": false
        }
      ],
      "logsBloom": "0x00000000000000000000000000000000000000000000000000000000000000000000000000000000000000000000000000000000000000000000000000000002000000000000004000000000000000000000040000000000000008200000000000000000000000000000100000000004000000000000000000000000000000000000000000000000000000000000000000000000000000000000000000000000000000000000000000000000000000000000000000000000000000000000000000000000000000000000040000800000000000000000000000000000000000000000000000000000000000000000000000000000000000000000000000000000",
      "type": "0x0",
      "transactionHash": "0xcecd79016b79e6a1c099b8361d528ceb06831e4f7df74dfc3eceb881dce59a17",
      "transactionIndex": "0x1",
      "blockHash": "0x81c8e2e30f71d003c302376124256142c7fc145f1820234f21660fd01afd2022",
      "blockNumber": "0x3d51b9d",
      "gasUsed": "0x8bc7",
      "effectiveGasPrice": "0x3b9aca00",
      "from": "0xbe1e2c05a20df20a3ecd0ec12617b296a58ee2a1",
      "to": "0x6f9756d1200cc1910ba3452b90596e1b6467d6dd",
      "contractAddress": null
    }
  ],
  "libraries": [],
  "pending": [],
  "returns": {},
  "timestamp": 1757065406,
  "chain": 97,
  "commit": "fc47bd6"
}