{
  "transactions": [
    {
      "hash": "0xa3232ad8e1fb20d65871bacfbf116d8b48f9a28ef3c3e20cfc86f9adc8b6f444",
      "transactionType": "CALL",
      "contractName": null,
      "contractAddress": "0x399446395db4bbf02221edda0c03cae714d89eca",
      "function": "setBuyFee(address,bool,uint256)",
      "arguments": [
        "0xaE49bFCe31392A55eF3332B9a07d0534122327CA",
        "true",
        "1000"
      ],
      "transaction": {
        "from": "0xbe1e2c05a20df20a3ecd0ec12617b296a58ee2a1",
        "to": "0x399446395db4bbf02221edda0c03cae714d89eca",
        "gas": "0x17e40",
        "value": "0x0",
        "input": "0x0cff0607000000000000000000000000ae49bfce31392a55ef3332b9a07d0534122327ca000000000000000000000000000000000000000000000000000000000000000100000000000000000000000000000000000000000000000000000000000003e8",
        "nonce": "0x373",
        "chainId": "0x61"
      },
      "additionalContracts": [],
      "isFixedGasLimit": false
    }
  ],
  "receipts": [
    {
      "status": "0x1",
      "cumulativeGasUsed": "0x114bf",
      "logs": [],
      "logsBloom": "0x00000000000000000000000000000000000000000000000000000000000000000000000000000000000000000000000000000000000000000000000000000000000000000000000000000000000000000000000000000000000000000000000000000000000000000000000000000000000000000000000000000000000000000000000000000000000000000000000000000000000000000000000000000000000000000000000000000000000000000000000000000000000000000000000000000000000000000000000000000000000000000000000000000000000000000000000000000000000000000000000000000000000000000000000000000000",
      "type": "0x0",
      "transactionHash": "0xa3232ad8e1fb20d65871bacfbf116d8b48f9a28ef3c3e20cfc86f9adc8b6f444",
      "transactionIndex": "0x0",
      "blockHash": "0x128a91c993a69979eee57f1bd098a75bd15511473cf5ce8786c07a04b1530598",
      "blockNumber": "0x3ca900f",
      "gasUsed": "0x114bf",
      "effectiveGasPrice": "0x3b9aca00",
      "from": "0xbe1e2c05a20df20a3ecd0ec12617b296a58ee2a1",
      "to": "0x399446395db4bbf02221edda0c03cae714d89eca",
      "contractAddress": null
    }
  ],
  "libraries": [],
  "pending": [],
  "returns": {},
  "timestamp": 1756546151,
  "chain": 97,
  "commit": "07539eb"
}