{
  "transactions": [
    {
      "hash": "0x775b01204ff96fee1686ea69ad3ed46025e6eabab9582f47a7625b6c42f231a8",
      "transactionType": "CALL",
      "contractName": null,
      "contractAddress": "0xc81cd7f8588c2614c4edd94d076f47bb94b9e584",
      "function": "approve(address,uint256)",
      "arguments": [
        "0x6F9756D1200cc1910BA3452B90596E1b6467d6dD",
        "115792089237316195423570985008687907853269984665640564039457584007913129639934"
      ],
      "transaction": {
        "from": "0xfb290b4903bad26fe1c2fb89cf6402529aa61e0c",
        "to": "0xc81cd7f8588c2614c4edd94d076f47bb94b9e584",
        "gas": "0x10894",
        "value": "0x0",
        "input": "0x095ea7b30000000000000000000000006f9756d1200cc1910ba3452b90596e1b6467d6ddfffffffffffffffffffffffffffffffffffffffffffffffffffffffffffffffe",
        "nonce": "0x4",
        "chainId": "0x61"
      },
      "additionalContracts": [],
      "isFixedGasLimit": false
    },
    {
      "hash": "0x5c1412b734c221ada1f7290bd78c01a0f69c001cb14229d649d7ed3c95bd4c38",
      "transactionType": "CALL",
      "contractName": null,
      "contractAddress": "0xa4c53902eb8aeca930a911d2c42b2eab8a297540",
      "function": "approve(address,uint256)",
      "arguments": [
        "0x6F9756D1200cc1910BA3452B90596E1b6467d6dD",
        "115792089237316195423570985008687907853269984665640564039457584007913129639934"
      ],
      "transaction": {
        "from": "0xfb290b4903bad26fe1c2fb89cf6402529aa61e0c",
        "to": "0xa4c53902eb8aeca930a911d2c42b2eab8a297540",
        "gas": "0x10888",
        "value": "0x0",
        "input": "0x095ea7b30000000000000000000000006f9756d1200cc1910ba3452b90596e1b6467d6ddfffffffffffffffffffffffffffffffffffffffffffffffffffffffffffffffe",
        "nonce": "0x5",
        "chainId": "0x61"
      },
      "additionalContracts": [],
      "isFixedGasLimit": false
    }
  ],
  "receipts": [
    {
      "status": "0x1",
      "cumulativeGasUsed": "0xb4e9",
      "logs": [
        {
          "address": "0xc81cd7f8588c2614c4edd94d076f47bb94b9e584",
          "topics": [
            "0x8c5be1e5ebec7d5bd14f71427d1e84f3dd0314c0f7b2291e5b200ac8c7c3b925",
            "0x000000000000000000000000fb290b4903bad26fe1c2fb89cf6402529aa61e0c",
            "0x0000000000000000000000006f9756d1200cc1910ba3452b90596e1b6467d6dd"
          ],
          "data": "0xfffffffffffffffffffffffffffffffffffffffffffffffffffffffffffffffe",
          "blockHash": "0xd8897c6cee199edec27c2f4a21d484ba1ebf3c842326929130b85161eb5864ed",
          "blockNumber": "0x3d7443b",
          "transactionHash": "0x775b01204ff96fee1686ea69ad3ed46025e6eabab9582f47a7625b6c42f231a8",
          "transactionIndex": "0x0",
          "logIndex": "0x0",
          "removed": false
        }
      ],
      "logsBloom": "0x00000000000000040004000000000000000002000000000000000000000000000000000000000000000000000000000000000000000000000000000000200001000000000000000000000200000000000000000000000000010000000000000000000000000000000000000000000000000000000000000000000000000000000000000000000000000000000000000000000000000000004000000000000000020000000000000000000000000040000000000000000000010000000000000000000000000000000000000000000000000000000000000000000000000000000010000000000000000000000000000000000000000000000000000000000000",
      "type": "0x0",
      "transactionHash": "0x775b01204ff96fee1686ea69ad3ed46025e6eabab9582f47a7625b6c42f231a8",
      "transactionIndex": "0x0",
      "blockHash": "0xd8897c6cee199edec27c2f4a21d484ba1ebf3c842326929130b85161eb5864ed",
      "blockNumber": "0x3d7443b",
      "gasUsed": "0xb4e9",
      "effectiveGasPrice": "0x3b9aca00",
      "from": "0xfb290b4903bad26fe1c2fb89cf6402529aa61e0c",
      "to": "0xc81cd7f8588c2614c4edd94d076f47bb94b9e584",
      "contractAddress": null
    },
    {
      "status": "0x1",
      "cumulativeGasUsed": "0xb4e1",
      "logs": [
        {
          "address": "0xa4c53902eb8aeca930a911d2c42b2eab8a297540",
          "topics": [
            "0x8c5be1e5ebec7d5bd14f71427d1e84f3dd0314c0f7b2291e5b200ac8c7c3b925",
            "0x000000000000000000000000fb290b4903bad26fe1c2fb89cf6402529aa61e0c",
            "0x0000000000000000000000006f9756d1200cc1910ba3452b90596e1b6467d6dd"
          ],
          "data": "0xfffffffffffffffffffffffffffffffffffffffffffffffffffffffffffffffe",
          "blockHash": "0xa3534aa09b3db2349fbd4361a8df8c180caf7f4373bd48a600274c33ab88f307",
          "blockNumber": "0x3d7443e",
          "transactionHash": "0x5c1412b734c221ada1f7290bd78c01a0f69c001cb14229d649d7ed3c95bd4c38",
          "transactionIndex": "0x0",
          "logIndex": "0x0",
          "removed": false
        }
      ],
      "logsBloom": "0x00000000000000000004000000000000000000000000000000000000000000000000000000000000000000000000000000000000000000000000000000200000000000000000000000000200000000000000000000000000010000000000000000000000000000000000000000000000000000000000000000000000000000000000000000000000000000000000000000000000000000024000000000000000020000000000000000000000000040000000000000000000010000000000000000000000000000000020000000000000000020000000000000000000000000000010000000000000000000000000000000000000000000000000000000000000",
      "type": "0x0",
      "transactionHash": "0x5c1412b734c221ada1f7290bd78c01a0f69c001cb14229d649d7ed3c95bd4c38",
      "transactionIndex": "0x0",
      "blockHash": "0xa3534aa09b3db2349fbd4361a8df8c180caf7f4373bd48a600274c33ab88f307",
      "blockNumber": "0x3d7443e",
      "gasUsed": "0xb4e1",
      "effectiveGasPrice": "0x3b9aca00",
      "from": "0xfb290b4903bad26fe1c2fb89cf6402529aa61e0c",
      "to": "0xa4c53902eb8aeca930a911d2c42b2eab8a297540",
      "contractAddress": null
    }
  ],
  "libraries": [],
  "pending": [],
  "returns": {},
  "timestamp": 1757171708,
  "chain": 97,
  "commit": "70dd59a"
}