{
  "transactions": [
    {
      "hash": "0x91936f4063cbf1d7bff43bcfb58ae43a72eaa48b52f9f56266ba7ff77635c1c5",
      "transactionType": "CALL",
      "contractName": null,
      "contractAddress": "0x0f552dd2779b1bbf35e842cde6536cf318bdfacf",
      "function": "setAgt(address)",
      "arguments": [
        "0xb740c977Cb0785d88B43d155e19b9FcD696cD130"
      ],
      "transaction": {
        "from": "0xbe1e2c05a20df20a3ecd0ec12617b296a58ee2a1",
        "to": "0x0f552dd2779b1bbf35e842cde6536cf318bdfacf",
        "gas": "0xba1d",
        "value": "0x0",
        "input": "0x723e3a8f000000000000000000000000b740c977cb0785d88b43d155e19b9fcd696cd130",
        "nonce": "0x3e2",
        "chainId": "0x61"
      },
      "additionalContracts": [],
      "isFixedGasLimit": false
    }
  ],
  "receipts": [
    {
      "status": "0x1",
      "cumulativeGasUsed": "0x86bf",
      "logs": [],
      "logsBloom": "0x00000000000000000000000000000000000000000000000000000000000000000000000000000000000000000000000000000000000000000000000000000000000000000000000000000000000000000000000000000000000000000000000000000000000000000000000000000000000000000000000000000000000000000000000000000000000000000000000000000000000000000000000000000000000000000000000000000000000000000000000000000000000000000000000000000000000000000000000000000000000000000000000000000000000000000000000000000000000000000000000000000000000000000000000000000000",
      "type": "0x0",
      "transactionHash": "0x91936f4063cbf1d7bff43bcfb58ae43a72eaa48b52f9f56266ba7ff77635c1c5",
      "transactionIndex": "0x0",
      "blockHash": "0x071f480da9195ab7b6d6f1b92314a9957ab48b3ea6764a5ad5444eddf0623ccf",
      "blockNumber": "0x3cf6d32",
      "gasUsed": "0x86bf",
      "effectiveGasPrice": "0x3b9aca00",
      "from": "0xbe1e2c05a20df20a3ecd0ec12617b296a58ee2a1",
      "to": "0x0f552dd2779b1bbf35e842cde6536cf318bdfacf",
      "contractAddress": null
    }
  ],
  "libraries": [],
  "pending": [],
  "returns": {},
  "timestamp": 1756785648,
  "chain": 97,
  "commit": "9660e94"
}