{
  "transactions": [
    {
      "hash": "0x314d5d4570a8fc168f63b5fd0785286461efa4a363e103fb088b49719cafc88a",
      "transactionType": "CALL",
      "contractName": null,
      "contractAddress": "0x560688637904b4073af5c2341d96fdb2bf039cd7",
      "function": "addPancakeSwapInfos(address,address)",
      "arguments": [
        "0xaE49bFCe31392A55eF3332B9a07d0534122327CA",
        "0xD21EC0b6841FafB562dbCe9ab8D49E89ef0c6a57"
      ],
      "transaction": {
        "from": "0xbe1e2c05a20df20a3ecd0ec12617b296a58ee2a1",
        "to": "0x560688637904b4073af5c2341d96fdb2bf039cd7",
        "gas": "0x14206",
        "value": "0x0",
        "input": "0x9aa83a8b000000000000000000000000ae49bfce31392a55ef3332b9a07d0534122327ca000000000000000000000000d21ec0b6841fafb562dbce9ab8d49e89ef0c6a57",
        "nonce": "0x45f",
        "chainId": "0x61"
      },
      "additionalContracts": [],
      "isFixedGasLimit": false
    },
    {
      "hash": "0x209b9db1dbc893125ce36fe6a1b27ee8d60a3ff2436d56ef9eadc9385e6f0fcb",
      "transactionType": "CALL",
      "contractName": null,
      "contractAddress": "0x560688637904b4073af5c2341d96fdb2bf039cd7",
      "function": "addPancakeSwapInfos(address,address)",
      "arguments": [
        "0xD21EC0b6841FafB562dbCe9ab8D49E89ef0c6a57",
        "0x5EB1344aC5b1df370292EF0b255678d0C550b924"
      ],
      "transaction": {
        "from": "0xbe1e2c05a20df20a3ecd0ec12617b296a58ee2a1",
        "to": "0x560688637904b4073af5c2341d96fdb2bf039cd7",
        "gas": "0x14206",
        "value": "0x0",
        "input": "0x9aa83a8b000000000000000000000000d21ec0b6841fafb562dbce9ab8d49e89ef0c6a570000000000000000000000005eb1344ac5b1df370292ef0b255678d0c550b924",
        "nonce": "0x460",
        "chainId": "0x61"
      },
      "additionalContracts": [],
      "isFixedGasLimit": false
    },
    {
      "hash": "0xa946db38717b3b62658bf47e914d9c64a396456968da41b5c87f4333d68af020",
      "transactionType": "CALL",
      "contractName": null,
      "contractAddress": "0x560688637904b4073af5c2341d96fdb2bf039cd7",
      "function": "setBuyFee(address,bool,uint256)",
      "arguments": [
        "0xaE49bFCe31392A55eF3332B9a07d0534122327CA",
        "true",
        "1000"
      ],
      "transaction": {
        "from": "0xbe1e2c05a20df20a3ecd0ec12617b296a58ee2a1",
        "to": "0x560688637904b4073af5c2341d96fdb2bf039cd7",
        "gas": "0x1a586",
        "value": "0x0",
        "input": "0x0cff0607000000000000000000000000ae49bfce31392a55ef3332b9a07d0534122327ca000000000000000000000000000000000000000000000000000000000000000100000000000000000000000000000000000000000000000000000000000003e8",
        "nonce": "0x461",
        "chainId": "0x61"
      },
      "additionalContracts": [],
      "isFixedGasLimit": false
    }
  ],
  "receipts": [
    {
      "status": "0x1",
      "cumulativeGasUsed": "0x23a5f",
      "logs": [
        {
          "address": "0x560688637904b4073af5c2341d96fdb2bf039cd7",
          "topics": [
            "0x74a4ea483a33a7b2599e52a0813e90e82344283e51e490ef3b7dba63defe268c",
            "0x000000000000000000000000be1e2c05a20df20a3ecd0ec12617b296a58ee2a1",
            "0x000000000000000000000000ae49bfce31392a55ef3332b9a07d0534122327ca"
          ],
          "data": "0x000000000000000000000000d21ec0b6841fafb562dbce9ab8d49e89ef0c6a570000000000000000000000000000000000000000000000000000000068b97550",
          "blockHash": "0x07a8e1421d5bfa090d62d1b70d7e8c841267df7dd0ec66435f68c1321a6a605d",
          "blockNumber": "0x3d377b2",
          "transactionHash": "0x314d5d4570a8fc168f63b5fd0785286461efa4a363e103fb088b49719cafc88a",
          "transactionIndex": "0x2",
          "logIndex": "0x1",
          "removed": false
        }
      ],
      "logsBloom": "0x00000000000000000000000000000000000000000000000000000000000000020000000000000000000000004000000000000000000000000000000000000000000020000000000000000000000000000040000000000000000000200000000000000000000000000200000001000000000000000000000000000000040000000000000008000000000000000000000000000000000000000000000000000000020000000000000000000000000000000000000000000000000000000000000000000000000000000000040000800000000000000000000000000000000000000000000000000000000000000000000000000000000000000000000000000000",
      "type": "0x0",
      "transactionHash": "0x314d5d4570a8fc168f63b5fd0785286461efa4a363e103fb088b49719cafc88a",
      "transactionIndex": "0x2",
      "blockHash": "0x07a8e1421d5bfa090d62d1b70d7e8c841267df7dd0ec66435f68c1321a6a605d",
      "blockNumber": "0x3d377b2",
      "gasUsed": "0xe924",
      "effectiveGasPrice": "0x3b9aca00",
      "from": "0xbe1e2c05a20df20a3ecd0ec12617b296a58ee2a1",
      "to": "0x560688637904b4073af5c2341d96fdb2bf039cd7",
      "contractAddress": null
    },
    {
      "status": "0x1",
      "cumulativeGasUsed": "0x1777d",
      "logs": [
        {
          "address": "0x560688637904b4073af5c2341d96fdb2bf039cd7",
          "topics": [
            "0x74a4ea483a33a7b2599e52a0813e90e82344283e51e490ef3b7dba63defe268c",
            "0x000000000000000000000000be1e2c05a20df20a3ecd0ec12617b296a58ee2a1",
            "0x000000000000000000000000d21ec0b6841fafb562dbce9ab8d49e89ef0c6a57"
          ],
          "data": "0x0000000000000000000000005eb1344ac5b1df370292ef0b255678d0c550b9240000000000000000000000000000000000000000000000000000000068b97553",
          "blockHash": "0xa7a9b6cac8edd3e11c56ca9f595a338074b0a2d7ec8e05d554498cdd9e33a079",
          "blockNumber": "0x3d377b5",
          "transactionHash": "0x209b9db1dbc893125ce36fe6a1b27ee8d60a3ff2436d56ef9eadc9385e6f0fcb",
          "transactionIndex": "0x1",
          "logIndex": "0x0",
          "removed": false
        }
      ],
      "logsBloom": "0x00000000000000000000000080000000000000000000000000000000000000000000000000000000000000004000000000000000000000000000000000000000000020000000000000000000000000000000000000000000000000200000000000000000000000000200000001000000000000000000000000000000000000000000000008000000000000000000000000000000000000000000000000000000020000000000000000008000000000000000000000000000000000000000000040000000000000000000040000800000000000000000000000000000000000000000000000000000000000000000000000000000000000000000000000000000",
      "type": "0x0",
      "transactionHash": "0x209b9db1dbc893125ce36fe6a1b27ee8d60a3ff2436d56ef9eadc9385e6f0fcb",
      "transactionIndex": "0x1",
      "blockHash": "0xa7a9b6cac8edd3e11c56ca9f595a338074b0a2d7ec8e05d554498cdd9e33a079",
      "blockNumber": "0x3d377b5",
      "gasUsed": "0xe924",
      "effectiveGasPrice": "0x3b9aca00",
      "from": "0xbe1e2c05a20df20a3ecd0ec12617b296a58ee2a1",
      "to": "0x560688637904b4073af5c2341d96fdb2bf039cd7",
      "contractAddress": null
    },
    {
      "status": "0x1",
      "cumulativeGasUsed": "0x5844e",
      "logs": [
        {
          "address": "0x560688637904b4073af5c2341d96fdb2bf039cd7",
          "topics": [
            "0x3df5b631720297a6fa4bad6fd6787b1aef91129d4d1aaadc7e3fc06d32351c3a",
            "0x000000000000000000000000be1e2c05a20df20a3ecd0ec12617b296a58ee2a1",
            "0x000000000000000000000000ae49bfce31392a55ef3332b9a07d0534122327ca"
          ],
          "data": "0x000000000000000000000000000000000000000000000000000000000000000100000000000000000000000000000000000000000000000000000000000003e80000000000000000000000000000000000000000000000000000000068b97554",
          "blockHash": "0xf3a37ee1e530f230d476b7787f1440448faac10b4a84bd9c1c601fb4a9a18513",
          "blockNumber": "0x3d377b7",
          "transactionHash": "0xa946db38717b3b62658bf47e914d9c64a396456968da41b5c87f4333d68af020",
          "transactionIndex": "0x1",
          "logIndex": "0xd",
          "removed": false
        }
      ],
      "logsBloom": "0x00000000000000000000000000000000000000000000000000000000000000020000000000000000000000000000000000000000000000000000000000000000000020000040000000000000000000000040000000000000000000200000000000000000000000000200000000000000000000000000000000000000040000000000000000000000000000000000000000000000000000000000000000000000020000000000000000000000000000000000000000000000000000001000000000000000000000000000040000800000000000000000000000000000000000000000000000000000000000000000200000000000000000000000000000000000",
      "type": "0x0",
      "transactionHash": "0xa946db38717b3b62658bf47e914d9c64a396456968da41b5c87f4333d68af020",
      "transactionIndex": "0x1",
      "blockHash": "0xf3a37ee1e530f230d476b7787f1440448faac10b4a84bd9c1c601fb4a9a18513",
      "blockNumber": "0x3d377b7",
      "gasUsed": "0x1312e",
      "effectiveGasPrice": "0x3b9aca00",
      "from": "0xbe1e2c05a20df20a3ecd0ec12617b296a58ee2a1",
      "to": "0x560688637904b4073af5c2341d96fdb2bf039cd7",
      "contractAddress": null
    }
  ],
  "libraries": [],
  "pending": [],
  "returns": {},
  "timestamp": 1756984662,
  "chain": 97,
  "commit": "ae095ca"
}