{
  "transactions": [
    {
      "hash": "0xa32721f7f854c814613bcef70a7f24967d9e3eb03484988b4ce1f17ffadca126",
      "transactionType": "CALL",
      "contractName": null,
      "contractAddress": "0xc81cd7f8588c2614c4edd94d076f47bb94b9e584",
      "function": "approve(address,uint256)",
      "arguments": [
        "0x6F9756D1200cc1910BA3452B90596E1b6467d6dD",
        "115792089237316195423570985008687907853269984665640564039457584007913129639934"
      ],
      "transaction": {
        "from": "0xbe1e2c05a20df20a3ecd0ec12617b296a58ee2a1",
        "to": "0xc81cd7f8588c2614c4edd94d076f47bb94b9e584",
        "gas": "0x9d9d",
        "value": "0x0",
        "input": "0x095ea7b30000000000000000000000006f9756d1200cc1910ba3452b90596e1b6467d6ddfffffffffffffffffffffffffffffffffffffffffffffffffffffffffffffffe",
        "nonce": "0x4ce",
        "chainId": "0x61"
      },
      "additionalContracts": [],
      "isFixedGasLimit": false
    },
    {
      "hash": "0xc15c8fcbf928a5f84f46e8c84584a7c74f349fed9f9c343cd29be3a36a840629",
      "transactionType": "CALL",
      "contractName": null,
      "contractAddress": "0xa4c53902eb8aeca930a911d2c42b2eab8a297540",
      "function": "approve(address,uint256)",
      "arguments": [
        "0x6F9756D1200cc1910BA3452B90596E1b6467d6dD",
        "115792089237316195423570985008687907853269984665640564039457584007913129639934"
      ],
      "transaction": {
        "from": "0xbe1e2c05a20df20a3ecd0ec12617b296a58ee2a1",
        "to": "0xa4c53902eb8aeca930a911d2c42b2eab8a297540",
        "gas": "0x9d93",
        "value": "0x0",
        "input": "0x095ea7b30000000000000000000000006f9756d1200cc1910ba3452b90596e1b6467d6ddfffffffffffffffffffffffffffffffffffffffffffffffffffffffffffffffe",
        "nonce": "0x4cf",
        "chainId": "0x61"
      },
      "additionalContracts": [],
      "isFixedGasLimit": false
    }
  ],
  "receipts": [
    {
      "status": "0x1",
      "cumulativeGasUsed": "0x721d",
      "logs": [
        {
          "address": "0xc81cd7f8588c2614c4edd94d076f47bb94b9e584",
          "topics": [
            "0x8c5be1e5ebec7d5bd14f71427d1e84f3dd0314c0f7b2291e5b200ac8c7c3b925",
            "0x000000000000000000000000be1e2c05a20df20a3ecd0ec12617b296a58ee2a1",
            "0x0000000000000000000000006f9756d1200cc1910ba3452b90596e1b6467d6dd"
          ],
          "data": "0xfffffffffffffffffffffffffffffffffffffffffffffffffffffffffffffffe",
          "blockHash": "0x9b8bb8df747bd86b4ecb173d646d9754e5c19f10717d3b15364e930fd2a653c8",
          "blockNumber": "0x3d741ed",
          "transactionHash": "0xa32721f7f854c814613bcef70a7f24967d9e3eb03484988b4ce1f17ffadca126",
          "transactionIndex": "0x0",
          "logIndex": "0x0",
          "removed": false
        }
      ],
      "logsBloom": "0x00000000000000040004000000000000000002000000000000000000000000000000000000000000000000000000000000000000000000000000000000200001000000000000000000000000000000000000000000000000000000200000000000000000000000000000000000000000000000000000000000000000000000000000000000000000000000000000000000000000000000000000000000000000020000000000000000000000000040000000000000000000010000000000000000000000000000000000040000800000000000000000000000000000000000000010000000000000000000000000000000000000000000000000000000000000",
      "type": "0x0",
      "transactionHash": "0xa32721f7f854c814613bcef70a7f24967d9e3eb03484988b4ce1f17ffadca126",
      "transactionIndex": "0x0",
      "blockHash": "0x9b8bb8df747bd86b4ecb173d646d9754e5c19f10717d3b15364e930fd2a653c8",
      "blockNumber": "0x3d741ed",
      "gasUsed": "0x721d",
      "effectiveGasPrice": "0x3b9aca00",
      "from": "0xbe1e2c05a20df20a3ecd0ec12617b296a58ee2a1",
      "to": "0xc81cd7f8588c2614c4edd94d076f47bb94b9e584",
      "contractAddress": null
    },
    {
      "status": "0x1",
      "cumulativeGasUsed": "0x1b672",
      "logs": [
        {
          "address": "0xa4c53902eb8aeca930a911d2c42b2eab8a297540",
          "topics": [
            "0x8c5be1e5ebec7d5bd14f71427d1e84f3dd0314c0f7b2291e5b200ac8c7c3b925",
            "0x000000000000000000000000be1e2c05a20df20a3ecd0ec12617b296a58ee2a1",
            "0x0000000000000000000000006f9756d1200cc1910ba3452b90596e1b6467d6dd"
          ],
          "data": "0xfffffffffffffffffffffffffffffffffffffffffffffffffffffffffffffffe",
          "blockHash": "0xc5f65f1801a48698b65356ef6ee7f20eeefdc863c2a3bb6c9fbed65e7c2ea4ee",
          "blockNumber": "0x3d741ef",
          "transactionHash": "0xc15c8fcbf928a5f84f46e8c84584a7c74f349fed9f9c343cd29be3a36a840629",
          "transactionIndex": "0x3",
          "logIndex": "0x3",
          "removed": false
        }
      ],
      "logsBloom": "0x00000000000000000004000000000000000000000000000000000000000000000000000000000000000000000000000000000000000000000000000000200000000000000000000000000000000000000000000000000000000000200000000000000000000000000000000000000000000000000000000000000000000000000000000000000000000000000000000000000000000000020000000000000000020000000000000000000000000040000000000000000000010000000000000000000000000000000020040000800000000020000000000000000000000000000010000000000000000000000000000000000000000000000000000000000000",
      "type": "0x0",
      "transactionHash": "0xc15c8fcbf928a5f84f46e8c84584a7c74f349fed9f9c343cd29be3a36a840629",
      "transactionIndex": "0x3",
      "blockHash": "0xc5f65f1801a48698b65356ef6ee7f20eeefdc863c2a3bb6c9fbed65e7c2ea4ee",
      "blockNumber": "0x3d741ef",
      "gasUsed": "0x7215",
      "effectiveGasPrice": "0x3b9aca00",
      "from": "0xbe1e2c05a20df20a3ecd0ec12617b296a58ee2a1",
      "to": "0xa4c53902eb8aeca930a911d2c42b2eab8a297540",
      "contractAddress": null
    }
  ],
  "libraries": [],
  "pending": [],
  "returns": {},
  "timestamp": 1757171265,
  "chain": 97,
  "commit": "70dd59a"
}