{
  "transactions": [
    {
      "hash": "0xda659f3eb1891bbc54a810458540bdc7316207db80924918effd0d3ff631d905",
      "transactionType": "CALL",
      "contractName": null,
      "contractAddress": "0x399446395db4bbf02221edda0c03cae714d89eca",
      "function": "addToken(address,uint256)",
      "arguments": [
        "0xdae2Be19e5DaED254808342cdC37db407E52218d",
        "100000000000000000"
      ],
      "transaction": {
        "from": "0xbe1e2c05a20df20a3ecd0ec12617b296a58ee2a1",
        "to": "0x399446395db4bbf02221edda0c03cae714d89eca",
        "gas": "0x28ff2",
        "value": "0x0",
        "input": "0xaf81c5b9000000000000000000000000dae2be19e5daed254808342cdc37db407e52218d000000000000000000000000000000000000000000000000016345785d8a0000",
        "nonce": "0x372",
        "chainId": "0x61"
      },
      "additionalContracts": [],
      "isFixedGasLimit": false
    }
  ],
  "receipts": [
    {
      "status": "0x1",
      "cumulativeGasUsed": "0x1dae5",
      "logs": [
        {
          "address": "0x399446395db4bbf02221edda0c03cae714d89eca",
          "topics": [
            "0x43d0c6e87fb4451f8fa42b8d91ca306a62b49d3535b2dba8c09952da149d2ece",
            "0x000000000000000000000000be1e2c05a20df20a3ecd0ec12617b296a58ee2a1",
            "0x000000000000000000000000dae2be19e5daed254808342cdc37db407e52218d"
          ],
          "data": "0x000000000000000000000000000000000000000000000000016345785d8a00000000000000000000000000000000000000000000000000000000000068b2c396",
          "blockHash": "0xbecc3b89acf34f425fdfeb8d380521f9357938d8659cde2d56d722b962af4761",
          "blockNumber": "0x3ca8efb",
          "transactionHash": "0xda659f3eb1891bbc54a810458540bdc7316207db80924918effd0d3ff631d905",
          "transactionIndex": "0x0",
          "logIndex": "0x0",
          "removed": false
        }
      ],
      "logsBloom": "0x80000000000000000000000000000000000000000000000000000800000000000000000000000000000000000000000000000000000000000000000000000000000000000000000000000000000000000080000000000000000000200000000000000000000000000000000000000000000000000000000000000000000000002000000000000000000000000000000000000000000000000000000000000000000000000008000000000000000000000000000000000000000000000000000000000000000000000000040000800000000000008000000000000000000000000000000000000000000000000000000000000000000004000800000000000200",
      "type": "0x0",
      "transactionHash": "0xda659f3eb1891bbc54a810458540bdc7316207db80924918effd0d3ff631d905",
      "transactionIndex": "0x0",
      "blockHash": "0xbecc3b89acf34f425fdfeb8d380521f9357938d8659cde2d56d722b962af4761",
      "blockNumber": "0x3ca8efb",
      "gasUsed": "0x1dae5",
      "effectiveGasPrice": "0x3b9aca00",
      "from": "0xbe1e2c05a20df20a3ecd0ec12617b296a58ee2a1",
      "to": "0x399446395db4bbf02221edda0c03cae714d89eca",
      "contractAddress": null
    }
  ],
  "libraries": [],
  "pending": [],
  "returns": {},
  "timestamp": 1756545944,
  "chain": 97,
  "commit": "07539eb"
}