{
  "transactions": [
    {
      "hash": "0x9927c2f5f6ffa5ea4e991ed54c0048424e2258517e537918e8590d84b14917e7",
      "transactionType": "CALL",
      "contractName": null,
      "contractAddress": "0x560688637904b4073af5c2341d96fdb2bf039cd7",
      "function": "setNodeCardVault(address)",
      "arguments": [
        "0xfB290B4903bad26fe1C2Fb89cf6402529aA61e0c"
      ],
      "transaction": {
        "from": "0xbe1e2c05a20df20a3ecd0ec12617b296a58ee2a1",
        "to": "0x560688637904b4073af5c2341d96fdb2bf039cd7",
        "gas": "0x131b6",
        "value": "0x0",
        "input": "0x53cf10b4000000000000000000000000fb290b4903bad26fe1c2fb89cf6402529aa61e0c",
        "nonce": "0x472",
        "chainId": "0x61"
      },
      "additionalContracts": [],
      "isFixedGasLimit": false
    }
  ],
  "receipts": [
    {
      "status": "0x1",
      "cumulativeGasUsed": "0xd109",
      "logs": [
        {
          "address": "0x560688637904b4073af5c2341d96fdb2bf039cd7",
          "topics": [
            "0xcd4328b6d4cfb17936b0c5c52332e25cd5372d72b2f951781fc7be96518463be",
            "0x000000000000000000000000be1e2c05a20df20a3ecd0ec12617b296a58ee2a1"
          ],
          "data": "0x0000000000000000000000000000000000000000000000000000000000000000000000000000000000000000fb290b4903bad26fe1c2fb89cf6402529aa61e0c0000000000000000000000000000000000000000000000000000000068b9bb4a",
          "blockHash": "0x5f5686ced1c57004d981709dce0bbd100cff508ba1121982a8ec0c62ecbb5074",
          "blockNumber": "0x3d3d4de",
          "transactionHash": "0x9927c2f5f6ffa5ea4e991ed54c0048424e2258517e537918e8590d84b14917e7",
          "transactionIndex": "0x0",
          "logIndex": "0x0",
          "removed": false
        }
      ],
      "logsBloom": "0x00000000000000000000010000000000000000000000000000000000000000000000000000000000000000000000000000000000000000000000000000000000000020000000000000000000000000000004000000000000000000200000000000000000000000000200000000000000000000000000000000000000000000000000000000000000000000000000000000000000000000000000000000000000020000000000000000000000000000000000000000000000000000002000000000000000000000000000040000800000000000000000000000000000000000000000000000000000000000000000000000000000000000000000000000000000",
      "type": "0x0",
      "transactionHash": "0x9927c2f5f6ffa5ea4e991ed54c0048424e2258517e537918e8590d84b14917e7",
      "transactionIndex": "0x0",
      "blockHash": "0x5f5686ced1c57004d981709dce0bbd100cff508ba1121982a8ec0c62ecbb5074",
      "blockNumber": "0x3d3d4de",
      "gasUsed": "0xd109",
      "effectiveGasPrice": "0x3b9aca00",
      "from": "0xbe1e2c05a20df20a3ecd0ec12617b296a58ee2a1",
      "to": "0x560688637904b4073af5c2341d96fdb2bf039cd7",
      "contractAddress": null
    }
  ],
  "libraries": [],
  "pending": [],
  "returns": {},
  "timestamp": 1757002572,
  "chain": 97,
  "commit": "ca50851"
}