{
  "transactions": [
    {
      "hash": "0x3f0b2c6caa91e082bb5e75d42161f2a6918d0a1e7734af38c2ae4bee20dd8a91",
      "transactionType": "CALL",
      "contractName": null,
      "contractAddress": "0xfa59b5895b11517ee64fb0f9dded097f7628afdf",
      "function": "addToken(address,uint256)",
      "arguments": [
        "0xaE49bFCe31392A55eF3332B9a07d0534122327CA",
        "100000000000000000"
      ],
      "transaction": {
        "from": "0xbe1e2c05a20df20a3ecd0ec12617b296a58ee2a1",
        "to": "0xfa59b5895b11517ee64fb0f9dded097f7628afdf",
        "gas": "0x2ab92",
        "value": "0x0",
        "input": "0xaf81c5b9000000000000000000000000ae49bfce31392a55ef3332b9a07d0534122327ca000000000000000000000000000000000000000000000000016345785d8a0000",
        "nonce": "0x40f",
        "chainId": "0x61"
      },
      "additionalContracts": [],
      "isFixedGasLimit": false
    },
    {
      "hash": "0x2d9846c466b49888d991ec05e6dca41fb2deede96ccefe574b314e3f51adaf02",
      "transactionType": "CALL",
      "contractName": null,
      "contractAddress": "0xfa59b5895b11517ee64fb0f9dded097f7628afdf",
      "function": "addToken(address,uint256)",
      "arguments": [
        "0x605754fd56210bdcb5Fa4B05984647641c92bee1",
        "100000000000000000"
      ],
      "transaction": {
        "from": "0xbe1e2c05a20df20a3ecd0ec12617b296a58ee2a1",
        "to": "0xfa59b5895b11517ee64fb0f9dded097f7628afdf",
        "gas": "0x2ab92",
        "value": "0x0",
        "input": "0xaf81c5b9000000000000000000000000605754fd56210bdcb5fa4b05984647641c92bee1000000000000000000000000000000000000000000000000016345785d8a0000",
        "nonce": "0x410",
        "chainId": "0x61"
      },
      "additionalContracts": [],
      "isFixedGasLimit": false
    },
    {
      "hash": "0x297cb41fb57d96123143b727be699e2c1214d0a573dc5e0a8064fb63d7463222",
      "transactionType": "CALL",
      "contractName": null,
      "contractAddress": "0xfa59b5895b11517ee64fb0f9dded097f7628afdf",
      "function": "addPancakeSwapInfos(address,address)",
      "arguments": [
        "0xaE49bFCe31392A55eF3332B9a07d0534122327CA",
        "0x2f158Cd2593fB01774d4F6eD128cD5CdE1e8c886"
      ],
      "transaction": {
        "from": "0xbe1e2c05a20df20a3ecd0ec12617b296a58ee2a1",
        "to": "0xfa59b5895b11517ee64fb0f9dded097f7628afdf",
        "gas": "0x141c9",
        "value": "0x0",
        "input": "0x9aa83a8b000000000000000000000000ae49bfce31392a55ef3332b9a07d0534122327ca0000000000000000000000002f158cd2593fb01774d4f6ed128cd5cde1e8c886",
        "nonce": "0x411",
        "chainId": "0x61"
      },
      "additionalContracts": [],
      "isFixedGasLimit": false
    },
    {
      "hash": "0xc8ad7bce4463f0360d42a3f5300cb34df1157eff534c61b640b89b23694213a5",
      "transactionType": "CALL",
      "contractName": null,
      "contractAddress": "0xfa59b5895b11517ee64fb0f9dded097f7628afdf",
      "function": "addPancakeSwapInfos(address,address)",
      "arguments": [
        "0x2f158Cd2593fB01774d4F6eD128cD5CdE1e8c886",
        "0x605754fd56210bdcb5Fa4B05984647641c92bee1"
      ],
      "transaction": {
        "from": "0xbe1e2c05a20df20a3ecd0ec12617b296a58ee2a1",
        "to": "0xfa59b5895b11517ee64fb0f9dded097f7628afdf",
        "gas": "0x141c9",
        "value": "0x0",
        "input": "0x9aa83a8b0000000000000000000000002f158cd2593fb01774d4f6ed128cd5cde1e8c886000000000000000000000000605754fd56210bdcb5fa4b05984647641c92bee1",
        "nonce": "0x412",
        "chainId": "0x61"
      },
      "additionalContracts": [],
      "isFixedGasLimit": false
    },
    {
      "hash": "0x29806c52d149b556776358c23641105ad66be09fb8f6d8b1cb750be02aba61b1",
      "transactionType": "CALL",
      "contractName": null,
      "contractAddress": "0xfa59b5895b11517ee64fb0f9dded097f7628afdf",
      "function": "setBuyFee(address,bool,uint256)",
      "arguments": [
        "0xaE49bFCe31392A55eF3332B9a07d0534122327CA",
        "true",
        "1000"
      ],
      "transaction": {
        "from": "0xbe1e2c05a20df20a3ecd0ec12617b296a58ee2a1",
        "to": "0xfa59b5895b11517ee64fb0f9dded097f7628afdf",
        "gas": "0x1a586",
        "value": "0x0",
        "input": "0x0cff0607000000000000000000000000ae49bfce31392a55ef3332b9a07d0534122327ca000000000000000000000000000000000000000000000000000000000000000100000000000000000000000000000000000000000000000000000000000003e8",
        "nonce": "0x413",
        "chainId": "0x61"
      },
      "additionalContracts": [],
      "isFixedGasLimit": false
    }
  ],
  "receipts": [
    {
      "status": "0x1",
      "cumulativeGasUsed": "0x1eee5",
      "logs": [
        {
          "address": "0xfa59b5895b11517ee64fb0f9dded097f7628afdf",
          "topics": [
            "0x43d0c6e87fb4451f8fa42b8d91ca306a62b49d3535b2dba8c09952da149d2ece",
            "0x000000000000000000000000be1e2c05a20df20a3ecd0ec12617b296a58ee2a1",
            "0x000000000000000000000000ae49bfce31392a55ef3332b9a07d0534122327ca"
          ],
          "data": "0x000000000000000000000000000000000000000000000000016345785d8a00000000000000000000000000000000000000000000000000000000000068b7f6e8",
          "blockHash": "0x34fa3fde2a01f570f62f9d022d1a04e4747eb5864a72bcdeb38f67d7fac24b2b",
          "blockNumber": "0x3d17ab3",
          "transactionHash": "0x3f0b2c6caa91e082bb5e75d42161f2a6918d0a1e7734af38c2ae4bee20dd8a91",
          "transactionIndex": "0x0",
          "logIndex": "0x0",
          "removed": false
        }
      ],
      "logsBloom": "0x00000000000000000000000000000020000000000000000000000800000000020000000000000000000000000000000000000000000000000000000000000000000000000000000000000000000000000040000000000000000000200000000000000000200000000000000000000000000000000000000000000000040000002000000000000000000000000000000000000000000000000000000000000000000000000000000000000000000000000000000000000000000000000000000000000000000000000000040000800000000000000000000000000000020000000000000000000000000000000000000000000000000004000000000000000000",
      "type": "0x0",
      "transactionHash": "0x3f0b2c6caa91e082bb5e75d42161f2a6918d0a1e7734af38c2ae4bee20dd8a91",
      "transactionIndex": "0x0",
      "blockHash": "0x34fa3fde2a01f570f62f9d022d1a04e4747eb5864a72bcdeb38f67d7fac24b2b",
      "blockNumber": "0x3d17ab3",
      "gasUsed": "0x1eee5",
      "effectiveGasPrice": "0x3b9aca00",
      "from": "0xbe1e2c05a20df20a3ecd0ec12617b296a58ee2a1",
      "to": "0xfa59b5895b11517ee64fb0f9dded097f7628afdf",
      "contractAddress": null
    },
    {
      "status": "0x1",
      "cumulativeGasUsed": "0x1eee5",
      "logs": [
        {
          "address": "0xfa59b5895b11517ee64fb0f9dded097f7628afdf",
          "topics": [
            "0x43d0c6e87fb4451f8fa42b8d91ca306a62b49d3535b2dba8c09952da149d2ece",
            "0x000000000000000000000000be1e2c05a20df20a3ecd0ec12617b296a58ee2a1",
            "0x000000000000000000000000605754fd56210bdcb5fa4b05984647641c92bee1"
          ],
          "data": "0x000000000000000000000000000000000000000000000000016345785d8a00000000000000000000000000000000000000000000000000000000000068b7f6ea",
          "blockHash": "0x7f7f2261650d208edddbf25a777980f9cc3be106855074e066338a443d899b3e",
          "blockNumber": "0x3d17ab5",
          "transactionHash": "0x2d9846c466b49888d991ec05e6dca41fb2deede96ccefe574b314e3f51adaf02",
          "transactionIndex": "0x0",
          "logIndex": "0x0",
          "removed": false
        }
      ],
      "logsBloom": "0x00000000000000000000000000000020000000000000000000000800000000000000000000000000000000000000000000000000000000000000000000000000000000000000000000000000000000000000000000000000000000200000000000020000200000000000000000000000000000000000000000000000000000002000000000000000000000000000000000000000000000000000000000000000000000000000000000000000000000000000000000000000000000000000000000000000000000000000040000800000000000000000000000000000020000000000000000000000000000000002000000000000000004010000000000000000",
      "type": "0x0",
      "transactionHash": "0x2d9846c466b49888d991ec05e6dca41fb2deede96ccefe574b314e3f51adaf02",
      "transactionIndex": "0x0",
      "blockHash": "0x7f7f2261650d208edddbf25a777980f9cc3be106855074e066338a443d899b3e",
      "blockNumber": "0x3d17ab5",
      "gasUsed": "0x1eee5",
      "effectiveGasPrice": "0x3b9aca00",
      "from": "0xbe1e2c05a20df20a3ecd0ec12617b296a58ee2a1",
      "to": "0xfa59b5895b11517ee64fb0f9dded097f7628afdf",
      "contractAddress": null
    },
    {
      "status": "0x1",
      "cumulativeGasUsed": "0xe8f8",
      "logs": [
        {
          "address": "0xfa59b5895b11517ee64fb0f9dded097f7628afdf",
          "topics": [
            "0x74a4ea483a33a7b2599e52a0813e90e82344283e51e490ef3b7dba63defe268c",
            "0x000000000000000000000000be1e2c05a20df20a3ecd0ec12617b296a58ee2a1",
            "0x000000000000000000000000ae49bfce31392a55ef3332b9a07d0534122327ca"
          ],
          "data": "0x0000000000000000000000002f158cd2593fb01774d4f6ed128cd5cde1e8c8860000000000000000000000000000000000000000000000000000000068b7f6ec",
          "blockHash": "0x7b7f42d5284a12530c1edfe05f68545d765f5addc891bcdd5b45735939ee6f08",
          "blockNumber": "0x3d17ab8",
          "transactionHash": "0x297cb41fb57d96123143b727be699e2c1214d0a573dc5e0a8064fb63d7463222",
          "transactionIndex": "0x0",
          "logIndex": "0x0",
          "removed": false
        }
      ],
      "logsBloom": "0x00000000000000000000000000000020000000000000000000000000000000020000000000000000000000004000000000000000000000000000000000000000000000000000000000000000000000000040000000000000000000200000000000000000200000000000000001000000000000000000000000000000040000000000000008000000000000000000000000000000000000000000000000000000000000000000000000000000000000000000000000000000000000000000000000000000000000000000040000800000000000000000000000000000020000000000000000000000000000000000000000000000000000000000000000000000",
      "type": "0x0",
      "transactionHash": "0x297cb41fb57d96123143b727be699e2c1214d0a573dc5e0a8064fb63d7463222",
      "transactionIndex": "0x0",
      "blockHash": "0x7b7f42d5284a12530c1edfe05f68545d765f5addc891bcdd5b45735939ee6f08",
      "blockNumber": "0x3d17ab8",
      "gasUsed": "0xe8f8",
      "effectiveGasPrice": "0x3b9aca00",
      "from": "0xbe1e2c05a20df20a3ecd0ec12617b296a58ee2a1",
      "to": "0xfa59b5895b11517ee64fb0f9dded097f7628afdf",
      "contractAddress": null
    },
    {
      "status": "0x1",
      "cumulativeGasUsed": "0xe8f8",
      "logs": [
        {
          "address": "0xfa59b5895b11517ee64fb0f9dded097f7628afdf",
          "topics": [
            "0x74a4ea483a33a7b2599e52a0813e90e82344283e51e490ef3b7dba63defe268c",
            "0x000000000000000000000000be1e2c05a20df20a3ecd0ec12617b296a58ee2a1",
            "0x0000000000000000000000002f158cd2593fb01774d4f6ed128cd5cde1e8c886"
          ],
          "data": "0x000000000000000000000000605754fd56210bdcb5fa4b05984647641c92bee10000000000000000000000000000000000000000000000000000000068b7f6ed",
          "blockHash": "0x8c2a517edb3b2e0a45822e5e9aadab00ae0f0d10af6bc81d18e18ae9ecbe93f6",
          "blockNumber": "0x3d17aba",
          "transactionHash": "0xc8ad7bce4463f0360d42a3f5300cb34df1157eff534c61b640b89b23694213a5",
          "transactionIndex": "0x0",
          "logIndex": "0x0",
          "removed": false
        }
      ],
      "logsBloom": "0x00000002000000000000000000000020000000000010000000000000000000000000000000000000000000004000000000000000000000000000000000000000000000000000000000000000000000000000000000000000000000200000000000000000200000000000000801000000000000000000000000000000000000000000000008000000000000000000000000000000000000000000000000000000000000000000000000000000000000000000000000000000000000000000000000000000000000000000040000800000000000000000000000000000020000000000000000000000000000000000000000000000000000000000000000000000",
      "type": "0x0",
      "transactionHash": "0xc8ad7bce4463f0360d42a3f5300cb34df1157eff534c61b640b89b23694213a5",
      "transactionIndex": "0x0",
      "blockHash": "0x8c2a517edb3b2e0a45822e5e9aadab00ae0f0d10af6bc81d18e18ae9ecbe93f6",
      "blockNumber": "0x3d17aba",
      "gasUsed": "0xe8f8",
      "effectiveGasPrice": "0x3b9aca00",
      "from": "0xbe1e2c05a20df20a3ecd0ec12617b296a58ee2a1",
      "to": "0xfa59b5895b11517ee64fb0f9dded097f7628afdf",
      "contractAddress": null
    },
    {
      "status": "0x1",
      "cumulativeGasUsed": "0x1312e",
      "logs": [
        {
          "address": "0xfa59b5895b11517ee64fb0f9dded097f7628afdf",
          "topics": [
            "0x3df5b631720297a6fa4bad6fd6787b1aef91129d4d1aaadc7e3fc06d32351c3a",
            "0x000000000000000000000000be1e2c05a20df20a3ecd0ec12617b296a58ee2a1",
            "0x000000000000000000000000ae49bfce31392a55ef3332b9a07d0534122327ca"
          ],
          "data": "0x000000000000000000000000000000000000000000000000000000000000000100000000000000000000000000000000000000000000000000000000000003e80000000000000000000000000000000000000000000000000000000068b7f6f0",
          "blockHash": "0xbd707cbda042d35f5408e913043f06a7ab2e387f5740fb973eb4b55b025608b4",
          "blockNumber": "0x3d17abd",
          "transactionHash": "0x29806c52d149b556776358c23641105ad66be09fb8f6d8b1cb750be02aba61b1",
          "transactionIndex": "0x0",
          "logIndex": "0x0",
          "removed": false
        }
      ],
      "logsBloom": "0x00000000000000000000000000000020000000000000000000000000000000020000000000000000000000000000000000000000000000000000000000000000000000000040000000000000000000000040000000000000000000200000000000000000200000000000000000000000000000000000000000000000040000000000000000000000000000000000000000000000000000000000000000000000000000000000000000000000000000000000000000000000000000001000000000000000000000000000040000800000000000000000000000000000020000000000000000000000000000000000200000000000000000000000000000000000",
      "type": "0x0",
      "transactionHash": "0x29806c52d149b556776358c23641105ad66be09fb8f6d8b1cb750be02aba61b1",
      "transactionIndex": "0x0",
      "blockHash": "0xbd707cbda042d35f5408e913043f06a7ab2e387f5740fb973eb4b55b025608b4",
      "blockNumber": "0x3d17abd",
      "gasUsed": "0x1312e",
      "effectiveGasPrice": "0x3b9aca00",
      "from": "0xbe1e2c05a20df20a3ecd0ec12617b296a58ee2a1",
      "to": "0xfa59b5895b11517ee64fb0f9dded097f7628afdf",
      "contractAddress": null
    }
  ],
  "libraries": [],
  "pending": [],
  "returns": {},
  "timestamp": 1756886769,
  "chain": 97,
  "commit": "9bc0fbb"
}