{
  "transactions": [
    {
      "hash": "0x5ca6bd3fc8b91ac676a3c69c791631af237157c41a491fb65e263560b6b6e80e",
      "transactionType": "CALL",
      "contractName": null,
      "contractAddress": "0x97228ebd94139b563d9f0330587a64fa27785305",
      "function": "addPancakeSwapInfos(address,address)",
      "arguments": [
        "0xaE49bFCe31392A55eF3332B9a07d0534122327CA",
        "0x4974c8b392F979Da0fB9267e27083126fCf85EaD"
      ],
      "transaction": {
        "from": "0xbe1e2c05a20df20a3ecd0ec12617b296a58ee2a1",
        "to": "0x97228ebd94139b563d9f0330587a64fa27785305",
        "gas": "0x14113",
        "value": "0x0",
        "input": "0x9aa83a8b000000000000000000000000ae49bfce31392a55ef3332b9a07d0534122327ca0000000000000000000000004974c8b392f979da0fb9267e27083126fcf85ead",
        "nonce": "0x39c",
        "chainId": "0x61"
      },
      "additionalContracts": [],
      "isFixedGasLimit": false
    },
    {
      "hash": "0xbb6f0d166779cfb4e9f490e6b32b9e7d651eab79d78175f45bd7d184c4913583",
      "transactionType": "CALL",
      "contractName": null,
      "contractAddress": "0x97228ebd94139b563d9f0330587a64fa27785305",
      "function": "addPancakeSwapInfos(address,address)",
      "arguments": [
        "0x4974c8b392F979Da0fB9267e27083126fCf85EaD",
        "0x9c1a659C76ce8fCf26aDC2266FC0FEE6f6728285"
      ],
      "transaction": {
        "from": "0xbe1e2c05a20df20a3ecd0ec12617b296a58ee2a1",
        "to": "0x97228ebd94139b563d9f0330587a64fa27785305",
        "gas": "0x14113",
        "value": "0x0",
        "input": "0x9aa83a8b0000000000000000000000004974c8b392f979da0fb9267e27083126fcf85ead0000000000000000000000009c1a659c76ce8fcf26adc2266fc0fee6f6728285",
        "nonce": "0x39d",
        "chainId": "0x61"
      },
      "additionalContracts": [],
      "isFixedGasLimit": false
    },
    {
      "hash": "0xf1d2e8731bc4db8f2abbd04f12b5c19b952356f8f3ba9303d9981d30b6c33ca9",
      "transactionType": "CALL",
      "contractName": null,
      "contractAddress": "0x97228ebd94139b563d9f0330587a64fa27785305",
      "function": "setBuyFee(address,bool,uint256)",
      "arguments": [
        "0xaE49bFCe31392A55eF3332B9a07d0534122327CA",
        "true",
        "1000"
      ],
      "transaction": {
        "from": "0xbe1e2c05a20df20a3ecd0ec12617b296a58ee2a1",
        "to": "0x97228ebd94139b563d9f0330587a64fa27785305",
        "gas": "0x1989d",
        "value": "0x0",
        "input": "0x0cff0607000000000000000000000000ae49bfce31392a55ef3332b9a07d0534122327ca000000000000000000000000000000000000000000000000000000000000000100000000000000000000000000000000000000000000000000000000000003e8",
        "nonce": "0x39e",
        "chainId": "0x61"
      },
      "additionalContracts": [],
      "isFixedGasLimit": false
    }
  ],
  "receipts": [
    {
      "status": "0x1",
      "cumulativeGasUsed": "0x37bd9",
      "logs": [
        {
          "address": "0x97228ebd94139b563d9f0330587a64fa27785305",
          "topics": [
            "0x74a4ea483a33a7b2599e52a0813e90e82344283e51e490ef3b7dba63defe268c",
            "0x000000000000000000000000be1e2c05a20df20a3ecd0ec12617b296a58ee2a1",
            "0x000000000000000000000000ae49bfce31392a55ef3332b9a07d0534122327ca"
          ],
          "data": "0x0000000000000000000000004974c8b392f979da0fb9267e27083126fcf85ead0000000000000000000000000000000000000000000000000000000068b52c24",
          "blockHash": "0x8822b44ad765172d3f31f852512241db84453c68da36643aa47f0934ec218af2",
          "blockNumber": "0x3cdc35a",
          "transactionHash": "0x5ca6bd3fc8b91ac676a3c69c791631af237157c41a491fb65e263560b6b6e80e",
          "transactionIndex": "0x1",
          "logIndex": "0x1",
          "removed": false
        }
      ],
      "logsBloom": "0x00000000000000000000000000000000000000000000000000000000000004020000000000000000000000004000000020000000000000000000000000000000000000000000000000000000000000000040000000000000000000200000000000000000000000000000000001000000000000000000000000000000040000000000000008400000000000000000000000000000000000000000000000000000000000000000000000000000000000000000000000000000000000000000000000000000000000000000040000800000000000000000000000000000000000000000000000000000000000000000000000000000000000000000000000000000",
      "type": "0x0",
      "transactionHash": "0x5ca6bd3fc8b91ac676a3c69c791631af237157c41a491fb65e263560b6b6e80e",
      "transactionIndex": "0x1",
      "blockHash": "0x8822b44ad765172d3f31f852512241db84453c68da36643aa47f0934ec218af2",
      "blockNumber": "0x3cdc35a",
      "gasUsed": "0xe874",
      "effectiveGasPrice": "0x3b9aca00",
      "from": "0xbe1e2c05a20df20a3ecd0ec12617b296a58ee2a1",
      "to": "0x97228ebd94139b563d9f0330587a64fa27785305",
      "contractAddress": null
    },
    {
      "status": "0x1",
      "cumulativeGasUsed": "0x18c84",
      "logs": [
        {
          "address": "0x97228ebd94139b563d9f0330587a64fa27785305",
          "topics": [
            "0x74a4ea483a33a7b2599e52a0813e90e82344283e51e490ef3b7dba63defe268c",
            "0x000000000000000000000000be1e2c05a20df20a3ecd0ec12617b296a58ee2a1",
            "0x0000000000000000000000004974c8b392f979da0fb9267e27083126fcf85ead"
          ],
          "data": "0x0000000000000000000000009c1a659c76ce8fcf26adc2266fc0fee6f67282850000000000000000000000000000000000000000000000000000000068b52c27",
          "blockHash": "0x5c7bcee8da56168dfaad6a7c5160043e411572987f674ebbb3d53c80bb18fe95",
          "blockNumber": "0x3cdc35d",
          "transactionHash": "0xbb6f0d166779cfb4e9f490e6b32b9e7d651eab79d78175f45bd7d184c4913583",
          "transactionIndex": "0x2",
          "logIndex": "0x0",
          "removed": false
        }
      ],
      "logsBloom": "0x00000000000000000000000000000000080000000000000000000000000004000000000000000000000000004000000020000000000000000000000000000000000000000000000000000000000000000000000000000000000000200000000000000000000000000000000001000000000000000000000000000000000000000000000008400000000000000000020000000000000000000000000000000000000000000000000000000000000000000000000000000000000000000000000000000000000000000000040000800000000000000000000000000000000000000000000000000000000000000000000000000000000000000000800000000000",
      "type": "0x0",
      "transactionHash": "0xbb6f0d166779cfb4e9f490e6b32b9e7d651eab79d78175f45bd7d184c4913583",
      "transactionIndex": "0x2",
      "blockHash": "0x5c7bcee8da56168dfaad6a7c5160043e411572987f674ebbb3d53c80bb18fe95",
      "blockNumber": "0x3cdc35d",
      "gasUsed": "0xe874",
      "effectiveGasPrice": "0x3b9aca00",
      "from": "0xbe1e2c05a20df20a3ecd0ec12617b296a58ee2a1",
      "to": "0x97228ebd94139b563d9f0330587a64fa27785305",
      "contractAddress": null
    },
    {
      "status": "0x1",
      "cumulativeGasUsed": "0x127d5",
      "logs": [],
      "logsBloom": "0x00000000000000000000000000000000000000000000000000000000000000000000000000000000000000000000000000000000000000000000000000000000000000000000000000000000000000000000000000000000000000000000000000000000000000000000000000000000000000000000000000000000000000000000000000000000000000000000000000000000000000000000000000000000000000000000000000000000000000000000000000000000000000000000000000000000000000000000000000000000000000000000000000000000000000000000000000000000000000000000000000000000000000000000000000000000",
      "type": "0x0",
      "transactionHash": "0xf1d2e8731bc4db8f2abbd04f12b5c19b952356f8f3ba9303d9981d30b6c33ca9",
      "transactionIndex": "0x0",
      "blockHash": "0x717653be0279f222ededcbac20a7c4f20d59c43bfb28e4b1ce85b89cbc7a4c16",
      "blockNumber": "0x3cdc35f",
      "gasUsed": "0x127d5",
      "effectiveGasPrice": "0x3b9aca00",
      "from": "0xbe1e2c05a20df20a3ecd0ec12617b296a58ee2a1",
      "to": "0x97228ebd94139b563d9f0330587a64fa27785305",
      "contractAddress": null
    }
  ],
  "libraries": [],
  "pending": [],
  "returns": {},
  "timestamp": 1756703786,
  "chain": 97,
  "commit": "93b7afb"
}