{
  "transactions": [
    {
      "hash": "0x40e4d6eab883e17bd327e63a85ff3472d1da34654bd8cc0e51da0f6b84fce1a2",
      "transactionType": "CALL",
      "contractName": null,
      "contractAddress": "0x560688637904b4073af5c2341d96fdb2bf039cd7",
      "function": "addToken(address,uint256)",
      "arguments": [
        "0xaE49bFCe31392A55eF3332B9a07d0534122327CA",
        "100000000000000000"
      ],
      "transaction": {
        "from": "0xbe1e2c05a20df20a3ecd0ec12617b296a58ee2a1",
        "to": "0x560688637904b4073af5c2341d96fdb2bf039cd7",
        "gas": "0x2abed",
        "value": "0x0",
        "input": "0xaf81c5b9000000000000000000000000ae49bfce31392a55ef3332b9a07d0534122327ca000000000000000000000000000000000000000000000000016345785d8a0000",
        "nonce": "0x45d",
        "chainId": "0x61"
      },
      "additionalContracts": [],
      "isFixedGasLimit": false
    },
    {
      "hash": "0x1903e36c6f372f6653103c14ec9997f8634fd89d07a7afc1ebac69daa93d7b2a",
      "transactionType": "CALL",
      "contractName": null,
      "contractAddress": "0x560688637904b4073af5c2341d96fdb2bf039cd7",
      "function": "addToken(address,uint256)",
      "arguments": [
        "0x5EB1344aC5b1df370292EF0b255678d0C550b924",
        "100000000000000000"
      ],
      "transaction": {
        "from": "0xbe1e2c05a20df20a3ecd0ec12617b296a58ee2a1",
        "to": "0x560688637904b4073af5c2341d96fdb2bf039cd7",
        "gas": "0x2abed",
        "value": "0x0",
        "input": "0xaf81c5b90000000000000000000000005eb1344ac5b1df370292ef0b255678d0c550b924000000000000000000000000000000000000000000000000016345785d8a0000",
        "nonce": "0x45e",
        "chainId": "0x61"
      },
      "additionalContracts": [],
      "isFixedGasLimit": false
    }
  ],
  "receipts": [
    {
      "status": "0x1",
      "cumulativeGasUsed": "0x1ef27",
      "logs": [
        {
          "address": "0x560688637904b4073af5c2341d96fdb2bf039cd7",
          "topics": [
            "0x43d0c6e87fb4451f8fa42b8d91ca306a62b49d3535b2dba8c09952da149d2ece",
            "0x000000000000000000000000be1e2c05a20df20a3ecd0ec12617b296a58ee2a1",
            "0x000000000000000000000000ae49bfce31392a55ef3332b9a07d0534122327ca"
          ],
          "data": "0x000000000000000000000000000000000000000000000000016345785d8a00000000000000000000000000000000000000000000000000000000000068b96641",
          "blockHash": "0x289026a24eecdbc070fe64df2e2b04c0dc1d6c3774c762a49b42b35905a894b9",
          "blockNumber": "0x3d363ab",
          "transactionHash": "0x40e4d6eab883e17bd327e63a85ff3472d1da34654bd8cc0e51da0f6b84fce1a2",
          "transactionIndex": "0x0",
          "logIndex": "0x0",
          "removed": false
        }
      ],
      "logsBloom": "0x00000000000000000000000000000000000000000000000000000800000000020000000000000000000000000000000000000000000000000000000000000000000020000000000000000000000000000040000000000000000000200000000000000000000000000200000000000000000000000000000000000000040000002000000000000000000000000000000000000000000000000000000000000000020000000000000000000000000000000000000000000000000000000000000000000000000000000000040000800000000000000000000000000000000000000000000000000000000000000000000000000000000004000000000000000000",
      "type": "0x0",
      "transactionHash": "0x40e4d6eab883e17bd327e63a85ff3472d1da34654bd8cc0e51da0f6b84fce1a2",
      "transactionIndex": "0x0",
      "blockHash": "0x289026a24eecdbc070fe64df2e2b04c0dc1d6c3774c762a49b42b35905a894b9",
      "blockNumber": "0x3d363ab",
      "gasUsed": "0x1ef27",
      "effectiveGasPrice": "0x3b9aca00",
      "from": "0xbe1e2c05a20df20a3ecd0ec12617b296a58ee2a1",
      "to": "0x560688637904b4073af5c2341d96fdb2bf039cd7",
      "contractAddress": null
    },
    {
      "status": "0x1",
      "cumulativeGasUsed": "0x1ef27",
      "logs": [
        {
          "address": "0x560688637904b4073af5c2341d96fdb2bf039cd7",
          "topics": [
            "0x43d0c6e87fb4451f8fa42b8d91ca306a62b49d3535b2dba8c09952da149d2ece",
            "0x000000000000000000000000be1e2c05a20df20a3ecd0ec12617b296a58ee2a1",
            "0x0000000000000000000000005eb1344ac5b1df370292ef0b255678d0c550b924"
          ],
          "data": "0x000000000000000000000000000000000000000000000000016345785d8a00000000000000000000000000000000000000000000000000000000000068b96643",
          "blockHash": "0x17976e5ddcde384fd18d1dcd8312be910d15b94344edbb2f8d577afd0ef07b44",
          "blockNumber": "0x3d363ad",
          "transactionHash": "0x1903e36c6f372f6653103c14ec9997f8634fd89d07a7afc1ebac69daa93d7b2a",
          "transactionIndex": "0x0",
          "logIndex": "0x0",
          "removed": false
        }
      ],
      "logsBloom": "0x00000000200000000000000000000000000000000000000000000800000000000000000000000000000000000000000000000000000000000000000000000000000020000000000000000000000000000000000000000000000000200000000000000000000000000200000000000000000000000000000000000000000040002000000000000000000000000000000000000000000000000000000000000000020000000000000000000000000000000000000000000000000000000000000000000000000000000000040000800000000000000000000000000000000000000000000000000000000000000000000000020000000004000000000000000000",
      "type": "0x0",
      "transactionHash": "0x1903e36c6f372f6653103c14ec9997f8634fd89d07a7afc1ebac69daa93d7b2a",
      "transactionIndex": "0x0",
      "blockHash": "0x17976e5ddcde384fd18d1dcd8312be910d15b94344edbb2f8d577afd0ef07b44",
      "blockNumber": "0x3d363ad",
      "gasUsed": "0x1ef27",
      "effectiveGasPrice": "0x3b9aca00",
      "from": "0xbe1e2c05a20df20a3ecd0ec12617b296a58ee2a1",
      "to": "0x560688637904b4073af5c2341d96fdb2bf039cd7",
      "contractAddress": null
    }
  ],
  "libraries": [],
  "pending": [],
  "returns": {},
  "timestamp": 1756980804,
  "chain": 97,
  "commit": "ae095ca"
}