{
  "transactions": [
    {
      "hash": "0x520873e2fd0f043a29585523dd89d1cdc2c2128d60c2a791eba2afb10866f1e2",
      "transactionType": "CALL",
      "contractName": null,
      "contractAddress": "0x97228ebd94139b563d9f0330587a64fa27785305",
      "function": "addPancakeSwapInfos(address,address)",
      "arguments": [
        "0xaE49bFCe31392A55eF3332B9a07d0534122327CA",
        "0x4974c8b392F979Da0fB9267e27083126fCf85EaD"
      ],
      "transaction": {
        "from": "0xbe1e2c05a20df20a3ecd0ec12617b296a58ee2a1",
        "to": "0x97228ebd94139b563d9f0330587a64fa27785305",
        "gas": "0xc323",
        "value": "0x0",
        "input": "0x9aa83a8b000000000000000000000000ae49bfce31392a55ef3332b9a07d0534122327ca0000000000000000000000004974c8b392f979da0fb9267e27083126fcf85ead",
        "nonce": "0x3a2",
        "chainId": "0x61"
      },
      "additionalContracts": [],
      "isFixedGasLimit": false
    },
    {
      "hash": "0x76cc7653de077d130646f6b4bc20ef9a61ece93e11667ca26a645bd1d8ba0f68",
      "transactionType": "CALL",
      "contractName": null,
      "contractAddress": "0x97228ebd94139b563d9f0330587a64fa27785305",
      "function": "addPancakeSwapInfos(address,address)",
      "arguments": [
        "0x4974c8b392F979Da0fB9267e27083126fCf85EaD",
        "0x9c1a659C76ce8fCf26aDC2266FC0FEE6f6728285"
      ],
      "transaction": {
        "from": "0xbe1e2c05a20df20a3ecd0ec12617b296a58ee2a1",
        "to": "0x97228ebd94139b563d9f0330587a64fa27785305",
        "gas": "0xd5b3",
        "value": "0x0",
        "input": "0x9aa83a8b0000000000000000000000004974c8b392f979da0fb9267e27083126fcf85ead0000000000000000000000009c1a659c76ce8fcf26adc2266fc0fee6f6728285",
        "nonce": "0x3a3",
        "chainId": "0x61"
      },
      "additionalContracts": [],
      "isFixedGasLimit": false
    },
    {
      "hash": "0x4b0291309a347e326dd752252d3ad1053205bba549e2b8beb737c645b8fc20af",
      "transactionType": "CALL",
      "contractName": null,
      "contractAddress": "0x97228ebd94139b563d9f0330587a64fa27785305",
      "function": "setBuyFee(address,bool,uint256)",
      "arguments": [
        "0xaE49bFCe31392A55eF3332B9a07d0534122327CA",
        "true",
        "1000"
      ],
      "transaction": {
        "from": "0xbe1e2c05a20df20a3ecd0ec12617b296a58ee2a1",
        "to": "0x97228ebd94139b563d9f0330587a64fa27785305",
        "gas": "0x1989d",
        "value": "0x0",
        "input": "0x0cff0607000000000000000000000000ae49bfce31392a55ef3332b9a07d0534122327ca000000000000000000000000000000000000000000000000000000000000000100000000000000000000000000000000000000000000000000000000000003e8",
        "nonce": "0x3a4",
        "chainId": "0x61"
      },
      "additionalContracts": [],
      "isFixedGasLimit": false
    }
  ],
  "receipts": [
    {
      "status": "0x1",
      "cumulativeGasUsed": "0x8d47",
      "logs": [
        {
          "address": "0x97228ebd94139b563d9f0330587a64fa27785305",
          "topics": [
            "0x74a4ea483a33a7b2599e52a0813e90e82344283e51e490ef3b7dba63defe268c",
            "0x000000000000000000000000be1e2c05a20df20a3ecd0ec12617b296a58ee2a1",
            "0x000000000000000000000000ae49bfce31392a55ef3332b9a07d0534122327ca"
          ],
          "data": "0x0000000000000000000000004974c8b392f979da0fb9267e27083126fcf85ead0000000000000000000000000000000000000000000000000000000068b53c0e",
          "blockHash": "0xebbfd6a5823407f3f33cdf02b4559daea7e884dcf7eb5a8c9ae7b57b577620ef",
          "blockNumber": "0x3cdd889",
          "transactionHash": "0x520873e2fd0f043a29585523dd89d1cdc2c2128d60c2a791eba2afb10866f1e2",
          "transactionIndex": "0x0",
          "logIndex": "0x0",
          "removed": false
        }
      ],
      "logsBloom": "0x00000000000000000000000000000000000000000000000000000000000004020000000000000000000000004000000020000000000000000000000000000000000000000000000000000000000000000040000000000000000000200000000000000000000000000000000001000000000000000000000000000000040000000000000008400000000000000000000000000000000000000000000000000000000000000000000000000000000000000000000000000000000000000000000000000000000000000000040000800000000000000000000000000000000000000000000000000000000000000000000000000000000000000000000000000000",
      "type": "0x0",
      "transactionHash": "0x520873e2fd0f043a29585523dd89d1cdc2c2128d60c2a791eba2afb10866f1e2",
      "transactionIndex": "0x0",
      "blockHash": "0xebbfd6a5823407f3f33cdf02b4559daea7e884dcf7eb5a8c9ae7b57b577620ef",
      "blockNumber": "0x3cdd889",
      "gasUsed": "0x8d47",
      "effectiveGasPrice": "0x3b9aca00",
      "from": "0xbe1e2c05a20df20a3ecd0ec12617b296a58ee2a1",
      "to": "0x97228ebd94139b563d9f0330587a64fa27785305",
      "contractAddress": null
    },
    {
      "status": "0x1",
      "cumulativeGasUsed": "0x172f6",
      "logs": [
        {
          "address": "0x97228ebd94139b563d9f0330587a64fa27785305",
          "topics": [
            "0x74a4ea483a33a7b2599e52a0813e90e82344283e51e490ef3b7dba63defe268c",
            "0x000000000000000000000000be1e2c05a20df20a3ecd0ec12617b296a58ee2a1",
            "0x0000000000000000000000004974c8b392f979da0fb9267e27083126fcf85ead"
          ],
          "data": "0x0000000000000000000000009c1a659c76ce8fcf26adc2266fc0fee6f67282850000000000000000000000000000000000000000000000000000000068b53c10",
          "blockHash": "0x1561ffbf8c504333965471dea4c2b5f33dcdb1a37a690f22a9053207a94b800e",
          "blockNumber": "0x3cdd88b",
          "transactionHash": "0x76cc7653de077d130646f6b4bc20ef9a61ece93e11667ca26a645bd1d8ba0f68",
          "transactionIndex": "0x2",
          "logIndex": "0x2",
          "removed": false
        }
      ],
      "logsBloom": "0x00000000000000000000000000000000080000000000000000000000000004000000000000000000000000004000000020000000000000000000000000000000000000000000000000000000000000000000000000000000000000200000000000000000000000000000000001000000000000000000000000000000000000000000000008400000000000000000020000000000000000000000000000000000000000000000000000000000000000000000000000000000000000000000000000000000000000000000040000800000000000000000000000000000000000000000000000000000000000000000000000000000000000000000800000000000",
      "type": "0x0",
      "transactionHash": "0x76cc7653de077d130646f6b4bc20ef9a61ece93e11667ca26a645bd1d8ba0f68",
      "transactionIndex": "0x2",
      "blockHash": "0x1561ffbf8c504333965471dea4c2b5f33dcdb1a37a690f22a9053207a94b800e",
      "blockNumber": "0x3cdd88b",
      "gasUsed": "0x9ab8",
      "effectiveGasPrice": "0x3b9aca00",
      "from": "0xbe1e2c05a20df20a3ecd0ec12617b296a58ee2a1",
      "to": "0x97228ebd94139b563d9f0330587a64fa27785305",
      "contractAddress": null
    },
    {
      "status": "0x1",
      "cumulativeGasUsed": "0x20013",
      "logs": [],
      "logsBloom": "0x00000000000000000000000000000000000000000000000000000000000000000000000000000000000000000000000000000000000000000000000000000000000000000000000000000000000000000000000000000000000000000000000000000000000000000000000000000000000000000000000000000000000000000000000000000000000000000000000000000000000000000000000000000000000000000000000000000000000000000000000000000000000000000000000000000000000000000000000000000000000000000000000000000000000000000000000000000000000000000000000000000000000000000000000000000000",
      "type": "0x0",
      "transactionHash": "0x4b0291309a347e326dd752252d3ad1053205bba549e2b8beb737c645b8fc20af",
      "transactionIndex": "0x2",
      "blockHash": "0x37cdd06438db1c744856126acf78f94cd3d614f7de041f6cd6c6e422e5656600",
      "blockNumber": "0x3cdd88e",
      "gasUsed": "0x127d5",
      "effectiveGasPrice": "0x3b9aca00",
      "from": "0xbe1e2c05a20df20a3ecd0ec12617b296a58ee2a1",
      "to": "0x97228ebd94139b563d9f0330587a64fa27785305",
      "contractAddress": null
    }
  ],
  "libraries": [],
  "pending": [],
  "returns": {},
  "timestamp": 1756707859,
  "chain": 97,
  "commit": "6bcc466"
}