{
  "transactions": [
    {
      "hash": "0x41e8f74c21a90dd4cc3b0a884ddccb4de545da551b2b73340191acb6df55a30f",
      "transactionType": "CALL",
      "contractName": null,
      "contractAddress": "0x6f9756d1200cc1910ba3452b90596e1b6467d6dd",
      "function": "addToken(address,uint256)",
      "arguments": [
        "0xaE49bFCe31392A55eF3332B9a07d0534122327CA",
        "100000000000000000"
      ],
      "transaction": {
        "from": "0xbe1e2c05a20df20a3ecd0ec12617b296a58ee2a1",
        "to": "0x6f9756d1200cc1910ba3452b90596e1b6467d6dd",
        "gas": "0x2abed",
        "value": "0x0",
        "input": "0xaf81c5b9000000000000000000000000ae49bfce31392a55ef3332b9a07d0534122327ca000000000000000000000000000000000000000000000000016345785d8a0000",
        "nonce": "0x49e",
        "chainId": "0x61"
      },
      "additionalContracts": [],
      "isFixedGasLimit": false
    },
    {
      "hash": "0x89b7f1784c97e2d7b8ec1e974b05ca5b2704d596534b6788546339cef28679c3",
      "transactionType": "CALL",
      "contractName": null,
      "contractAddress": "0x6f9756d1200cc1910ba3452b90596e1b6467d6dd",
      "function": "addToken(address,uint256)",
      "arguments": [
        "0xC81cD7F8588c2614c4eDD94d076f47BB94b9e584",
        "100000000000000000"
      ],
      "transaction": {
        "from": "0xbe1e2c05a20df20a3ecd0ec12617b296a58ee2a1",
        "to": "0x6f9756d1200cc1910ba3452b90596e1b6467d6dd",
        "gas": "0x2abed",
        "value": "0x0",
        "input": "0xaf81c5b9000000000000000000000000c81cd7f8588c2614c4edd94d076f47bb94b9e584000000000000000000000000000000000000000000000000016345785d8a0000",
        "nonce": "0x49f",
        "chainId": "0x61"
      },
      "additionalContracts": [],
      "isFixedGasLimit": false
    },
    {
      "hash": "0xa355d28056b67e0ab06a6f9591df7d0ed11c2d2d980fbdbf6a1010302b195afb",
      "transactionType": "CALL",
      "contractName": null,
      "contractAddress": "0x6f9756d1200cc1910ba3452b90596e1b6467d6dd",
      "function": "addPancakeSwapInfos(address,address)",
      "arguments": [
        "0xaE49bFCe31392A55eF3332B9a07d0534122327CA",
        "0xA4C53902EB8aeca930A911d2C42B2eAB8a297540"
      ],
      "transaction": {
        "from": "0xbe1e2c05a20df20a3ecd0ec12617b296a58ee2a1",
        "to": "0x6f9756d1200cc1910ba3452b90596e1b6467d6dd",
        "gas": "0x14206",
        "value": "0x0",
        "input": "0x9aa83a8b000000000000000000000000ae49bfce31392a55ef3332b9a07d0534122327ca000000000000000000000000a4c53902eb8aeca930a911d2c42b2eab8a297540",
        "nonce": "0x4a0",
        "chainId": "0x61"
      },
      "additionalContracts": [],
      "isFixedGasLimit": false
    },
    {
      "hash": "0x002b9fd89cc100b9a387c6baeb807308928ad4f55b46a5face113596fd09bddf",
      "transactionType": "CALL",
      "contractName": null,
      "contractAddress": "0x6f9756d1200cc1910ba3452b90596e1b6467d6dd",
      "function": "addPancakeSwapInfos(address,address)",
      "arguments": [
        "0xA4C53902EB8aeca930A911d2C42B2eAB8a297540",
        "0xC81cD7F8588c2614c4eDD94d076f47BB94b9e584"
      ],
      "transaction": {
        "from": "0xbe1e2c05a20df20a3ecd0ec12617b296a58ee2a1",
        "to": "0x6f9756d1200cc1910ba3452b90596e1b6467d6dd",
        "gas": "0x14206",
        "value": "0x0",
        "input": "0x9aa83a8b000000000000000000000000a4c53902eb8aeca930a911d2c42b2eab8a297540000000000000000000000000c81cd7f8588c2614c4edd94d076f47bb94b9e584",
        "nonce": "0x4a1",
        "chainId": "0x61"
      },
      "additionalContracts": [],
      "isFixedGasLimit": false
    },
    {
      "hash": "0x2e60fa2fe71f0543acd0c9ab358dc1533af91367ae2b0227b1fd4d4bf643993f",
      "transactionType": "CALL",
      "contractName": null,
      "contractAddress": "0x6f9756d1200cc1910ba3452b90596e1b6467d6dd",
      "function": "setBuyFee(address,bool,uint256)",
      "arguments": [
        "0xaE49bFCe31392A55eF3332B9a07d0534122327CA",
        "true",
        "1000"
      ],
      "transaction": {
        "from": "0xbe1e2c05a20df20a3ecd0ec12617b296a58ee2a1",
        "to": "0x6f9756d1200cc1910ba3452b90596e1b6467d6dd",
        "gas": "0x1a586",
        "value": "0x0",
        "input": "0x0cff0607000000000000000000000000ae49bfce31392a55ef3332b9a07d0534122327ca000000000000000000000000000000000000000000000000000000000000000100000000000000000000000000000000000000000000000000000000000003e8",
        "nonce": "0x4a2",
        "chainId": "0x61"
      },
      "additionalContracts": [],
      "isFixedGasLimit": false
    },
    {
      "hash": "0x9b95ccff823e4e34463157840c85b516ad2f8920e4d3031d3ecb09e3018e7705",
      "transactionType": "CALL",
      "contractName": null,
      "contractAddress": "0x6f9756d1200cc1910ba3452b90596e1b6467d6dd",
      "function": "setAgt(address)",
      "arguments": [
        "0xC81cD7F8588c2614c4eDD94d076f47BB94b9e584"
      ],
      "transaction": {
        "from": "0xbe1e2c05a20df20a3ecd0ec12617b296a58ee2a1",
        "to": "0x6f9756d1200cc1910ba3452b90596e1b6467d6dd",
        "gas": "0xb68f",
        "value": "0x0",
        "input": "0x723e3a8f000000000000000000000000c81cd7f8588c2614c4edd94d076f47bb94b9e584",
        "nonce": "0x4a3",
        "chainId": "0x61"
      },
      "additionalContracts": [],
      "isFixedGasLimit": false
    },
    {
      "hash": "0xdc4edfd7c203e8f8397f928c2b92617ec06fe63b12c89ef13c511d31e8b090c1",
      "transactionType": "CALL",
      "contractName": null,
      "contractAddress": "0x6f9756d1200cc1910ba3452b90596e1b6467d6dd",
      "function": "setClaimFeePercent(uint256)",
      "arguments": [
        "5000"
      ],
      "transaction": {
        "from": "0xbe1e2c05a20df20a3ecd0ec12617b296a58ee2a1",
        "to": "0x6f9756d1200cc1910ba3452b90596e1b6467d6dd",
        "gas": "0xb77b",
        "value": "0x0",
        "input": "0xa49a176e0000000000000000000000000000000000000000000000000000000000001388",
        "nonce": "0x4a4",
        "chainId": "0x61"
      },
      "additionalContracts": [],
      "isFixedGasLimit": false
    },
    {
      "hash": "0xcc70dea6b839733de78430deb324dec5b64226e4453234b97fc6262ea8178135",
      "transactionType": "CALL",
      "contractName": null,
      "contractAddress": "0x6f9756d1200cc1910ba3452b90596e1b6467d6dd",
      "function": "setNodeCardVault(address)",
      "arguments": [
        "0xfB290B4903bad26fe1C2Fb89cf6402529aA61e0c"
      ],
      "transaction": {
        "from": "0xbe1e2c05a20df20a3ecd0ec12617b296a58ee2a1",
        "to": "0x6f9756d1200cc1910ba3452b90596e1b6467d6dd",
        "gas": "0x131b6",
        "value": "0x0",
        "input": "0x53cf10b4000000000000000000000000fb290b4903bad26fe1c2fb89cf6402529aa61e0c",
        "nonce": "0x4a5",
        "chainId": "0x61"
      },
      "additionalContracts": [],
      "isFixedGasLimit": false
    }
  ],
  "receipts": [
    {
      "status": "0x1",
      "cumulativeGasUsed": "0x1ef27",
      "logs": [
        {
          "address": "0x6f9756d1200cc1910ba3452b90596e1b6467d6dd",
          "topics": [
            "0x43d0c6e87fb4451f8fa42b8d91ca306a62b49d3535b2dba8c09952da149d2ece",
            "0x000000000000000000000000be1e2c05a20df20a3ecd0ec12617b296a58ee2a1",
            "0x000000000000000000000000ae49bfce31392a55ef3332b9a07d0534122327ca"
          ],
          "data": "0x000000000000000000000000000000000000000000000000016345785d8a00000000000000000000000000000000000000000000000000000000000068b9c621",
          "blockHash": "0xa251965ecf94d5140d71303d8e23c3d381bdca1d76643a96d12fd454f8b092e9",
          "blockNumber": "0x3d3e34d",
          "transactionHash": "0x41e8f74c21a90dd4cc3b0a884ddccb4de545da551b2b73340191acb6df55a30f",
          "transactionIndex": "0x0",
          "logIndex": "0x0",
          "removed": false
        }
      ],
      "logsBloom": "0x00000000000000000000000000000000000000000000000000000800000000020000000000000000000000000000000000000000000000000000000000000000000000000000000000000000000000000040000000000000000008200000000000000000000000000000100000000004000000000000000000000000040000002000000000000000000000000000000000000000000000000000000000000000000000000000000000000000000000000000000000000000000000000000000000000000000000000000040000800000000000000000000000000000000000000000000000000000000000000000000000000000000004000000000000000000",
      "type": "0x0",
      "transactionHash": "0x41e8f74c21a90dd4cc3b0a884ddccb4de545da551b2b73340191acb6df55a30f",
      "transactionIndex": "0x0",
      "blockHash": "0xa251965ecf94d5140d71303d8e23c3d381bdca1d76643a96d12fd454f8b092e9",
      "blockNumber": "0x3d3e34d",
      "gasUsed": "0x1ef27",
      "effectiveGasPrice": "0x3b9aca00",
      "from": "0xbe1e2c05a20df20a3ecd0ec12617b296a58ee2a1",
      "to": "0x6f9756d1200cc1910ba3452b90596e1b6467d6dd",
      "contractAddress": null
    },
    {
      "status": "0x1",
      "cumulativeGasUsed": "0x1ef27",
      "logs": [
        {
          "address": "0x6f9756d1200cc1910ba3452b90596e1b6467d6dd",
          "topics": [
            "0x43d0c6e87fb4451f8fa42b8d91ca306a62b49d3535b2dba8c09952da149d2ece",
            "0x000000000000000000000000be1e2c05a20df20a3ecd0ec12617b296a58ee2a1",
            "0x000000000000000000000000c81cd7f8588c2614c4edd94d076f47bb94b9e584"
          ],
          "data": "0x000000000000000000000000000000000000000000000000016345785d8a00000000000000000000000000000000000000000000000000000000000068b9c622",
          "blockHash": "0xa3b0426169c39592ce2ff6ae8d4f3e7aa52d5fa7453e45a29bf14bbd39bb082d",
          "blockNumber": "0x3d3e34f",
          "transactionHash": "0x89b7f1784c97e2d7b8ec1e974b05ca5b2704d596534b6788546339cef28679c3",
          "transactionIndex": "0x0",
          "logIndex": "0x0",
          "removed": false
        }
      ],
      "logsBloom": "0x00000000000000000000000000000000000000000000000000000800000000000000000000000000000000000000000000000000000000000000000000000000000000000000000000000000000000000000000000000000080008200000000000000000000000000000100000000004000000000000000000000000000000002000000000000000000000000000000000000000000000000000000000000000000000000000000000000000000000000000000000000000000000004000000000000000000000000000040000800000000000000000000000000000000000000000000000000000000000000000002000000000000004000000000000000000",
      "type": "0x0",
      "transactionHash": "0x89b7f1784c97e2d7b8ec1e974b05ca5b2704d596534b6788546339cef28679c3",
      "transactionIndex": "0x0",
      "blockHash": "0xa3b0426169c39592ce2ff6ae8d4f3e7aa52d5fa7453e45a29bf14bbd39bb082d",
      "blockNumber": "0x3d3e34f",
      "gasUsed": "0x1ef27",
      "effectiveGasPrice": "0x3b9aca00",
      "from": "0xbe1e2c05a20df20a3ecd0ec12617b296a58ee2a1",
      "to": "0x6f9756d1200cc1910ba3452b90596e1b6467d6dd",
      "contractAddress": null
    },
    {
      "status": "0x1",
      "cumulativeGasUsed": "0xe924",
      "logs": [
        {
          "address": "0x6f9756d1200cc1910ba3452b90596e1b6467d6dd",
          "topics": [
            "0x74a4ea483a33a7b2599e52a0813e90e82344283e51e490ef3b7dba63defe268c",
            "0x000000000000000000000000be1e2c05a20df20a3ecd0ec12617b296a58ee2a1",
            "0x000000000000000000000000ae49bfce31392a55ef3332b9a07d0534122327ca"
          ],
          "data": "0x000000000000000000000000a4c53902eb8aeca930a911d2c42b2eab8a2975400000000000000000000000000000000000000000000000000000000068b9c625",
          "blockHash": "0x96885fec1707e59785a281000706601848a43d44feb5473b55c76cd6f19a65cf",
          "blockNumber": "0x3d3e352",
          "transactionHash": "0xa355d28056b67e0ab06a6f9591df7d0ed11c2d2d980fbdbf6a1010302b195afb",
          "transactionIndex": "0x0",
          "logIndex": "0x0",
          "removed": false
        }
      ],
      "logsBloom": "0x00000000000000000000000000000000000000000000000000000000000000020000000000000000000000004000000000000000000000000000000000000000000000000000000000000000000000000040000000000000000008200000000000000000000000000000100001000004000000000000000000000000040000000000000008000000000000000000000000000000000000000000000000000000000000000000000000000000000000000000000000000000000000000000000000000000000000000000040000800000000000000000000000000000000000000000000000000000000000000000000000000000000000000000000000000000",
      "type": "0x0",
      "transactionHash": "0xa355d28056b67e0ab06a6f9591df7d0ed11c2d2d980fbdbf6a1010302b195afb",
      "transactionIndex": "0x0",
      "blockHash": "0x96885fec1707e59785a281000706601848a43d44feb5473b55c76cd6f19a65cf",
      "blockNumber": "0x3d3e352",
      "gasUsed": "0xe924",
      "effectiveGasPrice": "0x3b9aca00",
      "from": "0xbe1e2c05a20df20a3ecd0ec12617b296a58ee2a1",
      "to": "0x6f9756d1200cc1910ba3452b90596e1b6467d6dd",
      "contractAddress": null
    },
    {
      "status": "0x1",
      "cumulativeGasUsed": "0xe924",
      "logs": [
        {
          "address": "0x6f9756d1200cc1910ba3452b90596e1b6467d6dd",
          "topics": [
            "0x74a4ea483a33a7b2599e52a0813e90e82344283e51e490ef3b7dba63defe268c",
            "0x000000000000000000000000be1e2c05a20df20a3ecd0ec12617b296a58ee2a1",
            "0x000000000000000000000000a4c53902eb8aeca930a911d2c42b2eab8a297540"
          ],
          "data": "0x000000000000000000000000c81cd7f8588c2614c4edd94d076f47bb94b9e5840000000000000000000000000000000000000000000000000000000068b9c626",
          "blockHash": "0x7687e4ddb57ec71b13f794e37bf4a41129a405da5b322fc6832ab650245a3e89",
          "blockNumber": "0x3d3e354",
          "transactionHash": "0x002b9fd89cc100b9a387c6baeb807308928ad4f55b46a5face113596fd09bddf",
          "transactionIndex": "0x0",
          "logIndex": "0x0",
          "removed": false
        }
      ],
      "logsBloom": "0x00000000000000000000000000000000000000000000000000000000000000000000000020000000000000004000000000000000000000000000000000000000000000000000000000000000000000000000000000000000000008200000001000000000000000000000100001000004000000000000000000000000000000000000000008000000000000000000000000000000000000000000000000000000000000000000000000000000000000000000000000000000000000000000000000000000000000000000040000800000000000000000000000000100000000000000000000000000000000000000000000000000000000000000000000000000",
      "type": "0x0",
      "transactionHash": "0x002b9fd89cc100b9a387c6baeb807308928ad4f55b46a5face113596fd09bddf",
      "transactionIndex": "0x0",
      "blockHash": "0x7687e4ddb57ec71b13f794e37bf4a41129a405da5b322fc6832ab650245a3e89",
      "blockNumber": "0x3d3e354",
      "gasUsed": "0xe924",
      "effectiveGasPrice": "0x3b9aca00",
      "from": "0xbe1e2c05a20df20a3ecd0ec12617b296a58ee2a1",
      "to": "0x6f9756d1200cc1910ba3452b90596e1b6467d6dd",
      "contractAddress": null
    },
    {
      "status": "0x1",
      "cumulativeGasUsed": "0x2a559",
      "logs": [
        {
          "address": "0x6f9756d1200cc1910ba3452b90596e1b6467d6dd",
          "topics": [
            "0x3df5b631720297a6fa4bad6fd6787b1aef91129d4d1aaadc7e3fc06d32351c3a",
            "0x000000000000000000000000be1e2c05a20df20a3ecd0ec12617b296a58ee2a1",
            "0x000000000000000000000000ae49bfce31392a55ef3332b9a07d0534122327ca"
          ],
          "data": "0x000000000000000000000000000000000000000000000000000000000000000100000000000000000000000000000000000000000000000000000000000003e80000000000000000000000000000000000000000000000000000000068b9c628",
          "blockHash": "0x1551da7c49f257543c16014ce6ae96bd18d1722e61c25e0c05f6bd15665e1e68",
          "blockNumber": "0x3d3e357",
          "transactionHash": "0x2e60fa2fe71f0543acd0c9ab358dc1533af91367ae2b0227b1fd4d4bf643993f",
          "transactionIndex": "0x1",
          "logIndex": "0x1",
          "removed": false
        }
      ],
      "logsBloom": "0x00000000000000000000000000000000000000000000000000000000000000020000000000000000000000000000000000000000000000000000000000000000000000000040000000000000000000000040000000000000000008200000000000000000000000000000100000000004000000000000000000000000040000000000000000000000000000000000000000000000000000000000000000000000000000000000000000000000000000000000000000000000000000001000000000000000000000000000040000800000000000000000000000000000000000000000000000000000000000000000200000000000000000000000000000000000",
      "type": "0x0",
      "transactionHash": "0x2e60fa2fe71f0543acd0c9ab358dc1533af91367ae2b0227b1fd4d4bf643993f",
      "transactionIndex": "0x1",
      "blockHash": "0x1551da7c49f257543c16014ce6ae96bd18d1722e61c25e0c05f6bd15665e1e68",
      "blockNumber": "0x3d3e357",
      "gasUsed": "0x1312e",
      "effectiveGasPrice": "0x3b9aca00",
      "from": "0xbe1e2c05a20df20a3ecd0ec12617b296a58ee2a1",
      "to": "0x6f9756d1200cc1910ba3452b90596e1b6467d6dd",
      "contractAddress": null
    },
    {
      "status": "0x1",
      "cumulativeGasUsed": "0x842c",
      "logs": [
        {
          "address": "0x6f9756d1200cc1910ba3452b90596e1b6467d6dd",
          "topics": [
            "0x099d0097e904df56bc092db5e48ba143f621882c67d026dcb6c98acec67429df",
            "0x000000000000000000000000be1e2c05a20df20a3ecd0ec12617b296a58ee2a1"
          ],
          "data": "0x000000000000000000000000c81cd7f8588c2614c4edd94d076f47bb94b9e584000000000000000000000000c81cd7f8588c2614c4edd94d076f47bb94b9e5840000000000000000000000000000000000000000000000000000000068b9c62a",
          "blockHash": "0x8bd4c14a507fd6a21ca462767016d37553dcd06207b0a079bf8b592c524d6082",
          "blockNumber": "0x3d3e359",
          "transactionHash": "0x9b95ccff823e4e34463157840c85b516ad2f8920e4d3031d3ecb09e3018e7705",
          "transactionIndex": "0x0",
          "logIndex": "0x0",
          "removed": false
        }
      ],
      "logsBloom": "0x00000000000000000000020000000000000000000000000000000000000000000000000000000000000000000000000000000000000000000000000000000000000000000000000000000000000000000000000000000000000008200000000000000000000000000000100000000004000000000000000000000000000000000000000000000000000000000000000000000000000000000000000000000000000000000002000000000000000000000000000000000000000000000000000000000000000000000000040000800000000000000000000000000000000000000000000001000000000000000000000000000000000000000000000000000000",
      "type": "0x0",
      "transactionHash": "0x9b95ccff823e4e34463157840c85b516ad2f8920e4d3031d3ecb09e3018e7705",
      "transactionIndex": "0x0",
      "blockHash": "0x8bd4c14a507fd6a21ca462767016d37553dcd06207b0a079bf8b592c524d6082",
      "blockNumber": "0x3d3e359",
      "gasUsed": "0x842c",
      "effectiveGasPrice": "0x3b9aca00",
      "from": "0xbe1e2c05a20df20a3ecd0ec12617b296a58ee2a1",
      "to": "0x6f9756d1200cc1910ba3452b90596e1b6467d6dd",
      "contractAddress": null
    },
    {
      "status": "0x1",
      "cumulativeGasUsed": "0x84d7",
      "logs": [
        {
          "address": "0x6f9756d1200cc1910ba3452b90596e1b6467d6dd",
          "topics": [
            "0xf35359d94cb99c69674d1609adc1e3d25cf7970094d91b4fdd25655cd9c9422d",
            "0x000000000000000000000000be1e2c05a20df20a3ecd0ec12617b296a58ee2a1"
          ],
          "data": "0x000000000000000000000000000000000000000000000000000000000000138800000000000000000000000000000000000000000000000000000000000013880000000000000000000000000000000000000000000000000000000068b9c62c",
          "blockHash": "0x34a0c3678ed664c511de897c89fd4d9a1b98a8ad39bf071921013837efe17d1a",
          "blockNumber": "0x3d3e35c",
          "transactionHash": "0xdc4edfd7c203e8f8397f928c2b92617ec06fe63b12c89ef13c511d31e8b090c1",
          "transactionIndex": "0x0",
          "logIndex": "0x0",
          "removed": false
        }
      ],
      "logsBloom": "0x00000000000000000000000000000000000000000000000000000000000000000000000000000000000000000000000000000000000000000000000000000000000020000000000000000000000000000000000000000000000008200000000000000000000000000000100000000004000000000000000000000000000000000000000000000000000000000000000000000000000000000000000000000000000000000000000000000000000000000000000000000000000000000000000000000000000000000000040000800000000000000000000004000000000000000000000000000000000000000000000000000000000000000000000000000400",
      "type": "0x0",
      "transactionHash": "0xdc4edfd7c203e8f8397f928c2b92617ec06fe63b12c89ef13c511d31e8b090c1",
      "transactionIndex": "0x0",
      "blockHash": "0x34a0c3678ed664c511de897c89fd4d9a1b98a8ad39bf071921013837efe17d1a",
      "blockNumber": "0x3d3e35c",
      "gasUsed": "0x84d7",
      "effectiveGasPrice": "0x3b9aca00",
      "from": "0xbe1e2c05a20df20a3ecd0ec12617b296a58ee2a1",
      "to": "0x6f9756d1200cc1910ba3452b90596e1b6467d6dd",
      "contractAddress": null
    },
    {
      "status": "0x1",
      "cumulativeGasUsed": "0xd109",
      "logs": [
        {
          "address": "0x6f9756d1200cc1910ba3452b90596e1b6467d6dd",
          "topics": [
            "0xcd4328b6d4cfb17936b0c5c52332e25cd5372d72b2f951781fc7be96518463be",
            "0x000000000000000000000000be1e2c05a20df20a3ecd0ec12617b296a58ee2a1"
          ],
          "data": "0x0000000000000000000000000000000000000000000000000000000000000000000000000000000000000000fb290b4903bad26fe1c2fb89cf6402529aa61e0c0000000000000000000000000000000000000000000000000000000068b9c62e",
          "blockHash": "0xd2f0b2d630f279a605a8d404fb7f950964ae24f7e2b9be0373a83708a43340bb",
          "blockNumber": "0x3d3e35e",
          "transactionHash": "0xcc70dea6b839733de78430deb324dec5b64226e4453234b97fc6262ea8178135",
          "transactionIndex": "0x0",
          "logIndex": "0x0",
          "removed": false
        }
      ],
      "logsBloom": "0x00000000000000000000010000000000000000000000000000000000000000000000000000000000000000000000000000000000000000000000000000000000000000000000000000000000000000000004000000000000000008200000000000000000000000000000100000000004000000000000000000000000000000000000000000000000000000000000000000000000000000000000000000000000000000000000000000000000000000000000000000000000000000002000000000000000000000000000040000800000000000000000000000000000000000000000000000000000000000000000000000000000000000000000000000000000",
      "type": "0x0",
      "transactionHash": "0xcc70dea6b839733de78430deb324dec5b64226e4453234b97fc6262ea8178135",
      "transactionIndex": "0x0",
      "blockHash": "0xd2f0b2d630f279a605a8d404fb7f950964ae24f7e2b9be0373a83708a43340bb",
      "blockNumber": "0x3d3e35e",
      "gasUsed": "0xd109",
      "effectiveGasPrice": "0x3b9aca00",
      "from": "0xbe1e2c05a20df20a3ecd0ec12617b296a58ee2a1",
      "to": "0x6f9756d1200cc1910ba3452b90596e1b6467d6dd",
      "contractAddress": null
    }
  ],
  "libraries": [],
  "pending": [],
  "returns": {},
  "timestamp": 1757005359,
  "chain": 97,
  "commit": "ca50851"
}