{
  "transactions": [
    {
      "hash": "0xda712b5e504ed6eb495624eb0d0b68c47e57d1877a318a2adef83d8d4ca7e0b3",
      "transactionType": "CALL",
      "contractName": null,
      "contractAddress": "0x0f552dd2779b1bbf35e842cde6536cf318bdfacf",
      "function": "addToken(address,uint256)",
      "arguments": [
        "0xaE49bFCe31392A55eF3332B9a07d0534122327CA",
        "100000000000000000"
      ],
      "transaction": {
        "from": "0xbe1e2c05a20df20a3ecd0ec12617b296a58ee2a1",
        "to": "0x0f552dd2779b1bbf35e842cde6536cf318bdfacf",
        "gas": "0x2aa9f",
        "value": "0x0",
        "input": "0xaf81c5b9000000000000000000000000ae49bfce31392a55ef3332b9a07d0534122327ca000000000000000000000000000000000000000000000000016345785d8a0000",
        "nonce": "0x3c0",
        "chainId": "0x61"
      },
      "additionalContracts": [],
      "isFixedGasLimit": false
    },
    {
      "hash": "0x94f2fca9fde89b2a0f0d32cb376c17f16b8aa445c0beffc395bdb24e633d177e",
      "transactionType": "CALL",
      "contractName": null,
      "contractAddress": "0x0f552dd2779b1bbf35e842cde6536cf318bdfacf",
      "function": "addToken(address,uint256)",
      "arguments": [
        "0xb740c977Cb0785d88B43d155e19b9FcD696cD130",
        "100000000000000000"
      ],
      "transaction": {
        "from": "0xbe1e2c05a20df20a3ecd0ec12617b296a58ee2a1",
        "to": "0x0f552dd2779b1bbf35e842cde6536cf318bdfacf",
        "gas": "0x2aa9f",
        "value": "0x0",
        "input": "0xaf81c5b9000000000000000000000000b740c977cb0785d88b43d155e19b9fcd696cd130000000000000000000000000000000000000000000000000016345785d8a0000",
        "nonce": "0x3c1",
        "chainId": "0x61"
      },
      "additionalContracts": [],
      "isFixedGasLimit": false
    },
    {
      "hash": "0x3459804808084c3a1d764ebb759486171f7e9adb4f3df6fe7ad74f757d567794",
      "transactionType": "CALL",
      "contractName": null,
      "contractAddress": "0x0f552dd2779b1bbf35e842cde6536cf318bdfacf",
      "function": "addPancakeSwapInfos(address,address)",
      "arguments": [
        "0xaE49bFCe31392A55eF3332B9a07d0534122327CA",
        "0xBE8044902dFDD687ddb5cd1E2659C84463aA9da1"
      ],
      "transaction": {
        "from": "0xbe1e2c05a20df20a3ecd0ec12617b296a58ee2a1",
        "to": "0x0f552dd2779b1bbf35e842cde6536cf318bdfacf",
        "gas": "0x15416",
        "value": "0x0",
        "input": "0x9aa83a8b000000000000000000000000ae49bfce31392a55ef3332b9a07d0534122327ca000000000000000000000000be8044902dfdd687ddb5cd1e2659c84463aa9da1",
        "nonce": "0x3c2",
        "chainId": "0x61"
      },
      "additionalContracts": [],
      "isFixedGasLimit": false
    },
    {
      "hash": "0x3b416a0f13f85d1c972a5383f2c9c587a22e39c03f4bb630a8140a80282cc035",
      "transactionType": "CALL",
      "contractName": null,
      "contractAddress": "0x0f552dd2779b1bbf35e842cde6536cf318bdfacf",
      "function": "addPancakeSwapInfos(address,address)",
      "arguments": [
        "0xBE8044902dFDD687ddb5cd1E2659C84463aA9da1",
        "0xb740c977Cb0785d88B43d155e19b9FcD696cD130"
      ],
      "transaction": {
        "from": "0xbe1e2c05a20df20a3ecd0ec12617b296a58ee2a1",
        "to": "0x0f552dd2779b1bbf35e842cde6536cf318bdfacf",
        "gas": "0x15416",
        "value": "0x0",
        "input": "0x9aa83a8b000000000000000000000000be8044902dfdd687ddb5cd1e2659c84463aa9da1000000000000000000000000b740c977cb0785d88b43d155e19b9fcd696cd130",
        "nonce": "0x3c3",
        "chainId": "0x61"
      },
      "additionalContracts": [],
      "isFixedGasLimit": false
    },
    {
      "hash": "0xa23bd034c9d5ed021067691173f08d91a15af942a80c0cf52dd2be3ca8c8ee30",
      "transactionType": "CALL",
      "contractName": null,
      "contractAddress": "0x0f552dd2779b1bbf35e842cde6536cf318bdfacf",
      "function": "setBuyFee(address,bool,uint256)",
      "arguments": [
        "0xaE49bFCe31392A55eF3332B9a07d0534122327CA",
        "true",
        "1000"
      ],
      "transaction": {
        "from": "0xbe1e2c05a20df20a3ecd0ec12617b296a58ee2a1",
        "to": "0x0f552dd2779b1bbf35e842cde6536cf318bdfacf",
        "gas": "0x1989d",
        "value": "0x0",
        "input": "0x0cff0607000000000000000000000000ae49bfce31392a55ef3332b9a07d0534122327ca000000000000000000000000000000000000000000000000000000000000000100000000000000000000000000000000000000000000000000000000000003e8",
        "nonce": "0x3c4",
        "chainId": "0x61"
      },
      "additionalContracts": [],
      "isFixedGasLimit": false
    }
  ],
  "receipts": [
    {
      "status": "0x1",
      "cumulativeGasUsed": "0x321e9",
      "logs": [
        {
          "address": "0x0f552dd2779b1bbf35e842cde6536cf318bdfacf",
          "topics": [
            "0x43d0c6e87fb4451f8fa42b8d91ca306a62b49d3535b2dba8c09952da149d2ece",
            "0x000000000000000000000000be1e2c05a20df20a3ecd0ec12617b296a58ee2a1",
            "0x000000000000000000000000ae49bfce31392a55ef3332b9a07d0534122327ca"
          ],
          "data": "0x000000000000000000000000000000000000000000000000016345785d8a00000000000000000000000000000000000000000000000000000000000068b5530c",
          "blockHash": "0xa7681a0159b0c8ab9095d955432d5ae2909b8c863563b0f8ffea537bc54cbb45",
          "blockNumber": "0x3cdf725",
          "transactionHash": "0xda712b5e504ed6eb495624eb0d0b68c47e57d1877a318a2adef83d8d4ca7e0b3",
          "transactionIndex": "0x1",
          "logIndex": "0x3",
          "removed": false
        }
      ],
      "logsBloom": "0x00000000000010000000000000000000000000000000000000000800000000020000000000000000000000000000000000000000000000000000000000000000000000000000000000000000000000000040000000000000000000200000000000000000000000000000000000000000000010000000000000000000040000002000000000000000000000000000000000000000000000000000000000000000000000000000000000000000000000000000000000000000000000000000000000000000000000000000040000800000000000000000000000000000000000000000000000000000000000000000000000000000001004000000000000000000",
      "type": "0x0",
      "transactionHash": "0xda712b5e504ed6eb495624eb0d0b68c47e57d1877a318a2adef83d8d4ca7e0b3",
      "transactionIndex": "0x1",
      "blockHash": "0xa7681a0159b0c8ab9095d955432d5ae2909b8c863563b0f8ffea537bc54cbb45",
      "blockNumber": "0x3cdf725",
      "gasUsed": "0x1ee35",
      "effectiveGasPrice": "0x3b9aca00",
      "from": "0xbe1e2c05a20df20a3ecd0ec12617b296a58ee2a1",
      "to": "0x0f552dd2779b1bbf35e842cde6536cf318bdfacf",
      "contractAddress": null
    },
    {
      "status": "0x1",
      "cumulativeGasUsed": "0x1ee35",
      "logs": [
        {
          "address": "0x0f552dd2779b1bbf35e842cde6536cf318bdfacf",
          "topics": [
            "0x43d0c6e87fb4451f8fa42b8d91ca306a62b49d3535b2dba8c09952da149d2ece",
            "0x000000000000000000000000be1e2c05a20df20a3ecd0ec12617b296a58ee2a1",
            "0x000000000000000000000000b740c977cb0785d88b43d155e19b9fcd696cd130"
          ],
          "data": "0x000000000000000000000000000000000000000000000000016345785d8a00000000000000000000000000000000000000000000000000000000000068b5530c",
          "blockHash": "0x4db3399df0bf7abc811673e1ba2b09874ad5fe2b461836717612e8ea2a845ccf",
          "blockNumber": "0x3cdf726",
          "transactionHash": "0x94f2fca9fde89b2a0f0d32cb376c17f16b8aa445c0beffc395bdb24e633d177e",
          "transactionIndex": "0x0",
          "logIndex": "0x0",
          "removed": false
        }
      ],
      "logsBloom": "0x00000000000010000000000000000000000000000000000000000800000000000000000000000000000000000000008000000000000000000000000000000000000000000000000000000000000000000000000000000000000000200000000000000000000000000000000000000000000010000000000000000000000000002000000000000000000000000000000000000000000000000000000000000000000000000000000000000000000000000000000000000000000000000000000000000000000000000000040000800000000000000000000800080000000000000000000000000000000000000000000000000000001004000000000000000000",
      "type": "0x0",
      "transactionHash": "0x94f2fca9fde89b2a0f0d32cb376c17f16b8aa445c0beffc395bdb24e633d177e",
      "transactionIndex": "0x0",
      "blockHash": "0x4db3399df0bf7abc811673e1ba2b09874ad5fe2b461836717612e8ea2a845ccf",
      "blockNumber": "0x3cdf726",
      "gasUsed": "0x1ee35",
      "effectiveGasPrice": "0x3b9aca00",
      "from": "0xbe1e2c05a20df20a3ecd0ec12617b296a58ee2a1",
      "to": "0x0f552dd2779b1bbf35e842cde6536cf318bdfacf",
      "contractAddress": null
    },
    {
      "status": "0x1",
      "cumulativeGasUsed": "0xe88a",
      "logs": [
        {
          "address": "0x0f552dd2779b1bbf35e842cde6536cf318bdfacf",
          "topics": [
            "0x74a4ea483a33a7b2599e52a0813e90e82344283e51e490ef3b7dba63defe268c",
            "0x000000000000000000000000be1e2c05a20df20a3ecd0ec12617b296a58ee2a1",
            "0x000000000000000000000000ae49bfce31392a55ef3332b9a07d0534122327ca"
          ],
          "data": "0x000000000000000000000000be8044902dfdd687ddb5cd1e2659c84463aa9da10000000000000000000000000000000000000000000000000000000068b5530f",
          "blockHash": "0xe77e67db9dc0f420abbee9f8951aee2210696aea11b4d90d8f2700cef6eec5ad",
          "blockNumber": "0x3cdf729",
          "transactionHash": "0x3459804808084c3a1d764ebb759486171f7e9adb4f3df6fe7ad74f757d567794",
          "transactionIndex": "0x0",
          "logIndex": "0x0",
          "removed": false
        }
      ],
      "logsBloom": "0x00000000000010000000000000000000000000000000000000000000000000020000000000000000000000004000000000000000000000000000000000000000000000000000000000000000000000000040000000000000000000200000000000000000000000000000000001000000000010000000000000000000040000000000000008000000000000000000000000000000000000000000000000000000000000000000000000000000000000000000000000000000000000000000000000000000000000000000040000800000000000000000000000000000000000000000000000000000000000000000000000000000001000000000000000000000",
      "type": "0x0",
      "transactionHash": "0x3459804808084c3a1d764ebb759486171f7e9adb4f3df6fe7ad74f757d567794",
      "transactionIndex": "0x0",
      "blockHash": "0xe77e67db9dc0f420abbee9f8951aee2210696aea11b4d90d8f2700cef6eec5ad",
      "blockNumber": "0x3cdf729",
      "gasUsed": "0xe88a",
      "effectiveGasPrice": "0x3b9aca00",
      "from": "0xbe1e2c05a20df20a3ecd0ec12617b296a58ee2a1",
      "to": "0x0f552dd2779b1bbf35e842cde6536cf318bdfacf",
      "contractAddress": null
    },
    {
      "status": "0x1",
      "cumulativeGasUsed": "0xe88a",
      "logs": [
        {
          "address": "0x0f552dd2779b1bbf35e842cde6536cf318bdfacf",
          "topics": [
            "0x74a4ea483a33a7b2599e52a0813e90e82344283e51e490ef3b7dba63defe268c",
            "0x000000000000000000000000be1e2c05a20df20a3ecd0ec12617b296a58ee2a1",
            "0x000000000000000000000000be8044902dfdd687ddb5cd1e2659c84463aa9da1"
          ],
          "data": "0x000000000000000000000000b740c977cb0785d88b43d155e19b9fcd696cd1300000000000000000000000000000000000000000000000000000000068b55311",
          "blockHash": "0x1c2f88b81bb8e31932a65b8e0c234210429dd68e1bb6831b1a92edd5c922b28c",
          "blockNumber": "0x3cdf72c",
          "transactionHash": "0x3b416a0f13f85d1c972a5383f2c9c587a22e39c03f4bb630a8140a80282cc035",
          "transactionIndex": "0x0",
          "logIndex": "0x0",
          "removed": false
        }
      ],
      "logsBloom": "0x00000000000010000000000000000000000000000000000000000000000000000000000000000000000000004000000000000000000000000000000000000000000000000000000000000000000000000000000000000000000000200000000000000000000000000000000001000000000090000000000000000000000000000000000008000000000000000000000000000000000000000000080000000000000000000000000000000000000000000000000000000000000000000000020000000000000000000000040000800000000000000000000000000000000000000000000000000000000000000000000000000000001000000000000000000000",
      "type": "0x0",
      "transactionHash": "0x3b416a0f13f85d1c972a5383f2c9c587a22e39c03f4bb630a8140a80282cc035",
      "transactionIndex": "0x0",
      "blockHash": "0x1c2f88b81bb8e31932a65b8e0c234210429dd68e1bb6831b1a92edd5c922b28c",
      "blockNumber": "0x3cdf72c",
      "gasUsed": "0xe88a",
      "effectiveGasPrice": "0x3b9aca00",
      "from": "0xbe1e2c05a20df20a3ecd0ec12617b296a58ee2a1",
      "to": "0x0f552dd2779b1bbf35e842cde6536cf318bdfacf",
      "contractAddress": null
    },
    {
      "status": "0x1",
      "cumulativeGasUsed": "0x2027b",
      "logs": [],
      "logsBloom": "0x00000000000000000000000000000000000000000000000000000000000000000000000000000000000000000000000000000000000000000000000000000000000000000000000000000000000000000000000000000000000000000000000000000000000000000000000000000000000000000000000000000000000000000000000000000000000000000000000000000000000000000000000000000000000000000000000000000000000000000000000000000000000000000000000000000000000000000000000000000000000000000000000000000000000000000000000000000000000000000000000000000000000000000000000000000000",
      "type": "0x0",
      "transactionHash": "0xa23bd034c9d5ed021067691173f08d91a15af942a80c0cf52dd2be3ca8c8ee30",
      "transactionIndex": "0x1",
      "blockHash": "0x528e65219d05ae3554459b0faa2ab89b06db9a8b409dd77b18e09eb66b12f88f",
      "blockNumber": "0x3cdf72e",
      "gasUsed": "0x127d5",
      "effectiveGasPrice": "0x3b9aca00",
      "from": "0xbe1e2c05a20df20a3ecd0ec12617b296a58ee2a1",
      "to": "0x0f552dd2779b1bbf35e842cde6536cf318bdfacf",
      "contractAddress": null
    }
  ],
  "libraries": [],
  "pending": [],
  "returns": {},
  "timestamp": 1756713748,
  "chain": 97,
  "commit": "6bcc466"
}