{
  "transactions": [
    {
      "hash": "0x8ec588940318932745fe0713319cc2c9c5bb76e23732d9b4a0db1688441f308e",
      "transactionType": "CALL",
      "contractName": null,
      "contractAddress": "0x97228ebd94139b563d9f0330587a64fa27785305",
      "function": "addToken(address,uint256)",
      "arguments": [
        "0xaE49bFCe31392A55eF3332B9a07d0534122327CA",
        "100000000000000000"
      ],
      "transaction": {
        "from": "0xbe1e2c05a20df20a3ecd0ec12617b296a58ee2a1",
        "to": "0x97228ebd94139b563d9f0330587a64fa27785305",
        "gas": "0x2aa80",
        "value": "0x0",
        "input": "0xaf81c5b9000000000000000000000000ae49bfce31392a55ef3332b9a07d0534122327ca000000000000000000000000000000000000000000000000016345785d8a0000",
        "nonce": "0x39a",
        "chainId": "0x61"
      },
      "additionalContracts": [],
      "isFixedGasLimit": false
    }
  ],
  "receipts": [
    {
      "status": "0x1",
      "cumulativeGasUsed": "0x3db59",
      "logs": [
        {
          "address": "0x97228ebd94139b563d9f0330587a64fa27785305",
          "topics": [
            "0x43d0c6e87fb4451f8fa42b8d91ca306a62b49d3535b2dba8c09952da149d2ece",
            "0x000000000000000000000000be1e2c05a20df20a3ecd0ec12617b296a58ee2a1",
            "0x000000000000000000000000ae49bfce31392a55ef3332b9a07d0534122327ca"
          ],
          "data": "0x000000000000000000000000000000000000000000000000016345785d8a00000000000000000000000000000000000000000000000000000000000068b52b7f",
          "blockHash": "0x2360c262eb4181c3eb5c13aefbf1fc4ab6bc4e4f5777bd589bfe528548f0283c",
          "blockNumber": "0x3cdc27e",
          "transactionHash": "0x8ec588940318932745fe0713319cc2c9c5bb76e23732d9b4a0db1688441f308e",
          "transactionIndex": "0x1",
          "logIndex": "0x3",
          "removed": false
        }
      ],
      "logsBloom": "0x00000000000000000000000000000000000000000000000000000800000004020000000000000000000000000000000020000000000000000000000000000000000000000000000000000000000000000040000000000000000000200000000000000000000000000000000000000000000000000000000000000000040000002000000000400000000000000000000000000000000000000000000000000000000000000000000000000000000000000000000000000000000000000000000000000000000000000000040000800000000000000000000000000000000000000000000000000000000000000000000000000000000004000000000000000000",
      "type": "0x0",
      "transactionHash": "0x8ec588940318932745fe0713319cc2c9c5bb76e23732d9b4a0db1688441f308e",
      "transactionIndex": "0x1",
      "blockHash": "0x2360c262eb4181c3eb5c13aefbf1fc4ab6bc4e4f5777bd589bfe528548f0283c",
      "blockNumber": "0x3cdc27e",
      "gasUsed": "0x1ee1f",
      "effectiveGasPrice": "0x3b9aca00",
      "from": "0xbe1e2c05a20df20a3ecd0ec12617b296a58ee2a1",
      "to": "0x97228ebd94139b563d9f0330587a64fa27785305",
      "contractAddress": null
    }
  ],
  "libraries": [],
  "pending": [],
  "returns": {},
  "timestamp": 1756703617,
  "chain": 97,
  "commit": "93b7afb"
}