{
  "transactions": [
    {
      "hash": "0x792165c1050553237bdb0771387e21ac8a40582dc186027b7c1b7e236b136136",
      "transactionType": "CALL",
      "contractName": null,
      "contractAddress": "0x6f9756d1200cc1910ba3452b90596e1b6467d6dd",
      "function": "setBuyFee(address,bool,uint256)",
      "arguments": [
        "0xaE49bFCe31392A55eF3332B9a07d0534122327CA",
        "true",
        "1000"
      ],
      "transaction": {
        "from": "0xbe1e2c05a20df20a3ecd0ec12617b296a58ee2a1",
        "to": "0x6f9756d1200cc1910ba3452b90596e1b6467d6dd",
        "gas": "0x1a586",
        "value": "0x0",
        "input": "0x0cff0607000000000000000000000000ae49bfce31392a55ef3332b9a07d0534122327ca000000000000000000000000000000000000000000000000000000000000000100000000000000000000000000000000000000000000000000000000000003e8",
        "nonce": "0x4bf",
        "chainId": "0x61"
      },
      "additionalContracts": [],
      "isFixedGasLimit": false
    }
  ],
  "receipts": [
    {
      "status": "0x1",
      "cumulativeGasUsed": "0x3cc24",
      "logs": [
        {
          "address": "0x6f9756d1200cc1910ba3452b90596e1b6467d6dd",
          "topics": [
            "0x3df5b631720297a6fa4bad6fd6787b1aef91129d4d1aaadc7e3fc06d32351c3a",
            "0x000000000000000000000000be1e2c05a20df20a3ecd0ec12617b296a58ee2a1",
            "0x000000000000000000000000ae49bfce31392a55ef3332b9a07d0534122327ca"
          ],
          "data": "0x000000000000000000000000000000000000000000000000000000000000000100000000000000000000000000000000000000000000000000000000000003e80000000000000000000000000000000000000000000000000000000068ba896a",
          "blockHash": "0xdba701a242e0a3b11dac14f3e9b5b23a60170a564487dc16adfdf56fbcd3eda9",
          "blockNumber": "0x3d4e740",
          "transactionHash": "0x792165c1050553237bdb0771387e21ac8a40582dc186027b7c1b7e236b136136",
          "transactionIndex": "0x4",
          "logIndex": "0x3",
          "removed": false
        }
      ],
      "logsBloom": "0x00000000000000000000000000000000000000000000000000000000000000020000000000000000000000000000000000000000000000000000000000000000000000000040000000000000000000000040000000000000000008200000000000000000000000000000100000000004000000000000000000000000040000000000000000000000000000000000000000000000000000000000000000000000000000000000000000000000000000000000000000000000000000001000000000000000000000000000040000800000000000000000000000000000000000000000000000000000000000000000200000000000000000000000000000000000",
      "type": "0x0",
      "transactionHash": "0x792165c1050553237bdb0771387e21ac8a40582dc186027b7c1b7e236b136136",
      "transactionIndex": "0x4",
      "blockHash": "0xdba701a242e0a3b11dac14f3e9b5b23a60170a564487dc16adfdf56fbcd3eda9",
      "blockNumber": "0x3d4e740",
      "gasUsed": "0x1312e",
      "effectiveGasPrice": "0x3b9aca00",
      "from": "0xbe1e2c05a20df20a3ecd0ec12617b296a58ee2a1",
      "to": "0x6f9756d1200cc1910ba3452b90596e1b6467d6dd",
      "contractAddress": null
    }
  ],
  "libraries": [],
  "pending": [],
  "returns": {},
  "timestamp": 1757055339,
  "chain": 97,
  "commit": "de8fdab"
}