{
  "transactions": [
    {
      "hash": "0x69476a5d2d07e26c2ffc7ec29f5c84a720c66ccf3ff02eba608ee9ae58378b22",
      "transactionType": "CALL",
      "contractName": null,
      "contractAddress": "0x399446395db4bbf02221edda0c03cae714d89eca",
      "function": "addPancakeSwapInfos(address,address)",
      "arguments": [
        "0xaE49bFCe31392A55eF3332B9a07d0534122327CA",
        "0xe160a5D4934bfeD12fE02B0d94EDF347128Ec5Df"
      ],
      "transaction": {
        "from": "0xbe1e2c05a20df20a3ecd0ec12617b296a58ee2a1",
        "to": "0x399446395db4bbf02221edda0c03cae714d89eca",
        "gas": "0x12681",
        "value": "0x0",
        "input": "0x9aa83a8b000000000000000000000000ae49bfce31392a55ef3332b9a07d0534122327ca000000000000000000000000e160a5d4934bfed12fe02b0d94edf347128ec5df",
        "nonce": "0x36f",
        "chainId": "0x61"
      },
      "additionalContracts": [],
      "isFixedGasLimit": false
    },
    {
      "hash": "0xb0d9d2310086c09814bdbdcde7a2790da5d23ef5738cded2a7b630a2c5afca32",
      "transactionType": "CALL",
      "contractName": null,
      "contractAddress": "0x399446395db4bbf02221edda0c03cae714d89eca",
      "function": "addPancakeSwapInfos(address,address)",
      "arguments": [
        "0xe160a5D4934bfeD12fE02B0d94EDF347128Ec5Df",
        "0xdae2Be19e5DaED254808342cdC37db407E52218d"
      ],
      "transaction": {
        "from": "0xbe1e2c05a20df20a3ecd0ec12617b296a58ee2a1",
        "to": "0x399446395db4bbf02221edda0c03cae714d89eca",
        "gas": "0x12681",
        "value": "0x0",
        "input": "0x9aa83a8b000000000000000000000000e160a5d4934bfed12fe02b0d94edf347128ec5df000000000000000000000000dae2be19e5daed254808342cdc37db407e52218d",
        "nonce": "0x370",
        "chainId": "0x61"
      },
      "additionalContracts": [],
      "isFixedGasLimit": false
    }
  ],
  "receipts": [
    {
      "status": "0x1",
      "cumulativeGasUsed": "0xd538",
      "logs": [
        {
          "address": "0x399446395db4bbf02221edda0c03cae714d89eca",
          "topics": [
            "0x74a4ea483a33a7b2599e52a0813e90e82344283e51e490ef3b7dba63defe268c",
            "0x000000000000000000000000be1e2c05a20df20a3ecd0ec12617b296a58ee2a1",
            "0x000000000000000000000000ae49bfce31392a55ef3332b9a07d0534122327ca"
          ],
          "data": "0x000000000000000000000000e160a5d4934bfed12fe02b0d94edf347128ec5df0000000000000000000000000000000000000000000000000000000068b2c34e",
          "blockHash": "0x2c4719f11d939c61384ae18f8891d20ffe2dc25a71ee5d254b104da85298d182",
          "blockNumber": "0x3ca8e9e",
          "transactionHash": "0x69476a5d2d07e26c2ffc7ec29f5c84a720c66ccf3ff02eba608ee9ae58378b22",
          "transactionIndex": "0x0",
          "logIndex": "0x0",
          "removed": false
        }
      ],
      "logsBloom": "0x800000000000000000000000000000000000000000000000000000000000000200000000000000000000000040000000000000000000000000000000000000000000000000000000000000000000000000c0000000000000000000200000000000000000000000000000000001000000000000000000000000000000040000000000000008000000000000000000000000000000000000000000000000000000000000000000000000000000000000000000000000000000000000000000000000000000000000000000040000800000000000000000000000000000000000000000000000000000000000000000000000000000000000000800000000000000",
      "type": "0x0",
      "transactionHash": "0x69476a5d2d07e26c2ffc7ec29f5c84a720c66ccf3ff02eba608ee9ae58378b22",
      "transactionIndex": "0x0",
      "blockHash": "0x2c4719f11d939c61384ae18f8891d20ffe2dc25a71ee5d254b104da85298d182",
      "blockNumber": "0x3ca8e9e",
      "gasUsed": "0xd538",
      "effectiveGasPrice": "0x3b9aca00",
      "from": "0xbe1e2c05a20df20a3ecd0ec12617b296a58ee2a1",
      "to": "0x399446395db4bbf02221edda0c03cae714d89eca",
      "contractAddress": null
    },
    {
      "status": "0x1",
      "cumulativeGasUsed": "0x306b1",
      "logs": [
        {
          "address": "0x399446395db4bbf02221edda0c03cae714d89eca",
          "topics": [
            "0x74a4ea483a33a7b2599e52a0813e90e82344283e51e490ef3b7dba63defe268c",
            "0x000000000000000000000000be1e2c05a20df20a3ecd0ec12617b296a58ee2a1",
            "0x000000000000000000000000e160a5d4934bfed12fe02b0d94edf347128ec5df"
          ],
          "data": "0x000000000000000000000000dae2be19e5daed254808342cdc37db407e52218d0000000000000000000000000000000000000000000000000000000068b2c352",
          "blockHash": "0x8531df7ce01256aebf3e4009a2a15d5655425904ea8be83793cc1215d362e913",
          "blockNumber": "0x3ca8ea0",
          "transactionHash": "0xb0d9d2310086c09814bdbdcde7a2790da5d23ef5738cded2a7b630a2c5afca32",
          "transactionIndex": "0x1",
          "logIndex": "0x4",
          "removed": false
        }
      ],
      "logsBloom": "0x80000000000000000000000000000000000000000000000000000000000000000000000000010000000000004000002000000000000000000000008000000000000000000000000000000000000000000080000000000000000000200000000000000000000000000000000001000000000000000000000000000000000000000000000008000000000000000000000000000000000000000000000000000000000000000000000000000000000000000000000000000000000000000000000000000000000000000000040000800000000000000000000000000000000000000000000000000000000000000000000000000000000000000800000000000000",
      "type": "0x0",
      "transactionHash": "0xb0d9d2310086c09814bdbdcde7a2790da5d23ef5738cded2a7b630a2c5afca32",
      "transactionIndex": "0x1",
      "blockHash": "0x8531df7ce01256aebf3e4009a2a15d5655425904ea8be83793cc1215d362e913",
      "blockNumber": "0x3ca8ea0",
      "gasUsed": "0xd538",
      "effectiveGasPrice": "0x3b9aca00",
      "from": "0xbe1e2c05a20df20a3ecd0ec12617b296a58ee2a1",
      "to": "0x399446395db4bbf02221edda0c03cae714d89eca",
      "contractAddress": null
    }
  ],
  "libraries": [],
  "pending": [],
  "returns": {},
  "timestamp": 1756545874,
  "chain": 97,
  "commit": "07539eb"
}