{
  "transactions": [
    {
      "hash": "0x5711919399622bf13b8dac432b29ff34e48b70e33d16d2af17887685e7a842be",
      "transactionType": "CALL",
      "contractName": null,
      "contractAddress": "0xc81cd7f8588c2614c4edd94d076f47bb94b9e584",
      "function": "addToWhitelist(address,bool)",
      "arguments": [
        "0xfB290B4903bad26fe1C2Fb89cf6402529aA61e0c",
        "true"
      ],
      "transaction": {
        "from": "0xbe1e2c05a20df20a3ecd0ec12617b296a58ee2a1",
        "to": "0xc81cd7f8588c2614c4edd94d076f47bb94b9e584",
        "gas": "0x1146d",
        "value": "0x0",
        "input": "0xbc93233f000000000000000000000000fb290b4903bad26fe1c2fb89cf6402529aa61e0c0000000000000000000000000000000000000000000000000000000000000001",
        "nonce": "0x4c8",
        "chainId": "0x61"
      },
      "additionalContracts": [],
      "isFixedGasLimit": false
    }
  ],
  "receipts": [
    {
      "status": "0x1",
      "cumulativeGasUsed": "0x13f46",
      "logs": [
        {
          "address": "0xc81cd7f8588c2614c4edd94d076f47bb94b9e584",
          "topics": [
            "0xf93f9a76c1bf3444d22400a00cb9fe990e6abe9dbb333fda48859cfee864543d",
            "0x000000000000000000000000fb290b4903bad26fe1c2fb89cf6402529aa61e0c"
          ],
          "data": "0x0000000000000000000000000000000000000000000000000000000000000001",
          "blockHash": "0x5eb36ab2ac762cb159e12528ce14958cdc15d386a789f727183b93040c3963c7",
          "blockNumber": "0x3d58c4e",
          "transactionHash": "0x5711919399622bf13b8dac432b29ff34e48b70e33d16d2af17887685e7a842be",
          "transactionIndex": "0x1",
          "logIndex": "0x0",
          "removed": false
        }
      ],
      "logsBloom": "0x00000000000000040000000000000000000002000000000000000000000000000000000000000000000000000000000000000000000000000000000000000001000000000000000000000200000000000000000000000000010000000000000000000001000000000000000000000000000000000000000000000000000000000000000000000000000000000000000000000000000000004000000000000000000000000000000000000000000000000000000000000000000000000000000000000000000000000000000000000000000000000000000000000000000000000000000000000000000000000000040000000000002000000000000000000000",
      "type": "0x0",
      "transactionHash": "0x5711919399622bf13b8dac432b29ff34e48b70e33d16d2af17887685e7a842be",
      "transactionIndex": "0x1",
      "blockHash": "0x5eb36ab2ac762cb159e12528ce14958cdc15d386a789f727183b93040c3963c7",
      "blockNumber": "0x3d58c4e",
      "gasUsed": "0xbd03",
      "effectiveGasPrice": "0x3b9aca00",
      "from": "0xbe1e2c05a20df20a3ecd0ec12617b296a58ee2a1",
      "to": "0xc81cd7f8588c2614c4edd94d076f47bb94b9e584",
      "contractAddress": null
    }
  ],
  "libraries": [],
  "pending": [],
  "returns": {},
  "timestamp": 1757087085,
  "chain": 97,
  "commit": "fc47bd6"
}