{
  "transactions": [
    {
      "hash": "0x21b9ebafb60dc68d10f4e7f8f78bf4aedb8f482fc2f80e04a8981a376e8ed6fa",
      "transactionType": "CALL",
      "contractName": null,
      "contractAddress": "0xc81cd7f8588c2614c4edd94d076f47bb94b9e584",
      "function": "addToWhitelist(address,bool)",
      "arguments": [
        "0x6F9756D1200cc1910BA3452B90596E1b6467d6dD",
        "true"
      ],
      "transaction": {
        "from": "0xbe1e2c05a20df20a3ecd0ec12617b296a58ee2a1",
        "to": "0xc81cd7f8588c2614c4edd94d076f47bb94b9e584",
        "gas": "0x99b3",
        "value": "0x0",
        "input": "0xbc93233f0000000000000000000000006f9756d1200cc1910ba3452b90596e1b6467d6dd0000000000000000000000000000000000000000000000000000000000000001",
        "nonce": "0x4ac",
        "chainId": "0x61"
      },
      "additionalContracts": [],
      "isFixedGasLimit": false
    },
    {
      "hash": "0x47d18afbb7d240cf307fe9d78d25b096af89004bc021ebe028967d7d8011db1d",
      "transactionType": "CALL",
      "contractName": null,
      "contractAddress": "0xc81cd7f8588c2614c4edd94d076f47bb94b9e584",
      "function": "addToWhitelist(address,bool)",
      "arguments": [
        "0xBE1e2C05a20Df20a3EcD0ec12617B296A58ee2A1",
        "true"
      ],
      "transaction": {
        "from": "0xbe1e2c05a20df20a3ecd0ec12617b296a58ee2a1",
        "to": "0xc81cd7f8588c2614c4edd94d076f47bb94b9e584",
        "gas": "0x99b3",
        "value": "0x0",
        "input": "0xbc93233f000000000000000000000000be1e2c05a20df20a3ecd0ec12617b296a58ee2a10000000000000000000000000000000000000000000000000000000000000001",
        "nonce": "0x4ad",
        "chainId": "0x61"
      },
      "additionalContracts": [],
      "isFixedGasLimit": false
    },
    {
      "hash": "0x746ae2ef1b86bf7470819bb0bb1bbac631c36b28fcf1b7e2d3dcb81f21bd8c1e",
      "transactionType": "CALL",
      "contractName": null,
      "contractAddress": "0xc81cd7f8588c2614c4edd94d076f47bb94b9e584",
      "function": "approve(address,uint256)",
      "arguments": [
        "0x6F9756D1200cc1910BA3452B90596E1b6467d6dD",
        "115792089237316195423570985008687907853269984665640564039457584007913129639935"
      ],
      "transaction": {
        "from": "0xbe1e2c05a20df20a3ecd0ec12617b296a58ee2a1",
        "to": "0xc81cd7f8588c2614c4edd94d076f47bb94b9e584",
        "gas": "0x10894",
        "value": "0x0",
        "input": "0x095ea7b30000000000000000000000006f9756d1200cc1910ba3452b90596e1b6467d6ddffffffffffffffffffffffffffffffffffffffffffffffffffffffffffffffff",
        "nonce": "0x4ae",
        "chainId": "0x61"
      },
      "additionalContracts": [],
      "isFixedGasLimit": false
    }
  ],
  "receipts": [
    {
      "status": "0x1",
      "cumulativeGasUsed": "0x6f47",
      "logs": [
        {
          "address": "0xc81cd7f8588c2614c4edd94d076f47bb94b9e584",
          "topics": [
            "0xf93f9a76c1bf3444d22400a00cb9fe990e6abe9dbb333fda48859cfee864543d",
            "0x0000000000000000000000006f9756d1200cc1910ba3452b90596e1b6467d6dd"
          ],
          "data": "0x0000000000000000000000000000000000000000000000000000000000000001",
          "blockHash": "0xffeabc7c76a8ff7c00e5fe7e5c0f03195085f49c78e8dfa63933bd42a45fdc04",
          "blockNumber": "0x3d3e3d7",
          "transactionHash": "0x21b9ebafb60dc68d10f4e7f8f78bf4aedb8f482fc2f80e04a8981a376e8ed6fa",
          "transactionIndex": "0x0",
          "logIndex": "0x0",
          "removed": false
        }
      ],
      "logsBloom": "0x00000000000000040004000000000000000002000000000000000000000000000000000000000000000000000000000000000000000000000000000000000001000000000000000000000000000000000000000000000000000000000000000000000001000000000000000000000000000000000000000000000000000000000000000000000000000000000000000000000000000000000000000000000000000000000000000000000000000040000000000000000000010000000000000000000000000000000000000000000000000000000000000000000000000000000000000000000000000000000000040000000000002000000000000000000000",
      "type": "0x0",
      "transactionHash": "0x21b9ebafb60dc68d10f4e7f8f78bf4aedb8f482fc2f80e04a8981a376e8ed6fa",
      "transactionIndex": "0x0",
      "blockHash": "0xffeabc7c76a8ff7c00e5fe7e5c0f03195085f49c78e8dfa63933bd42a45fdc04",
      "blockNumber": "0x3d3e3d7",
      "gasUsed": "0x6f47",
      "effectiveGasPrice": "0x3b9aca00",
      "from": "0xbe1e2c05a20df20a3ecd0ec12617b296a58ee2a1",
      "to": "0xc81cd7f8588c2614c4edd94d076f47bb94b9e584",
      "contractAddress": null
    },
    {
      "status": "0x1",
      "cumulativeGasUsed": "0x6f47",
      "logs": [
        {
          "address": "0xc81cd7f8588c2614c4edd94d076f47bb94b9e584",
          "topics": [
            "0xf93f9a76c1bf3444d22400a00cb9fe990e6abe9dbb333fda48859cfee864543d",
            "0x000000000000000000000000be1e2c05a20df20a3ecd0ec12617b296a58ee2a1"
          ],
          "data": "0x0000000000000000000000000000000000000000000000000000000000000001",
          "blockHash": "0x36bca1a1b9ea057d97bd374fbc83bcc6e1e068f55dc3f555767c5ef0ebb0519b",
          "blockNumber": "0x3d3e3d9",
          "transactionHash": "0x47d18afbb7d240cf307fe9d78d25b096af89004bc021ebe028967d7d8011db1d",
          "transactionIndex": "0x0",
          "logIndex": "0x0",
          "removed": false
        }
      ],
      "logsBloom": "0x00000000000000040000000000000000000002000000000000000000000000000000000000000000000000000000000000000000000000000000000000000001000000000000000000000000000000000000000000000000000000200000000000000001000000000000000000000000000000000000000000000000000000000000000000000000000000000000000000000000000000000000000000000000000000000000000000000000000000000000000000000000000000000000000000000000000000000000040000800000000000000000000000000000000000000000000000000000000000000000040000000000002000000000000000000000",
      "type": "0x0",
      "transactionHash": "0x47d18afbb7d240cf307fe9d78d25b096af89004bc021ebe028967d7d8011db1d",
      "transactionIndex": "0x0",
      "blockHash": "0x36bca1a1b9ea057d97bd374fbc83bcc6e1e068f55dc3f555767c5ef0ebb0519b",
      "blockNumber": "0x3d3e3d9",
      "gasUsed": "0x6f47",
      "effectiveGasPrice": "0x3b9aca00",
      "from": "0xbe1e2c05a20df20a3ecd0ec12617b296a58ee2a1",
      "to": "0xc81cd7f8588c2614c4edd94d076f47bb94b9e584",
      "contractAddress": null
    },
    {
      "status": "0x1",
      "cumulativeGasUsed": "0x2a90f",
      "logs": [
        {
          "address": "0xc81cd7f8588c2614c4edd94d076f47bb94b9e584",
          "topics": [
            "0x8c5be1e5ebec7d5bd14f71427d1e84f3dd0314c0f7b2291e5b200ac8c7c3b925",
            "0x000000000000000000000000be1e2c05a20df20a3ecd0ec12617b296a58ee2a1",
            "0x0000000000000000000000006f9756d1200cc1910ba3452b90596e1b6467d6dd"
          ],
          "data": "0xffffffffffffffffffffffffffffffffffffffffffffffffffffffffffffffff",
          "blockHash": "0xcad484b486ebbfd10b8accfbace7c3db11220e9f93baeae7f733c675c89cc103",
          "blockNumber": "0x3d3e3dc",
          "transactionHash": "0x746ae2ef1b86bf7470819bb0bb1bbac631c36b28fcf1b7e2d3dcb81f21bd8c1e",
          "transactionIndex": "0x1",
          "logIndex": "0x3",
          "removed": false
        }
      ],
      "logsBloom": "0x00000000000000040004000000000000000002000000000000000000000000000000000000000000000000000000000000000000000000000000000000200001000000000000000000000000000000000000000000000000000000200000000000000000000000000000000000000000000000000000000000000000000000000000000000000000000000000000000000000000000000000000000000000000020000000000000000000000000040000000000000000000010000000000000000000000000000000000040000800000000000000000000000000000000000000010000000000000000000000000000000000000000000000000000000000000",
      "type": "0x0",
      "transactionHash": "0x746ae2ef1b86bf7470819bb0bb1bbac631c36b28fcf1b7e2d3dcb81f21bd8c1e",
      "transactionIndex": "0x1",
      "blockHash": "0xcad484b486ebbfd10b8accfbace7c3db11220e9f93baeae7f733c675c89cc103",
      "blockNumber": "0x3d3e3dc",
      "gasUsed": "0xb4e9",
      "effectiveGasPrice": "0x3b9aca00",
      "from": "0xbe1e2c05a20df20a3ecd0ec12617b296a58ee2a1",
      "to": "0xc81cd7f8588c2614c4edd94d076f47bb94b9e584",
      "contractAddress": null
    }
  ],
  "libraries": [],
  "pending": [],
  "returns": {},
  "timestamp": 1757005453,
  "chain": 97,
  "commit": "ca50851"
}