{
  "transactions": [
    {
      "hash": "0x59b6a3a667b0b97143da5d544c9bde2c4161394cc18c20cb8e250b4fa7993d99",
      "transactionType": "CALL",
      "contractName": null,
      "contractAddress": "0xc81cd7f8588c2614c4edd94d076f47bb94b9e584",
      "function": "addToWhitelist(address,bool)",
      "arguments": [
        "0x7DC0743f1af695E9E4354A7C2aB629e9261b7d56",
        "true"
      ],
      "transaction": {
        "from": "0xbe1e2c05a20df20a3ecd0ec12617b296a58ee2a1",
        "to": "0xc81cd7f8588c2614c4edd94d076f47bb94b9e584",
        "gas": "0x99b3",
        "value": "0x0",
        "input": "0xbc93233f0000000000000000000000007dc0743f1af695e9e4354a7c2ab629e9261b7d560000000000000000000000000000000000000000000000000000000000000001",
        "nonce": "0x4c6",
        "chainId": "0x61"
      },
      "additionalContracts": [],
      "isFixedGasLimit": false
    },
    {
      "hash": "0x76c93d4a577181e12a5b7d8fc63a6acac77832a2f750e3b6a168688b93cb8628",
      "transactionType": "CALL",
      "contractName": null,
      "contractAddress": "0xc81cd7f8588c2614c4edd94d076f47bb94b9e584",
      "function": "approve(address,uint256)",
      "arguments": [
        "0x6F9756D1200cc1910BA3452B90596E1b6467d6dD",
        "115792089237316195423570985008687907853269984665640564039457584007913129639935"
      ],
      "transaction": {
        "from": "0xbe1e2c05a20df20a3ecd0ec12617b296a58ee2a1",
        "to": "0xc81cd7f8588c2614c4edd94d076f47bb94b9e584",
        "gas": "0x8e81",
        "value": "0x0",
        "input": "0x095ea7b30000000000000000000000006f9756d1200cc1910ba3452b90596e1b6467d6ddffffffffffffffffffffffffffffffffffffffffffffffffffffffffffffffff",
        "nonce": "0x4c7",
        "chainId": "0x61"
      },
      "additionalContracts": [],
      "isFixedGasLimit": false
    }
  ],
  "receipts": [
    {
      "status": "0x1",
      "cumulativeGasUsed": "0xed56",
      "logs": [
        {
          "address": "0xc81cd7f8588c2614c4edd94d076f47bb94b9e584",
          "topics": [
            "0xf93f9a76c1bf3444d22400a00cb9fe990e6abe9dbb333fda48859cfee864543d",
            "0x0000000000000000000000007dc0743f1af695e9e4354a7c2ab629e9261b7d56"
          ],
          "data": "0x0000000000000000000000000000000000000000000000000000000000000001",
          "blockHash": "0x479eae367656b492542317ff22a9677b604b4cbd3fc2aae499f2a3efbacdceae",
          "blockNumber": "0x3d58af7",
          "transactionHash": "0x59b6a3a667b0b97143da5d544c9bde2c4161394cc18c20cb8e250b4fa7993d99",
          "transactionIndex": "0x1",
          "logIndex": "0x1",
          "removed": false
        }
      ],
      "logsBloom": "0x00000000000000040000000000000000000002000000000000000000000000000000000000000000000000000000000000000000000000000000000001000001000000000000000000000000000000000000000000000000000000000000000000000001000000000000000000000000000001000000000000000000000000000000000000000000000000000000000000000000000000000000000000000000000000000000000000000000000000000000000000000000000000000000000000000000000000000000008000000000000000000000000000000000000000000000000000000000000000000000040000000000002000000000000000000000",
      "type": "0x0",
      "transactionHash": "0x59b6a3a667b0b97143da5d544c9bde2c4161394cc18c20cb8e250b4fa7993d99",
      "transactionIndex": "0x1",
      "blockHash": "0x479eae367656b492542317ff22a9677b604b4cbd3fc2aae499f2a3efbacdceae",
      "blockNumber": "0x3d58af7",
      "gasUsed": "0x6f47",
      "effectiveGasPrice": "0x3b9aca00",
      "from": "0xbe1e2c05a20df20a3ecd0ec12617b296a58ee2a1",
      "to": "0xc81cd7f8588c2614c4edd94d076f47bb94b9e584",
      "contractAddress": null
    },
    {
      "status": "0x1",
      "cumulativeGasUsed": "0xf592",
      "logs": [
        {
          "address": "0xc81cd7f8588c2614c4edd94d076f47bb94b9e584",
          "topics": [
            "0x8c5be1e5ebec7d5bd14f71427d1e84f3dd0314c0f7b2291e5b200ac8c7c3b925",
            "0x000000000000000000000000be1e2c05a20df20a3ecd0ec12617b296a58ee2a1",
            "0x0000000000000000000000006f9756d1200cc1910ba3452b90596e1b6467d6dd"
          ],
          "data": "0xffffffffffffffffffffffffffffffffffffffffffffffffffffffffffffffff",
          "blockHash": "0x08fc2ea2caed20415a6c2c620ddc1f7cd2be3a4a94a8d9aaf7a2cde80484b0ef",
          "blockNumber": "0x3d58af9",
          "transactionHash": "0x76c93d4a577181e12a5b7d8fc63a6acac77832a2f750e3b6a168688b93cb8628",
          "transactionIndex": "0x1",
          "logIndex": "0x0",
          "removed": false
        }
      ],
      "logsBloom": "0x00000000000000040004000000000000000002000000000000000000000000000000000000000000000000000000000000000000000000000000000000200001000000000000000000000000000000000000000000000000000000200000000000000000000000000000000000000000000000000000000000000000000000000000000000000000000000000000000000000000000000000000000000000000020000000000000000000000000040000000000000000000010000000000000000000000000000000000040000800000000000000000000000000000000000000010000000000000000000000000000000000000000000000000000000000000",
      "type": "0x0",
      "transactionHash": "0x76c93d4a577181e12a5b7d8fc63a6acac77832a2f750e3b6a168688b93cb8628",
      "transactionIndex": "0x1",
      "blockHash": "0x08fc2ea2caed20415a6c2c620ddc1f7cd2be3a4a94a8d9aaf7a2cde80484b0ef",
      "blockNumber": "0x3d58af9",
      "gasUsed": "0x672d",
      "effectiveGasPrice": "0x3b9aca00",
      "from": "0xbe1e2c05a20df20a3ecd0ec12617b296a58ee2a1",
      "to": "0xc81cd7f8588c2614c4edd94d076f47bb94b9e584",
      "contractAddress": null
    }
  ],
  "libraries": [],
  "pending": [],
  "returns": {},
  "timestamp": 1757086828,
  "chain": 97,
  "commit": "fc47bd6"
}