{
  "transactions": [
    {
      "hash": "0xd23e6ae9fd707066136339f9732f7e382104a4d47a03a26d0e233b5db032123a",
      "transactionType": "CALL",
      "contractName": null,
      "contractAddress": "0xc81cd7f8588c2614c4edd94d076f47bb94b9e584",
      "function": "addToWhitelist(address,bool)",
      "arguments": [
        "0x81598Cdb1aB34C3a3dC9273313799620Ae52fd3c",
        "true"
      ],
      "transaction": {
        "from": "0xbe1e2c05a20df20a3ecd0ec12617b296a58ee2a1",
        "to": "0xc81cd7f8588c2614c4edd94d076f47bb94b9e584",
        "gas": "0x1146d",
        "value": "0x0",
        "input": "0xbc93233f00000000000000000000000081598cdb1ab34c3a3dc9273313799620ae52fd3c0000000000000000000000000000000000000000000000000000000000000001",
        "nonce": "0x4bc",
        "chainId": "0x61"
      },
      "additionalContracts": [],
      "isFixedGasLimit": false
    },
    {
      "hash": "0xa22033d72d0e1add8ae56b813b574de6b3756352a473e7172cf9e3cdd079d59e",
      "transactionType": "CALL",
      "contractName": null,
      "contractAddress": "0xc81cd7f8588c2614c4edd94d076f47bb94b9e584",
      "function": "approve(address,uint256)",
      "arguments": [
        "0x6F9756D1200cc1910BA3452B90596E1b6467d6dD",
        "115792089237316195423570985008687907853269984665640564039457584007913129639935"
      ],
      "transaction": {
        "from": "0xbe1e2c05a20df20a3ecd0ec12617b296a58ee2a1",
        "to": "0xc81cd7f8588c2614c4edd94d076f47bb94b9e584",
        "gas": "0x8e81",
        "value": "0x0",
        "input": "0x095ea7b30000000000000000000000006f9756d1200cc1910ba3452b90596e1b6467d6ddffffffffffffffffffffffffffffffffffffffffffffffffffffffffffffffff",
        "nonce": "0x4bd",
        "chainId": "0x61"
      },
      "additionalContracts": [],
      "isFixedGasLimit": false
    }
  ],
  "receipts": [
    {
      "status": "0x1",
      "cumulativeGasUsed": "0x55287",
      "logs": [
        {
          "address": "0xc81cd7f8588c2614c4edd94d076f47bb94b9e584",
          "topics": [
            "0xf93f9a76c1bf3444d22400a00cb9fe990e6abe9dbb333fda48859cfee864543d",
            "0x00000000000000000000000081598cdb1ab34c3a3dc9273313799620ae52fd3c"
          ],
          "data": "0x0000000000000000000000000000000000000000000000000000000000000001",
          "blockHash": "0x020b6cc6a2a6699e25cbe39b526882bf2bf4adaee69b745146912b9a9e195fcd",
          "blockNumber": "0x3d4d0c6",
          "transactionHash": "0xd23e6ae9fd707066136339f9732f7e382104a4d47a03a26d0e233b5db032123a",
          "transactionIndex": "0x3",
          "logIndex": "0x9",
          "removed": false
        }
      ],
      "logsBloom": "0x00000000000000040000000000000000000002000000000000000000000000000000000000000000000000000000000000000000000000000000000000000001000000000080000000000000000000000000000000000000000000000000000000000001000000000000008000000000000000000000000000000000000000000000000000000000000000000000000000000000000000000000000000000000000000000000000000000000000000000000000000000000004000000000000000000000000000000000000000000000000000000000000000000000000000000000000000000000000000000000040000000000002000000000000000000000",
      "type": "0x0",
      "transactionHash": "0xd23e6ae9fd707066136339f9732f7e382104a4d47a03a26d0e233b5db032123a",
      "transactionIndex": "0x3",
      "blockHash": "0x020b6cc6a2a6699e25cbe39b526882bf2bf4adaee69b745146912b9a9e195fcd",
      "blockNumber": "0x3d4d0c6",
      "gasUsed": "0xbd03",
      "effectiveGasPrice": "0x3b9aca00",
      "from": "0xbe1e2c05a20df20a3ecd0ec12617b296a58ee2a1",
      "to": "0xc81cd7f8588c2614c4edd94d076f47bb94b9e584",
      "contractAddress": null
    },
    {
      "status": "0x1",
      "cumulativeGasUsed": "0xb935",
      "logs": [
        {
          "address": "0xc81cd7f8588c2614c4edd94d076f47bb94b9e584",
          "topics": [
            "0x8c5be1e5ebec7d5bd14f71427d1e84f3dd0314c0f7b2291e5b200ac8c7c3b925",
            "0x000000000000000000000000be1e2c05a20df20a3ecd0ec12617b296a58ee2a1",
            "0x0000000000000000000000006f9756d1200cc1910ba3452b90596e1b6467d6dd"
          ],
          "data": "0xffffffffffffffffffffffffffffffffffffffffffffffffffffffffffffffff",
          "blockHash": "0xd99da7a29630cc870c9ff7aaae8f34b546921ab84810d19d266e2b92b4509883",
          "blockNumber": "0x3d4d0c9",
          "transactionHash": "0xa22033d72d0e1add8ae56b813b574de6b3756352a473e7172cf9e3cdd079d59e",
          "transactionIndex": "0x1",
          "logIndex": "0x0",
          "removed": false
        }
      ],
      "logsBloom": "0x00000000000000040004000000000000000002000000000000000000000000000000000000000000000000000000000000000000000000000000000000200001000000000000000000000000000000000000000000000000000000200000000000000000000000000000000000000000000000000000000000000000000000000000000000000000000000000000000000000000000000000000000000000000020000000000000000000000000040000000000000000000010000000000000000000000000000000000040000800000000000000000000000000000000000000010000000000000000000000000000000000000000000000000000000000000",
      "type": "0x0",
      "transactionHash": "0xa22033d72d0e1add8ae56b813b574de6b3756352a473e7172cf9e3cdd079d59e",
      "transactionIndex": "0x1",
      "blockHash": "0xd99da7a29630cc870c9ff7aaae8f34b546921ab84810d19d266e2b92b4509883",
      "blockNumber": "0x3d4d0c9",
      "gasUsed": "0x672d",
      "effectiveGasPrice": "0x3b9aca00",
      "from": "0xbe1e2c05a20df20a3ecd0ec12617b296a58ee2a1",
      "to": "0xc81cd7f8588c2614c4edd94d076f47bb94b9e584",
      "contractAddress": null
    }
  ],
  "libraries": [],
  "pending": [],
  "returns": {},
  "timestamp": 1757051021,
  "chain": 97,
  "commit": "8a572bb"
}