{
  "transactions": [
    {
      "hash": "0x2d85a35c52bb2fbe32ea61e33a3a90187947b41d809c107cc6544c8c995ac153",
      "transactionType": "CALL",
      "contractName": null,
      "contractAddress": "0x5eb1344ac5b1df370292ef0b255678d0c550b924",
      "function": "addToWhitelist(address,bool)",
      "arguments": [
        "0xfB290B4903bad26fe1C2Fb89cf6402529aA61e0c",
        "true"
      ],
      "transaction": {
        "from": "0xbe1e2c05a20df20a3ecd0ec12617b296a58ee2a1",
        "to": "0x5eb1344ac5b1df370292ef0b255678d0c550b924",
        "gas": "0x1146d",
        "value": "0x0",
        "input": "0xbc93233f000000000000000000000000fb290b4903bad26fe1c2fb89cf6402529aa61e0c0000000000000000000000000000000000000000000000000000000000000001",
        "nonce": "0x473",
        "chainId": "0x61"
      },
      "additionalContracts": [],
      "isFixedGasLimit": false
    }
  ],
  "receipts": [
    {
      "status": "0x1",
      "cumulativeGasUsed": "0x1f0cf",
      "logs": [
        {
          "address": "0x5eb1344ac5b1df370292ef0b255678d0c550b924",
          "topics": [
            "0xf93f9a76c1bf3444d22400a00cb9fe990e6abe9dbb333fda48859cfee864543d",
            "0x000000000000000000000000fb290b4903bad26fe1c2fb89cf6402529aa61e0c"
          ],
          "data": "0x0000000000000000000000000000000000000000000000000000000000000001",
          "blockHash": "0x9bc867344e7ba6809a5c2e8c6d1ddc8d7cfbf5059d18a203084cc4162c974a56",
          "blockNumber": "0x3d3d5dd",
          "transactionHash": "0x2d85a35c52bb2fbe32ea61e33a3a90187947b41d809c107cc6544c8c995ac153",
          "transactionIndex": "0x1",
          "logIndex": "0x3",
          "removed": false
        }
      ],
      "logsBloom": "0x00000000000000000000000000000000000000000000000000000000000000000000000000000000000000000000000000000000000000000000000000000000000000000000000000000200000000000000000000000000010000000000000000000001000000000000000000000000000400000000000000000000000000000000000000000000000000000000000000000000000000004000000000000000000000000000000000000000000000000000000000000000000000000000000000000000000000000000000000000000000000000000000000000000000000000000000000000000000000000000040000000000002100010000000000000000",
      "type": "0x0",
      "transactionHash": "0x2d85a35c52bb2fbe32ea61e33a3a90187947b41d809c107cc6544c8c995ac153",
      "transactionIndex": "0x1",
      "blockHash": "0x9bc867344e7ba6809a5c2e8c6d1ddc8d7cfbf5059d18a203084cc4162c974a56",
      "blockNumber": "0x3d3d5dd",
      "gasUsed": "0xbd03",
      "effectiveGasPrice": "0x3b9aca00",
      "from": "0xbe1e2c05a20df20a3ecd0ec12617b296a58ee2a1",
      "to": "0x5eb1344ac5b1df370292ef0b255678d0c550b924",
      "contractAddress": null
    }
  ],
  "libraries": [],
  "pending": [],
  "returns": {},
  "timestamp": 1757002763,
  "chain": 97,
  "commit": "ca50851"
}