{
  "transactions": [
    {
      "hash": "0x96046357f89066999dd172752811acdb28f64901e6fd74e961a4a984883e76d1",
      "transactionType": "CALL",
      "contractName": null,
      "contractAddress": "0xa4c53902eb8aeca930a911d2c42b2eab8a297540",
      "function": "addToWhitelist(address)",
      "arguments": [
        "0xC171c9CC175632dfd2F8402381Cc22c2B5733B8e"
      ],
      "transaction": {
        "from": "0xbe1e2c05a20df20a3ecd0ec12617b296a58ee2a1",
        "to": "0xa4c53902eb8aeca930a911d2c42b2eab8a297540",
        "gas": "0x10490",
        "value": "0x0",
        "input": "0xe43252d7000000000000000000000000c171c9cc175632dfd2f8402381cc22c2b5733b8e",
        "nonce": "0x4c0",
        "chainId": "0x61"
      },
      "additionalContracts": [],
      "isFixedGasLimit": false
    }
  ],
  "receipts": [
    {
      "status": "0x1",
      "cumulativeGasUsed": "0x160b5",
      "logs": [
        {
          "address": "0xa4c53902eb8aeca930a911d2c42b2eab8a297540",
          "topics": [
            "0xf93f9a76c1bf3444d22400a00cb9fe990e6abe9dbb333fda48859cfee864543d",
            "0x000000000000000000000000c171c9cc175632dfd2f8402381cc22c2b5733b8e"
          ],
          "data": "0x0000000000000000000000000000000000000000000000000000000000000001",
          "blockHash": "0x29eeafaf6827fdaa3ab509d1c9fd15dc12a4bb96064a9314d3e6759b1dab1c73",
          "blockNumber": "0x3d51a75",
          "transactionHash": "0x96046357f89066999dd172752811acdb28f64901e6fd74e961a4a984883e76d1",
          "transactionIndex": "0x2",
          "logIndex": "0x0",
          "removed": false
        }
      ],
      "logsBloom": "0x00000000000000000000000000000000000000000000000000000000000000000000000000000000000000000000000000000000000000000000000000000000000000000000000000000000000000000000000000000000000000000000000000000001000000000000000000000000000000000000000000000000000000000000000000000000000300000000000000000000000000020000000000000000000000000000000000000000000000000000000000000000000000000000000000000000000000000020000000000000000020000000000010000000000000000000000000000000000000000000040000000000002000000000000000000000",
      "type": "0x0",
      "transactionHash": "0x96046357f89066999dd172752811acdb28f64901e6fd74e961a4a984883e76d1",
      "transactionIndex": "0x2",
      "blockHash": "0x29eeafaf6827fdaa3ab509d1c9fd15dc12a4bb96064a9314d3e6759b1dab1c73",
      "blockNumber": "0x3d51a75",
      "gasUsed": "0xbca5",
      "effectiveGasPrice": "0x3b9aca00",
      "from": "0xbe1e2c05a20df20a3ecd0ec12617b296a58ee2a1",
      "to": "0xa4c53902eb8aeca930a911d2c42b2eab8a297540",
      "contractAddress": null
    }
  ],
  "libraries": [],
  "pending": [],
  "returns": {},
  "timestamp": 1757065184,
  "chain": 97,
  "commit": "fc47bd6"
}