{
  "transactions": [
    {
      "hash": "0x5ebeca4769034632337452f0df3690335d111559f9a548aaadca94bc8bcbd881",
      "transactionType": "CALL",
      "contractName": null,
      "contractAddress": "0x2f158cd2593fb01774d4f6ed128cd5cde1e8c886",
      "function": "setMinter(address,bool)",
      "arguments": [
        "0xBE1e2C05a20Df20a3EcD0ec12617B296A58ee2A1",
        "true"
      ],
      "transaction": {
        "from": "0xbe1e2c05a20df20a3ecd0ec12617b296a58ee2a1",
        "to": "0x2f158cd2593fb01774d4f6ed128cd5cde1e8c886",
        "gas": "0x11461",
        "value": "0x0",
        "input": "0xcf456ae7000000000000000000000000be1e2c05a20df20a3ecd0ec12617b296a58ee2a10000000000000000000000000000000000000000000000000000000000000001",
        "nonce": "0x41c",
        "chainId": "0x61"
      },
      "additionalContracts": [],
      "isFixedGasLimit": false
    },
    {
      "hash": "0x5a881af7a0c306398ee193ac804e2890767ed82871f59b16b59ff363f6915150",
      "transactionType": "CALL",
      "contractName": null,
      "contractAddress": "0x2f158cd2593fb01774d4f6ed128cd5cde1e8c886",
      "function": "mint(address,uint256)",
      "arguments": [
        "0xBE1e2C05a20Df20a3EcD0ec12617B296A58ee2A1",
        "200000000000000000000000000"
      ],
      "transaction": {
        "from": "0xbe1e2c05a20df20a3ecd0ec12617b296a58ee2a1",
        "to": "0x2f158cd2593fb01774d4f6ed128cd5cde1e8c886",
        "gas": "0x137a2",
        "value": "0x0",
        "input": "0x40c10f19000000000000000000000000be1e2c05a20df20a3ecd0ec12617b296a58ee2a1000000000000000000000000000000000000000000a56fa5b99019a5c8000000",
        "nonce": "0x41d",
        "chainId": "0x61"
      },
      "additionalContracts": [],
      "isFixedGasLimit": false
    }
  ],
  "receipts": [
    {
      "status": "0x1",
      "cumulativeGasUsed": "0xbcfb",
      "logs": [
        {
          "address": "0x2f158cd2593fb01774d4f6ed128cd5cde1e8c886",
          "topics": [
            "0xb21afb9ce9be0a676f8f317ff0ca072fb89a4f8ce2d1b6fe80f8755c14f1cb19",
            "0x000000000000000000000000be1e2c05a20df20a3ecd0ec12617b296a58ee2a1"
          ],
          "data": "0x0000000000000000000000000000000000000000000000000000000000000001",
          "blockHash": "0x6365462ff465dc7110dc0ca72c778d81daca4f5dab2d7934bfc77c5a85f3ba14",
          "blockNumber": "0x3d20d25",
          "transactionHash": "0x5ebeca4769034632337452f0df3690335d111559f9a548aaadca94bc8bcbd881",
          "transactionIndex": "0x0",
          "logIndex": "0x0",
          "removed": false
        }
      ],
      "logsBloom": "0x00000000000000000000000000000000000000000000000000000000000000000000000000000000000000000000000000000000000000040000000000000080000000000000000000000000000000000000000000000000000000200000000000000000000000000000000000000000002000000000010000000000040000000000000000000000000000000000000000000000000000000000200000000000000000000000000000000000000000000000000000000000000000000000000000000000000000000000040000800000000000000000000000000000000000000000000000000000000000000000000000000000000000000000000000000000",
      "type": "0x0",
      "transactionHash": "0x5ebeca4769034632337452f0df3690335d111559f9a548aaadca94bc8bcbd881",
      "transactionIndex": "0x0",
      "blockHash": "0x6365462ff465dc7110dc0ca72c778d81daca4f5dab2d7934bfc77c5a85f3ba14",
      "blockNumber": "0x3d20d25",
      "gasUsed": "0xbcfb",
      "effectiveGasPrice": "0x3b9aca00",
      "from": "0xbe1e2c05a20df20a3ecd0ec12617b296a58ee2a1",
      "to": "0x2f158cd2593fb01774d4f6ed128cd5cde1e8c886",
      "contractAddress": null
    },
    {
      "status": "0x1",
      "cumulativeGasUsed": "0x20f94",
      "logs": [
        {
          "address": "0x2f158cd2593fb01774d4f6ed128cd5cde1e8c886",
          "topics": [
            "0xddf252ad1be2c89b69c2b068fc378daa952ba7f163c4a11628f55a4df523b3ef",
            "0x0000000000000000000000000000000000000000000000000000000000000000",
            "0x000000000000000000000000be1e2c05a20df20a3ecd0ec12617b296a58ee2a1"
          ],
          "data": "0x000000000000000000000000000000000000000000a56fa5b99019a5c8000000",
          "blockHash": "0x6680544d550cba104c5b461446addf2e767d236aef4d09304933ba5a6eb31172",
          "blockNumber": "0x3d20d28",
          "transactionHash": "0x5a881af7a0c306398ee193ac804e2890767ed82871f59b16b59ff363f6915150",
          "transactionIndex": "0x1",
          "logIndex": "0x1",
          "removed": false
        },
        {
          "address": "0x2f158cd2593fb01774d4f6ed128cd5cde1e8c886",
          "topics": [
            "0x68885acc0d4d52967f8c4265578ad97d47a93661cfbf91b06d9ad0cb625a31f0",
            "0x000000000000000000000000be1e2c05a20df20a3ecd0ec12617b296a58ee2a1",
            "0x000000000000000000000000be1e2c05a20df20a3ecd0ec12617b296a58ee2a1"
          ],
          "data": "0x000000000000000000000000000000000000000000a56fa5b99019a5c80000000000000000000000000000000000000000000000000000000000000068b864e6",
          "blockHash": "0x6680544d550cba104c5b461446addf2e767d236aef4d09304933ba5a6eb31172",
          "blockNumber": "0x3d20d28",
          "transactionHash": "0x5a881af7a0c306398ee193ac804e2890767ed82871f59b16b59ff363f6915150",
          "transactionIndex": "0x1",
          "logIndex": "0x2",
          "removed": false
        }
      ],
      "logsBloom": "0x00000000000000000000000000000000000000000000000000000000000000000000000000000000000000200000000000000000000000000000000000000000000000010000000000000008000000000000000000000000000000200000000000000000020000000000000000000800002000000000010000000010040000000000000000000000000000000000000000000000000000000000000000000000000000000000000000000000000000000000000000000000000000000000000000000002000000000000040000800000000000000000000000000000000020000000000000000000002000000000000000000000000000000000000000000000",
      "type": "0x0",
      "transactionHash": "0x5a881af7a0c306398ee193ac804e2890767ed82871f59b16b59ff363f6915150",
      "transactionIndex": "0x1",
      "blockHash": "0x6680544d550cba104c5b461446addf2e767d236aef4d09304933ba5a6eb31172",
      "blockNumber": "0x3d20d28",
      "gasUsed": "0xe19f",
      "effectiveGasPrice": "0x3b9aca00",
      "from": "0xbe1e2c05a20df20a3ecd0ec12617b296a58ee2a1",
      "to": "0x2f158cd2593fb01774d4f6ed128cd5cde1e8c886",
      "contractAddress": null
    }
  ],
  "libraries": [],
  "pending": [],
  "returns": {},
  "timestamp": 1756914919,
  "chain": 97,
  "commit": "7fe5643"
}