{
  "transactions": [
    {
      "hash": "0xd25e44ae0eca0e1dd0fdc28e199c6b44138c841b70a7d0676f5cba8aff960158",
      "transactionType": "CALL",
      "contractName": null,
      "contractAddress": "0xbe8044902dfdd687ddb5cd1e2659c84463aa9da1",
      "function": "setMinter(address,bool)",
      "arguments": [
        "0xBE1e2C05a20Df20a3EcD0ec12617B296A58ee2A1",
        "true"
      ],
      "transaction": {
        "from": "0xbe1e2c05a20df20a3ecd0ec12617b296a58ee2a1",
        "to": "0xbe8044902dfdd687ddb5cd1e2659c84463aa9da1",
        "gas": "0x11461",
        "value": "0x0",
        "input": "0xcf456ae7000000000000000000000000be1e2c05a20df20a3ecd0ec12617b296a58ee2a10000000000000000000000000000000000000000000000000000000000000001",
        "nonce": "0x3c5",
        "chainId": "0x61"
      },
      "additionalContracts": [],
      "isFixedGasLimit": false
    },
    {
      "hash": "0xe20d18e8966cfad6b26f6bba387ac9ff69445833bdb1fff299b6d8764fb19a7b",
      "transactionType": "CALL",
      "contractName": null,
      "contractAddress": "0xbe8044902dfdd687ddb5cd1e2659c84463aa9da1",
      "function": "mint(address,uint256)",
      "arguments": [
        "0xBE1e2C05a20Df20a3EcD0ec12617B296A58ee2A1",
        "200000000000000000000000000"
      ],
      "transaction": {
        "from": "0xbe1e2c05a20df20a3ecd0ec12617b296a58ee2a1",
        "to": "0xbe8044902dfdd687ddb5cd1e2659c84463aa9da1",
        "gas": "0x12c9d",
        "value": "0x0",
        "input": "0x40c10f19000000000000000000000000be1e2c05a20df20a3ecd0ec12617b296a58ee2a1000000000000000000000000000000000000000000a56fa5b99019a5c8000000",
        "nonce": "0x3c6",
        "chainId": "0x61"
      },
      "additionalContracts": [],
      "isFixedGasLimit": false
    }
  ],
  "receipts": [
    {
      "status": "0x1",
      "cumulativeGasUsed": "0xbcfb",
      "logs": [
        {
          "address": "0xbe8044902dfdd687ddb5cd1e2659c84463aa9da1",
          "topics": [
            "0xb21afb9ce9be0a676f8f317ff0ca072fb89a4f8ce2d1b6fe80f8755c14f1cb19",
            "0x000000000000000000000000be1e2c05a20df20a3ecd0ec12617b296a58ee2a1"
          ],
          "data": "0x0000000000000000000000000000000000000000000000000000000000000001",
          "blockHash": "0x04cce39a70970155a590d61d53bd24fc1e525749b35aa89b525e3eb06b583af7",
          "blockNumber": "0x3ce056a",
          "transactionHash": "0xd25e44ae0eca0e1dd0fdc28e199c6b44138c841b70a7d0676f5cba8aff960158",
          "transactionIndex": "0x0",
          "logIndex": "0x0",
          "removed": false
        }
      ],
      "logsBloom": "0x00000000000000000000000000000000000000000000000000000000000000000000000000000000000000000000000000000000000000040000000000000080000000000000000000000000000000000000000000000000000000200000000000000000000000000000000000000000000000000000000000000000000000001000000000000000000000000000000000000000000000000000200000000000000000000000000000000400000000000000000000000000000000000000000000000000000000000000040000800100000000000000000000000000000000000000000000000000000000000000000000000000000000000000000000000000",
      "type": "0x0",
      "transactionHash": "0xd25e44ae0eca0e1dd0fdc28e199c6b44138c841b70a7d0676f5cba8aff960158",
      "transactionIndex": "0x0",
      "blockHash": "0x04cce39a70970155a590d61d53bd24fc1e525749b35aa89b525e3eb06b583af7",
      "blockNumber": "0x3ce056a",
      "gasUsed": "0xbcfb",
      "effectiveGasPrice": "0x3b9aca00",
      "from": "0xbe1e2c05a20df20a3ecd0ec12617b296a58ee2a1",
      "to": "0xbe8044902dfdd687ddb5cd1e2659c84463aa9da1",
      "contractAddress": null
    },
    {
      "status": "0x1",
      "cumulativeGasUsed": "0xd9a4",
      "logs": [
        {
          "address": "0xbe8044902dfdd687ddb5cd1e2659c84463aa9da1",
          "topics": [
            "0xddf252ad1be2c89b69c2b068fc378daa952ba7f163c4a11628f55a4df523b3ef",
            "0x0000000000000000000000000000000000000000000000000000000000000000",
            "0x000000000000000000000000be1e2c05a20df20a3ecd0ec12617b296a58ee2a1"
          ],
          "data": "0x000000000000000000000000000000000000000000a56fa5b99019a5c8000000",
          "blockHash": "0xf0135cf3e0b76f1bddd646da0f05ff494d54f79c54ffbbdc618918df83c68179",
          "blockNumber": "0x3ce056d",
          "transactionHash": "0xe20d18e8966cfad6b26f6bba387ac9ff69445833bdb1fff299b6d8764fb19a7b",
          "transactionIndex": "0x0",
          "logIndex": "0x0",
          "removed": false
        }
      ],
      "logsBloom": "0x00000000000000000000000000000000000000000000000000000000000000000000000000000000000000000000000000000000000000000000000000000000000000000000000000000008000000000000000000000000000000200000000000000000020000000000000000000800000000000000000000000010000000001000000000000000000000000000000000000000000000000000000000000000000000000000000000000400000000000000000000000000000000000000000000000002000000000000040000800100000000000000000000000000000020000000000000000000000000000000000000000000000000000000000000000000",
      "type": "0x0",
      "transactionHash": "0xe20d18e8966cfad6b26f6bba387ac9ff69445833bdb1fff299b6d8764fb19a7b",
      "transactionIndex": "0x0",
      "blockHash": "0xf0135cf3e0b76f1bddd646da0f05ff494d54f79c54ffbbdc618918df83c68179",
      "blockNumber": "0x3ce056d",
      "gasUsed": "0xd9a4",
      "effectiveGasPrice": "0x3b9aca00",
      "from": "0xbe1e2c05a20df20a3ecd0ec12617b296a58ee2a1",
      "to": "0xbe8044902dfdd687ddb5cd1e2659c84463aa9da1",
      "contractAddress": null
    }
  ],
  "libraries": [],
  "pending": [],
  "returns": {},
  "timestamp": 1756716490,
  "chain": 97,
  "commit": "6bcc466"
}