{
  "transactions": [
    {
      "hash": "0xa6b105d4cbbd45f77f2c3c8f3bb6a73ae0a968bd7ffdc177994f9eceab668757",
      "transactionType": "CALL",
      "contractName": null,
      "contractAddress": "0xa4c53902eb8aeca930a911d2c42b2eab8a297540",
      "function": "addToWhitelist(address)",
      "arguments": [
        "0xfB290B4903bad26fe1C2Fb89cf6402529aA61e0c"
      ],
      "transaction": {
        "from": "0xbe1e2c05a20df20a3ecd0ec12617b296a58ee2a1",
        "to": "0xa4c53902eb8aeca930a911d2c42b2eab8a297540",
        "gas": "0x10490",
        "value": "0x0",
        "input": "0xe43252d7000000000000000000000000fb290b4903bad26fe1c2fb89cf6402529aa61e0c",
        "nonce": "0x4c9",
        "chainId": "0x61"
      },
      "additionalContracts": [],
      "isFixedGasLimit": false
    }
  ],
  "receipts": [
    {
      "status": "0x1",
      "cumulativeGasUsed": "0xbca5",
      "logs": [
        {
          "address": "0xa4c53902eb8aeca930a911d2c42b2eab8a297540",
          "topics": [
            "0xf93f9a76c1bf3444d22400a00cb9fe990e6abe9dbb333fda48859cfee864543d",
            "0x000000000000000000000000fb290b4903bad26fe1c2fb89cf6402529aa61e0c"
          ],
          "data": "0x0000000000000000000000000000000000000000000000000000000000000001",
          "blockHash": "0x61d266c2eafbad34501cccc8bce4a7f2ef64f2ee4a235f5c9e53f81c25585217",
          "blockNumber": "0x3d58c81",
          "transactionHash": "0xa6b105d4cbbd45f77f2c3c8f3bb6a73ae0a968bd7ffdc177994f9eceab668757",
          "transactionIndex": "0x0",
          "logIndex": "0x0",
          "removed": false
        }
      ],
      "logsBloom": "0x00000000000000000000000000000000000000000000000000000000000000000000000000000000000000000000000000000000000000000000000000000000000000000000000000000200000000000000000000000000010000000000000000000001000000000000000000000000000000000000000000000000000000000000000000000000000000000000000000000000000000024000000000000000000000000000000000000000000000000000000000000000000000000000000000000000000000000020000000000000000020000000000000000000000000000000000000000000000000000000040000000000002000000000000000000000",
      "type": "0x0",
      "transactionHash": "0xa6b105d4cbbd45f77f2c3c8f3bb6a73ae0a968bd7ffdc177994f9eceab668757",
      "transactionIndex": "0x0",
      "blockHash": "0x61d266c2eafbad34501cccc8bce4a7f2ef64f2ee4a235f5c9e53f81c25585217",
      "blockNumber": "0x3d58c81",
      "gasUsed": "0xbca5",
      "effectiveGasPrice": "0x3b9aca00",
      "from": "0xbe1e2c05a20df20a3ecd0ec12617b296a58ee2a1",
      "to": "0xa4c53902eb8aeca930a911d2c42b2eab8a297540",
      "contractAddress": null
    }
  ],
  "libraries": [],
  "pending": [],
  "returns": {},
  "timestamp": 1757087123,
  "chain": 97,
  "commit": "fc47bd6"
}