{
  "transactions": [
    {
      "hash": "0xbf00f5eb3fe767b88a33608bf73c48e886aea978e025130785ccc36b4ad9eaf3",
      "transactionType": "CALL",
      "contractName": null,
      "contractAddress": "0xd21ec0b6841fafb562dbce9ab8d49e89ef0c6a57",
      "function": "addToWhitelist(address)",
      "arguments": [
        "0xfB290B4903bad26fe1C2Fb89cf6402529aA61e0c"
      ],
      "transaction": {
        "from": "0xbe1e2c05a20df20a3ecd0ec12617b296a58ee2a1",
        "to": "0xd21ec0b6841fafb562dbce9ab8d49e89ef0c6a57",
        "gas": "0x10490",
        "value": "0x0",
        "input": "0xe43252d7000000000000000000000000fb290b4903bad26fe1c2fb89cf6402529aa61e0c",
        "nonce": "0x474",
        "chainId": "0x61"
      },
      "additionalContracts": [],
      "isFixedGasLimit": false
    }
  ],
  "receipts": [
    {
      "status": "0x1",
      "cumulativeGasUsed": "0xbca5",
      "logs": [
        {
          "address": "0xd21ec0b6841fafb562dbce9ab8d49e89ef0c6a57",
          "topics": [
            "0xf93f9a76c1bf3444d22400a00cb9fe990e6abe9dbb333fda48859cfee864543d",
            "0x000000000000000000000000fb290b4903bad26fe1c2fb89cf6402529aa61e0c"
          ],
          "data": "0x0000000000000000000000000000000000000000000000000000000000000001",
          "blockHash": "0xce57be1278f4b8ff70c37b4c4690dcec9dd225f655dddec070b2cea39ce84205",
          "blockNumber": "0x3d3d5e3",
          "transactionHash": "0xbf00f5eb3fe767b88a33608bf73c48e886aea978e025130785ccc36b4ad9eaf3",
          "transactionIndex": "0x0",
          "logIndex": "0x0",
          "removed": false
        }
      ],
      "logsBloom": "0x00000000000000000000000000000000000000000000000004000000000000000000000000000000000000000000000000000000000000000000000000000000000000000000000000000200000000000000000000000000010000000000000040000001000000000000000000000000000000000000000000000000000000000000000000000000000000000000000000000000000000004000000000040000000000000000000000000000000000000000000000000000000000000000000000000000000000000000000000000000000000000000000000000000000000000000000000000000000000000000040000000000002000000000000000000000",
      "type": "0x0",
      "transactionHash": "0xbf00f5eb3fe767b88a33608bf73c48e886aea978e025130785ccc36b4ad9eaf3",
      "transactionIndex": "0x0",
      "blockHash": "0xce57be1278f4b8ff70c37b4c4690dcec9dd225f655dddec070b2cea39ce84205",
      "blockNumber": "0x3d3d5e3",
      "gasUsed": "0xbca5",
      "effectiveGasPrice": "0x3b9aca00",
      "from": "0xbe1e2c05a20df20a3ecd0ec12617b296a58ee2a1",
      "to": "0xd21ec0b6841fafb562dbce9ab8d49e89ef0c6a57",
      "contractAddress": null
    }
  ],
  "libraries": [],
  "pending": [],
  "returns": {},
  "timestamp": 1757002767,
  "chain": 97,
  "commit": "ca50851"
}