{
  "transactions": [
    {
      "hash": "0x12ac81cbb11e29cc4001feca9463c725d2e7a3b1d8cd8db0107881bd66d29ff4",
      "transactionType": "CALL",
      "contractName": null,
      "contractAddress": "0xa4c53902eb8aeca930a911d2c42b2eab8a297540",
      "function": "setSwapPair(address,bool)",
      "arguments": [
        "0x86849255aaD23Bf02B1514de507CdBbFC7cF5A6d",
        "true"
      ],
      "transaction": {
        "from": "0xbe1e2c05a20df20a3ecd0ec12617b296a58ee2a1",
        "to": "0xa4c53902eb8aeca930a911d2c42b2eab8a297540",
        "gas": "0x11785",
        "value": "0x0",
        "input": "0x8348a28800000000000000000000000086849255aad23bf02b1514de507cdbbfc7cf5a6d0000000000000000000000000000000000000000000000000000000000000001",
        "nonce": "0x4b9",
        "chainId": "0x61"
      },
      "additionalContracts": [],
      "isFixedGasLimit": false
    }
  ],
  "receipts": [
    {
      "status": "0x1",
      "cumulativeGasUsed": "0xca5f",
      "logs": [
        {
          "address": "0xa4c53902eb8aeca930a911d2c42b2eab8a297540",
          "topics": [
            "0xda775fe65b87d02afd6ce385afebe9e6398be213feaca101f01f0e002c6a2bf1",
            "0x00000000000000000000000086849255aad23bf02b1514de507cdbbfc7cf5a6d"
          ],
          "data": "0x0000000000000000000000000000000000000000000000000000000000000001",
          "blockHash": "0xf959da4a975a7f67fe38b95b7dd5e650808883927dbecec2d7c9f956b9c64843",
          "blockNumber": "0x3d4b58d",
          "transactionHash": "0x12ac81cbb11e29cc4001feca9463c725d2e7a3b1d8cd8db0107881bd66d29ff4",
          "transactionIndex": "0x0",
          "logIndex": "0x0",
          "removed": false
        },
        {
          "address": "0xa4c53902eb8aeca930a911d2c42b2eab8a297540",
          "topics": [
            "0xf93f9a76c1bf3444d22400a00cb9fe990e6abe9dbb333fda48859cfee864543d",
            "0x00000000000000000000000086849255aad23bf02b1514de507cdbbfc7cf5a6d"
          ],
          "data": "0x0000000000000000000000000000000000000000000000000000000000000001",
          "blockHash": "0xf959da4a975a7f67fe38b95b7dd5e650808883927dbecec2d7c9f956b9c64843",
          "blockNumber": "0x3d4b58d",
          "transactionHash": "0x12ac81cbb11e29cc4001feca9463c725d2e7a3b1d8cd8db0107881bd66d29ff4",
          "transactionIndex": "0x0",
          "logIndex": "0x1",
          "removed": false
        }
      ],
      "logsBloom": "0x00000000000000000000000000000000000000000000000000000000000000020000000000000000000000000000000000000000000000000000000000000000000000000000000000000000000000001000004000000000000000000000000000000001000000000000000000000000000000000000000000000000000000000000000000000000000000000000000000000000000000020000000000000000000000000000400000000000000000000000000000000000000000000000000000000000000000000020000000000000000020000000020000000000000000000000000000000000000000010000040000000000002000000000000000000000",
      "type": "0x0",
      "transactionHash": "0x12ac81cbb11e29cc4001feca9463c725d2e7a3b1d8cd8db0107881bd66d29ff4",
      "transactionIndex": "0x0",
      "blockHash": "0xf959da4a975a7f67fe38b95b7dd5e650808883927dbecec2d7c9f956b9c64843",
      "blockNumber": "0x3d4b58d",
      "gasUsed": "0xca5f",
      "effectiveGasPrice": "0x3b9aca00",
      "from": "0xbe1e2c05a20df20a3ecd0ec12617b296a58ee2a1",
      "to": "0xa4c53902eb8aeca930a911d2c42b2eab8a297540",
      "contractAddress": null
    }
  ],
  "libraries": [],
  "pending": [],
  "returns": {},
  "timestamp": 1757045779,
  "chain": 97,
  "commit": "8a572bb"
}