{
  "transactions": [
    {
      "hash": "0xde656ebbe011fe09ddc8eb09cb453c84998b0cb87b9a61cddcea6a576ae3d3a1",
      "transactionType": "CALL",
      "contractName": null,
      "contractAddress": "0xd21ec0b6841fafb562dbce9ab8d49e89ef0c6a57",
      "function": "addToWhitelist(address)",
      "arguments": [
        "0xBE1e2C05a20Df20a3EcD0ec12617B296A58ee2A1"
      ],
      "transaction": {
        "from": "0xbe1e2c05a20df20a3ecd0ec12617b296a58ee2a1",
        "to": "0xd21ec0b6841fafb562dbce9ab8d49e89ef0c6a57",
        "gas": "0xa234",
        "value": "0x0",
        "input": "0xe43252d7000000000000000000000000be1e2c05a20df20a3ecd0ec12617b296a58ee2a1",
        "nonce": "0x462",
        "chainId": "0x61"
      },
      "additionalContracts": [],
      "isFixedGasLimit": false
    },
    {
      "hash": "0xc33d95cd44651cf8ec630b57ceafe852479ad9ee3faace344964ad65eee90bc0",
      "transactionType": "CALL",
      "contractName": null,
      "contractAddress": "0xd21ec0b6841fafb562dbce9ab8d49e89ef0c6a57",
      "function": "addToWhitelist(address)",
      "arguments": [
        "0xC3FD7Bf8f0646151cA73F1A20575fDD6D06A71Dc"
      ],
      "transaction": {
        "from": "0xbe1e2c05a20df20a3ecd0ec12617b296a58ee2a1",
        "to": "0xd21ec0b6841fafb562dbce9ab8d49e89ef0c6a57",
        "gas": "0x10490",
        "value": "0x0",
        "input": "0xe43252d7000000000000000000000000c3fd7bf8f0646151ca73f1a20575fdd6d06a71dc",
        "nonce": "0x463",
        "chainId": "0x61"
      },
      "additionalContracts": [],
      "isFixedGasLimit": false
    },
    {
      "hash": "0x7f5d2d22fe0acfd5cd97fa153cc9d9a287952791e56aa2667a398ab233733dce",
      "transactionType": "CALL",
      "contractName": null,
      "contractAddress": "0xd21ec0b6841fafb562dbce9ab8d49e89ef0c6a57",
      "function": "setMinter(address,bool)",
      "arguments": [
        "0xBE1e2C05a20Df20a3EcD0ec12617B296A58ee2A1",
        "true"
      ],
      "transaction": {
        "from": "0xbe1e2c05a20df20a3ecd0ec12617b296a58ee2a1",
        "to": "0xd21ec0b6841fafb562dbce9ab8d49e89ef0c6a57",
        "gas": "0x11482",
        "value": "0x0",
        "input": "0xcf456ae7000000000000000000000000be1e2c05a20df20a3ecd0ec12617b296a58ee2a10000000000000000000000000000000000000000000000000000000000000001",
        "nonce": "0x464",
        "chainId": "0x61"
      },
      "additionalContracts": [],
      "isFixedGasLimit": false
    },
    {
      "hash": "0xcb812359a2cb0827ff7511e64e95379c47d9bd8936b0de726a668375a176907f",
      "transactionType": "CALL",
      "contractName": null,
      "contractAddress": "0xd21ec0b6841fafb562dbce9ab8d49e89ef0c6a57",
      "function": "mint(address,uint256)",
      "arguments": [
        "0xBE1e2C05a20Df20a3EcD0ec12617B296A58ee2A1",
        "200000000000000000000000000"
      ],
      "transaction": {
        "from": "0xbe1e2c05a20df20a3ecd0ec12617b296a58ee2a1",
        "to": "0xd21ec0b6841fafb562dbce9ab8d49e89ef0c6a57",
        "gas": "0x137a2",
        "value": "0x0",
        "input": "0x40c10f19000000000000000000000000be1e2c05a20df20a3ecd0ec12617b296a58ee2a1000000000000000000000000000000000000000000a56fa5b99019a5c8000000",
        "nonce": "0x465",
        "chainId": "0x61"
      },
      "additionalContracts": [],
      "isFixedGasLimit": false
    }
  ],
  "receipts": [
    {
      "status": "0x1",
      "cumulativeGasUsed": "0x1001b",
      "logs": [
        {
          "address": "0xd21ec0b6841fafb562dbce9ab8d49e89ef0c6a57",
          "topics": [
            "0xf93f9a76c1bf3444d22400a00cb9fe990e6abe9dbb333fda48859cfee864543d",
            "0x000000000000000000000000be1e2c05a20df20a3ecd0ec12617b296a58ee2a1"
          ],
          "data": "0x0000000000000000000000000000000000000000000000000000000000000001",
          "blockHash": "0x2ffc0b249c9778c0871bc4dda80b81f0784ff06c603c677c4e7953d2fea37175",
          "blockNumber": "0x3d37c3e",
          "transactionHash": "0xde656ebbe011fe09ddc8eb09cb453c84998b0cb87b9a61cddcea6a576ae3d3a1",
          "transactionIndex": "0x1",
          "logIndex": "0x1",
          "removed": false
        }
      ],
      "logsBloom": "0x00000000000000000000000000000000000000000000000004000000000000000000000000000000000000000000000000000000000000000000000000000000000000000000000000000000000000000000000000000000000000200000000040000001000000000000000000000000000000000000000000000000000000000000000000000000000000000000000000000000000000000000000000040000000000000000000000000000000000000000000000000000000000000000000000000000000000000000040000800000000000000000000000000000000000000000000000000000000000000000040000000000002000000000000000000000",
      "type": "0x0",
      "transactionHash": "0xde656ebbe011fe09ddc8eb09cb453c84998b0cb87b9a61cddcea6a576ae3d3a1",
      "transactionIndex": "0x1",
      "blockHash": "0x2ffc0b249c9778c0871bc4dda80b81f0784ff06c603c677c4e7953d2fea37175",
      "blockNumber": "0x3d37c3e",
      "gasUsed": "0x6ee9",
      "effectiveGasPrice": "0x3b9aca00",
      "from": "0xbe1e2c05a20df20a3ecd0ec12617b296a58ee2a1",
      "to": "0xd21ec0b6841fafb562dbce9ab8d49e89ef0c6a57",
      "contractAddress": null
    },
    {
      "status": "0x1",
      "cumulativeGasUsed": "0x1d272",
      "logs": [
        {
          "address": "0xd21ec0b6841fafb562dbce9ab8d49e89ef0c6a57",
          "topics": [
            "0xf93f9a76c1bf3444d22400a00cb9fe990e6abe9dbb333fda48859cfee864543d",
            "0x000000000000000000000000c3fd7bf8f0646151ca73f1a20575fdd6d06a71dc"
          ],
          "data": "0x0000000000000000000000000000000000000000000000000000000000000001",
          "blockHash": "0x6962590ba5cb9823ef9aa0ad69ff9c0ee6facc5ab4997c3eddae3e22522e5c12",
          "blockNumber": "0x3d37c41",
          "transactionHash": "0xc33d95cd44651cf8ec630b57ceafe852479ad9ee3faace344964ad65eee90bc0",
          "transactionIndex": "0x1",
          "logIndex": "0x1",
          "removed": false
        }
      ],
      "logsBloom": "0x00000000000000000000000000000000000000000000000004000000000000000000000000000000000000000000000000000000000000000000000000000000000000000000000400000000000000000000000000000000002000000000000040000001000000000000000000000000000000000000000000000000000000000000000000000000000000000000000000000000000000000000000000040000000000000000000000000000000000000000000000000000000000000000000000000000000000000000000000000000000000000000000000000000000000000000100000000000000000000000040000000000002000000000000000000000",
      "type": "0x0",
      "transactionHash": "0xc33d95cd44651cf8ec630b57ceafe852479ad9ee3faace344964ad65eee90bc0",
      "transactionIndex": "0x1",
      "blockHash": "0x6962590ba5cb9823ef9aa0ad69ff9c0ee6facc5ab4997c3eddae3e22522e5c12",
      "blockNumber": "0x3d37c41",
      "gasUsed": "0xbca5",
      "effectiveGasPrice": "0x3b9aca00",
      "from": "0xbe1e2c05a20df20a3ecd0ec12617b296a58ee2a1",
      "to": "0xd21ec0b6841fafb562dbce9ab8d49e89ef0c6a57",
      "contractAddress": null
    },
    {
      "status": "0x1",
      "cumulativeGasUsed": "0x13edf",
      "logs": [
        {
          "address": "0xd21ec0b6841fafb562dbce9ab8d49e89ef0c6a57",
          "topics": [
            "0xb21afb9ce9be0a676f8f317ff0ca072fb89a4f8ce2d1b6fe80f8755c14f1cb19",
            "0x000000000000000000000000be1e2c05a20df20a3ecd0ec12617b296a58ee2a1"
          ],
          "data": "0x0000000000000000000000000000000000000000000000000000000000000001",
          "blockHash": "0xbc5159b04f767f65fbcce92a71b8825a5513dab52c468958bda8ca13d4827187",
          "blockNumber": "0x3d37c43",
          "transactionHash": "0x7f5d2d22fe0acfd5cd97fa153cc9d9a287952791e56aa2667a398ab233733dce",
          "transactionIndex": "0x1",
          "logIndex": "0x1",
          "removed": false
        }
      ],
      "logsBloom": "0x00000000000000000000000000000000000000000000000004000000000000000000000000000000000000000000000000000000000000040000000000000080000000000000000000000000000000000000000000000000000000200000000040000000000000000000000000000000000000000000000000000000000000000000000000000000000000000000000000000000000000000000200000040000000000000000000000000000000000000000000000000000000000000000000000000000000000000000040000800000000000000000000000000000000000000000000000000000000000000000000000000000000000000000000000000000",
      "type": "0x0",
      "transactionHash": "0x7f5d2d22fe0acfd5cd97fa153cc9d9a287952791e56aa2667a398ab233733dce",
      "transactionIndex": "0x1",
      "blockHash": "0xbc5159b04f767f65fbcce92a71b8825a5513dab52c468958bda8ca13d4827187",
      "blockNumber": "0x3d37c43",
      "gasUsed": "0xbd11",
      "effectiveGasPrice": "0x3b9aca00",
      "from": "0xbe1e2c05a20df20a3ecd0ec12617b296a58ee2a1",
      "to": "0xd21ec0b6841fafb562dbce9ab8d49e89ef0c6a57",
      "contractAddress": null
    },
    {
      "status": "0x1",
      "cumulativeGasUsed": "0xe19f",
      "logs": [
        {
          "address": "0xd21ec0b6841fafb562dbce9ab8d49e89ef0c6a57",
          "topics": [
            "0xddf252ad1be2c89b69c2b068fc378daa952ba7f163c4a11628f55a4df523b3ef",
            "0x0000000000000000000000000000000000000000000000000000000000000000",
            "0x000000000000000000000000be1e2c05a20df20a3ecd0ec12617b296a58ee2a1"
          ],
          "data": "0x000000000000000000000000000000000000000000a56fa5b99019a5c8000000",
          "blockHash": "0x2e2aa0acba86966b1dadc0dac5a4a125d68732aede8076151941b337f2a77d7a",
          "blockNumber": "0x3d37c46",
          "transactionHash": "0xcb812359a2cb0827ff7511e64e95379c47d9bd8936b0de726a668375a176907f",
          "transactionIndex": "0x0",
          "logIndex": "0x0",
          "removed": false
        },
        {
          "address": "0xd21ec0b6841fafb562dbce9ab8d49e89ef0c6a57",
          "topics": [
            "0x68885acc0d4d52967f8c4265578ad97d47a93661cfbf91b06d9ad0cb625a31f0",
            "0x000000000000000000000000be1e2c05a20df20a3ecd0ec12617b296a58ee2a1",
            "0x000000000000000000000000be1e2c05a20df20a3ecd0ec12617b296a58ee2a1"
          ],
          "data": "0x000000000000000000000000000000000000000000a56fa5b99019a5c80000000000000000000000000000000000000000000000000000000000000068b978bf",
          "blockHash": "0x2e2aa0acba86966b1dadc0dac5a4a125d68732aede8076151941b337f2a77d7a",
          "blockNumber": "0x3d37c46",
          "transactionHash": "0xcb812359a2cb0827ff7511e64e95379c47d9bd8936b0de726a668375a176907f",
          "transactionIndex": "0x0",
          "logIndex": "0x1",
          "removed": false
        }
      ],
      "logsBloom": "0x00000000000000000000000000000000000000000000000004000000000000000000000000000000000000200000000000000000000000000000000000000000000000010000000000000008000000000000000000000000000000200000000040000000020000000000000000000800000000000000000000000010000000000000000000000000000000000000000000000000000000000000000000040000000000000000000000000000000000000000000000000000000000000000000000000002000000000000040000800000000000000000000000000000000020000000000000000000002000000000000000000000000000000000000000000000",
      "type": "0x0",
      "transactionHash": "0xcb812359a2cb0827ff7511e64e95379c47d9bd8936b0de726a668375a176907f",
      "transactionIndex": "0x0",
      "blockHash": "0x2e2aa0acba86966b1dadc0dac5a4a125d68732aede8076151941b337f2a77d7a",
      "blockNumber": "0x3d37c46",
      "gasUsed": "0xe19f",
      "effectiveGasPrice": "0x3b9aca00",
      "from": "0xbe1e2c05a20df20a3ecd0ec12617b296a58ee2a1",
      "to": "0xd21ec0b6841fafb562dbce9ab8d49e89ef0c6a57",
      "contractAddress": null
    }
  ],
  "libraries": [],
  "pending": [],
  "returns": {},
  "timestamp": 1756985536,
  "chain": 97,
  "commit": "ae095ca"
}