{
  "transactions": [
    {
      "hash": "0xd94f3a091a741584392b03f7e457c72878655771220fa4e96698c28068d5f29b",
      "transactionType": "CALL",
      "contractName": null,
      "contractAddress": "0x2f158cd2593fb01774d4f6ed128cd5cde1e8c886",
      "function": "addToWhitelist(address)",
      "arguments": [
        "0x81598Cdb1aB34C3a3dC9273313799620Ae52fd3c"
      ],
      "transaction": {
        "from": "0xbe1e2c05a20df20a3ecd0ec12617b296a58ee2a1",
        "to": "0x2f158cd2593fb01774d4f6ed128cd5cde1e8c886",
        "gas": "0x10471",
        "value": "0x0",
        "input": "0xe43252d700000000000000000000000081598cdb1ab34c3a3dc9273313799620ae52fd3c",
        "nonce": "0x42a",
        "chainId": "0x61"
      },
      "additionalContracts": [],
      "isFixedGasLimit": false
    }
  ],
  "receipts": [
    {
      "status": "0x1",
      "cumulativeGasUsed": "0xbc8f",
      "logs": [
        {
          "address": "0x2f158cd2593fb01774d4f6ed128cd5cde1e8c886",
          "topics": [
            "0xf93f9a76c1bf3444d22400a00cb9fe990e6abe9dbb333fda48859cfee864543d",
            "0x00000000000000000000000081598cdb1ab34c3a3dc9273313799620ae52fd3c"
          ],
          "data": "0x0000000000000000000000000000000000000000000000000000000000000001",
          "blockHash": "0x9c4e8280a361012f45672be0ce6746d22b8c5c4fc14e0074db7b99a061f3d00f",
          "blockNumber": "0x3d2e96a",
          "transactionHash": "0xd94f3a091a741584392b03f7e457c72878655771220fa4e96698c28068d5f29b",
          "transactionIndex": "0x0",
          "logIndex": "0x0",
          "removed": false
        }
      ],
      "logsBloom": "0x00000000000000000000000000000000000000000000000000000000000000000000000000000000000000000000000000000000000000000000000000000000000000000080000000000000000000000000000000000000000000000000000000000001000000000000008000000000002000000000010000000000040000000000000000000000000000000000000000000000000000000000000000000000000000000000000000000000000000000000000000000000004000000000000000000000000000000000000000000000000000000000000000000000000000000000000000000000000000000000040000000000002000000000000000000000",
      "type": "0x0",
      "transactionHash": "0xd94f3a091a741584392b03f7e457c72878655771220fa4e96698c28068d5f29b",
      "transactionIndex": "0x0",
      "blockHash": "0x9c4e8280a361012f45672be0ce6746d22b8c5c4fc14e0074db7b99a061f3d00f",
      "blockNumber": "0x3d2e96a",
      "gasUsed": "0xbc8f",
      "effectiveGasPrice": "0x3b9aca00",
      "from": "0xbe1e2c05a20df20a3ecd0ec12617b296a58ee2a1",
      "to": "0x2f158cd2593fb01774d4f6ed128cd5cde1e8c886",
      "contractAddress": null
    }
  ],
  "libraries": [],
  "pending": [],
  "returns": {},
  "timestamp": 1756957279,
  "chain": 97,
  "commit": "936265d"
}