{
  "transactions": [
    {
      "hash": "0x1a5156bdfea11ddee247913beebaea2954aec184e726b95e81ce57f9ffa04fde",
      "transactionType": "CALL",
      "contractName": null,
      "contractAddress": "0x2f158cd2593fb01774d4f6ed128cd5cde1e8c886",
      "function": "addToWhitelist(address)",
      "arguments": [
        "0xfa59b5895B11517EE64Fb0F9dDED097F7628afDF"
      ],
      "transaction": {
        "from": "0xbe1e2c05a20df20a3ecd0ec12617b296a58ee2a1",
        "to": "0x2f158cd2593fb01774d4f6ed128cd5cde1e8c886",
        "gas": "0xa214",
        "value": "0x0",
        "input": "0xe43252d7000000000000000000000000fa59b5895b11517ee64fb0f9dded097f7628afdf",
        "nonce": "0x414",
        "chainId": "0x61"
      },
      "additionalContracts": [],
      "isFixedGasLimit": false
    }
  ],
  "receipts": [
    {
      "status": "0x1",
      "cumulativeGasUsed": "0x6ed3",
      "logs": [
        {
          "address": "0x2f158cd2593fb01774d4f6ed128cd5cde1e8c886",
          "topics": [
            "0xf93f9a76c1bf3444d22400a00cb9fe990e6abe9dbb333fda48859cfee864543d",
            "0x000000000000000000000000fa59b5895b11517ee64fb0f9dded097f7628afdf"
          ],
          "data": "0x0000000000000000000000000000000000000000000000000000000000000001",
          "blockHash": "0x650e6e72dacb55b87a866dfe658e5419548a006812214bf9f99335abc43c008e",
          "blockNumber": "0x3d17b64",
          "transactionHash": "0x1a5156bdfea11ddee247913beebaea2954aec184e726b95e81ce57f9ffa04fde",
          "transactionIndex": "0x0",
          "logIndex": "0x0",
          "removed": false
        }
      ],
      "logsBloom": "0x00000000000000000000000000000000000000000000000000000000000000000000000000000000000000000000000000000000000000000000000000000000000000000008000000000000000000000000000000000000000000000000000000000001000000000000000000000000002000000000010000000000040000000000000000000000000000000000000000000020000000000000000000000000000000000000000000000000000000000000000200000000000000000000000000000000000000000000000000000000000000000000000000000000000000000000000000000000000000000000040000000000002000000000000000000000",
      "type": "0x0",
      "transactionHash": "0x1a5156bdfea11ddee247913beebaea2954aec184e726b95e81ce57f9ffa04fde",
      "transactionIndex": "0x0",
      "blockHash": "0x650e6e72dacb55b87a866dfe658e5419548a006812214bf9f99335abc43c008e",
      "blockNumber": "0x3d17b64",
      "gasUsed": "0x6ed3",
      "effectiveGasPrice": "0x3b9aca00",
      "from": "0xbe1e2c05a20df20a3ecd0ec12617b296a58ee2a1",
      "to": "0x2f158cd2593fb01774d4f6ed128cd5cde1e8c886",
      "contractAddress": null
    }
  ],
  "libraries": [],
  "pending": [],
  "returns": {},
  "timestamp": 1756886894,
  "chain": 97,
  "commit": "9bc0fbb"
}