{
  "transactions": [
    {
      "hash": "0x79973b5e3117f99c22d275f7a06471389e558ae65e141990585d35a37cb96fb2",
      "transactionType": "CALL",
      "contractName": null,
      "contractAddress": "0x34c8ae68a1b68d48f508c00580cab739e8d15df6",
      "function": "grantOperatorRole(address)",
      "arguments": [
        "0x48156499e1f1502B6806B5B5Babbc027B475EBcc"
      ],
      "transaction": {
        "from": "0xbe1e2c05a20df20a3ecd0ec12617b296a58ee2a1",
        "to": "0x34c8ae68a1b68d48f508c00580cab739e8d15df6",
        "gas": "0x11d71",
        "value": "0x0",
        "input": "0x27ac0c5800000000000000000000000048156499e1f1502b6806b5b5babbc027b475ebcc",
        "nonce": "0x2b1",
        "chainId": "0x61"
      },
      "additionalContracts": [],
      "isFixedGasLimit": false
    }
  ],
  "receipts": [
    {
      "status": "0x1",
      "cumulativeGasUsed": "0xcea8",
      "logs": [
        {
          "address": "0x34c8ae68a1b68d48f508c00580cab739e8d15df6",
          "topics": [
            "0x2f8788117e7eff1d82e926ec794901d17c78024a50270940304540a733656f0d",
            "0x97667070c54ef182b0f5858b034beac1b6f3089aa2d3188bb1e8929f4fa9b929",
            "0x00000000000000000000000048156499e1f1502b6806b5b5babbc027b475ebcc",
            "0x000000000000000000000000be1e2c05a20df20a3ecd0ec12617b296a58ee2a1"
          ],
          "data": "0x",
          "blockHash": "0x369c77acbee5b5e9c01094f7a002cbc9a28b04b809c8abddb46c350d0fa81a97",
          "blockNumber": "0x3b03f48",
          "transactionHash": "0x79973b5e3117f99c22d275f7a06471389e558ae65e141990585d35a37cb96fb2",
          "transactionIndex": "0x0",
          "logIndex": "0x0",
          "removed": false
        }
      ],
      "logsBloom": "0x00000004000000000000000000000000000000000000000000000000000000000200000000000000000000000000000000000000000000000000000200000000000000000000000000000000000000000002000000000000000000200000000000000000000000000000000000000000000000000000000000000000000000000000000000000000000000000000000000000000000000000000200000000000000000000000000000000000000000000000000000008000001000000001000000000000000000000000040000800000000000000000008108000000080000000000000000000000000000000000000000000000000000000000000000000000",
      "type": "0x0",
      "transactionHash": "0x79973b5e3117f99c22d275f7a06471389e558ae65e141990585d35a37cb96fb2",
      "transactionIndex": "0x0",
      "blockHash": "0x369c77acbee5b5e9c01094f7a002cbc9a28b04b809c8abddb46c350d0fa81a97",
      "blockNumber": "0x3b03f48",
      "gasUsed": "0xcea8",
      "effectiveGasPrice": "0x3b9aca00",
      "from": "0xbe1e2c05a20df20a3ecd0ec12617b296a58ee2a1",
      "to": "0x34c8ae68a1b68d48f508c00580cab739e8d15df6",
      "contractAddress": null
    }
  ],
  "libraries": [],
  "pending": [],
  "returns": {},
  "timestamp": 1755250304,
  "chain": 97,
  "commit": "ab0d9b2"
}