{
  "transactions": [
    {
      "hash": "0x32cc2fd05bc573666cb775a1454eac3b63e2817e51bad3af7fdd3228c4fdad18",
      "transactionType": "CALL",
      "contractName": null,
      "contractAddress": "0x39c5d3e3b8f5594623636ecdbdf135838b47b558",
      "function": "grantOperatorRole(address)",
      "arguments": [
        "0x48156499e1f1502B6806B5B5Babbc027B475EBcc"
      ],
      "transaction": {
        "from": "0xbe1e2c05a20df20a3ecd0ec12617b296a58ee2a1",
        "to": "0x39c5d3e3b8f5594623636ecdbdf135838b47b558",
        "gas": "0x11d71",
        "value": "0x0",
        "input": "0x27ac0c5800000000000000000000000048156499e1f1502b6806b5b5babbc027b475ebcc",
        "nonce": "0x2eb",
        "chainId": "0x61"
      },
      "additionalContracts": [],
      "isFixedGasLimit": false
    }
  ],
  "receipts": [
    {
      "status": "0x1",
      "cumulativeGasUsed": "0x162fa",
      "logs": [
        {
          "address": "0x39c5d3e3b8f5594623636ecdbdf135838b47b558",
          "topics": [
            "0x2f8788117e7eff1d82e926ec794901d17c78024a50270940304540a733656f0d",
            "0x97667070c54ef182b0f5858b034beac1b6f3089aa2d3188bb1e8929f4fa9b929",
            "0x00000000000000000000000048156499e1f1502b6806b5b5babbc027b475ebcc",
            "0x000000000000000000000000be1e2c05a20df20a3ecd0ec12617b296a58ee2a1"
          ],
          "data": "0x",
          "blockHash": "0xf0c681341380d6e602feea6cc0fd0dab7d77c552819aa58d9aaf886002a21aa8",
          "blockNumber": "0x3b716df",
          "transactionHash": "0x32cc2fd05bc573666cb775a1454eac3b63e2817e51bad3af7fdd3228c4fdad18",
          "transactionIndex": "0x1",
          "logIndex": "0x0",
          "removed": false
        }
      ],
      "logsBloom": "0x00000004000000000000000000000000000000000000000000000000000000000200000004000000000000000000000000000000000000000000000200000000000000000000000000000000000000000002000000000000000000200000000000000000000000000000000000000000000000000000000000000000000000000000000000000000000000000000000000000000000000000000000000800000000000000000080000000000000000000000000000008000001000000001000000000000000000000000040000800000000000000000000108000000000000000000000000000000000000000000000000000000000000000000000000000000",
      "type": "0x0",
      "transactionHash": "0x32cc2fd05bc573666cb775a1454eac3b63e2817e51bad3af7fdd3228c4fdad18",
      "transactionIndex": "0x1",
      "blockHash": "0xf0c681341380d6e602feea6cc0fd0dab7d77c552819aa58d9aaf886002a21aa8",
      "blockNumber": "0x3b716df",
      "gasUsed": "0xcea8",
      "effectiveGasPrice": "0x3b9aca00",
      "from": "0xbe1e2c05a20df20a3ecd0ec12617b296a58ee2a1",
      "to": "0x39c5d3e3b8f5594623636ecdbdf135838b47b558",
      "contractAddress": null
    }
  ],
  "libraries": [],
  "pending": [],
  "returns": {},
  "timestamp": 1755587468,
  "chain": 97,
  "commit": "fd06cee"
}