{
  "transactions": [
    {
      "hash": "0x836d05e369d851c682cf43f0d4dac02f3cc3b9ed437e868f6c05acd0d507f1f7",
      "transactionType": "CALL",
      "contractName": null,
      "contractAddress": "0x39c5d3e3b8f5594623636ecdbdf135838b47b558",
      "function": "setBuyFee(address,bool,uint256)",
      "arguments": [
        "0xaE49bFCe31392A55eF3332B9a07d0534122327CA",
        "true",
        "1000"
      ],
      "transaction": {
        "from": "0xbe1e2c05a20df20a3ecd0ec12617b296a58ee2a1",
        "to": "0x39c5d3e3b8f5594623636ecdbdf135838b47b558",
        "gas": "0xb13d",
        "value": "0x0",
        "input": "0x0cff0607000000000000000000000000ae49bfce31392a55ef3332b9a07d0534122327ca000000000000000000000000000000000000000000000000000000000000000100000000000000000000000000000000000000000000000000000000000003e8",
        "nonce": "0x309",
        "chainId": "0x61"
      },
      "additionalContracts": [],
      "isFixedGasLimit": false
    }
  ],
  "receipts": [
    {
      "status": "0x1",
      "cumulativeGasUsed": "0x7931",
      "logs": [],
      "logsBloom": "0x00000000000000000000000000000000000000000000000000000000000000000000000000000000000000000000000000000000000000000000000000000000000000000000000000000000000000000000000000000000000000000000000000000000000000000000000000000000000000000000000000000000000000000000000000000000000000000000000000000000000000000000000000000000000000000000000000000000000000000000000000000000000000000000000000000000000000000000000000000000000000000000000000000000000000000000000000000000000000000000000000000000000000000000000000000000",
      "type": "0x0",
      "transactionHash": "0x836d05e369d851c682cf43f0d4dac02f3cc3b9ed437e868f6c05acd0d507f1f7",
      "transactionIndex": "0x0",
      "blockHash": "0xab692e654b562523b8cfedf2b8479ef8cbc70c3b1f7ff52066af13664467538a",
      "blockNumber": "0x3bb5195",
      "gasUsed": "0x7931",
      "effectiveGasPrice": "0x3b9aca00",
      "from": "0xbe1e2c05a20df20a3ecd0ec12617b296a58ee2a1",
      "to": "0x39c5d3e3b8f5594623636ecdbdf135838b47b558",
      "contractAddress": null
    }
  ],
  "libraries": [],
  "pending": [],
  "returns": {},
  "timestamp": 1755795656,
  "chain": 97,
  "commit": "fd06cee"
}