{
  "transactions": [
    {
      "hash": "0xfbe556ee79c91669ae1547b48e010c86b7cd51c056c641599c8555792169cb2e",
      "transactionType": "CALL",
      "contractName": null,
      "contractAddress": "0x34c8ae68a1b68d48f508c00580cab739e8d15df6",
      "function": "setBuyFee(address,bool,uint256)",
      "arguments": [
        "0xaE49bFCe31392A55eF3332B9a07d0534122327CA",
        "true",
        "1000"
      ],
      "transaction": {
        "from": "0xbe1e2c05a20df20a3ecd0ec12617b296a58ee2a1",
        "to": "0x34c8ae68a1b68d48f508c00580cab739e8d15df6",
        "gas": "0xb13d",
        "value": "0x0",
        "input": "0x0cff0607000000000000000000000000ae49bfce31392a55ef3332b9a07d0534122327ca000000000000000000000000000000000000000000000000000000000000000100000000000000000000000000000000000000000000000000000000000003e8",
        "nonce": "0x2dc",
        "chainId": "0x61"
      },
      "additionalContracts": [],
      "isFixedGasLimit": false
    }
  ],
  "receipts": [
    {
      "status": "0x1",
      "cumulativeGasUsed": "0x7931",
      "logs": [],
      "logsBloom": "0x00000000000000000000000000000000000000000000000000000000000000000000000000000000000000000000000000000000000000000000000000000000000000000000000000000000000000000000000000000000000000000000000000000000000000000000000000000000000000000000000000000000000000000000000000000000000000000000000000000000000000000000000000000000000000000000000000000000000000000000000000000000000000000000000000000000000000000000000000000000000000000000000000000000000000000000000000000000000000000000000000000000000000000000000000000000",
      "type": "0x0",
      "transactionHash": "0xfbe556ee79c91669ae1547b48e010c86b7cd51c056c641599c8555792169cb2e",
      "transactionIndex": "0x0",
      "blockHash": "0x288a1a9a2819282e11f2dd1d4e78510fb330f5845bf0fa281a3151fd7088cb2d",
      "blockNumber": "0x3b5c667",
      "gasUsed": "0x7931",
      "effectiveGasPrice": "0x3b9aca00",
      "from": "0xbe1e2c05a20df20a3ecd0ec12617b296a58ee2a1",
      "to": "0x34c8ae68a1b68d48f508c00580cab739e8d15df6",
      "contractAddress": null
    }
  ],
  "libraries": [],
  "pending": [],
  "returns": {},
  "timestamp": 1755522776,
  "chain": 97,
  "commit": "fd06cee"
}