{
  "transactions": [
    {
      "hash": "0x00eaf957a9cbfb1e50d675845c0c71f738b758d7e34c22efbb00c91b236b0ce1",
      "transactionType": "CALL",
      "contractName": null,
      "contractAddress": "0x39c5d3e3b8f5594623636ecdbdf135838b47b558",
      "function": "setBuyFee(address,bool,uint256)",
      "arguments": [
        "0xaE49bFCe31392A55eF3332B9a07d0534122327CA",
        "true",
        "1000"
      ],
      "transaction": {
        "from": "0xbe1e2c05a20df20a3ecd0ec12617b296a58ee2a1",
        "to": "0x39c5d3e3b8f5594623636ecdbdf135838b47b558",
        "gas": "0x1949d",
        "value": "0x0",
        "input": "0x0cff0607000000000000000000000000ae49bfce31392a55ef3332b9a07d0534122327ca000000000000000000000000000000000000000000000000000000000000000100000000000000000000000000000000000000000000000000000000000003e8",
        "nonce": "0x2fd",
        "chainId": "0x61"
      },
      "additionalContracts": [],
      "isFixedGasLimit": false
    }
  ],
  "receipts": [
    {
      "status": "0x1",
      "cumulativeGasUsed": "0x294be",
      "logs": [],
      "logsBloom": "0x00000000000000000000000000000000000000000000000000000000000000000000000000000000000000000000000000000000000000000000000000000000000000000000000000000000000000000000000000000000000000000000000000000000000000000000000000000000000000000000000000000000000000000000000000000000000000000000000000000000000000000000000000000000000000000000000000000000000000000000000000000000000000000000000000000000000000000000000000000000000000000000000000000000000000000000000000000000000000000000000000000000000000000000000000000000",
      "type": "0x0",
      "transactionHash": "0x00eaf957a9cbfb1e50d675845c0c71f738b758d7e34c22efbb00c91b236b0ce1",
      "transactionIndex": "0x2",
      "blockHash": "0x030a7ab1d6c8f74fe6d9f07cb2281d57170d8ddaf0240001324a3e1fcd71a6b4",
      "blockNumber": "0x3b8e24b",
      "gasUsed": "0x114a9",
      "effectiveGasPrice": "0x3b9aca00",
      "from": "0xbe1e2c05a20df20a3ecd0ec12617b296a58ee2a1",
      "to": "0x39c5d3e3b8f5594623636ecdbdf135838b47b558",
      "contractAddress": null
    }
  ],
  "libraries": [],
  "pending": [],
  "returns": {},
  "timestamp": 1755675795,
  "chain": 97,
  "commit": "fd06cee"
}