{
  "transactions": [
    {
      "hash": "0xffe8109755ca61a39343166e3cbd67ae92a308e1caf2ad345fd0baf323142e12",
      "transactionType": "CALL",
      "contractName": null,
      "contractAddress": "0x34c8ae68a1b68d48f508c00580cab739e8d15df6",
      "function": "addPancakeSwapInfos(address,address)",
      "arguments": [
        "0xaE49bFCe31392A55eF3332B9a07d0534122327CA",
        "0x582ce3afdc3983803e1b8c90F705A284B8AD9E92"
      ],
      "transaction": {
        "from": "0xbe1e2c05a20df20a3ecd0ec12617b296a58ee2a1",
        "to": "0x34c8ae68a1b68d48f508c00580cab739e8d15df6",
        "gas": "0xb782",
        "value": "0x0",
        "input": "0x9aa83a8b000000000000000000000000ae49bfce31392a55ef3332b9a07d0534122327ca000000000000000000000000582ce3afdc3983803e1b8c90f705a284b8ad9e92",
        "nonce": "0x2d9",
        "chainId": "0x61"
      },
      "additionalContracts": [],
      "isFixedGasLimit": false
    }
  ],
  "receipts": [
    {
      "status": "0x1",
      "cumulativeGasUsed": "0x7d7a",
      "logs": [
        {
          "address": "0x34c8ae68a1b68d48f508c00580cab739e8d15df6",
          "topics": [
            "0x74a4ea483a33a7b2599e52a0813e90e82344283e51e490ef3b7dba63defe268c",
            "0x000000000000000000000000be1e2c05a20df20a3ecd0ec12617b296a58ee2a1",
            "0x000000000000000000000000ae49bfce31392a55ef3332b9a07d0534122327ca"
          ],
          "data": "0x000000000000000000000000582ce3afdc3983803e1b8c90f705a284b8ad9e920000000000000000000000000000000000000000000000000000000068a3268d",
          "blockHash": "0xd8b684b418533690dd3a8aedd7f835b39a27ac58a6057e23f832bc988e2e69ca",
          "blockNumber": "0x3b5c605",
          "transactionHash": "0xffe8109755ca61a39343166e3cbd67ae92a308e1caf2ad345fd0baf323142e12",
          "transactionIndex": "0x0",
          "logIndex": "0x0",
          "removed": false
        }
      ],
      "logsBloom": "0x00000000000000000000000000000000000000000000000000000000000000020000000000000000000000004000000000000000000000000000000000000000000000000000000000000000000000000040000000000000000000200000000000000000000000000000000001000000000000000000000000000000040000000000000008000000000000000000000000000000000000000000200000000000000000000000000000000000000000000000000000000000000000000000000000000000000000000000040000800000000000000000008000000000080000000000000000000000000000000000000000000000000000000000000000000000",
      "type": "0x0",
      "transactionHash": "0xffe8109755ca61a39343166e3cbd67ae92a308e1caf2ad345fd0baf323142e12",
      "transactionIndex": "0x0",
      "blockHash": "0xd8b684b418533690dd3a8aedd7f835b39a27ac58a6057e23f832bc988e2e69ca",
      "blockNumber": "0x3b5c605",
      "gasUsed": "0x7d7a",
      "effectiveGasPrice": "0x3b9aca00",
      "from": "0xbe1e2c05a20df20a3ecd0ec12617b296a58ee2a1",
      "to": "0x34c8ae68a1b68d48f508c00580cab739e8d15df6",
      "contractAddress": null
    }
  ],
  "libraries": [],
  "pending": [],
  "returns": {},
  "timestamp": 1755522702,
  "chain": 97,
  "commit": "fd06cee"
}