{
  "transactions": [
    {
      "hash": "0x0f58ed9c590b95730ec02ed7da64dd15d7784ba3b40a3de49ed07c4700232678",
      "transactionType": "CALL",
      "contractName": null,
      "contractAddress": "0x39c5d3e3b8f5594623636ecdbdf135838b47b558",
      "function": "addPancakeSwapInfos(address,address)",
      "arguments": [
        "0xaE49bFCe31392A55eF3332B9a07d0534122327CA",
        "0x582ce3afdc3983803e1b8c90F705A284B8AD9E92"
      ],
      "transaction": {
        "from": "0xbe1e2c05a20df20a3ecd0ec12617b296a58ee2a1",
        "to": "0x39c5d3e3b8f5594623636ecdbdf135838b47b558",
        "gas": "0x13733",
        "value": "0x0",
        "input": "0x9aa83a8b000000000000000000000000ae49bfce31392a55ef3332b9a07d0534122327ca000000000000000000000000582ce3afdc3983803e1b8c90f705a284b8ad9e92",
        "nonce": "0x2dd",
        "chainId": "0x61"
      },
      "additionalContracts": [],
      "isFixedGasLimit": false
    }
  ],
  "receipts": [
    {
      "status": "0x1",
      "cumulativeGasUsed": "0xd4ca",
      "logs": [
        {
          "address": "0x39c5d3e3b8f5594623636ecdbdf135838b47b558",
          "topics": [
            "0x74a4ea483a33a7b2599e52a0813e90e82344283e51e490ef3b7dba63defe268c",
            "0x000000000000000000000000be1e2c05a20df20a3ecd0ec12617b296a58ee2a1",
            "0x000000000000000000000000ae49bfce31392a55ef3332b9a07d0534122327ca"
          ],
          "data": "0x000000000000000000000000582ce3afdc3983803e1b8c90f705a284b8ad9e920000000000000000000000000000000000000000000000000000000068a32727",
          "blockHash": "0x70513c3c4a9c1db2e1e816d65cd0ac8557d8a3b4a52e203e8dd72a169370a1f5",
          "blockNumber": "0x3b5c6d2",
          "transactionHash": "0x0f58ed9c590b95730ec02ed7da64dd15d7784ba3b40a3de49ed07c4700232678",
          "transactionIndex": "0x0",
          "logIndex": "0x0",
          "removed": false
        }
      ],
      "logsBloom": "0x00000000000000000000000000000000000000000000000000000000000000020000000004000000000000004000000000000000000000000000000000000000000000000000000000000000000000000040000000000000000000200000000000000000000000000000000001000000000000000000000000000000040000000000000008000000000000000000000000000000000000000000000000800000000000000000080000000000000000000000000000000000000000000000000000000000000000000000040000800000000000000000000000000000000000000000000000000000000000000000000000000000000000000000000000000000",
      "type": "0x0",
      "transactionHash": "0x0f58ed9c590b95730ec02ed7da64dd15d7784ba3b40a3de49ed07c4700232678",
      "transactionIndex": "0x0",
      "blockHash": "0x70513c3c4a9c1db2e1e816d65cd0ac8557d8a3b4a52e203e8dd72a169370a1f5",
      "blockNumber": "0x3b5c6d2",
      "gasUsed": "0xd4ca",
      "effectiveGasPrice": "0x3b9aca00",
      "from": "0xbe1e2c05a20df20a3ecd0ec12617b296a58ee2a1",
      "to": "0x39c5d3e3b8f5594623636ecdbdf135838b47b558",
      "contractAddress": null
    }
  ],
  "libraries": [],
  "pending": [],
  "returns": {},
  "timestamp": 1755522856,
  "chain": 97,
  "commit": "fd06cee"
}