{
  "transactions": [
    {
      "hash": "0xa577ee2d302bab0b1a3adbe5b0e379f986aade42935f83cc987d8cd5b7c7cfcb",
      "transactionType": "CALL",
      "contractName": null,
      "contractAddress": "0x39c5d3e3b8f5594623636ecdbdf135838b47b558",
      "function": "addPancakeSwapInfos(address,address)",
      "arguments": [
        "0x582ce3afdc3983803e1b8c90F705A284B8AD9E92",
        "0x1DB6aC824338cD4d5DD67aFdC8281bbafcc2378C"
      ],
      "transaction": {
        "from": "0xbe1e2c05a20df20a3ecd0ec12617b296a58ee2a1",
        "to": "0x39c5d3e3b8f5594623636ecdbdf135838b47b558",
        "gas": "0x13733",
        "value": "0x0",
        "input": "0x9aa83a8b000000000000000000000000582ce3afdc3983803e1b8c90f705a284b8ad9e920000000000000000000000001db6ac824338cd4d5dd67afdc8281bbafcc2378c",
        "nonce": "0x2de",
        "chainId": "0x61"
      },
      "additionalContracts": [],
      "isFixedGasLimit": false
    }
  ],
  "receipts": [
    {
      "status": "0x1",
      "cumulativeGasUsed": "0xd4ca",
      "logs": [
        {
          "address": "0x39c5d3e3b8f5594623636ecdbdf135838b47b558",
          "topics": [
            "0x74a4ea483a33a7b2599e52a0813e90e82344283e51e490ef3b7dba63defe268c",
            "0x000000000000000000000000be1e2c05a20df20a3ecd0ec12617b296a58ee2a1",
            "0x000000000000000000000000582ce3afdc3983803e1b8c90f705a284b8ad9e92"
          ],
          "data": "0x0000000000000000000000001db6ac824338cd4d5dd67afdc8281bbafcc2378c0000000000000000000000000000000000000000000000000000000068a32738",
          "blockHash": "0x6efc415153d214e3b72c220f42a9d59e8981bbf237ee16044730548fb897e9f1",
          "blockNumber": "0x3b5c6e8",
          "transactionHash": "0xa577ee2d302bab0b1a3adbe5b0e379f986aade42935f83cc987d8cd5b7c7cfcb",
          "transactionIndex": "0x0",
          "logIndex": "0x0",
          "removed": false
        }
      ],
      "logsBloom": "0x00000000000000000000000000000000000000000000000000000000000000000000000004000000000000004000000000000000000000000000000000000000000000000000000000000000000000000000000000000000000000200000000000000000000000000000000001000000000000000000000000000000000020000000000008000000000000000000000000000000000000000000000000800000000000000000080020000000000000000000000000000000000000000000000000000000000000000000040000800000000000000000000000000000200000000000000000000000000000000000000000000000000000000000000000000000",
      "type": "0x0",
      "transactionHash": "0xa577ee2d302bab0b1a3adbe5b0e379f986aade42935f83cc987d8cd5b7c7cfcb",
      "transactionIndex": "0x0",
      "blockHash": "0x6efc415153d214e3b72c220f42a9d59e8981bbf237ee16044730548fb897e9f1",
      "blockNumber": "0x3b5c6e8",
      "gasUsed": "0xd4ca",
      "effectiveGasPrice": "0x3b9aca00",
      "from": "0xbe1e2c05a20df20a3ecd0ec12617b296a58ee2a1",
      "to": "0x39c5d3e3b8f5594623636ecdbdf135838b47b558",
      "contractAddress": null
    }
  ],
  "libraries": [],
  "pending": [],
  "returns": {},
  "timestamp": 1755522873,
  "chain": 97,
  "commit": "fd06cee"
}