{
  "transactions": [
    {
      "hash": "0xbaf4692cc2d1482ddebb82c5b53803fd8340817c0bd2e6838e5a4656b3d35c74",
      "transactionType": "CALL",
      "contractName": null,
      "contractAddress": "0x582ce3afdc3983803e1b8c90f705a284b8ad9e92",
      "function": "setTaxExempt(address,bool)",
      "arguments": [
        "0x648FeEb2A14719a813699b365f110cF634fb4B1e",
        "true"
      ],
      "transaction": {
        "from": "0xbe1e2c05a20df20a3ecd0ec12617b296a58ee2a1",
        "to": "0x582ce3afdc3983803e1b8c90f705a284b8ad9e92",
        "gas": "0xf9df",
        "value": "0x0",
        "input": "0x1dc61040000000000000000000000000648feeb2a14719a813699b365f110cf634fb4b1e0000000000000000000000000000000000000000000000000000000000000001",
        "nonce": "0x1f6",
        "chainId": "0x61"
      },
      "additionalContracts": [],
      "isFixedGasLimit": false
    }
  ],
  "receipts": [
    {
      "status": "0x1",
      "cumulativeGasUsed": "0xb4e8",
      "logs": [],
      "logsBloom": "0x00000000000000000000000000000000000000000000000000000000000000000000000000000000000000000000000000000000000000000000000000000000000000000000000000000000000000000000000000000000000000000000000000000000000000000000000000000000000000000000000000000000000000000000000000000000000000000000000000000000000000000000000000000000000000000000000000000000000000000000000000000000000000000000000000000000000000000000000000000000000000000000000000000000000000000000000000000000000000000000000000000000000000000000000000000000",
      "type": "0x0",
      "transactionHash": "0xbaf4692cc2d1482ddebb82c5b53803fd8340817c0bd2e6838e5a4656b3d35c74",
      "transactionIndex": "0x0",
      "blockHash": "0x10c9fb2a4ffa9349d41a3aee961a9ab3275c255d3a01c3ab7684918fd4192bce",
      "blockNumber": "0x3a209e7",
      "gasUsed": "0xb4e8",
      "effectiveGasPrice": "0x3b9aca00",
      "from": "0xbe1e2c05a20df20a3ecd0ec12617b296a58ee2a1",
      "to": "0x582ce3afdc3983803e1b8c90f705a284b8ad9e92",
      "contractAddress": null
    }
  ],
  "libraries": [],
  "pending": [],
  "returns": {},
  "timestamp": 1754548301,
  "chain": 97,
  "commit": "ab0d9b2"
}