{
  "transactions": [
    {
      "hash": "0x3058dace9c0f2c264668a2aa87a764e9182bc69b853d13c674482744456f3107",
      "transactionType": "CALL",
      "contractName": null,
      "contractAddress": "0x582ce3afdc3983803e1b8c90f705a284b8ad9e92",
      "function": "setTaxExempt(address,bool)",
      "arguments": [
        "0x648FeEb2A14719a813699b365f110cF634fb4B1e",
        "true"
      ],
      "transaction": {
        "from": "0xbe1e2c05a20df20a3ecd0ec12617b296a58ee2a1",
        "to": "0x582ce3afdc3983803e1b8c90f705a284b8ad9e92",
        "gas": "0x8e80",
        "value": "0x0",
        "input": "0x1dc61040000000000000000000000000648feeb2a14719a813699b365f110cf634fb4b1e0000000000000000000000000000000000000000000000000000000000000001",
        "nonce": "0x1f7",
        "chainId": "0x61"
      },
      "additionalContracts": [],
      "isFixedGasLimit": false
    }
  ],
  "receipts": [
    {
      "status": "0x1",
      "cumulativeGasUsed": "0x672c",
      "logs": [],
      "logsBloom": "0x00000000000000000000000000000000000000000000000000000000000000000000000000000000000000000000000000000000000000000000000000000000000000000000000000000000000000000000000000000000000000000000000000000000000000000000000000000000000000000000000000000000000000000000000000000000000000000000000000000000000000000000000000000000000000000000000000000000000000000000000000000000000000000000000000000000000000000000000000000000000000000000000000000000000000000000000000000000000000000000000000000000000000000000000000000000",
      "type": "0x0",
      "transactionHash": "0x3058dace9c0f2c264668a2aa87a764e9182bc69b853d13c674482744456f3107",
      "transactionIndex": "0x0",
      "blockHash": "0x59bb32d9bdb801f90cecf09edefd78c86ee242f14fdcf31418b6c6eeff6e0f22",
      "blockNumber": "0x3a20a16",
      "gasUsed": "0x672c",
      "effectiveGasPrice": "0x3b9aca00",
      "from": "0xbe1e2c05a20df20a3ecd0ec12617b296a58ee2a1",
      "to": "0x582ce3afdc3983803e1b8c90f705a284b8ad9e92",
      "contractAddress": null
    }
  ],
  "libraries": [],
  "pending": [],
  "returns": {},
  "timestamp": 1754548336,
  "chain": 97,
  "commit": "ab0d9b2"
}