{
  "transactions": [
    {
      "hash": "0xb8cd536851e7781a9cf256eff069c412469c3d489efab10442f0f0891436bc8a",
      "transactionType": "CALL",
      "contractName": null,
      "contractAddress": "0x582ce3afdc3983803e1b8c90f705a284b8ad9e92",
      "function": "setTaxExempt(address,bool)",
      "arguments": [
        "0x648FeEb2A14719a813699b365f110cF634fb4B1e",
        "false"
      ],
      "transaction": {
        "from": "0xbe1e2c05a20df20a3ecd0ec12617b296a58ee2a1",
        "to": "0x582ce3afdc3983803e1b8c90f705a284b8ad9e92",
        "gas": "0x8e71",
        "value": "0x0",
        "input": "0x1dc61040000000000000000000000000648feeb2a14719a813699b365f110cf634fb4b1e0000000000000000000000000000000000000000000000000000000000000000",
        "nonce": "0x1f5",
        "chainId": "0x61"
      },
      "additionalContracts": [],
      "isFixedGasLimit": false
    }
  ],
  "receipts": [
    {
      "status": "0x1",
      "cumulativeGasUsed": "0x6720",
      "logs": [],
      "logsBloom": "0x00000000000000000000000000000000000000000000000000000000000000000000000000000000000000000000000000000000000000000000000000000000000000000000000000000000000000000000000000000000000000000000000000000000000000000000000000000000000000000000000000000000000000000000000000000000000000000000000000000000000000000000000000000000000000000000000000000000000000000000000000000000000000000000000000000000000000000000000000000000000000000000000000000000000000000000000000000000000000000000000000000000000000000000000000000000",
      "type": "0x0",
      "transactionHash": "0xb8cd536851e7781a9cf256eff069c412469c3d489efab10442f0f0891436bc8a",
      "transactionIndex": "0x0",
      "blockHash": "0xea43f8a02f23e908cecd00fe8c2755104b1d3d87d7d56b2bc1265258e7703f53",
      "blockNumber": "0x3a209d3",
      "gasUsed": "0x6720",
      "effectiveGasPrice": "0x3b9aca00",
      "from": "0xbe1e2c05a20df20a3ecd0ec12617b296a58ee2a1",
      "to": "0x582ce3afdc3983803e1b8c90f705a284b8ad9e92",
      "contractAddress": null
    }
  ],
  "libraries": [],
  "pending": [],
  "returns": {},
  "timestamp": 1754548285,
  "chain": 97,
  "commit": "ab0d9b2"
}