{
  "transactions": [
    {
      "hash": "0x18c407b51e4c50e507eaf47d145e58cfddb74c7d5ff0edee2777d8519724ed87",
      "transactionType": "CALL",
      "contractName": null,
      "contractAddress": "0x39c5d3e3b8f5594623636ecdbdf135838b47b558",
      "function": "forceSetWithdrawCount(uint256)",
      "arguments": [
        "6"
      ],
      "transaction": {
        "from": "0xbe1e2c05a20df20a3ecd0ec12617b296a58ee2a1",
        "to": "0x39c5d3e3b8f5594623636ecdbdf135838b47b558",
        "gas": "0xa4a0",
        "value": "0x0",
        "input": "0x33ff86a90000000000000000000000000000000000000000000000000000000000000006",
        "nonce": "0x2e3",
        "chainId": "0x61"
      },
      "additionalContracts": [],
      "isFixedGasLimit": false
    }
  ],
  "receipts": [
    {
      "status": "0x1",
      "cumulativeGasUsed": "0x19e9e",
      "logs": [],
      "logsBloom": "0x00000000000000000000000000000000000000000000000000000000000000000000000000000000000000000000000000000000000000000000000000000000000000000000000000000000000000000000000000000000000000000000000000000000000000000000000000000000000000000000000000000000000000000000000000000000000000000000000000000000000000000000000000000000000000000000000000000000000000000000000000000000000000000000000000000000000000000000000000000000000000000000000000000000000000000000000000000000000000000000000000000000000000000000000000000000",
      "type": "0x0",
      "transactionHash": "0x18c407b51e4c50e507eaf47d145e58cfddb74c7d5ff0edee2777d8519724ed87",
      "transactionIndex": "0x1",
      "blockHash": "0xa0c8df05a485a503317d38b465e5626065320770c5f37b6f51ea1fff1c20174d",
      "blockNumber": "0x3b5f065",
      "gasUsed": "0x7091",
      "effectiveGasPrice": "0x3b9aca00",
      "from": "0xbe1e2c05a20df20a3ecd0ec12617b296a58ee2a1",
      "to": "0x39c5d3e3b8f5594623636ecdbdf135838b47b558",
      "contractAddress": null
    }
  ],
  "libraries": [],
  "pending": [],
  "returns": {},
  "timestamp": 1755530850,
  "chain": 97,
  "commit": "fd06cee"
}