{
  "transactions": [
    {
      "hash": "0xb25fff1188353139e428577d98f143be89fc9547ef77c999d5c8ccefbcc23b78",
      "transactionType": "CALL",
      "contractName": null,
      "contractAddress": "0x885096af7e200f2437e271431f5d2775017edc6a",
      "function": "setBnbFee(uint256)",
      "arguments": [
        "20000000000000"
      ],
      "transaction": {
        "from": "0x34a340c1b113fb7b7a89e88d760b37389cdeec61",
        "to": "0x885096af7e200f2437e271431f5d2775017edc6a",
        "gas": "0xc569",
        "value": "0x0",
        "input": "0x8a47446c000000000000000000000000000000000000000000000000000012309ce54000",
        "nonce": "0x74",
        "chainId": "0x38"
      },
      "additionalContracts": [],
      "isFixedGasLimit": false
    }
  ],
  "receipts": [
    {
      "status": "0x1",
      "cumulativeGasUsed": "0xd11ecc",
      "logs": [
        {
          "address": "0x885096af7e200f2437e271431f5d2775017edc6a",
          "topics": [
            "0xf076672ee5af5110734040cb72e4172c3b9b9281e33826d86901d9bda75b6e49",
            "0x00000000000000000000000034a340c1b113fb7b7a89e88d760b37389cdeec61"
          ],
          "data": "0x0000000000000000000000000000000000000000000000000000b5e620f48000000000000000000000000000000000000000000000000000000012309ce540000000000000000000000000000000000000000000000000000000000068c3ce02",
          "blockHash": "0xd8205813772e15a3169933a977c50ff6d9d95f92f138ad0e931e5b1a84dbd42b",
          "blockNumber": "0x3a10995",
          "transactionHash": "0xb25fff1188353139e428577d98f143be89fc9547ef77c999d5c8ccefbcc23b78",
          "transactionIndex": "0x56",
          "logIndex": "0x187",
          "removed": false
        }
      ],
      "logsBloom": "0x00000000000000000000000000000000000200000000000000000000080000002000000000000000000000000000000000000000000000000000000000000000000000000000000000000000000000000000000000040000000000000000000000000000000000000000000000000000000000010000000200000000000000000000000000000000000000000000000000000000000000000000000000000000000000000000000000000000000000000000000000000800000000000001000000000000000000000000000000000000000000000000000400000000000000000000000000000000000000000000000000000000000000000000000000000000",
      "type": "0x0",
      "transactionHash": "0xb25fff1188353139e428577d98f143be89fc9547ef77c999d5c8ccefbcc23b78",
      "transactionIndex": "0x56",
      "blockHash": "0xd8205813772e15a3169933a977c50ff6d9d95f92f138ad0e931e5b1a84dbd42b",
      "blockNumber": "0x3a10995",
      "gasUsed": "0x8eed",
      "effectiveGasPrice": "0x5f5e100",
      "from": "0x34a340c1b113fb7b7a89e88d760b37389cdeec61",
      "to": "0x885096af7e200f2437e271431f5d2775017edc6a",
      "contractAddress": null
    }
  ],
  "libraries": [],
  "pending": [],
  "returns": {},
  "timestamp": 1757662723,
  "chain": 56,
  "commit": "a145bc2"
}