{
  "transactions": [
    {
      "hash": "0x9a662f0393dfc6133514d5254e26e7767b1658170349d01d6cb9d89e860c84a3",
      "transactionType": "CALL",
      "contractName": null,
      "contractAddress": "0x885096af7e200f2437e271431f5d2775017edc6a",
      "function": "setBnbFee(uint256)",
      "arguments": [
        "20000000000000"
      ],
      "transaction": {
        "from": "0x34a340c1b113fb7b7a89e88d760b37389cdeec61",
        "to": "0x885096af7e200f2437e271431f5d2775017edc6a",
        "gas": "0xc569",
        "value": "0x0",
        "input": "0x8a47446c000000000000000000000000000000000000000000000000000012309ce54000",
        "nonce": "0x72",
        "chainId": "0x38"
      },
      "additionalContracts": [],
      "isFixedGasLimit": false
    }
  ],
  "receipts": [
    {
      "status": "0x1",
      "cumulativeGasUsed": "0xa6da42",
      "logs": [
        {
          "address": "0x885096af7e200f2437e271431f5d2775017edc6a",
          "topics": [
            "0xf076672ee5af5110734040cb72e4172c3b9b9281e33826d86901d9bda75b6e49",
            "0x00000000000000000000000034a340c1b113fb7b7a89e88d760b37389cdeec61"
          ],
          "data": "0x0000000000000000000000000000000000000000000000000000b5e620f48000000000000000000000000000000000000000000000000000000012309ce540000000000000000000000000000000000000000000000000000000000068c3a743",
          "blockHash": "0x18f747dfca24daa64f5dfcb52f13fb09041ac54e814188838c342c27d93f1d68",
          "blockNumber": "0x3a0d5ec",
          "transactionHash": "0x9a662f0393dfc6133514d5254e26e7767b1658170349d01d6cb9d89e860c84a3",
          "transactionIndex": "0x49",
          "logIndex": "0x177",
          "removed": false
        }
      ],
      "logsBloom": "0x00000000000000000000000000000000000200000000000000000000080000002000000000000000000000000000000000000000000000000000000000000000000000000000000000000000000000000000000000040000000000000000000000000000000000000000000000000000000000010000000200000000000000000000000000000000000000000000000000000000000000000000000000000000000000000000000000000000000000000000000000000800000000000001000000000000000000000000000000000000000000000000000400000000000000000000000000000000000000000000000000000000000000000000000000000000",
      "type": "0x0",
      "transactionHash": "0x9a662f0393dfc6133514d5254e26e7767b1658170349d01d6cb9d89e860c84a3",
      "transactionIndex": "0x49",
      "blockHash": "0x18f747dfca24daa64f5dfcb52f13fb09041ac54e814188838c342c27d93f1d68",
      "blockNumber": "0x3a0d5ec",
      "gasUsed": "0x8eed",
      "effectiveGasPrice": "0x5f5e100",
      "from": "0x34a340c1b113fb7b7a89e88d760b37389cdeec61",
      "to": "0x885096af7e200f2437e271431f5d2775017edc6a",
      "contractAddress": null
    }
  ],
  "libraries": [],
  "pending": [],
  "returns": {},
  "timestamp": 1757652804,
  "chain": 56,
  "commit": "d87ae1f"
}