{
  "transactions": [
    {
      "hash": "0xc4c51c35b96486318a45038834bb3ae628552737a90e1ec868436843850aef7c",
      "transactionType": "CALL",
      "contractName": null,
      "contractAddress": "0x885096af7e200f2437e271431f5d2775017edc6a",
      "function": "setBnbFee(uint256)",
      "arguments": [
        "200000000000000"
      ],
      "transaction": {
        "from": "0x34a340c1b113fb7b7a89e88d760b37389cdeec61",
        "to": "0x885096af7e200f2437e271431f5d2775017edc6a",
        "gas": "0xc569",
        "value": "0x0",
        "input": "0x8a47446c0000000000000000000000000000000000000000000000000000b5e620f48000",
        "nonce": "0x73",
        "chainId": "0x38"
      },
      "additionalContracts": [],
      "isFixedGasLimit": false
    }
  ],
  "receipts": [
    {
      "status": "0x1",
      "cumulativeGasUsed": "0x1ad0ccc",
      "logs": [
        {
          "address": "0x885096af7e200f2437e271431f5d2775017edc6a",
          "topics": [
            "0xf076672ee5af5110734040cb72e4172c3b9b9281e33826d86901d9bda75b6e49",
            "0x00000000000000000000000034a340c1b113fb7b7a89e88d760b37389cdeec61"
          ],
          "data": "0x000000000000000000000000000000000000000000000000000012309ce540000000000000000000000000000000000000000000000000000000b5e620f480000000000000000000000000000000000000000000000000000000000068c3a87b",
          "blockHash": "0x9f049cb2bdc84e7ada07204dfccb4a622b253ae9c2973356b3f3256b2db1d88c",
          "blockNumber": "0x3a0d78d",
          "transactionHash": "0xc4c51c35b96486318a45038834bb3ae628552737a90e1ec868436843850aef7c",
          "transactionIndex": "0x77",
          "logIndex": "0x464",
          "removed": false
        }
      ],
      "logsBloom": "0x00000000000000000000000000000000000200000000000000000000080000002000000000000000000000000000000000000000000000000000000000000000000000000000000000000000000000000000000000040000000000000000000000000000000000000000000000000000000000010000000200000000000000000000000000000000000000000000000000000000000000000000000000000000000000000000000000000000000000000000000000000800000000000001000000000000000000000000000000000000000000000000000400000000000000000000000000000000000000000000000000000000000000000000000000000000",
      "type": "0x0",
      "transactionHash": "0xc4c51c35b96486318a45038834bb3ae628552737a90e1ec868436843850aef7c",
      "transactionIndex": "0x77",
      "blockHash": "0x9f049cb2bdc84e7ada07204dfccb4a622b253ae9c2973356b3f3256b2db1d88c",
      "blockNumber": "0x3a0d78d",
      "gasUsed": "0x8eed",
      "effectiveGasPrice": "0x5f5e100",
      "from": "0x34a340c1b113fb7b7a89e88d760b37389cdeec61",
      "to": "0x885096af7e200f2437e271431f5d2775017edc6a",
      "contractAddress": null
    }
  ],
  "libraries": [],
  "pending": [],
  "returns": {},
  "timestamp": 1757653117,
  "chain": 56,
  "commit": "d87ae1f"
}