{
  "transactions": [
    {
      "hash": "0x8b78e44a6b80e64d808678d880d46fd641fb155d5d1f8549c64250f5be0db780",
      "transactionType": "CALL",
      "contractName": null,
      "contractAddress": "0x345ab62117f9567fa808ef7290679427b2d583e2",
      "function": "grantOperatorRole(address)",
      "arguments": [
        "0xf5eFe42C765639C427BB4dcD41F1977154d7ca67"
      ],
      "transaction": {
        "from": "0xbe1e2c05a20df20a3ecd0ec12617b296a58ee2a1",
        "to": "0x345ab62117f9567fa808ef7290679427b2d583e2",
        "gas": "0x11d71",
        "value": "0x0",
        "input": "0x27ac0c58000000000000000000000000f5efe42c765639c427bb4dcd41f1977154d7ca67",
        "nonce": "0xe9",
        "chainId": "0x38"
      },
      "additionalContracts": [],
      "isFixedGasLimit": false
    }
  ],
  "receipts": [
    {
      "status": "0x1",
      "cumulativeGasUsed": "0xdd7a9d",
      "logs": [
        {
          "address": "0x345ab62117f9567fa808ef7290679427b2d583e2",
          "topics": [
            "0x2f8788117e7eff1d82e926ec794901d17c78024a50270940304540a733656f0d",
            "0x97667070c54ef182b0f5858b034beac1b6f3089aa2d3188bb1e8929f4fa9b929",
            "0x000000000000000000000000f5efe42c765639c427bb4dcd41f1977154d7ca67",
            "0x000000000000000000000000be1e2c05a20df20a3ecd0ec12617b296a58ee2a1"
          ],
          "data": "0x",
          "blockHash": "0x2a3bc2072ee85212dd2062f1acfd760012efe6a096280780eab1756fd5108be9",
          "blockNumber": "0x34e4b5f",
          "transactionHash": "0x8b78e44a6b80e64d808678d880d46fd641fb155d5d1f8549c64250f5be0db780",
          "transactionIndex": "0x61",
          "logIndex": "0x1cc",
          "removed": false
        }
      ],
      "logsBloom": "0x00000004000000000000000000000000000000000000000000000000000000000200000000000000000000000001000000000000000000000000000000000000000000000000000000000000000000000042000000000000000000200000000000000000000000000000000000000000000000000000000000000000000000000000000800000000000000000000000000000000000000000000000000010000000000000000000000000000000000000000000000008000001000000000000000000000000000100000040000800000000000000000000100000000000000000000000000000000000000000000000000000000800000000000000000000000",
      "type": "0x0",
      "transactionHash": "0x8b78e44a6b80e64d808678d880d46fd641fb155d5d1f8549c64250f5be0db780",
      "transactionIndex": "0x61",
      "blockHash": "0x2a3bc2072ee85212dd2062f1acfd760012efe6a096280780eab1756fd5108be9",
      "blockNumber": "0x34e4b5f",
      "gasUsed": "0xcea8",
      "effectiveGasPrice": "0x5f5e100",
      "from": "0xbe1e2c05a20df20a3ecd0ec12617b296a58ee2a1",
      "to": "0x345ab62117f9567fa808ef7290679427b2d583e2",
      "contractAddress": null
    }
  ],
  "libraries": [],
  "pending": [],
  "returns": {},
  "timestamp": 1753595033,
  "chain": 56,
  "commit": "b4915a8"
}