{
  "transactions": [
    {
      "hash": "0xc21310dd86650e7dba34741253347007dc54cc1393e865d5da0c0e3fa8dd588c",
      "transactionType": "CALL",
      "contractName": null,
      "contractAddress": "0x345ab62117f9567fa808ef7290679427b2d583e2",
      "function": "grantOperatorRole(address)",
      "arguments": [
        "0x48156499e1f1502B6806B5B5Babbc027B475EBcc"
      ],
      "transaction": {
        "from": "0xbe1e2c05a20df20a3ecd0ec12617b296a58ee2a1",
        "to": "0x345ab62117f9567fa808ef7290679427b2d583e2",
        "gas": "0x11d71",
        "value": "0x0",
        "input": "0x27ac0c5800000000000000000000000048156499e1f1502b6806b5b5babbc027b475ebcc",
        "nonce": "0xeb",
        "chainId": "0x38"
      },
      "additionalContracts": [],
      "isFixedGasLimit": false
    }
  ],
  "receipts": [
    {
      "status": "0x1",
      "cumulativeGasUsed": "0x113d8de",
      "logs": [
        {
          "address": "0x345ab62117f9567fa808ef7290679427b2d583e2",
          "topics": [
            "0x2f8788117e7eff1d82e926ec794901d17c78024a50270940304540a733656f0d",
            "0x97667070c54ef182b0f5858b034beac1b6f3089aa2d3188bb1e8929f4fa9b929",
            "0x00000000000000000000000048156499e1f1502b6806b5b5babbc027b475ebcc",
            "0x000000000000000000000000be1e2c05a20df20a3ecd0ec12617b296a58ee2a1"
          ],
          "data": "0x",
          "blockHash": "0x17fe1ae11615d39176f6cf337112849b54b2441a4b26b0b1c513b4f32e51638b",
          "blockNumber": "0x34e4db4",
          "transactionHash": "0xc21310dd86650e7dba34741253347007dc54cc1393e865d5da0c0e3fa8dd588c",
          "transactionIndex": "0x56",
          "logIndex": "0xd37",
          "removed": false
        }
      ],
      "logsBloom": "0x00000004000000000000000000000000000000000000000000000000000000000200000000000000000000000001000000000000000000000000000200000000000000000000000000000000000000000002000000000000000000200000000000000000000000000000000000000000000000000000000000000000000000000000000000000000000000000000000000000000000000000000000000010000000000000000000000000000000000000000000000008000001000000001000000000000000000100000040000800000000000000000000108000000000000000000000000000000000000000000000000000000000000000000000000000000",
      "type": "0x0",
      "transactionHash": "0xc21310dd86650e7dba34741253347007dc54cc1393e865d5da0c0e3fa8dd588c",
      "transactionIndex": "0x56",
      "blockHash": "0x17fe1ae11615d39176f6cf337112849b54b2441a4b26b0b1c513b4f32e51638b",
      "blockNumber": "0x34e4db4",
      "gasUsed": "0xcea8",
      "effectiveGasPrice": "0x5f5e100",
      "from": "0xbe1e2c05a20df20a3ecd0ec12617b296a58ee2a1",
      "to": "0x345ab62117f9567fa808ef7290679427b2d583e2",
      "contractAddress": null
    }
  ],
  "libraries": [],
  "pending": [],
  "returns": {},
  "timestamp": 1753595481,
  "chain": 56,
  "commit": "b4915a8"
}