{
  "transactions": [
    {
      "hash": "0x762b959dcd48d40e36d53d04179c569891968c1d4b564de81875b55b555be1ed",
      "transactionType": "CALL",
      "contractName": null,
      "contractAddress": "0x9b442517db9686c28b9589b3f0ad23b02744216f",
      "function": "setBasePrice(uint256)",
      "arguments": [
        "5000000000000"
      ],
      "transaction": {
        "from": "0x34a340c1b113fb7b7a89e88d760b37389cdeec61",
        "to": "0x9b442517db9686c28b9589b3f0ad23b02744216f",
        "gas": "0xc323",
        "value": "0x0",
        "input": "0xde4b32620000000000000000000000000000000000000000000000000000048c27395000",
        "nonce": "0x6a",
        "chainId": "0x38"
      },
      "additionalContracts": [],
      "isFixedGasLimit": false
    },
    {
      "hash": "0xe8a5d85e064f1008adeb59f68596ef8bf385112dc9cc9a73140e5aab483260ca",
      "transactionType": "CALL",
      "contractName": null,
      "contractAddress": "0x9b442517db9686c28b9589b3f0ad23b02744216f",
      "function": "setUpPrice(uint256)",
      "arguments": [
        "20000000000000"
      ],
      "transaction": {
        "from": "0x34a340c1b113fb7b7a89e88d760b37389cdeec61",
        "to": "0x9b442517db9686c28b9589b3f0ad23b02744216f",
        "gas": "0xc13c",
        "value": "0x0",
        "input": "0x7da062ec000000000000000000000000000000000000000000000000000012309ce54000",
        "nonce": "0x6b",
        "chainId": "0x38"
      },
      "additionalContracts": [],
      "isFixedGasLimit": false
    },
    {
      "hash": "0x0dc14dc752a0da94ed7701c48a84382df9a444781618175e6ef661eac4216e4c",
      "transactionType": "CALL",
      "contractName": null,
      "contractAddress": "0x9b442517db9686c28b9589b3f0ad23b02744216f",
      "function": "setDownPrice(uint256)",
      "arguments": [
        "2500000000000"
      ],
      "transaction": {
        "from": "0x34a340c1b113fb7b7a89e88d760b37389cdeec61",
        "to": "0x9b442517db9686c28b9589b3f0ad23b02744216f",
        "gas": "0xc3d5",
        "value": "0x0",
        "input": "0xfd8441c500000000000000000000000000000000000000000000000000000246139ca800",
        "nonce": "0x6c",
        "chainId": "0x38"
      },
      "additionalContracts": [],
      "isFixedGasLimit": false
    }
  ],
  "receipts": [
    {
      "status": "0x1",
      "cumulativeGasUsed": "0x8f2605",
      "logs": [
        {
          "address": "0x9b442517db9686c28b9589b3f0ad23b02744216f",
          "topics": [
            "0xa2a9ee3bdae922edc2339f662c783441d0822b4ca5711b4c3821147e627e9969",
            "0x00000000000000000000000034a340c1b113fb7b7a89e88d760b37389cdeec61"
          ],
          "data": "0x000000000000000000000000000000000000000000000000000000746a5288000000000000000000000000000000000000000000000000000000048c273950000000000000000000000000000000000000000000000000000000000068c198ec",
          "blockHash": "0x540dd8e65c3eca5ffe77bf79ef8b5bd366b92420f84ca474ae6545bd2039a51e",
          "blockNumber": "0x39e18a4",
          "transactionHash": "0x762b959dcd48d40e36d53d04179c569891968c1d4b564de81875b55b555be1ed",
          "transactionIndex": "0x3e",
          "logIndex": "0x144",
          "removed": false
        }
      ],
      "logsBloom": "0x00000000000000000000000000000000000000000000000000000000000000000000000000000000000000000000000080000000000000000000000000000000000000000000000000000000000000000000000000000020000000000000000000000000000000000000000000000000000000010000001000000000000000000000000000000000000000000000000000000000000000000000000000000010000000000000000000020000000000000000000000000800000000000000000000000000000000000800000000000000000000000000000400000000000000000000000000000000000000000000000000000000000000000000000000000000",
      "type": "0x0",
      "transactionHash": "0x762b959dcd48d40e36d53d04179c569891968c1d4b564de81875b55b555be1ed",
      "transactionIndex": "0x3e",
      "blockHash": "0x540dd8e65c3eca5ffe77bf79ef8b5bd366b92420f84ca474ae6545bd2039a51e",
      "blockNumber": "0x39e18a4",
      "gasUsed": "0x8d47",
      "effectiveGasPrice": "0x5f5e100",
      "from": "0x34a340c1b113fb7b7a89e88d760b37389cdeec61",
      "to": "0x9b442517db9686c28b9589b3f0ad23b02744216f",
      "contractAddress": null
    },
    {
      "status": "0x1",
      "cumulativeGasUsed": "0xdaef6a",
      "logs": [
        {
          "address": "0x9b442517db9686c28b9589b3f0ad23b02744216f",
          "topics": [
            "0x822006e0d571a44ffcaa3d94eb550bbf10ef151beac2c7b5226d0f313717cbf3",
            "0x00000000000000000000000034a340c1b113fb7b7a89e88d760b37389cdeec61"
          ],
          "data": "0x000000000000000000000000000000000000000000000000000001d1a94a2000000000000000000000000000000000000000000000000000000012309ce540000000000000000000000000000000000000000000000000000000000068c198ee",
          "blockHash": "0x442bbd837b09686591c2c9aa24b1073fcb53948496ff82a31d601b186ab3845a",
          "blockNumber": "0x39e18a7",
          "transactionHash": "0xe8a5d85e064f1008adeb59f68596ef8bf385112dc9cc9a73140e5aab483260ca",
          "transactionIndex": "0x7f",
          "logIndex": "0x182",
          "removed": false
        }
      ],
      "logsBloom": "0x00200000000000000000000000000000000000000000000000000000000000000000000000000000008000000000000000000000000000000000000000000000000000000000000000000000000000000000000000000000000000000000000000000000000000000000000000000000000000010000000000000000000000000000000000000000000000000000000000000000000000000000000000000010400000000000000000020000000000000000000000000800000000000000000000000000000000000800000000000000000000000000000400000000000000000000000000000000000000000000000000000000000000000000000000000000",
      "type": "0x0",
      "transactionHash": "0xe8a5d85e064f1008adeb59f68596ef8bf385112dc9cc9a73140e5aab483260ca",
      "transactionIndex": "0x7f",
      "blockHash": "0x442bbd837b09686591c2c9aa24b1073fcb53948496ff82a31d601b186ab3845a",
      "blockNumber": "0x39e18a7",
      "gasUsed": "0x8be7",
      "effectiveGasPrice": "0x5f5e100",
      "from": "0x34a340c1b113fb7b7a89e88d760b37389cdeec61",
      "to": "0x9b442517db9686c28b9589b3f0ad23b02744216f",
      "contractAddress": null
    },
    {
      "status": "0x1",
      "cumulativeGasUsed": "0x10545b7",
      "logs": [
        {
          "address": "0x9b442517db9686c28b9589b3f0ad23b02744216f",
          "topics": [
            "0x46cf7872d7284cff3ffeec61d1fad6e8cc2c02d1ff6d3147d81e334c0b7e36a2",
            "0x00000000000000000000000034a340c1b113fb7b7a89e88d760b37389cdeec61"
          ],
          "data": "0x0000000000000000000000000000000000000000000000000000003a3529440000000000000000000000000000000000000000000000000000000246139ca8000000000000000000000000000000000000000000000000000000000068c198f0",
          "blockHash": "0xe3cc63e49ed2213d56db4cc26b149be127dc10a3bd55376a16d8890a1ccbe070",
          "blockNumber": "0x39e18aa",
          "transactionHash": "0x0dc14dc752a0da94ed7701c48a84382df9a444781618175e6ef661eac4216e4c",
          "transactionIndex": "0x66",
          "logIndex": "0x1f1",
          "removed": false
        }
      ],
      "logsBloom": "0x00000000000000000000000000000000000000000000000000000000000000000000000000000000000000000000000000000000000000000000000000000000000000000000000000000000000000000000000000000000000000000000000000000000000000000000000000000000000000010000000000000000000000000000000000000000000000000000000000000000000000000000000000000010000000000000000000020000000000000000000000000800000000000000000000000000000000000800000000000040000000000000000400000000000000000000000000000000000000008004000000000000000000000000000000000000",
      "type": "0x0",
      "transactionHash": "0x0dc14dc752a0da94ed7701c48a84382df9a444781618175e6ef661eac4216e4c",
      "transactionIndex": "0x66",
      "blockHash": "0xe3cc63e49ed2213d56db4cc26b149be127dc10a3bd55376a16d8890a1ccbe070",
      "blockNumber": "0x39e18aa",
      "gasUsed": "0x8dc8",
      "effectiveGasPrice": "0x5f5e100",
      "from": "0x34a340c1b113fb7b7a89e88d760b37389cdeec61",
      "to": "0x9b442517db9686c28b9589b3f0ad23b02744216f",
      "contractAddress": null
    }
  ],
  "libraries": [],
  "pending": [],
  "returns": {},
  "timestamp": 1757518065,
  "chain": 56,
  "commit": "24d1a01"
}