{
  "transactions": [
    {
      "hash": "0x4dd54c6af05078a603152959a8525ee07551973cedbfac7ded0877cb3561a967",
      "transactionType": "CALL",
      "contractName": null,
      "contractAddress": "0x9b442517db9686c28b9589b3f0ad23b02744216f",
      "function": "setBasePrice(uint256)",
      "arguments": [
        "500000000000"
      ],
      "transaction": {
        "from": "0x34a340c1b113fb7b7a89e88d760b37389cdeec61",
        "to": "0x9b442517db9686c28b9589b3f0ad23b02744216f",
        "gas": "0xce8c",
        "value": "0x0",
        "input": "0xde4b3262000000000000000000000000000000000000000000000000000000746a528800",
        "nonce": "0x65",
        "chainId": "0x38"
      },
      "additionalContracts": [],
      "isFixedGasLimit": false
    },
    {
      "hash": "0xe65677dfdd80ea0cc32378a780b41695293bc0be7b5096dea93eaa029c8b77b2",
      "transactionType": "CALL",
      "contractName": null,
      "contractAddress": "0x9b442517db9686c28b9589b3f0ad23b02744216f",
      "function": "setUpPrice(uint256)",
      "arguments": [
        "2000000000000"
      ],
      "transaction": {
        "from": "0x34a340c1b113fb7b7a89e88d760b37389cdeec61",
        "to": "0x9b442517db9686c28b9589b3f0ad23b02744216f",
        "gas": "0xc13c",
        "value": "0x0",
        "input": "0x7da062ec000000000000000000000000000000000000000000000000000001d1a94a2000",
        "nonce": "0x66",
        "chainId": "0x38"
      },
      "additionalContracts": [],
      "isFixedGasLimit": false
    },
    {
      "hash": "0x44ba851192b0080959f5a5a0f24efa7abd356903a23f21d2f538d0e2b2744c3b",
      "transactionType": "CALL",
      "contractName": null,
      "contractAddress": "0x9b442517db9686c28b9589b3f0ad23b02744216f",
      "function": "setDownPrice(uint256)",
      "arguments": [
        "250000000000"
      ],
      "transaction": {
        "from": "0x34a340c1b113fb7b7a89e88d760b37389cdeec61",
        "to": "0x9b442517db9686c28b9589b3f0ad23b02744216f",
        "gas": "0xc3c4",
        "value": "0x0",
        "input": "0xfd8441c50000000000000000000000000000000000000000000000000000003a35294400",
        "nonce": "0x67",
        "chainId": "0x38"
      },
      "additionalContracts": [],
      "isFixedGasLimit": false
    }
  ],
  "receipts": [
    {
      "status": "0x1",
      "cumulativeGasUsed": "0x921119",
      "logs": [
        {
          "address": "0x9b442517db9686c28b9589b3f0ad23b02744216f",
          "topics": [
            "0xa2a9ee3bdae922edc2339f662c783441d0822b4ca5711b4c3821147e627e9969",
            "0x00000000000000000000000034a340c1b113fb7b7a89e88d760b37389cdeec61"
          ],
          "data": "0x0000000000000000000000000000000000000000000000000000048c27395000000000000000000000000000000000000000000000000000000000746a5288000000000000000000000000000000000000000000000000000000000068c154a2",
          "blockHash": "0x09f18365cbe341fd196ea062b22974711c7ba3fbf647a9d5b4e35a622605ba23",
          "blockNumber": "0x39dbd98",
          "transactionHash": "0x4dd54c6af05078a603152959a8525ee07551973cedbfac7ded0877cb3561a967",
          "transactionIndex": "0x5d",
          "logIndex": "0x131",
          "removed": false
        }
      ],
      "logsBloom": "0x00000000000000000000000000000000000000000000000000000000000000000000000000000000000000000000000080000000000000000000000000000000000000000000000000000000000000000000000000000020000000000000000000000000000000000000000000000000000000010000001000000000000000000000000000000000000000000000000000000000000000000000000000000010000000000000000000020000000000000000000000000800000000000000000000000000000000000800000000000000000000000000000400000000000000000000000000000000000000000000000000000000000000000000000000000000",
      "type": "0x0",
      "transactionHash": "0x4dd54c6af05078a603152959a8525ee07551973cedbfac7ded0877cb3561a967",
      "transactionIndex": "0x5d",
      "blockHash": "0x09f18365cbe341fd196ea062b22974711c7ba3fbf647a9d5b4e35a622605ba23",
      "blockNumber": "0x39dbd98",
      "gasUsed": "0x8d3b",
      "effectiveGasPrice": "0x5f5e100",
      "from": "0x34a340c1b113fb7b7a89e88d760b37389cdeec61",
      "to": "0x9b442517db9686c28b9589b3f0ad23b02744216f",
      "contractAddress": null
    },
    {
      "status": "0x1",
      "cumulativeGasUsed": "0xe969cd",
      "logs": [
        {
          "address": "0x9b442517db9686c28b9589b3f0ad23b02744216f",
          "topics": [
            "0x822006e0d571a44ffcaa3d94eb550bbf10ef151beac2c7b5226d0f313717cbf3",
            "0x00000000000000000000000034a340c1b113fb7b7a89e88d760b37389cdeec61"
          ],
          "data": "0x000000000000000000000000000000000000000000000000000012309ce54000000000000000000000000000000000000000000000000000000001d1a94a20000000000000000000000000000000000000000000000000000000000068c154a5",
          "blockHash": "0xc771c1153060c1312f9f3584362cb3aba14a8fa08241aa22dcfddf57f1f9a52c",
          "blockNumber": "0x39dbd9c",
          "transactionHash": "0xe65677dfdd80ea0cc32378a780b41695293bc0be7b5096dea93eaa029c8b77b2",
          "transactionIndex": "0x60",
          "logIndex": "0x167",
          "removed": false
        }
      ],
      "logsBloom": "0x00200000000000000000000000000000000000000000000000000000000000000000000000000000008000000000000000000000000000000000000000000000000000000000000000000000000000000000000000000000000000000000000000000000000000000000000000000000000000010000000000000000000000000000000000000000000000000000000000000000000000000000000000000010400000000000000000020000000000000000000000000800000000000000000000000000000000000800000000000000000000000000000400000000000000000000000000000000000000000000000000000000000000000000000000000000",
      "type": "0x0",
      "transactionHash": "0xe65677dfdd80ea0cc32378a780b41695293bc0be7b5096dea93eaa029c8b77b2",
      "transactionIndex": "0x60",
      "blockHash": "0xc771c1153060c1312f9f3584362cb3aba14a8fa08241aa22dcfddf57f1f9a52c",
      "blockNumber": "0x39dbd9c",
      "gasUsed": "0x8be7",
      "effectiveGasPrice": "0x5f5e100",
      "from": "0x34a340c1b113fb7b7a89e88d760b37389cdeec61",
      "to": "0x9b442517db9686c28b9589b3f0ad23b02744216f",
      "contractAddress": null
    },
    {
      "status": "0x1",
      "cumulativeGasUsed": "0xc36f00",
      "logs": [
        {
          "address": "0x9b442517db9686c28b9589b3f0ad23b02744216f",
          "topics": [
            "0x46cf7872d7284cff3ffeec61d1fad6e8cc2c02d1ff6d3147d81e334c0b7e36a2",
            "0x00000000000000000000000034a340c1b113fb7b7a89e88d760b37389cdeec61"
          ],
          "data": "0x00000000000000000000000000000000000000000000000000000246139ca8000000000000000000000000000000000000000000000000000000003a352944000000000000000000000000000000000000000000000000000000000068c154a7",
          "blockHash": "0x46a2cabfe49e9ac7db9f7c8cc88833875e7e00110b09fba41df2489257885858",
          "blockNumber": "0x39dbd9f",
          "transactionHash": "0x44ba851192b0080959f5a5a0f24efa7abd356903a23f21d2f538d0e2b2744c3b",
          "transactionIndex": "0x62",
          "logIndex": "0x1aa",
          "removed": false
        }
      ],
      "logsBloom": "0x00000000000000000000000000000000000000000000000000000000000000000000000000000000000000000000000000000000000000000000000000000000000000000000000000000000000000000000000000000000000000000000000000000000000000000000000000000000000000010000000000000000000000000000000000000000000000000000000000000000000000000000000000000010000000000000000000020000000000000000000000000800000000000000000000000000000000000800000000000040000000000000000400000000000000000000000000000000000000008004000000000000000000000000000000000000",
      "type": "0x0",
      "transactionHash": "0x44ba851192b0080959f5a5a0f24efa7abd356903a23f21d2f538d0e2b2744c3b",
      "transactionIndex": "0x62",
      "blockHash": "0x46a2cabfe49e9ac7db9f7c8cc88833875e7e00110b09fba41df2489257885858",
      "blockNumber": "0x39dbd9f",
      "gasUsed": "0x8dbc",
      "effectiveGasPrice": "0x5f5e100",
      "from": "0x34a340c1b113fb7b7a89e88d760b37389cdeec61",
      "to": "0x9b442517db9686c28b9589b3f0ad23b02744216f",
      "contractAddress": null
    }
  ],
  "libraries": [],
  "pending": [],
  "returns": {},
  "timestamp": 1757500584,
  "chain": 56,
  "commit": "9a6d40a"
}