{
  "transactions": [
    {
      "hash": "0x7dbd44e12bbf8161f7bf701842daff57810d3ce02c1c55e5b04e26d672fce8ce",
      "transactionType": "CALL",
      "contractName": null,
      "contractAddress": "0x9b442517db9686c28b9589b3f0ad23b02744216f",
      "function": "setBasePrice(uint256)",
      "arguments": [
        "5000000000000"
      ],
      "transaction": {
        "from": "0x34a340c1b113fb7b7a89e88d760b37389cdeec61",
        "to": "0x9b442517db9686c28b9589b3f0ad23b02744216f",
        "gas": "0xc323",
        "value": "0x0",
        "input": "0xde4b32620000000000000000000000000000000000000000000000000000048c27395000",
        "nonce": "0x62",
        "chainId": "0x38"
      },
      "additionalContracts": [],
      "isFixedGasLimit": false
    },
    {
      "hash": "0x864b7c8a167a40497b88c0d918b3b2a90b770ff4545f557a3c65d53b20a5e1c6",
      "transactionType": "CALL",
      "contractName": null,
      "contractAddress": "0x9b442517db9686c28b9589b3f0ad23b02744216f",
      "function": "setUpPrice(uint256)",
      "arguments": [
        "20000000000000"
      ],
      "transaction": {
        "from": "0x34a340c1b113fb7b7a89e88d760b37389cdeec61",
        "to": "0x9b442517db9686c28b9589b3f0ad23b02744216f",
        "gas": "0xc13c",
        "value": "0x0",
        "input": "0x7da062ec000000000000000000000000000000000000000000000000000012309ce54000",
        "nonce": "0x63",
        "chainId": "0x38"
      },
      "additionalContracts": [],
      "isFixedGasLimit": false
    },
    {
      "hash": "0xcc35296b497c8dc2ca0ac77b7063018db7765ebe0c0fb1bbdf8e2344025e547a",
      "transactionType": "CALL",
      "contractName": null,
      "contractAddress": "0x9b442517db9686c28b9589b3f0ad23b02744216f",
      "function": "setDownPrice(uint256)",
      "arguments": [
        "2500000000000"
      ],
      "transaction": {
        "from": "0x34a340c1b113fb7b7a89e88d760b37389cdeec61",
        "to": "0x9b442517db9686c28b9589b3f0ad23b02744216f",
        "gas": "0xc3d5",
        "value": "0x0",
        "input": "0xfd8441c500000000000000000000000000000000000000000000000000000246139ca800",
        "nonce": "0x64",
        "chainId": "0x38"
      },
      "additionalContracts": [],
      "isFixedGasLimit": false
    }
  ],
  "receipts": [
    {
      "status": "0x1",
      "cumulativeGasUsed": "0xe2ce1f",
      "logs": [
        {
          "address": "0x9b442517db9686c28b9589b3f0ad23b02744216f",
          "topics": [
            "0xa2a9ee3bdae922edc2339f662c783441d0822b4ca5711b4c3821147e627e9969",
            "0x00000000000000000000000034a340c1b113fb7b7a89e88d760b37389cdeec61"
          ],
          "data": "0x00000000000000000000000000000000000000000000000000b1a2bc2ec500000000000000000000000000000000000000000000000000000000048c273950000000000000000000000000000000000000000000000000000000000068c1316e",
          "blockHash": "0x1e51d3b7d5b45c77051801504c2af55afdc1b762a1fc1e16f0c738110e81bf91",
          "blockNumber": "0x39d8eb5",
          "transactionHash": "0x7dbd44e12bbf8161f7bf701842daff57810d3ce02c1c55e5b04e26d672fce8ce",
          "transactionIndex": "0x62",
          "logIndex": "0x1e0",
          "removed": false
        }
      ],
      "logsBloom": "0x00000000000000000000000000000000000000000000000000000000000000000000000000000000000000000000000080000000000000000000000000000000000000000000000000000000000000000000000000000020000000000000000000000000000000000000000000000000000000010000001000000000000000000000000000000000000000000000000000000000000000000000000000000010000000000000000000020000000000000000000000000800000000000000000000000000000000000800000000000000000000000000000400000000000000000000000000000000000000000000000000000000000000000000000000000000",
      "type": "0x0",
      "transactionHash": "0x7dbd44e12bbf8161f7bf701842daff57810d3ce02c1c55e5b04e26d672fce8ce",
      "transactionIndex": "0x62",
      "blockHash": "0x1e51d3b7d5b45c77051801504c2af55afdc1b762a1fc1e16f0c738110e81bf91",
      "blockNumber": "0x39d8eb5",
      "gasUsed": "0x8d47",
      "effectiveGasPrice": "0x5f5e100",
      "from": "0x34a340c1b113fb7b7a89e88d760b37389cdeec61",
      "to": "0x9b442517db9686c28b9589b3f0ad23b02744216f",
      "contractAddress": null
    },
    {
      "status": "0x1",
      "cumulativeGasUsed": "0xba2156",
      "logs": [
        {
          "address": "0x9b442517db9686c28b9589b3f0ad23b02744216f",
          "topics": [
            "0x822006e0d571a44ffcaa3d94eb550bbf10ef151beac2c7b5226d0f313717cbf3",
            "0x00000000000000000000000034a340c1b113fb7b7a89e88d760b37389cdeec61"
          ],
          "data": "0x00000000000000000000000000000000000000000000000002c68af0bb140000000000000000000000000000000000000000000000000000000012309ce540000000000000000000000000000000000000000000000000000000000068c13170",
          "blockHash": "0x34baef843b6c3f998adebdb37a7dede9fca14e60570f55925fba8c3e0d9e4d22",
          "blockNumber": "0x39d8eb8",
          "transactionHash": "0x864b7c8a167a40497b88c0d918b3b2a90b770ff4545f557a3c65d53b20a5e1c6",
          "transactionIndex": "0x59",
          "logIndex": "0x16b",
          "removed": false
        }
      ],
      "logsBloom": "0x00200000000000000000000000000000000000000000000000000000000000000000000000000000008000000000000000000000000000000000000000000000000000000000000000000000000000000000000000000000000000000000000000000000000000000000000000000000000000010000000000000000000000000000000000000000000000000000000000000000000000000000000000000010400000000000000000020000000000000000000000000800000000000000000000000000000000000800000000000000000000000000000400000000000000000000000000000000000000000000000000000000000000000000000000000000",
      "type": "0x0",
      "transactionHash": "0x864b7c8a167a40497b88c0d918b3b2a90b770ff4545f557a3c65d53b20a5e1c6",
      "transactionIndex": "0x59",
      "blockHash": "0x34baef843b6c3f998adebdb37a7dede9fca14e60570f55925fba8c3e0d9e4d22",
      "blockNumber": "0x39d8eb8",
      "gasUsed": "0x8be7",
      "effectiveGasPrice": "0x5f5e100",
      "from": "0x34a340c1b113fb7b7a89e88d760b37389cdeec61",
      "to": "0x9b442517db9686c28b9589b3f0ad23b02744216f",
      "contractAddress": null
    },
    {
      "status": "0x1",
      "cumulativeGasUsed": "0xd5995d",
      "logs": [
        {
          "address": "0x9b442517db9686c28b9589b3f0ad23b02744216f",
          "topics": [
            "0x46cf7872d7284cff3ffeec61d1fad6e8cc2c02d1ff6d3147d81e334c0b7e36a2",
            "0x00000000000000000000000034a340c1b113fb7b7a89e88d760b37389cdeec61"
          ],
          "data": "0x0000000000000000000000000000000000000000000000000058d15e1762800000000000000000000000000000000000000000000000000000000246139ca8000000000000000000000000000000000000000000000000000000000068c13172",
          "blockHash": "0xbb0f4d58d70df101c71d4745f5cf2ab4b0ada0fc22a364ac660a98cd841846f5",
          "blockNumber": "0x39d8eba",
          "transactionHash": "0xcc35296b497c8dc2ca0ac77b7063018db7765ebe0c0fb1bbdf8e2344025e547a",
          "transactionIndex": "0x66",
          "logIndex": "0x154",
          "removed": false
        }
      ],
      "logsBloom": "0x00000000000000000000000000000000000000000000000000000000000000000000000000000000000000000000000000000000000000000000000000000000000000000000000000000000000000000000000000000000000000000000000000000000000000000000000000000000000000010000000000000000000000000000000000000000000000000000000000000000000000000000000000000010000000000000000000020000000000000000000000000800000000000000000000000000000000000800000000000040000000000000000400000000000000000000000000000000000000008004000000000000000000000000000000000000",
      "type": "0x0",
      "transactionHash": "0xcc35296b497c8dc2ca0ac77b7063018db7765ebe0c0fb1bbdf8e2344025e547a",
      "transactionIndex": "0x66",
      "blockHash": "0xbb0f4d58d70df101c71d4745f5cf2ab4b0ada0fc22a364ac660a98cd841846f5",
      "blockNumber": "0x39d8eba",
      "gasUsed": "0x8dc8",
      "effectiveGasPrice": "0x5f5e100",
      "from": "0x34a340c1b113fb7b7a89e88d760b37389cdeec61",
      "to": "0x9b442517db9686c28b9589b3f0ad23b02744216f",
      "contractAddress": null
    }
  ],
  "libraries": [],
  "pending": [],
  "returns": {},
  "timestamp": 1757491571,
  "chain": 56,
  "commit": "9a6d40a"
}