{
  "transactions": [
    {
      "hash": "0x561437dcaf7035e54637e8a55c42babeb5a0fb6311b222db369d8a29ce938808",
      "transactionType": "CALL",
      "contractName": null,
      "contractAddress": "0x582ce3afdc3983803e1b8c90f705a284b8ad9e92",
      "function": "setBuyEnabled(bool)",
      "arguments": [
        "false"
      ],
      "transaction": {
        "from": "0xbe1e2c05a20df20a3ecd0ec12617b296a58ee2a1",
        "to": "0x582ce3afdc3983803e1b8c90f705a284b8ad9e92",
        "gas": "0x8264",
        "value": "0x0",
        "input": "0xd6f154690000000000000000000000000000000000000000000000000000000000000000",
        "nonce": "0x2e2",
        "chainId": "0x61"
      },
      "additionalContracts": [],
      "isFixedGasLimit": false
    }
  ],
  "receipts": [
    {
      "status": "0x1",
      "cumulativeGasUsed": "0x5e67",
      "logs": [],
      "logsBloom": "0x00000000000000000000000000000000000000000000000000000000000000000000000000000000000000000000000000000000000000000000000000000000000000000000000000000000000000000000000000000000000000000000000000000000000000000000000000000000000000000000000000000000000000000000000000000000000000000000000000000000000000000000000000000000000000000000000000000000000000000000000000000000000000000000000000000000000000000000000000000000000000000000000000000000000000000000000000000000000000000000000000000000000000000000000000000000",
      "type": "0x0",
      "transactionHash": "0x561437dcaf7035e54637e8a55c42babeb5a0fb6311b222db369d8a29ce938808",
      "transactionIndex": "0x0",
      "blockHash": "0x411c2f77883e0be88f6d6fd7cb11f051705e62650f84676fc8215e1917fde69d",
      "blockNumber": "0x3b5eba1",
      "gasUsed": "0x5e67",
      "effectiveGasPrice": "0x3b9aca00",
      "from": "0xbe1e2c05a20df20a3ecd0ec12617b296a58ee2a1",
      "to": "0x582ce3afdc3983803e1b8c90f705a284b8ad9e92",
      "contractAddress": null
    }
  ],
  "libraries": [],
  "pending": [],
  "returns": {},
  "timestamp": 1755529934,
  "chain": 97,
  "commit": "fd06cee"
}