{
  "transactions": [
    {
      "hash": "0x3f57165fdd8d936c38aac2142b606bb88d9e1c291802c65c015da66528e1ae25",
      "transactionType": "CALL",
      "contractName": null,
      "contractAddress": "0x582ce3afdc3983803e1b8c90f705a284b8ad9e92",
      "function": "setBuyWhitelist(address,bool)",
      "arguments": [
        "0x39C5D3E3b8F5594623636ECDbdf135838B47B558",
        "true"
      ],
      "transaction": {
        "from": "0xbe1e2c05a20df20a3ecd0ec12617b296a58ee2a1",
        "to": "0x582ce3afdc3983803e1b8c90f705a284b8ad9e92",
        "gas": "0xfb4d",
        "value": "0x0",
        "input": "0xb6fb0d6400000000000000000000000039c5d3e3b8f5594623636ecdbdf135838b47b5580000000000000000000000000000000000000000000000000000000000000001",
        "nonce": "0x2e0",
        "chainId": "0x61"
      },
      "additionalContracts": [],
      "isFixedGasLimit": false
    }
  ],
  "receipts": [
    {
      "status": "0x1",
      "cumulativeGasUsed": "0x1dc5a",
      "logs": [],
      "logsBloom": "0x00000000000000000000000000000000000000000000000000000000000000000000000000000000000000000000000000000000000000000000000000000000000000000000000000000000000000000000000000000000000000000000000000000000000000000000000000000000000000000000000000000000000000000000000000000000000000000000000000000000000000000000000000000000000000000000000000000000000000000000000000000000000000000000000000000000000000000000000000000000000000000000000000000000000000000000000000000000000000000000000000000000000000000000000000000000",
      "type": "0x0",
      "transactionHash": "0x3f57165fdd8d936c38aac2142b606bb88d9e1c291802c65c015da66528e1ae25",
      "transactionIndex": "0x2",
      "blockHash": "0xd197325fca829339e676c072624684ee12e89d5fc8f0f02877e851e0c59056de",
      "blockNumber": "0x3b5eaa7",
      "gasUsed": "0xb5f0",
      "effectiveGasPrice": "0x3b9aca00",
      "from": "0xbe1e2c05a20df20a3ecd0ec12617b296a58ee2a1",
      "to": "0x582ce3afdc3983803e1b8c90f705a284b8ad9e92",
      "contractAddress": null
    }
  ],
  "libraries": [],
  "pending": [],
  "returns": {},
  "timestamp": 1755529747,
  "chain": 97,
  "commit": "fd06cee"
}