{
  "transactions": [
    {
      "hash": "0x079a47ee64d40f13ce88a9ad60f232978176d499795c3f05fb5b40cd6945f22a",
      "transactionType": "CALL",
      "contractName": null,
      "contractAddress": "0x4f8afb1c6c2ca1c6206ae64d4ebc5ceb9ee1556f",
      "function": "adminWithdraw(address,uint256)",
      "arguments": [
        "0x582ce3afdc3983803e1b8c90F705A284B8AD9E92",
        "10385275081308146404645321"
      ],
      "transaction": {
        "from": "0xbe1e2c05a20df20a3ecd0ec12617b296a58ee2a1",
        "to": "0x4f8afb1c6c2ca1c6206ae64d4ebc5ceb9ee1556f",
        "gas": "0x151ca",
        "value": "0x0",
        "input": "0x401d4482000000000000000000000000582ce3afdc3983803e1b8c90f705a284b8ad9e9200000000000000000000000000000000000000000008972ae3e7782cf8d759c9",
        "nonce": "0x2aa",
        "chainId": "0x61"
      },
      "additionalContracts": [],
      "isFixedGasLimit": false
    },
    {
      "hash": "0x378f015da2a9396301440c1f4e47b5842e7be02546064b0296c5fa27ebe12caa",
      "transactionType": "CALL",
      "contractName": null,
      "contractAddress": "0x4f8afb1c6c2ca1c6206ae64d4ebc5ceb9ee1556f",
      "function": "adminWithdraw(address,uint256)",
      "arguments": [
        "0x1DB6aC824338cD4d5DD67aFdC8281bbafcc2378C",
        "5796939742012917173497806918"
      ],
      "transaction": {
        "from": "0xbe1e2c05a20df20a3ecd0ec12617b296a58ee2a1",
        "to": "0x4f8afb1c6c2ca1c6206ae64d4ebc5ceb9ee1556f",
        "gas": "0xf629",
        "value": "0x0",
        "input": "0x401d44820000000000000000000000001db6ac824338cd4d5dd67afdc8281bbafcc2378c000000000000000000000000000000000000000012bb1dbd1a5789a9b68ec046",
        "nonce": "0x2ab",
        "chainId": "0x61"
      },
      "additionalContracts": [],
      "isFixedGasLimit": false
    },
    {
      "hash": "0x4573a3f9fd3ef1cfc3cd5c99e5a25b9a5572674e99c461cdd5865ddc8d75686e",
      "transactionType": "CALL",
      "contractName": null,
      "contractAddress": "0x4f8afb1c6c2ca1c6206ae64d4ebc5ceb9ee1556f",
      "function": "adminWithdraw(address,uint256)",
      "arguments": [
        "0x026E9aF77DA76842086E2BcF6dC5421F16252087",
        "999747375283506727949214149876"
      ],
      "transaction": {
        "from": "0xbe1e2c05a20df20a3ecd0ec12617b296a58ee2a1",
        "to": "0x4f8afb1c6c2ca1c6206ae64d4ebc5ceb9ee1556f",
        "gas": "0x13210",
        "value": "0x0",
        "input": "0x401d4482000000000000000000000000026e9af77da76842086e2bcf6dc5421f16252087000000000000000000000000000000000000000c9e5ba572f3f42ee7dd97ecf4",
        "nonce": "0x2ac",
        "chainId": "0x61"
      },
      "additionalContracts": [],
      "isFixedGasLimit": false
    }
  ],
  "receipts": [
    {
      "status": "0x1",
      "cumulativeGasUsed": "0xf48f",
      "logs": [
        {
          "address": "0x582ce3afdc3983803e1b8c90f705a284b8ad9e92",
          "topics": [
            "0xddf252ad1be2c89b69c2b068fc378daa952ba7f163c4a11628f55a4df523b3ef",
            "0x0000000000000000000000004f8afb1c6c2ca1c6206ae64d4ebc5ceb9ee1556f",
            "0x000000000000000000000000be1e2c05a20df20a3ecd0ec12617b296a58ee2a1"
          ],
          "data": "0x00000000000000000000000000000000000000000008972ae3e7782cf8d759c9",
          "blockHash": "0xfbe6fa27b70cb4c503edc1ab8e9b4dc540a6c810b6e1e83b1ce5227521d9c652",
          "blockNumber": "0x3b030f5",
          "transactionHash": "0x079a47ee64d40f13ce88a9ad60f232978176d499795c3f05fb5b40cd6945f22a",
          "transactionIndex": "0x0",
          "logIndex": "0x0",
          "removed": false
        },
        {
          "address": "0x4f8afb1c6c2ca1c6206ae64d4ebc5ceb9ee1556f",
          "topics": [
            "0xb39d7dbd236dcbba6b8dfc4428f15329fb261b996797b453737266986d3a1937",
            "0x000000000000000000000000be1e2c05a20df20a3ecd0ec12617b296a58ee2a1",
            "0x000000000000000000000000582ce3afdc3983803e1b8c90f705a284b8ad9e92"
          ],
          "data": "0x00000000000000000000000000000000000000000008972ae3e7782cf8d759c900000000000000000000000000000000000000000000000000000000689ef3c1",
          "blockHash": "0xfbe6fa27b70cb4c503edc1ab8e9b4dc540a6c810b6e1e83b1ce5227521d9c652",
          "blockNumber": "0x3b030f5",
          "transactionHash": "0x079a47ee64d40f13ce88a9ad60f232978176d499795c3f05fb5b40cd6945f22a",
          "transactionIndex": "0x0",
          "logIndex": "0x1",
          "removed": false
        }
      ],
      "logsBloom": "0x00000000000000000000000000000000000000000000000000000000000000000000000000000080000000000000000000000000000000000100000000000000000000000000000000200008000000000000000000000000000000200000000000000000000000000000000000000000000000000000000080000010000020000000010000000000000000000000000000000000000000020000000000000000000000000000000020000000000000400000000080000000000000001000020008000002000000000000040000800000080000000000000000000000200000000000000000000000000000000000000000000000000000000000000000000000",
      "type": "0x0",
      "transactionHash": "0x079a47ee64d40f13ce88a9ad60f232978176d499795c3f05fb5b40cd6945f22a",
      "transactionIndex": "0x0",
      "blockHash": "0xfbe6fa27b70cb4c503edc1ab8e9b4dc540a6c810b6e1e83b1ce5227521d9c652",
      "blockNumber": "0x3b030f5",
      "gasUsed": "0xf48f",
      "effectiveGasPrice": "0x3b9aca00",
      "from": "0xbe1e2c05a20df20a3ecd0ec12617b296a58ee2a1",
      "to": "0x4f8afb1c6c2ca1c6206ae64d4ebc5ceb9ee1556f",
      "contractAddress": null
    },
    {
      "status": "0x1",
      "cumulativeGasUsed": "0xb238",
      "logs": [
        {
          "address": "0x1db6ac824338cd4d5dd67afdc8281bbafcc2378c",
          "topics": [
            "0xddf252ad1be2c89b69c2b068fc378daa952ba7f163c4a11628f55a4df523b3ef",
            "0x0000000000000000000000004f8afb1c6c2ca1c6206ae64d4ebc5ceb9ee1556f",
            "0x000000000000000000000000be1e2c05a20df20a3ecd0ec12617b296a58ee2a1"
          ],
          "data": "0x000000000000000000000000000000000000000012bb1dbd1a5789a9b68ec046",
          "blockHash": "0x411b9841f70f728030ac82ee0ed1965680a8b50c4ac2dbecb9db8aa6e392e06e",
          "blockNumber": "0x3b030f7",
          "transactionHash": "0x378f015da2a9396301440c1f4e47b5842e7be02546064b0296c5fa27ebe12caa",
          "transactionIndex": "0x0",
          "logIndex": "0x0",
          "removed": false
        },
        {
          "address": "0x4f8afb1c6c2ca1c6206ae64d4ebc5ceb9ee1556f",
          "topics": [
            "0xb39d7dbd236dcbba6b8dfc4428f15329fb261b996797b453737266986d3a1937",
            "0x000000000000000000000000be1e2c05a20df20a3ecd0ec12617b296a58ee2a1",
            "0x0000000000000000000000001db6ac824338cd4d5dd67afdc8281bbafcc2378c"
          ],
          "data": "0x000000000000000000000000000000000000000012bb1dbd1a5789a9b68ec04600000000000000000000000000000000000000000000000000000000689ef3c2",
          "blockHash": "0x411b9841f70f728030ac82ee0ed1965680a8b50c4ac2dbecb9db8aa6e392e06e",
          "blockNumber": "0x3b030f7",
          "transactionHash": "0x378f015da2a9396301440c1f4e47b5842e7be02546064b0296c5fa27ebe12caa",
          "transactionIndex": "0x0",
          "logIndex": "0x1",
          "removed": false
        }
      ],
      "logsBloom": "0x00000000000000000000000000000000010080000000000000000000000000000000000000000080000000000000000000000000000000000020000000000000000000000000000000200008000000000000000000000000000000200000000000000000000000000000000000020000000000000000000480000010000000000000010000000000000000000000000000000002000000020000000000000000000000000000000000000000000000000000000080000000000000001000020000000002000000000000040000800000080000000000000000000000000000000000000000000000000000000000000000000000000000000000000000000000",
      "type": "0x0",
      "transactionHash": "0x378f015da2a9396301440c1f4e47b5842e7be02546064b0296c5fa27ebe12caa",
      "transactionIndex": "0x0",
      "blockHash": "0x411b9841f70f728030ac82ee0ed1965680a8b50c4ac2dbecb9db8aa6e392e06e",
      "blockNumber": "0x3b030f7",
      "gasUsed": "0xb238",
      "effectiveGasPrice": "0x3b9aca00",
      "from": "0xbe1e2c05a20df20a3ecd0ec12617b296a58ee2a1",
      "to": "0x4f8afb1c6c2ca1c6206ae64d4ebc5ceb9ee1556f",
      "contractAddress": null
    },
    {
      "status": "0x1",
      "cumulativeGasUsed": "0x1ecd8",
      "logs": [
        {
          "address": "0x026e9af77da76842086e2bcf6dc5421f16252087",
          "topics": [
            "0xddf252ad1be2c89b69c2b068fc378daa952ba7f163c4a11628f55a4df523b3ef",
            "0x0000000000000000000000004f8afb1c6c2ca1c6206ae64d4ebc5ceb9ee1556f",
            "0x000000000000000000000000be1e2c05a20df20a3ecd0ec12617b296a58ee2a1"
          ],
          "data": "0x000000000000000000000000000000000000000c9e5ba572f3f42ee7dd97ecf4",
          "blockHash": "0x5a01df035c899a1c04bb0d09208b6d0001da50bbcfeec8942d5069e3f27a2938",
          "blockNumber": "0x3b030fa",
          "transactionHash": "0x4573a3f9fd3ef1cfc3cd5c99e5a25b9a5572674e99c461cdd5865ddc8d75686e",
          "transactionIndex": "0x1",
          "logIndex": "0x1",
          "removed": false
        },
        {
          "address": "0x4f8afb1c6c2ca1c6206ae64d4ebc5ceb9ee1556f",
          "topics": [
            "0xb39d7dbd236dcbba6b8dfc4428f15329fb261b996797b453737266986d3a1937",
            "0x000000000000000000000000be1e2c05a20df20a3ecd0ec12617b296a58ee2a1",
            "0x000000000000000000000000026e9af77da76842086e2bcf6dc5421f16252087"
          ],
          "data": "0x000000000000000000000000000000000000000c9e5ba572f3f42ee7dd97ecf400000000000000000000000000000000000000000000000000000000689ef3c4",
          "blockHash": "0x5a01df035c899a1c04bb0d09208b6d0001da50bbcfeec8942d5069e3f27a2938",
          "blockNumber": "0x3b030fa",
          "transactionHash": "0x4573a3f9fd3ef1cfc3cd5c99e5a25b9a5572674e99c461cdd5865ddc8d75686e",
          "transactionIndex": "0x1",
          "logIndex": "0x2",
          "removed": false
        }
      ],
      "logsBloom": "0x00000000000000000000000000000000000000000000000000000000000000000000000000000080000000000000000000000000000000000000000000000000008000000000000000200008000000000000000000000000000000200000000000000000000000000000000000000000000000000000000080000010000000000000010000000000000000000000000000000000000000020000000000800000000000000000008000000000000800000000000080000000000000001000020000000002000000000000040000800000080000000000000000000000000000000000000000000000000000000000000000404000000000000000000000000000",
      "type": "0x0",
      "transactionHash": "0x4573a3f9fd3ef1cfc3cd5c99e5a25b9a5572674e99c461cdd5865ddc8d75686e",
      "transactionIndex": "0x1",
      "blockHash": "0x5a01df035c899a1c04bb0d09208b6d0001da50bbcfeec8942d5069e3f27a2938",
      "blockNumber": "0x3b030fa",
      "gasUsed": "0xdd96",
      "effectiveGasPrice": "0x3b9aca00",
      "from": "0xbe1e2c05a20df20a3ecd0ec12617b296a58ee2a1",
      "to": "0x4f8afb1c6c2ca1c6206ae64d4ebc5ceb9ee1556f",
      "contractAddress": null
    }
  ],
  "libraries": [],
  "pending": [],
  "returns": {},
  "timestamp": 1755247557,
  "chain": 97,
  "commit": "ab0d9b2"
}