{
  "transactions": [
    {
      "hash": "0x0ac809d27f9eecf8ca9f22ec55fcfd46563e238eb926da474c9fc0449c362d60",
      "transactionType": "CALL",
      "contractName": null,
      "contractAddress": "0x34c8ae68a1b68d48f508c00580cab739e8d15df6",
      "function": "adminWithdraw(address,uint256)",
      "arguments": [
        "0x582ce3afdc3983803e1b8c90F705A284B8AD9E92",
        "10000000000000000000000"
      ],
      "transaction": {
        "from": "0xbe1e2c05a20df20a3ecd0ec12617b296a58ee2a1",
        "to": "0x34c8ae68a1b68d48f508c00580cab739e8d15df6",
        "gas": "0x10f3b",
        "value": "0x0",
        "input": "0x401d4482000000000000000000000000582ce3afdc3983803e1b8c90f705a284b8ad9e9200000000000000000000000000000000000000000000021e19e0c9bab2400000",
        "nonce": "0x2bf",
        "chainId": "0x61"
      },
      "additionalContracts": [],
      "isFixedGasLimit": false
    },
    {
      "hash": "0xd43b13787cbaf95fa46d72bd01b855e00e2a37590498d3de81e5ab4ea7f5c6d2",
      "transactionType": "CALL",
      "contractName": null,
      "contractAddress": "0x34c8ae68a1b68d48f508c00580cab739e8d15df6",
      "function": "adminWithdraw(address,uint256)",
      "arguments": [
        "0x1DB6aC824338cD4d5DD67aFdC8281bbafcc2378C",
        "10000000000000000000000"
      ],
      "transaction": {
        "from": "0xbe1e2c05a20df20a3ecd0ec12617b296a58ee2a1",
        "to": "0x34c8ae68a1b68d48f508c00580cab739e8d15df6",
        "gas": "0x10fcd",
        "value": "0x0",
        "input": "0x401d44820000000000000000000000001db6ac824338cd4d5dd67afdc8281bbafcc2378c00000000000000000000000000000000000000000000021e19e0c9bab2400000",
        "nonce": "0x2c0",
        "chainId": "0x61"
      },
      "additionalContracts": [],
      "isFixedGasLimit": false
    },
    {
      "hash": "0xec91ca83dfcbee04ba886c45116ae4ce96586db734357db27353fb856ae81db9",
      "transactionType": "CALL",
      "contractName": null,
      "contractAddress": "0x34c8ae68a1b68d48f508c00580cab739e8d15df6",
      "function": "adminWithdraw(address,uint256)",
      "arguments": [
        "0x026E9aF77DA76842086E2BcF6dC5421F16252087",
        "10000000000000000000000"
      ],
      "transaction": {
        "from": "0xbe1e2c05a20df20a3ecd0ec12617b296a58ee2a1",
        "to": "0x34c8ae68a1b68d48f508c00580cab739e8d15df6",
        "gas": "0xef5f",
        "value": "0x0",
        "input": "0x401d4482000000000000000000000000026e9af77da76842086e2bcf6dc5421f1625208700000000000000000000000000000000000000000000021e19e0c9bab2400000",
        "nonce": "0x2c1",
        "chainId": "0x61"
      },
      "additionalContracts": [],
      "isFixedGasLimit": false
    }
  ],
  "receipts": [
    {
      "status": "0x1",
      "cumulativeGasUsed": "0xc45f",
      "logs": [
        {
          "address": "0x582ce3afdc3983803e1b8c90f705a284b8ad9e92",
          "topics": [
            "0xddf252ad1be2c89b69c2b068fc378daa952ba7f163c4a11628f55a4df523b3ef",
            "0x00000000000000000000000034c8ae68a1b68d48f508c00580cab739e8d15df6",
            "0x000000000000000000000000be1e2c05a20df20a3ecd0ec12617b296a58ee2a1"
          ],
          "data": "0x00000000000000000000000000000000000000000000021e19e0c9bab2400000",
          "blockHash": "0xfab380360751edee8678f884d40a0e1eab96dfe725c1060941f9e4cfcab4a85c",
          "blockNumber": "0x3b0524c",
          "transactionHash": "0x0ac809d27f9eecf8ca9f22ec55fcfd46563e238eb926da474c9fc0449c362d60",
          "transactionIndex": "0x0",
          "logIndex": "0x0",
          "removed": false
        },
        {
          "address": "0x34c8ae68a1b68d48f508c00580cab739e8d15df6",
          "topics": [
            "0xb39d7dbd236dcbba6b8dfc4428f15329fb261b996797b453737266986d3a1937",
            "0x000000000000000000000000be1e2c05a20df20a3ecd0ec12617b296a58ee2a1",
            "0x000000000000000000000000582ce3afdc3983803e1b8c90f705a284b8ad9e92"
          ],
          "data": "0x00000000000000000000000000000000000000000000021e19e0c9bab240000000000000000000000000000000000000000000000000000000000000689f0cc2",
          "blockHash": "0xfab380360751edee8678f884d40a0e1eab96dfe725c1060941f9e4cfcab4a85c",
          "blockNumber": "0x3b0524c",
          "transactionHash": "0x0ac809d27f9eecf8ca9f22ec55fcfd46563e238eb926da474c9fc0449c362d60",
          "transactionIndex": "0x0",
          "logIndex": "0x1",
          "removed": false
        }
      ],
      "logsBloom": "0x08000000000000000000000000000000000000000000000000000000000000000000000000000000000000000000000000000000000000000100000000000000000000000000000000000008000000000000000000000000000000200000000000000000000000000000000000000000000000000000000000000010000020000000010000000000000000000000000000000000000400000000200000000000000000000000000020000000000000400000000080000000000000000000020008000002000000000000440000800000000000000000008000000000280000000000000000000000000000000000000000000000000000000000000000000000",
      "type": "0x0",
      "transactionHash": "0x0ac809d27f9eecf8ca9f22ec55fcfd46563e238eb926da474c9fc0449c362d60",
      "transactionIndex": "0x0",
      "blockHash": "0xfab380360751edee8678f884d40a0e1eab96dfe725c1060941f9e4cfcab4a85c",
      "blockNumber": "0x3b0524c",
      "gasUsed": "0xc45f",
      "effectiveGasPrice": "0x3b9aca00",
      "from": "0xbe1e2c05a20df20a3ecd0ec12617b296a58ee2a1",
      "to": "0x34c8ae68a1b68d48f508c00580cab739e8d15df6",
      "contractAddress": null
    },
    {
      "status": "0x1",
      "cumulativeGasUsed": "0xc4c8",
      "logs": [
        {
          "address": "0x1db6ac824338cd4d5dd67afdc8281bbafcc2378c",
          "topics": [
            "0xddf252ad1be2c89b69c2b068fc378daa952ba7f163c4a11628f55a4df523b3ef",
            "0x00000000000000000000000034c8ae68a1b68d48f508c00580cab739e8d15df6",
            "0x000000000000000000000000be1e2c05a20df20a3ecd0ec12617b296a58ee2a1"
          ],
          "data": "0x00000000000000000000000000000000000000000000021e19e0c9bab2400000",
          "blockHash": "0x9f511d707766b5e122de074c658e20c8b1f205e05421fcc14c013fd58d85ad40",
          "blockNumber": "0x3b0524f",
          "transactionHash": "0xd43b13787cbaf95fa46d72bd01b855e00e2a37590498d3de81e5ab4ea7f5c6d2",
          "transactionIndex": "0x0",
          "logIndex": "0x0",
          "removed": false
        },
        {
          "address": "0x34c8ae68a1b68d48f508c00580cab739e8d15df6",
          "topics": [
            "0xb39d7dbd236dcbba6b8dfc4428f15329fb261b996797b453737266986d3a1937",
            "0x000000000000000000000000be1e2c05a20df20a3ecd0ec12617b296a58ee2a1",
            "0x0000000000000000000000001db6ac824338cd4d5dd67afdc8281bbafcc2378c"
          ],
          "data": "0x00000000000000000000000000000000000000000000021e19e0c9bab240000000000000000000000000000000000000000000000000000000000000689f0cc4",
          "blockHash": "0x9f511d707766b5e122de074c658e20c8b1f205e05421fcc14c013fd58d85ad40",
          "blockNumber": "0x3b0524f",
          "transactionHash": "0xd43b13787cbaf95fa46d72bd01b855e00e2a37590498d3de81e5ab4ea7f5c6d2",
          "transactionIndex": "0x0",
          "logIndex": "0x1",
          "removed": false
        }
      ],
      "logsBloom": "0x08000000000000000000000000000000010080000000000000000000000000000000000000000000000000000000000000000000000000000020000000000000000000000000000000000008000000000000000000000000000000200000000000000000000000000000000000020000000000000000000400000010000000000000010000000000000000000000000000000002000400000000200000000000000000000000000000000000000000000000000080000000000000000000020000000002000000000000440000800000000000000000008000000000080000000000000000000000000000000000000000000000000000000000000000000000",
      "type": "0x0",
      "transactionHash": "0xd43b13787cbaf95fa46d72bd01b855e00e2a37590498d3de81e5ab4ea7f5c6d2",
      "transactionIndex": "0x0",
      "blockHash": "0x9f511d707766b5e122de074c658e20c8b1f205e05421fcc14c013fd58d85ad40",
      "blockNumber": "0x3b0524f",
      "gasUsed": "0xc4c8",
      "effectiveGasPrice": "0x3b9aca00",
      "from": "0xbe1e2c05a20df20a3ecd0ec12617b296a58ee2a1",
      "to": "0x34c8ae68a1b68d48f508c00580cab739e8d15df6",
      "contractAddress": null
    },
    {
      "status": "0x1",
      "cumulativeGasUsed": "0x4feda",
      "logs": [
        {
          "address": "0x026e9af77da76842086e2bcf6dc5421f16252087",
          "topics": [
            "0xddf252ad1be2c89b69c2b068fc378daa952ba7f163c4a11628f55a4df523b3ef",
            "0x00000000000000000000000034c8ae68a1b68d48f508c00580cab739e8d15df6",
            "0x000000000000000000000000be1e2c05a20df20a3ecd0ec12617b296a58ee2a1"
          ],
          "data": "0x00000000000000000000000000000000000000000000021e19e0c9bab2400000",
          "blockHash": "0x9068837d5178341745c9e226d6735c18f7d326bdaac5b7174c86f9744d8e1c2b",
          "blockNumber": "0x3b05251",
          "transactionHash": "0xec91ca83dfcbee04ba886c45116ae4ce96586db734357db27353fb856ae81db9",
          "transactionIndex": "0x2",
          "logIndex": "0x8",
          "removed": false
        },
        {
          "address": "0x34c8ae68a1b68d48f508c00580cab739e8d15df6",
          "topics": [
            "0xb39d7dbd236dcbba6b8dfc4428f15329fb261b996797b453737266986d3a1937",
            "0x000000000000000000000000be1e2c05a20df20a3ecd0ec12617b296a58ee2a1",
            "0x000000000000000000000000026e9af77da76842086e2bcf6dc5421f16252087"
          ],
          "data": "0x00000000000000000000000000000000000000000000021e19e0c9bab240000000000000000000000000000000000000000000000000000000000000689f0cc6",
          "blockHash": "0x9068837d5178341745c9e226d6735c18f7d326bdaac5b7174c86f9744d8e1c2b",
          "blockNumber": "0x3b05251",
          "transactionHash": "0xec91ca83dfcbee04ba886c45116ae4ce96586db734357db27353fb856ae81db9",
          "transactionIndex": "0x2",
          "logIndex": "0x9",
          "removed": false
        }
      ],
      "logsBloom": "0x08000000000000000000000000000000000000000000000000000000000000000000000000000000000000000000000000000000000000000000000000000000008000000000000000000008000000000000000000000000000000200000000000000000000000000000000000000000000000000000000000000010000000000000010000000000000000000000000000000000000400000000200000800000000000000000008000000000000800000000000080000000000000000000020000000002000000000000440000800000000000000000008000000000080000000000000000000000000000000000000000404000000000000000000000000000",
      "type": "0x0",
      "transactionHash": "0xec91ca83dfcbee04ba886c45116ae4ce96586db734357db27353fb856ae81db9",
      "transactionIndex": "0x2",
      "blockHash": "0x9068837d5178341745c9e226d6735c18f7d326bdaac5b7174c86f9744d8e1c2b",
      "blockNumber": "0x3b05251",
      "gasUsed": "0xad4e",
      "effectiveGasPrice": "0x3b9aca00",
      "from": "0xbe1e2c05a20df20a3ecd0ec12617b296a58ee2a1",
      "to": "0x34c8ae68a1b68d48f508c00580cab739e8d15df6",
      "contractAddress": null
    }
  ],
  "libraries": [],
  "pending": [],
  "returns": {},
  "timestamp": 1755253959,
  "chain": 97,
  "commit": "ab0d9b2"
}