{
  "transactions": [
    {
      "hash": "0x7969b44f2dc5bf6c514b0b10d8180798685aae0abe1e98f8e1eeedeea88dac9a",
      "transactionType": "CALL",
      "contractName": null,
      "contractAddress": "0x34c8ae68a1b68d48f508c00580cab739e8d15df6",
      "function": "adminWithdraw(address,uint256)",
      "arguments": [
        "0x582ce3afdc3983803e1b8c90F705A284B8AD9E92",
        "1000000000000000000000000"
      ],
      "transaction": {
        "from": "0xbe1e2c05a20df20a3ecd0ec12617b296a58ee2a1",
        "to": "0x34c8ae68a1b68d48f508c00580cab739e8d15df6",
        "gas": "0x16b6e",
        "value": "0x0",
        "input": "0x401d4482000000000000000000000000582ce3afdc3983803e1b8c90f705a284b8ad9e9200000000000000000000000000000000000000000000d3c21bcecceda1000000",
        "nonce": "0x2d1",
        "chainId": "0x61"
      },
      "additionalContracts": [],
      "isFixedGasLimit": false
    }
  ],
  "receipts": [
    {
      "status": "0x1",
      "cumulativeGasUsed": "0x1071f",
      "logs": [
        {
          "address": "0x582ce3afdc3983803e1b8c90f705a284b8ad9e92",
          "topics": [
            "0xddf252ad1be2c89b69c2b068fc378daa952ba7f163c4a11628f55a4df523b3ef",
            "0x00000000000000000000000034c8ae68a1b68d48f508c00580cab739e8d15df6",
            "0x000000000000000000000000be1e2c05a20df20a3ecd0ec12617b296a58ee2a1"
          ],
          "data": "0x00000000000000000000000000000000000000000000d3c21bcecceda1000000",
          "blockHash": "0xcec87a1b0d912d5eef566c2122e4709373ff670b7a6ed6a36165a65faff4e5a1",
          "blockNumber": "0x3b5a268",
          "transactionHash": "0x7969b44f2dc5bf6c514b0b10d8180798685aae0abe1e98f8e1eeedeea88dac9a",
          "transactionIndex": "0x0",
          "logIndex": "0x0",
          "removed": false
        },
        {
          "address": "0x34c8ae68a1b68d48f508c00580cab739e8d15df6",
          "topics": [
            "0xb39d7dbd236dcbba6b8dfc4428f15329fb261b996797b453737266986d3a1937",
            "0x000000000000000000000000be1e2c05a20df20a3ecd0ec12617b296a58ee2a1",
            "0x000000000000000000000000582ce3afdc3983803e1b8c90f705a284b8ad9e92"
          ],
          "data": "0x00000000000000000000000000000000000000000000d3c21bcecceda10000000000000000000000000000000000000000000000000000000000000068a30bcd",
          "blockHash": "0xcec87a1b0d912d5eef566c2122e4709373ff670b7a6ed6a36165a65faff4e5a1",
          "blockNumber": "0x3b5a268",
          "transactionHash": "0x7969b44f2dc5bf6c514b0b10d8180798685aae0abe1e98f8e1eeedeea88dac9a",
          "transactionIndex": "0x0",
          "logIndex": "0x1",
          "removed": false
        }
      ],
      "logsBloom": "0x08000000000000000000000000000000000000000000000000000000000000000000000000000000000000000000000000000000000000000100000000000000000000000000000000000008000000000000000000000000000000200000000000000000000000000000000000000000000000000000000000000010000020000000010000000000000000000000000000000000000400000000200000000000000000000000000020000000000000400000000080000000000000000000020008000002000000000000440000800000000000000000008000000000280000000000000000000000000000000000000000000000000000000000000000000000",
      "type": "0x0",
      "transactionHash": "0x7969b44f2dc5bf6c514b0b10d8180798685aae0abe1e98f8e1eeedeea88dac9a",
      "transactionIndex": "0x0",
      "blockHash": "0xcec87a1b0d912d5eef566c2122e4709373ff670b7a6ed6a36165a65faff4e5a1",
      "blockNumber": "0x3b5a268",
      "gasUsed": "0x1071f",
      "effectiveGasPrice": "0x3b9aca00",
      "from": "0xbe1e2c05a20df20a3ecd0ec12617b296a58ee2a1",
      "to": "0x34c8ae68a1b68d48f508c00580cab739e8d15df6",
      "contractAddress": null
    }
  ],
  "libraries": [],
  "pending": [],
  "returns": {},
  "timestamp": 1755515853,
  "chain": 97,
  "commit": "fd06cee"
}