{
  "transactions": [
    {
      "hash": "0x6fe7efe7d9958e865da8c960fa94d3fa553751b70dcf12f3002402c3669447a8",
      "transactionType": "CALL",
      "contractName": null,
      "contractAddress": "0x39c5d3e3b8f5594623636ecdbdf135838b47b558",
      "function": "adminWithdraw(address,uint256)",
      "arguments": [
        "0x582ce3afdc3983803e1b8c90F705A284B8AD9E92",
        "47665200000000000000000"
      ],
      "transaction": {
        "from": "0xbe1e2c05a20df20a3ecd0ec12617b296a58ee2a1",
        "to": "0x39c5d3e3b8f5594623636ecdbdf135838b47b558",
        "gas": "0x18102",
        "value": "0x0",
        "input": "0x401d4482000000000000000000000000582ce3afdc3983803e1b8c90f705a284b8ad9e92000000000000000000000000000000000000000000000a17ef880af26d380000",
        "nonce": "0x2f9",
        "chainId": "0x61"
      },
      "additionalContracts": [],
      "isFixedGasLimit": false
    },
    {
      "hash": "0xb8abf5729c727ce2de5d3c5765fff1eb06315fc7b549c7948224318c3e46640a",
      "transactionType": "CALL",
      "contractName": null,
      "contractAddress": "0x39c5d3e3b8f5594623636ecdbdf135838b47b558",
      "function": "adminWithdraw(address,uint256)",
      "arguments": [
        "0x1DB6aC824338cD4d5DD67aFdC8281bbafcc2378C",
        "47665200000000000000000"
      ],
      "transaction": {
        "from": "0xbe1e2c05a20df20a3ecd0ec12617b296a58ee2a1",
        "to": "0x39c5d3e3b8f5594623636ecdbdf135838b47b558",
        "gas": "0x1819b",
        "value": "0x0",
        "input": "0x401d44820000000000000000000000001db6ac824338cd4d5dd67afdc8281bbafcc2378c000000000000000000000000000000000000000000000a17ef880af26d380000",
        "nonce": "0x2fa",
        "chainId": "0x61"
      },
      "additionalContracts": [],
      "isFixedGasLimit": false
    }
  ],
  "receipts": [
    {
      "status": "0x1",
      "cumulativeGasUsed": "0x10741",
      "logs": [
        {
          "address": "0x582ce3afdc3983803e1b8c90f705a284b8ad9e92",
          "topics": [
            "0xddf252ad1be2c89b69c2b068fc378daa952ba7f163c4a11628f55a4df523b3ef",
            "0x00000000000000000000000039c5d3e3b8f5594623636ecdbdf135838b47b558",
            "0x000000000000000000000000be1e2c05a20df20a3ecd0ec12617b296a58ee2a1"
          ],
          "data": "0x000000000000000000000000000000000000000000000a17ef880af26d380000",
          "blockHash": "0xa7ede5ec81ca1e0de4d44e7756cdefb3e58737cbfad3eb80c13fbb7a0348a20b",
          "blockNumber": "0x3b78dc9",
          "transactionHash": "0x6fe7efe7d9958e865da8c960fa94d3fa553751b70dcf12f3002402c3669447a8",
          "transactionIndex": "0x0",
          "logIndex": "0x0",
          "removed": false
        },
        {
          "address": "0x39c5d3e3b8f5594623636ecdbdf135838b47b558",
          "topics": [
            "0xb39d7dbd236dcbba6b8dfc4428f15329fb261b996797b453737266986d3a1937",
            "0x000000000000000000000000be1e2c05a20df20a3ecd0ec12617b296a58ee2a1",
            "0x000000000000000000000000582ce3afdc3983803e1b8c90f705a284b8ad9e92"
          ],
          "data": "0x000000000000000000000000000000000000000000000a17ef880af26d3800000000000000000000000000000000000000000000000000000000000068a47cdc",
          "blockHash": "0xa7ede5ec81ca1e0de4d44e7756cdefb3e58737cbfad3eb80c13fbb7a0348a20b",
          "blockNumber": "0x3b78dc9",
          "transactionHash": "0x6fe7efe7d9958e865da8c960fa94d3fa553751b70dcf12f3002402c3669447a8",
          "transactionIndex": "0x0",
          "logIndex": "0x1",
          "removed": false
        }
      ],
      "logsBloom": "0x00000000000000000000000010000000000000000000000000000000000000000000000004000000000000000000000000000000000000000100000000000000000000000000000000000008000000000000000000000000000000200000000000000000000010000000000000000000000000000000000000000010000020000000010000000000000000000000000000000000000000000000000000800000000000000000080020000000000000400000001080000000000000000000020008000002000000000000040000800000000000000000000000000000200000000000000000000000000000000000000000000000000000000000000000000000",
      "type": "0x0",
      "transactionHash": "0x6fe7efe7d9958e865da8c960fa94d3fa553751b70dcf12f3002402c3669447a8",
      "transactionIndex": "0x0",
      "blockHash": "0xa7ede5ec81ca1e0de4d44e7756cdefb3e58737cbfad3eb80c13fbb7a0348a20b",
      "blockNumber": "0x3b78dc9",
      "gasUsed": "0x10741",
      "effectiveGasPrice": "0x3b9aca00",
      "from": "0xbe1e2c05a20df20a3ecd0ec12617b296a58ee2a1",
      "to": "0x39c5d3e3b8f5594623636ecdbdf135838b47b558",
      "contractAddress": null
    },
    {
      "status": "0x1",
      "cumulativeGasUsed": "0x107aa",
      "logs": [
        {
          "address": "0x1db6ac824338cd4d5dd67afdc8281bbafcc2378c",
          "topics": [
            "0xddf252ad1be2c89b69c2b068fc378daa952ba7f163c4a11628f55a4df523b3ef",
            "0x00000000000000000000000039c5d3e3b8f5594623636ecdbdf135838b47b558",
            "0x000000000000000000000000be1e2c05a20df20a3ecd0ec12617b296a58ee2a1"
          ],
          "data": "0x000000000000000000000000000000000000000000000a17ef880af26d380000",
          "blockHash": "0x2896e602c876cbff80b46beacfef78b4a362fa67e975b457394e61367de18c93",
          "blockNumber": "0x3b78dcc",
          "transactionHash": "0xb8abf5729c727ce2de5d3c5765fff1eb06315fc7b549c7948224318c3e46640a",
          "transactionIndex": "0x0",
          "logIndex": "0x0",
          "removed": false
        },
        {
          "address": "0x39c5d3e3b8f5594623636ecdbdf135838b47b558",
          "topics": [
            "0xb39d7dbd236dcbba6b8dfc4428f15329fb261b996797b453737266986d3a1937",
            "0x000000000000000000000000be1e2c05a20df20a3ecd0ec12617b296a58ee2a1",
            "0x0000000000000000000000001db6ac824338cd4d5dd67afdc8281bbafcc2378c"
          ],
          "data": "0x000000000000000000000000000000000000000000000a17ef880af26d3800000000000000000000000000000000000000000000000000000000000068a47cde",
          "blockHash": "0x2896e602c876cbff80b46beacfef78b4a362fa67e975b457394e61367de18c93",
          "blockNumber": "0x3b78dcc",
          "transactionHash": "0xb8abf5729c727ce2de5d3c5765fff1eb06315fc7b549c7948224318c3e46640a",
          "transactionIndex": "0x0",
          "logIndex": "0x1",
          "removed": false
        }
      ],
      "logsBloom": "0x00000000000000000000000010000000010080000000000000000000000000000000000004000000000000000000000000000000000000000020000000000000000000000000000000000008000000000000000000000000000000200000000000000000000010000000000000020000000000000000000400000010000000000000010000000000000000000000000000000002000000000000000000800000000000000000080000000000000000000000001080000000000000000000020000000002000000000000040000800000000000000000000000000000000000000000000000000000000000000000000000000000000000000000000000000000",
      "type": "0x0",
      "transactionHash": "0xb8abf5729c727ce2de5d3c5765fff1eb06315fc7b549c7948224318c3e46640a",
      "transactionIndex": "0x0",
      "blockHash": "0x2896e602c876cbff80b46beacfef78b4a362fa67e975b457394e61367de18c93",
      "blockNumber": "0x3b78dcc",
      "gasUsed": "0x107aa",
      "effectiveGasPrice": "0x3b9aca00",
      "from": "0xbe1e2c05a20df20a3ecd0ec12617b296a58ee2a1",
      "to": "0x39c5d3e3b8f5594623636ecdbdf135838b47b558",
      "contractAddress": null
    }
  ],
  "libraries": [],
  "pending": [],
  "returns": {},
  "timestamp": 1755610335,
  "chain": 97,
  "commit": "fd06cee"
}