{
  "transactions": [
    {
      "hash": "0xcb61caf9ef67eb3e4a4cf066a1f85b4db32564d5c55881b708dc5aeec226b04d",
      "transactionType": "CALL",
      "contractName": null,
      "contractAddress": "0x34c8ae68a1b68d48f508c00580cab739e8d15df6",
      "function": "adminWithdraw(address,uint256)",
      "arguments": [
        "0x1DB6aC824338cD4d5DD67aFdC8281bbafcc2378C",
        "10000000000000000000000"
      ],
      "transaction": {
        "from": "0xbe1e2c05a20df20a3ecd0ec12617b296a58ee2a1",
        "to": "0x34c8ae68a1b68d48f508c00580cab739e8d15df6",
        "gas": "0x10fcd",
        "value": "0x0",
        "input": "0x401d44820000000000000000000000001db6ac824338cd4d5dd67afdc8281bbafcc2378c00000000000000000000000000000000000000000000021e19e0c9bab2400000",
        "nonce": "0x2d3",
        "chainId": "0x61"
      },
      "additionalContracts": [],
      "isFixedGasLimit": false
    },
    {
      "hash": "0xf5e5a9e04afb3d18d0c4ac7106a4168fd209e2f992af69b2b05184b3bcb28164",
      "transactionType": "CALL",
      "contractName": null,
      "contractAddress": "0x34c8ae68a1b68d48f508c00580cab739e8d15df6",
      "function": "adminWithdraw(address,uint256)",
      "arguments": [
        "0x026E9aF77DA76842086E2BcF6dC5421F16252087",
        "10000000000000000000000"
      ],
      "transaction": {
        "from": "0xbe1e2c05a20df20a3ecd0ec12617b296a58ee2a1",
        "to": "0x34c8ae68a1b68d48f508c00580cab739e8d15df6",
        "gas": "0x15f25",
        "value": "0x0",
        "input": "0x401d4482000000000000000000000000026e9af77da76842086e2bcf6dc5421f1625208700000000000000000000000000000000000000000000021e19e0c9bab2400000",
        "nonce": "0x2d4",
        "chainId": "0x61"
      },
      "additionalContracts": [],
      "isFixedGasLimit": false
    }
  ],
  "receipts": [
    {
      "status": "0x1",
      "cumulativeGasUsed": "0xc4c8",
      "logs": [
        {
          "address": "0x1db6ac824338cd4d5dd67afdc8281bbafcc2378c",
          "topics": [
            "0xddf252ad1be2c89b69c2b068fc378daa952ba7f163c4a11628f55a4df523b3ef",
            "0x00000000000000000000000034c8ae68a1b68d48f508c00580cab739e8d15df6",
            "0x000000000000000000000000be1e2c05a20df20a3ecd0ec12617b296a58ee2a1"
          ],
          "data": "0x00000000000000000000000000000000000000000000021e19e0c9bab2400000",
          "blockHash": "0x96edf3e0c994cd014c671c3c7a7adfef029a2745b0ff12d97fca43402d92b7cd",
          "blockNumber": "0x3b5a2e1",
          "transactionHash": "0xcb61caf9ef67eb3e4a4cf066a1f85b4db32564d5c55881b708dc5aeec226b04d",
          "transactionIndex": "0x0",
          "logIndex": "0x0",
          "removed": false
        },
        {
          "address": "0x34c8ae68a1b68d48f508c00580cab739e8d15df6",
          "topics": [
            "0xb39d7dbd236dcbba6b8dfc4428f15329fb261b996797b453737266986d3a1937",
            "0x000000000000000000000000be1e2c05a20df20a3ecd0ec12617b296a58ee2a1",
            "0x0000000000000000000000001db6ac824338cd4d5dd67afdc8281bbafcc2378c"
          ],
          "data": "0x00000000000000000000000000000000000000000000021e19e0c9bab24000000000000000000000000000000000000000000000000000000000000068a30c28",
          "blockHash": "0x96edf3e0c994cd014c671c3c7a7adfef029a2745b0ff12d97fca43402d92b7cd",
          "blockNumber": "0x3b5a2e1",
          "transactionHash": "0xcb61caf9ef67eb3e4a4cf066a1f85b4db32564d5c55881b708dc5aeec226b04d",
          "transactionIndex": "0x0",
          "logIndex": "0x1",
          "removed": false
        }
      ],
      "logsBloom": "0x08000000000000000000000000000000010080000000000000000000000000000000000000000000000000000000000000000000000000000020000000000000000000000000000000000008000000000000000000000000000000200000000000000000000000000000000000020000000000000000000400000010000000000000010000000000000000000000000000000002000400000000200000000000000000000000000000000000000000000000000080000000000000000000020000000002000000000000440000800000000000000000008000000000080000000000000000000000000000000000000000000000000000000000000000000000",
      "type": "0x0",
      "transactionHash": "0xcb61caf9ef67eb3e4a4cf066a1f85b4db32564d5c55881b708dc5aeec226b04d",
      "transactionIndex": "0x0",
      "blockHash": "0x96edf3e0c994cd014c671c3c7a7adfef029a2745b0ff12d97fca43402d92b7cd",
      "blockNumber": "0x3b5a2e1",
      "gasUsed": "0xc4c8",
      "effectiveGasPrice": "0x3b9aca00",
      "from": "0xbe1e2c05a20df20a3ecd0ec12617b296a58ee2a1",
      "to": "0x34c8ae68a1b68d48f508c00580cab739e8d15df6",
      "contractAddress": null
    },
    {
      "status": "0x1",
      "cumulativeGasUsed": "0x2dd39",
      "logs": [
        {
          "address": "0x026e9af77da76842086e2bcf6dc5421f16252087",
          "topics": [
            "0xddf252ad1be2c89b69c2b068fc378daa952ba7f163c4a11628f55a4df523b3ef",
            "0x00000000000000000000000034c8ae68a1b68d48f508c00580cab739e8d15df6",
            "0x000000000000000000000000be1e2c05a20df20a3ecd0ec12617b296a58ee2a1"
          ],
          "data": "0x00000000000000000000000000000000000000000000021e19e0c9bab2400000",
          "blockHash": "0x9ddfa7c98b421644ab4514d0a17ae6acde2f491756db6af5232a223ac5131b6c",
          "blockNumber": "0x3b5a2e3",
          "transactionHash": "0xf5e5a9e04afb3d18d0c4ac7106a4168fd209e2f992af69b2b05184b3bcb28164",
          "transactionIndex": "0x1",
          "logIndex": "0x2",
          "removed": false
        },
        {
          "address": "0x34c8ae68a1b68d48f508c00580cab739e8d15df6",
          "topics": [
            "0xb39d7dbd236dcbba6b8dfc4428f15329fb261b996797b453737266986d3a1937",
            "0x000000000000000000000000be1e2c05a20df20a3ecd0ec12617b296a58ee2a1",
            "0x000000000000000000000000026e9af77da76842086e2bcf6dc5421f16252087"
          ],
          "data": "0x00000000000000000000000000000000000000000000021e19e0c9bab24000000000000000000000000000000000000000000000000000000000000068a30c2a",
          "blockHash": "0x9ddfa7c98b421644ab4514d0a17ae6acde2f491756db6af5232a223ac5131b6c",
          "blockNumber": "0x3b5a2e3",
          "transactionHash": "0xf5e5a9e04afb3d18d0c4ac7106a4168fd209e2f992af69b2b05184b3bcb28164",
          "transactionIndex": "0x1",
          "logIndex": "0x3",
          "removed": false
        }
      ],
      "logsBloom": "0x08000000000000000000000000000000000000000000000000000000000000000000000000000000000000000000000000000000000000000000000000000000008000000000000000000008000000000000000000000000000000200000000000000000000000000000000000000000000000000000000000000010000000000000010000000000000000000000000000000000000400000000200000800000000000000000008000000000000800000000000080000000000000000000020000000002000000000000440000800000000000000000008000000000080000000000000000000000000000000000000000404000000000000000000000000000",
      "type": "0x0",
      "transactionHash": "0xf5e5a9e04afb3d18d0c4ac7106a4168fd209e2f992af69b2b05184b3bcb28164",
      "transactionIndex": "0x1",
      "blockHash": "0x9ddfa7c98b421644ab4514d0a17ae6acde2f491756db6af5232a223ac5131b6c",
      "blockNumber": "0x3b5a2e3",
      "gasUsed": "0xf01a",
      "effectiveGasPrice": "0x3b9aca00",
      "from": "0xbe1e2c05a20df20a3ecd0ec12617b296a58ee2a1",
      "to": "0x34c8ae68a1b68d48f508c00580cab739e8d15df6",
      "contractAddress": null
    }
  ],
  "libraries": [],
  "pending": [],
  "returns": {},
  "timestamp": 1755515947,
  "chain": 97,
  "commit": "fd06cee"
}