{
  "transactions": [
    {
      "hash": "0x553c21915e50054e437af48a1e8f2efbee1e44f72f443cbd87d58209fcce0ae4",
      "transactionType": "CALL",
      "contractName": null,
      "contractAddress": "0x34c8ae68a1b68d48f508c00580cab739e8d15df6",
      "function": "adminWithdraw(address,uint256)",
      "arguments": [
        "0x1DB6aC824338cD4d5DD67aFdC8281bbafcc2378C",
        "123456000000000000000000"
      ],
      "transaction": {
        "from": "0xbe1e2c05a20df20a3ecd0ec12617b296a58ee2a1",
        "to": "0x34c8ae68a1b68d48f508c00580cab739e8d15df6",
        "gas": "0x10fbc",
        "value": "0x0",
        "input": "0x401d44820000000000000000000000001db6ac824338cd4d5dd67afdc8281bbafcc2378c000000000000000000000000000000000000000000001a24902bee1421000000",
        "nonce": "0x2e4",
        "chainId": "0x61"
      },
      "additionalContracts": [],
      "isFixedGasLimit": false
    },
    {
      "hash": "0xd90d905579f0a332f92d3078c43831e711a8c565c3f45a09b01c78e76141703b",
      "transactionType": "CALL",
      "contractName": null,
      "contractAddress": "0x34c8ae68a1b68d48f508c00580cab739e8d15df6",
      "function": "adminWithdraw(address,uint256)",
      "arguments": [
        "0x582ce3afdc3983803e1b8c90F705A284B8AD9E92",
        "123456000000000000000000"
      ],
      "transaction": {
        "from": "0xbe1e2c05a20df20a3ecd0ec12617b296a58ee2a1",
        "to": "0x34c8ae68a1b68d48f508c00580cab739e8d15df6",
        "gas": "0x16b6e",
        "value": "0x0",
        "input": "0x401d4482000000000000000000000000582ce3afdc3983803e1b8c90f705a284b8ad9e92000000000000000000000000000000000000000000001a24902bee1421000000",
        "nonce": "0x2e5",
        "chainId": "0x61"
      },
      "additionalContracts": [],
      "isFixedGasLimit": false
    },
    {
      "hash": "0xf6349bf7b6ba68ee50c022b03d63dad37dfc01cef8553bdb10a084f7618f72a1",
      "transactionType": "CALL",
      "contractName": null,
      "contractAddress": "0x34c8ae68a1b68d48f508c00580cab739e8d15df6",
      "function": "adminWithdraw(address,uint256)",
      "arguments": [
        "0x026E9aF77DA76842086E2BcF6dC5421F16252087",
        "999747131957921139529140306854"
      ],
      "transaction": {
        "from": "0xbe1e2c05a20df20a3ecd0ec12617b296a58ee2a1",
        "to": "0x34c8ae68a1b68d48f508c00580cab739e8d15df6",
        "gas": "0xe260",
        "value": "0x0",
        "input": "0x401d4482000000000000000000000000026e9af77da76842086e2bcf6dc5421f16252087000000000000000000000000000000000000000c9e5b71ec3f1bdc7146ae83a6",
        "nonce": "0x2e6",
        "chainId": "0x61"
      },
      "additionalContracts": [],
      "isFixedGasLimit": false
    }
  ],
  "receipts": [
    {
      "status": "0x1",
      "cumulativeGasUsed": "0xc4bc",
      "logs": [
        {
          "address": "0x1db6ac824338cd4d5dd67afdc8281bbafcc2378c",
          "topics": [
            "0xddf252ad1be2c89b69c2b068fc378daa952ba7f163c4a11628f55a4df523b3ef",
            "0x00000000000000000000000034c8ae68a1b68d48f508c00580cab739e8d15df6",
            "0x000000000000000000000000be1e2c05a20df20a3ecd0ec12617b296a58ee2a1"
          ],
          "data": "0x000000000000000000000000000000000000000000001a24902bee1421000000",
          "blockHash": "0xf46d3710e2675f13aaa6f4dc4b4ed64597c56aeb0145ceffd06bf2cbd1447ed2",
          "blockNumber": "0x3b60917",
          "transactionHash": "0x553c21915e50054e437af48a1e8f2efbee1e44f72f443cbd87d58209fcce0ae4",
          "transactionIndex": "0x0",
          "logIndex": "0x0",
          "removed": false
        },
        {
          "address": "0x34c8ae68a1b68d48f508c00580cab739e8d15df6",
          "topics": [
            "0xb39d7dbd236dcbba6b8dfc4428f15329fb261b996797b453737266986d3a1937",
            "0x000000000000000000000000be1e2c05a20df20a3ecd0ec12617b296a58ee2a1",
            "0x0000000000000000000000001db6ac824338cd4d5dd67afdc8281bbafcc2378c"
          ],
          "data": "0x000000000000000000000000000000000000000000001a24902bee14210000000000000000000000000000000000000000000000000000000000000068a358ed",
          "blockHash": "0xf46d3710e2675f13aaa6f4dc4b4ed64597c56aeb0145ceffd06bf2cbd1447ed2",
          "blockNumber": "0x3b60917",
          "transactionHash": "0x553c21915e50054e437af48a1e8f2efbee1e44f72f443cbd87d58209fcce0ae4",
          "transactionIndex": "0x0",
          "logIndex": "0x1",
          "removed": false
        }
      ],
      "logsBloom": "0x08000000000000000000000000000000010080000000000000000000000000000000000000000000000000000000000000000000000000000020000000000000000000000000000000000008000000000000000000000000000000200000000000000000000000000000000000020000000000000000000400000010000000000000010000000000000000000000000000000002000400000000200000000000000000000000000000000000000000000000000080000000000000000000020000000002000000000000440000800000000000000000008000000000080000000000000000000000000000000000000000000000000000000000000000000000",
      "type": "0x0",
      "transactionHash": "0x553c21915e50054e437af48a1e8f2efbee1e44f72f443cbd87d58209fcce0ae4",
      "transactionIndex": "0x0",
      "blockHash": "0xf46d3710e2675f13aaa6f4dc4b4ed64597c56aeb0145ceffd06bf2cbd1447ed2",
      "blockNumber": "0x3b60917",
      "gasUsed": "0xc4bc",
      "effectiveGasPrice": "0x3b9aca00",
      "from": "0xbe1e2c05a20df20a3ecd0ec12617b296a58ee2a1",
      "to": "0x34c8ae68a1b68d48f508c00580cab739e8d15df6",
      "contractAddress": null
    },
    {
      "status": "0x1",
      "cumulativeGasUsed": "0x1071f",
      "logs": [
        {
          "address": "0x582ce3afdc3983803e1b8c90f705a284b8ad9e92",
          "topics": [
            "0xddf252ad1be2c89b69c2b068fc378daa952ba7f163c4a11628f55a4df523b3ef",
            "0x00000000000000000000000034c8ae68a1b68d48f508c00580cab739e8d15df6",
            "0x000000000000000000000000be1e2c05a20df20a3ecd0ec12617b296a58ee2a1"
          ],
          "data": "0x000000000000000000000000000000000000000000001a24902bee1421000000",
          "blockHash": "0x91412b9d297936c8d8fff6376b64369733b89c4fb89535aaa60e5b143cda7b86",
          "blockNumber": "0x3b6091a",
          "transactionHash": "0xd90d905579f0a332f92d3078c43831e711a8c565c3f45a09b01c78e76141703b",
          "transactionIndex": "0x0",
          "logIndex": "0x0",
          "removed": false
        },
        {
          "address": "0x34c8ae68a1b68d48f508c00580cab739e8d15df6",
          "topics": [
            "0xb39d7dbd236dcbba6b8dfc4428f15329fb261b996797b453737266986d3a1937",
            "0x000000000000000000000000be1e2c05a20df20a3ecd0ec12617b296a58ee2a1",
            "0x000000000000000000000000582ce3afdc3983803e1b8c90f705a284b8ad9e92"
          ],
          "data": "0x000000000000000000000000000000000000000000001a24902bee14210000000000000000000000000000000000000000000000000000000000000068a358f0",
          "blockHash": "0x91412b9d297936c8d8fff6376b64369733b89c4fb89535aaa60e5b143cda7b86",
          "blockNumber": "0x3b6091a",
          "transactionHash": "0xd90d905579f0a332f92d3078c43831e711a8c565c3f45a09b01c78e76141703b",
          "transactionIndex": "0x0",
          "logIndex": "0x1",
          "removed": false
        }
      ],
      "logsBloom": "0x08000000000000000000000000000000000000000000000000000000000000000000000000000000000000000000000000000000000000000100000000000000000000000000000000000008000000000000000000000000000000200000000000000000000000000000000000000000000000000000000000000010000020000000010000000000000000000000000000000000000400000000200000000000000000000000000020000000000000400000000080000000000000000000020008000002000000000000440000800000000000000000008000000000280000000000000000000000000000000000000000000000000000000000000000000000",
      "type": "0x0",
      "transactionHash": "0xd90d905579f0a332f92d3078c43831e711a8c565c3f45a09b01c78e76141703b",
      "transactionIndex": "0x0",
      "blockHash": "0x91412b9d297936c8d8fff6376b64369733b89c4fb89535aaa60e5b143cda7b86",
      "blockNumber": "0x3b6091a",
      "gasUsed": "0x1071f",
      "effectiveGasPrice": "0x3b9aca00",
      "from": "0xbe1e2c05a20df20a3ecd0ec12617b296a58ee2a1",
      "to": "0x34c8ae68a1b68d48f508c00580cab739e8d15df6",
      "contractAddress": null
    },
    {
      "status": "0x1",
      "cumulativeGasUsed": "0x9aca",
      "logs": [
        {
          "address": "0x026e9af77da76842086e2bcf6dc5421f16252087",
          "topics": [
            "0xddf252ad1be2c89b69c2b068fc378daa952ba7f163c4a11628f55a4df523b3ef",
            "0x00000000000000000000000034c8ae68a1b68d48f508c00580cab739e8d15df6",
            "0x000000000000000000000000be1e2c05a20df20a3ecd0ec12617b296a58ee2a1"
          ],
          "data": "0x000000000000000000000000000000000000000c9e5b71ec3f1bdc7146ae83a6",
          "blockHash": "0xbb2be835b4d37dec1ddec87b9e511403354ba28e09568b063ad7d87f0395dff5",
          "blockNumber": "0x3b6091d",
          "transactionHash": "0xf6349bf7b6ba68ee50c022b03d63dad37dfc01cef8553bdb10a084f7618f72a1",
          "transactionIndex": "0x0",
          "logIndex": "0x0",
          "removed": false
        },
        {
          "address": "0x34c8ae68a1b68d48f508c00580cab739e8d15df6",
          "topics": [
            "0xb39d7dbd236dcbba6b8dfc4428f15329fb261b996797b453737266986d3a1937",
            "0x000000000000000000000000be1e2c05a20df20a3ecd0ec12617b296a58ee2a1",
            "0x000000000000000000000000026e9af77da76842086e2bcf6dc5421f16252087"
          ],
          "data": "0x000000000000000000000000000000000000000c9e5b71ec3f1bdc7146ae83a60000000000000000000000000000000000000000000000000000000068a358f2",
          "blockHash": "0xbb2be835b4d37dec1ddec87b9e511403354ba28e09568b063ad7d87f0395dff5",
          "blockNumber": "0x3b6091d",
          "transactionHash": "0xf6349bf7b6ba68ee50c022b03d63dad37dfc01cef8553bdb10a084f7618f72a1",
          "transactionIndex": "0x0",
          "logIndex": "0x1",
          "removed": false
        }
      ],
      "logsBloom": "0x08000000000000000000000000000000000000000000000000000000000000000000000000000000000000000000000000000000000000000000000000000000008000000000000000000008000000000000000000000000000000200000000000000000000000000000000000000000000000000000000000000010000000000000010000000000000000000000000000000000000400000000200000800000000000000000008000000000000800000000000080000000000000000000020000000002000000000000440000800000000000000000008000000000080000000000000000000000000000000000000000404000000000000000000000000000",
      "type": "0x0",
      "transactionHash": "0xf6349bf7b6ba68ee50c022b03d63dad37dfc01cef8553bdb10a084f7618f72a1",
      "transactionIndex": "0x0",
      "blockHash": "0xbb2be835b4d37dec1ddec87b9e511403354ba28e09568b063ad7d87f0395dff5",
      "blockNumber": "0x3b6091d",
      "gasUsed": "0x9aca",
      "effectiveGasPrice": "0x3b9aca00",
      "from": "0xbe1e2c05a20df20a3ecd0ec12617b296a58ee2a1",
      "to": "0x34c8ae68a1b68d48f508c00580cab739e8d15df6",
      "contractAddress": null
    }
  ],
  "libraries": [],
  "pending": [],
  "returns": {},
  "timestamp": 1755535602,
  "chain": 97,
  "commit": "fd06cee"
}