{
  "transactions": [
    {
      "hash": "0xefe4faeab34bea0d04931aec591003cc741032cdbc8a541e49ccd6660f732de0",
      "transactionType": "CALL",
      "contractName": null,
      "contractAddress": "0x34c8ae68a1b68d48f508c00580cab739e8d15df6",
      "function": "adminWithdraw(address,uint256)",
      "arguments": [
        "0x1DB6aC824338cD4d5DD67aFdC8281bbafcc2378C",
        "1234560000000000000000000"
      ],
      "transaction": {
        "from": "0xbe1e2c05a20df20a3ecd0ec12617b296a58ee2a1",
        "to": "0x34c8ae68a1b68d48f508c00580cab739e8d15df6",
        "gas": "0x10fcd",
        "value": "0x0",
        "input": "0x401d44820000000000000000000000001db6ac824338cd4d5dd67afdc8281bbafcc2378c00000000000000000000000000000000000000000001056da1b74cc94a000000",
        "nonce": "0x2ec",
        "chainId": "0x61"
      },
      "additionalContracts": [],
      "isFixedGasLimit": false
    },
    {
      "hash": "0xccc85eb32fe96d251a5d332beab017ef92e386c855698e1e6f74017fbc424ed0",
      "transactionType": "CALL",
      "contractName": null,
      "contractAddress": "0x34c8ae68a1b68d48f508c00580cab739e8d15df6",
      "function": "adminWithdraw(address,uint256)",
      "arguments": [
        "0x582ce3afdc3983803e1b8c90F705A284B8AD9E92",
        "1234560000000000000000000"
      ],
      "transaction": {
        "from": "0xbe1e2c05a20df20a3ecd0ec12617b296a58ee2a1",
        "to": "0x34c8ae68a1b68d48f508c00580cab739e8d15df6",
        "gas": "0x180e1",
        "value": "0x0",
        "input": "0x401d4482000000000000000000000000582ce3afdc3983803e1b8c90f705a284b8ad9e9200000000000000000000000000000000000000000001056da1b74cc94a000000",
        "nonce": "0x2ed",
        "chainId": "0x61"
      },
      "additionalContracts": [],
      "isFixedGasLimit": false
    }
  ],
  "receipts": [
    {
      "status": "0x1",
      "cumulativeGasUsed": "0xc4c8",
      "logs": [
        {
          "address": "0x1db6ac824338cd4d5dd67afdc8281bbafcc2378c",
          "topics": [
            "0xddf252ad1be2c89b69c2b068fc378daa952ba7f163c4a11628f55a4df523b3ef",
            "0x00000000000000000000000034c8ae68a1b68d48f508c00580cab739e8d15df6",
            "0x000000000000000000000000be1e2c05a20df20a3ecd0ec12617b296a58ee2a1"
          ],
          "data": "0x00000000000000000000000000000000000000000001056da1b74cc94a000000",
          "blockHash": "0xe4a108a135affdf76dff8b39b5ae9420642652fb4ea4620c4b40030cf3cb5f8a",
          "blockNumber": "0x3b7213e",
          "transactionHash": "0xefe4faeab34bea0d04931aec591003cc741032cdbc8a541e49ccd6660f732de0",
          "transactionIndex": "0x0",
          "logIndex": "0x0",
          "removed": false
        },
        {
          "address": "0x34c8ae68a1b68d48f508c00580cab739e8d15df6",
          "topics": [
            "0xb39d7dbd236dcbba6b8dfc4428f15329fb261b996797b453737266986d3a1937",
            "0x000000000000000000000000be1e2c05a20df20a3ecd0ec12617b296a58ee2a1",
            "0x0000000000000000000000001db6ac824338cd4d5dd67afdc8281bbafcc2378c"
          ],
          "data": "0x00000000000000000000000000000000000000000001056da1b74cc94a0000000000000000000000000000000000000000000000000000000000000068a42b53",
          "blockHash": "0xe4a108a135affdf76dff8b39b5ae9420642652fb4ea4620c4b40030cf3cb5f8a",
          "blockNumber": "0x3b7213e",
          "transactionHash": "0xefe4faeab34bea0d04931aec591003cc741032cdbc8a541e49ccd6660f732de0",
          "transactionIndex": "0x0",
          "logIndex": "0x1",
          "removed": false
        }
      ],
      "logsBloom": "0x08000000000000000000000000000000010080000000000000000000000000000000000000000000000000000000000000000000000000000020000000000000000000000000000000000008000000000000000000000000000000200000000000000000000000000000000000020000000000000000000400000010000000000000010000000000000000000000000000000002000400000000200000000000000000000000000000000000000000000000000080000000000000000000020000000002000000000000440000800000000000000000008000000000080000000000000000000000000000000000000000000000000000000000000000000000",
      "type": "0x0",
      "transactionHash": "0xefe4faeab34bea0d04931aec591003cc741032cdbc8a541e49ccd6660f732de0",
      "transactionIndex": "0x0",
      "blockHash": "0xe4a108a135affdf76dff8b39b5ae9420642652fb4ea4620c4b40030cf3cb5f8a",
      "blockNumber": "0x3b7213e",
      "gasUsed": "0xc4c8",
      "effectiveGasPrice": "0x3b9aca00",
      "from": "0xbe1e2c05a20df20a3ecd0ec12617b296a58ee2a1",
      "to": "0x34c8ae68a1b68d48f508c00580cab739e8d15df6",
      "contractAddress": null
    },
    {
      "status": "0x1",
      "cumulativeGasUsed": "0x1072b",
      "logs": [
        {
          "address": "0x582ce3afdc3983803e1b8c90f705a284b8ad9e92",
          "topics": [
            "0xddf252ad1be2c89b69c2b068fc378daa952ba7f163c4a11628f55a4df523b3ef",
            "0x00000000000000000000000034c8ae68a1b68d48f508c00580cab739e8d15df6",
            "0x000000000000000000000000be1e2c05a20df20a3ecd0ec12617b296a58ee2a1"
          ],
          "data": "0x00000000000000000000000000000000000000000001056da1b74cc94a000000",
          "blockHash": "0xa4aff0b8a6fd5aa498315437ecce634060dc1ac32584095036c36fc20548cee0",
          "blockNumber": "0x3b72141",
          "transactionHash": "0xccc85eb32fe96d251a5d332beab017ef92e386c855698e1e6f74017fbc424ed0",
          "transactionIndex": "0x0",
          "logIndex": "0x0",
          "removed": false
        },
        {
          "address": "0x34c8ae68a1b68d48f508c00580cab739e8d15df6",
          "topics": [
            "0xb39d7dbd236dcbba6b8dfc4428f15329fb261b996797b453737266986d3a1937",
            "0x000000000000000000000000be1e2c05a20df20a3ecd0ec12617b296a58ee2a1",
            "0x000000000000000000000000582ce3afdc3983803e1b8c90f705a284b8ad9e92"
          ],
          "data": "0x00000000000000000000000000000000000000000001056da1b74cc94a0000000000000000000000000000000000000000000000000000000000000068a42b55",
          "blockHash": "0xa4aff0b8a6fd5aa498315437ecce634060dc1ac32584095036c36fc20548cee0",
          "blockNumber": "0x3b72141",
          "transactionHash": "0xccc85eb32fe96d251a5d332beab017ef92e386c855698e1e6f74017fbc424ed0",
          "transactionIndex": "0x0",
          "logIndex": "0x1",
          "removed": false
        }
      ],
      "logsBloom": "0x08000000000000000000000000000000000000000000000000000000000000000000000000000000000000000000000000000000000000000100000000000000000000000000000000000008000000000000000000000000000000200000000000000000000000000000000000000000000000000000000000000010000020000000010000000000000000000000000000000000000400000000200000000000000000000000000020000000000000400000000080000000000000000000020008000002000000000000440000800000000000000000008000000000280000000000000000000000000000000000000000000000000000000000000000000000",
      "type": "0x0",
      "transactionHash": "0xccc85eb32fe96d251a5d332beab017ef92e386c855698e1e6f74017fbc424ed0",
      "transactionIndex": "0x0",
      "blockHash": "0xa4aff0b8a6fd5aa498315437ecce634060dc1ac32584095036c36fc20548cee0",
      "blockNumber": "0x3b72141",
      "gasUsed": "0x1072b",
      "effectiveGasPrice": "0x3b9aca00",
      "from": "0xbe1e2c05a20df20a3ecd0ec12617b296a58ee2a1",
      "to": "0x34c8ae68a1b68d48f508c00580cab739e8d15df6",
      "contractAddress": null
    }
  ],
  "libraries": [],
  "pending": [],
  "returns": {},
  "timestamp": 1755589462,
  "chain": 97,
  "commit": "fd06cee"
}