{
  "transactions": [
    {
      "hash": "0x9b8797a57184ea998dff329a7bae71e2bcafe14937f3591dee80265a07a69b34",
      "transactionType": "CALL",
      "contractName": null,
      "contractAddress": "0x34c8ae68a1b68d48f508c00580cab739e8d15df6",
      "function": "adminWithdraw(address,uint256)",
      "arguments": [
        "0x582ce3afdc3983803e1b8c90F705A284B8AD9E92",
        "10000000000000000000000"
      ],
      "transaction": {
        "from": "0xbe1e2c05a20df20a3ecd0ec12617b296a58ee2a1",
        "to": "0x34c8ae68a1b68d48f508c00580cab739e8d15df6",
        "gas": "0x10f3b",
        "value": "0x0",
        "input": "0x401d4482000000000000000000000000582ce3afdc3983803e1b8c90f705a284b8ad9e9200000000000000000000000000000000000000000000021e19e0c9bab2400000",
        "nonce": "0x2b3",
        "chainId": "0x61"
      },
      "additionalContracts": [],
      "isFixedGasLimit": false
    },
    {
      "hash": "0x9c7ae4451e7b4610127f1fc3a3b5d9b62c8fa3992bce4913284bd956d504f7ed",
      "transactionType": "CALL",
      "contractName": null,
      "contractAddress": "0x34c8ae68a1b68d48f508c00580cab739e8d15df6",
      "function": "adminWithdraw(address,uint256)",
      "arguments": [
        "0x1DB6aC824338cD4d5DD67aFdC8281bbafcc2378C",
        "10000000000000000000000"
      ],
      "transaction": {
        "from": "0xbe1e2c05a20df20a3ecd0ec12617b296a58ee2a1",
        "to": "0x34c8ae68a1b68d48f508c00580cab739e8d15df6",
        "gas": "0x10fcd",
        "value": "0x0",
        "input": "0x401d44820000000000000000000000001db6ac824338cd4d5dd67afdc8281bbafcc2378c00000000000000000000000000000000000000000000021e19e0c9bab2400000",
        "nonce": "0x2b4",
        "chainId": "0x61"
      },
      "additionalContracts": [],
      "isFixedGasLimit": false
    },
    {
      "hash": "0xa482499a3b22d0e711c6e258e7572342d1218679a12019bf016bb2b1a307390f",
      "transactionType": "CALL",
      "contractName": null,
      "contractAddress": "0x34c8ae68a1b68d48f508c00580cab739e8d15df6",
      "function": "adminWithdraw(address,uint256)",
      "arguments": [
        "0x026E9aF77DA76842086E2BcF6dC5421F16252087",
        "10000000000000000000000"
      ],
      "transaction": {
        "from": "0xbe1e2c05a20df20a3ecd0ec12617b296a58ee2a1",
        "to": "0x34c8ae68a1b68d48f508c00580cab739e8d15df6",
        "gas": "0xef5f",
        "value": "0x0",
        "input": "0x401d4482000000000000000000000000026e9af77da76842086e2bcf6dc5421f1625208700000000000000000000000000000000000000000000021e19e0c9bab2400000",
        "nonce": "0x2b5",
        "chainId": "0x61"
      },
      "additionalContracts": [],
      "isFixedGasLimit": false
    }
  ],
  "receipts": [
    {
      "status": "0x1",
      "cumulativeGasUsed": "0x3fe8c",
      "logs": [
        {
          "address": "0x582ce3afdc3983803e1b8c90f705a284b8ad9e92",
          "topics": [
            "0xddf252ad1be2c89b69c2b068fc378daa952ba7f163c4a11628f55a4df523b3ef",
            "0x00000000000000000000000034c8ae68a1b68d48f508c00580cab739e8d15df6",
            "0x000000000000000000000000be1e2c05a20df20a3ecd0ec12617b296a58ee2a1"
          ],
          "data": "0x00000000000000000000000000000000000000000000021e19e0c9bab2400000",
          "blockHash": "0xf3a418fc2dbabfe400b7da44d7cf3d9904bd5c3dea50919ce05aa478a8cb8f14",
          "blockNumber": "0x3b04999",
          "transactionHash": "0x9b8797a57184ea998dff329a7bae71e2bcafe14937f3591dee80265a07a69b34",
          "transactionIndex": "0x2",
          "logIndex": "0x5",
          "removed": false
        },
        {
          "address": "0x34c8ae68a1b68d48f508c00580cab739e8d15df6",
          "topics": [
            "0xb39d7dbd236dcbba6b8dfc4428f15329fb261b996797b453737266986d3a1937",
            "0x000000000000000000000000be1e2c05a20df20a3ecd0ec12617b296a58ee2a1",
            "0x000000000000000000000000582ce3afdc3983803e1b8c90f705a284b8ad9e92"
          ],
          "data": "0x00000000000000000000000000000000000000000000021e19e0c9bab240000000000000000000000000000000000000000000000000000000000000689f063c",
          "blockHash": "0xf3a418fc2dbabfe400b7da44d7cf3d9904bd5c3dea50919ce05aa478a8cb8f14",
          "blockNumber": "0x3b04999",
          "transactionHash": "0x9b8797a57184ea998dff329a7bae71e2bcafe14937f3591dee80265a07a69b34",
          "transactionIndex": "0x2",
          "logIndex": "0x6",
          "removed": false
        }
      ],
      "logsBloom": "0x08000000000000000000000000000000000000000000000000000000000000000000000000000000000000000000000000000000000000000100000000000000000000000000000000000008000000000000000000000000000000200000000000000000000000000000000000000000000000000000000000000010000020000000010000000000000000000000000000000000000400000000200000000000000000000000000020000000000000400000000080000000000000000000020008000002000000000000440000800000000000000000008000000000280000000000000000000000000000000000000000000000000000000000000000000000",
      "type": "0x0",
      "transactionHash": "0x9b8797a57184ea998dff329a7bae71e2bcafe14937f3591dee80265a07a69b34",
      "transactionIndex": "0x2",
      "blockHash": "0xf3a418fc2dbabfe400b7da44d7cf3d9904bd5c3dea50919ce05aa478a8cb8f14",
      "blockNumber": "0x3b04999",
      "gasUsed": "0xc45f",
      "effectiveGasPrice": "0x3b9aca00",
      "from": "0xbe1e2c05a20df20a3ecd0ec12617b296a58ee2a1",
      "to": "0x34c8ae68a1b68d48f508c00580cab739e8d15df6",
      "contractAddress": null
    },
    {
      "status": "0x1",
      "cumulativeGasUsed": "0xc4c8",
      "logs": [
        {
          "address": "0x1db6ac824338cd4d5dd67afdc8281bbafcc2378c",
          "topics": [
            "0xddf252ad1be2c89b69c2b068fc378daa952ba7f163c4a11628f55a4df523b3ef",
            "0x00000000000000000000000034c8ae68a1b68d48f508c00580cab739e8d15df6",
            "0x000000000000000000000000be1e2c05a20df20a3ecd0ec12617b296a58ee2a1"
          ],
          "data": "0x00000000000000000000000000000000000000000000021e19e0c9bab2400000",
          "blockHash": "0x4196b534fa0939de7439fc055b37806f4f5e469b4315502d93b40ec5edaaa487",
          "blockNumber": "0x3b0499c",
          "transactionHash": "0x9c7ae4451e7b4610127f1fc3a3b5d9b62c8fa3992bce4913284bd956d504f7ed",
          "transactionIndex": "0x0",
          "logIndex": "0x0",
          "removed": false
        },
        {
          "address": "0x34c8ae68a1b68d48f508c00580cab739e8d15df6",
          "topics": [
            "0xb39d7dbd236dcbba6b8dfc4428f15329fb261b996797b453737266986d3a1937",
            "0x000000000000000000000000be1e2c05a20df20a3ecd0ec12617b296a58ee2a1",
            "0x0000000000000000000000001db6ac824338cd4d5dd67afdc8281bbafcc2378c"
          ],
          "data": "0x00000000000000000000000000000000000000000000021e19e0c9bab240000000000000000000000000000000000000000000000000000000000000689f063e",
          "blockHash": "0x4196b534fa0939de7439fc055b37806f4f5e469b4315502d93b40ec5edaaa487",
          "blockNumber": "0x3b0499c",
          "transactionHash": "0x9c7ae4451e7b4610127f1fc3a3b5d9b62c8fa3992bce4913284bd956d504f7ed",
          "transactionIndex": "0x0",
          "logIndex": "0x1",
          "removed": false
        }
      ],
      "logsBloom": "0x08000000000000000000000000000000010080000000000000000000000000000000000000000000000000000000000000000000000000000020000000000000000000000000000000000008000000000000000000000000000000200000000000000000000000000000000000020000000000000000000400000010000000000000010000000000000000000000000000000002000400000000200000000000000000000000000000000000000000000000000080000000000000000000020000000002000000000000440000800000000000000000008000000000080000000000000000000000000000000000000000000000000000000000000000000000",
      "type": "0x0",
      "transactionHash": "0x9c7ae4451e7b4610127f1fc3a3b5d9b62c8fa3992bce4913284bd956d504f7ed",
      "transactionIndex": "0x0",
      "blockHash": "0x4196b534fa0939de7439fc055b37806f4f5e469b4315502d93b40ec5edaaa487",
      "blockNumber": "0x3b0499c",
      "gasUsed": "0xc4c8",
      "effectiveGasPrice": "0x3b9aca00",
      "from": "0xbe1e2c05a20df20a3ecd0ec12617b296a58ee2a1",
      "to": "0x34c8ae68a1b68d48f508c00580cab739e8d15df6",
      "contractAddress": null
    },
    {
      "status": "0x1",
      "cumulativeGasUsed": "0xad4e",
      "logs": [
        {
          "address": "0x026e9af77da76842086e2bcf6dc5421f16252087",
          "topics": [
            "0xddf252ad1be2c89b69c2b068fc378daa952ba7f163c4a11628f55a4df523b3ef",
            "0x00000000000000000000000034c8ae68a1b68d48f508c00580cab739e8d15df6",
            "0x000000000000000000000000be1e2c05a20df20a3ecd0ec12617b296a58ee2a1"
          ],
          "data": "0x00000000000000000000000000000000000000000000021e19e0c9bab2400000",
          "blockHash": "0x8d00a9be9ff454b80ce544fb81c1f8e4cc9f870d31130e31192e7c66b7748c74",
          "blockNumber": "0x3b0499f",
          "transactionHash": "0xa482499a3b22d0e711c6e258e7572342d1218679a12019bf016bb2b1a307390f",
          "transactionIndex": "0x0",
          "logIndex": "0x0",
          "removed": false
        },
        {
          "address": "0x34c8ae68a1b68d48f508c00580cab739e8d15df6",
          "topics": [
            "0xb39d7dbd236dcbba6b8dfc4428f15329fb261b996797b453737266986d3a1937",
            "0x000000000000000000000000be1e2c05a20df20a3ecd0ec12617b296a58ee2a1",
            "0x000000000000000000000000026e9af77da76842086e2bcf6dc5421f16252087"
          ],
          "data": "0x00000000000000000000000000000000000000000000021e19e0c9bab240000000000000000000000000000000000000000000000000000000000000689f0640",
          "blockHash": "0x8d00a9be9ff454b80ce544fb81c1f8e4cc9f870d31130e31192e7c66b7748c74",
          "blockNumber": "0x3b0499f",
          "transactionHash": "0xa482499a3b22d0e711c6e258e7572342d1218679a12019bf016bb2b1a307390f",
          "transactionIndex": "0x0",
          "logIndex": "0x1",
          "removed": false
        }
      ],
      "logsBloom": "0x08000000000000000000000000000000000000000000000000000000000000000000000000000000000000000000000000000000000000000000000000000000008000000000000000000008000000000000000000000000000000200000000000000000000000000000000000000000000000000000000000000010000000000000010000000000000000000000000000000000000400000000200000800000000000000000008000000000000800000000000080000000000000000000020000000002000000000000440000800000000000000000008000000000080000000000000000000000000000000000000000404000000000000000000000000000",
      "type": "0x0",
      "transactionHash": "0xa482499a3b22d0e711c6e258e7572342d1218679a12019bf016bb2b1a307390f",
      "transactionIndex": "0x0",
      "blockHash": "0x8d00a9be9ff454b80ce544fb81c1f8e4cc9f870d31130e31192e7c66b7748c74",
      "blockNumber": "0x3b0499f",
      "gasUsed": "0xad4e",
      "effectiveGasPrice": "0x3b9aca00",
      "from": "0xbe1e2c05a20df20a3ecd0ec12617b296a58ee2a1",
      "to": "0x34c8ae68a1b68d48f508c00580cab739e8d15df6",
      "contractAddress": null
    }
  ],
  "libraries": [],
  "pending": [],
  "returns": {},
  "timestamp": 1755252289,
  "chain": 97,
  "commit": "ab0d9b2"
}