{
  "transactions": [
    {
      "hash": "0x625e0397d71858faddcb2e0322b0c8e2990288fa8897dd19c5f1a9a31da23ddc",
      "transactionType": "CALL",
      "contractName": null,
      "contractAddress": "0x39c5d3e3b8f5594623636ecdbdf135838b47b558",
      "function": "adminWithdraw(address,uint256)",
      "arguments": [
        "0x582ce3afdc3983803e1b8c90F705A284B8AD9E92",
        "1000000000000000000000000"
      ],
      "transaction": {
        "from": "0xbe1e2c05a20df20a3ecd0ec12617b296a58ee2a1",
        "to": "0x39c5d3e3b8f5594623636ecdbdf135838b47b558",
        "gas": "0x16b8d",
        "value": "0x0",
        "input": "0x401d4482000000000000000000000000582ce3afdc3983803e1b8c90f705a284b8ad9e9200000000000000000000000000000000000000000000d3c21bcecceda1000000",
        "nonce": "0x30f",
        "chainId": "0x61"
      },
      "additionalContracts": [],
      "isFixedGasLimit": false
    },
    {
      "hash": "0x1fe038b387c50b07b0b6ce46f5fae5c69e90bf03f7c55a69f281ed1a20161726",
      "transactionType": "CALL",
      "contractName": null,
      "contractAddress": "0x39c5d3e3b8f5594623636ecdbdf135838b47b558",
      "function": "adminWithdraw(address,uint256)",
      "arguments": [
        "0x1DB6aC824338cD4d5DD67aFdC8281bbafcc2378C",
        "1000000000000000000000000"
      ],
      "transaction": {
        "from": "0xbe1e2c05a20df20a3ecd0ec12617b296a58ee2a1",
        "to": "0x39c5d3e3b8f5594623636ecdbdf135838b47b558",
        "gas": "0x11fd9",
        "value": "0x0",
        "input": "0x401d44820000000000000000000000001db6ac824338cd4d5dd67afdc8281bbafcc2378c00000000000000000000000000000000000000000000d3c21bcecceda1000000",
        "nonce": "0x310",
        "chainId": "0x61"
      },
      "additionalContracts": [],
      "isFixedGasLimit": false
    },
    {
      "hash": "0x8d9bb388d15a29e6a170237b0526f4ea05cfaf8c1ef1f3d6efc23a68472add40",
      "transactionType": "CALL",
      "contractName": null,
      "contractAddress": "0x39c5d3e3b8f5594623636ecdbdf135838b47b558",
      "function": "adminWithdraw(address,uint256)",
      "arguments": [
        "0x026E9aF77DA76842086E2BcF6dC5421F16252087",
        "1000000000000000000000000"
      ],
      "transaction": {
        "from": "0xbe1e2c05a20df20a3ecd0ec12617b296a58ee2a1",
        "to": "0x39c5d3e3b8f5594623636ecdbdf135838b47b558",
        "gas": "0x14bb1",
        "value": "0x0",
        "input": "0x401d4482000000000000000000000000026e9af77da76842086e2bcf6dc5421f1625208700000000000000000000000000000000000000000000d3c21bcecceda1000000",
        "nonce": "0x311",
        "chainId": "0x61"
      },
      "additionalContracts": [],
      "isFixedGasLimit": false
    }
  ],
  "receipts": [
    {
      "status": "0x1",
      "cumulativeGasUsed": "0x60ecc",
      "logs": [
        {
          "address": "0x582ce3afdc3983803e1b8c90f705a284b8ad9e92",
          "topics": [
            "0xddf252ad1be2c89b69c2b068fc378daa952ba7f163c4a11628f55a4df523b3ef",
            "0x00000000000000000000000039c5d3e3b8f5594623636ecdbdf135838b47b558",
            "0x000000000000000000000000be1e2c05a20df20a3ecd0ec12617b296a58ee2a1"
          ],
          "data": "0x00000000000000000000000000000000000000000000d3c21bcecceda1000000",
          "blockHash": "0x456696bafa88d8485517eb41d4bdc8bd7aad708653dfadbc73b3e4e6898ee0ff",
          "blockNumber": "0x3c322a4",
          "transactionHash": "0x625e0397d71858faddcb2e0322b0c8e2990288fa8897dd19c5f1a9a31da23ddc",
          "transactionIndex": "0x1",
          "logIndex": "0xf",
          "removed": false
        },
        {
          "address": "0x39c5d3e3b8f5594623636ecdbdf135838b47b558",
          "topics": [
            "0xb39d7dbd236dcbba6b8dfc4428f15329fb261b996797b453737266986d3a1937",
            "0x000000000000000000000000be1e2c05a20df20a3ecd0ec12617b296a58ee2a1",
            "0x000000000000000000000000582ce3afdc3983803e1b8c90f705a284b8ad9e92"
          ],
          "data": "0x00000000000000000000000000000000000000000000d3c21bcecceda10000000000000000000000000000000000000000000000000000000000000068ad2fde",
          "blockHash": "0x456696bafa88d8485517eb41d4bdc8bd7aad708653dfadbc73b3e4e6898ee0ff",
          "blockNumber": "0x3c322a4",
          "transactionHash": "0x625e0397d71858faddcb2e0322b0c8e2990288fa8897dd19c5f1a9a31da23ddc",
          "transactionIndex": "0x1",
          "logIndex": "0x10",
          "removed": false
        }
      ],
      "logsBloom": "0x00000000000000000000000010000000000000000000000000000000000000000000000004000000000000000000000000000000000000000100000000000000000000000000000000000008000000000000000000000000000000200000000000000000000010000000000000000000000000000000000000000010000020000000010000000000000000000000000000000000000000000000000000800000000000000000080020000000000000400000001080000000000000000000020008000002000000000000040000800000000000000000000000000000200000000000000000000000000000000000000000000000000000000000000000000000",
      "type": "0x0",
      "transactionHash": "0x625e0397d71858faddcb2e0322b0c8e2990288fa8897dd19c5f1a9a31da23ddc",
      "transactionIndex": "0x1",
      "blockHash": "0x456696bafa88d8485517eb41d4bdc8bd7aad708653dfadbc73b3e4e6898ee0ff",
      "blockNumber": "0x3c322a4",
      "gasUsed": "0x10735",
      "effectiveGasPrice": "0x3b9aca00",
      "from": "0xbe1e2c05a20df20a3ecd0ec12617b296a58ee2a1",
      "to": "0x39c5d3e3b8f5594623636ecdbdf135838b47b558",
      "contractAddress": null
    },
    {
      "status": "0x1",
      "cumulativeGasUsed": "0xc4d2",
      "logs": [
        {
          "address": "0x1db6ac824338cd4d5dd67afdc8281bbafcc2378c",
          "topics": [
            "0xddf252ad1be2c89b69c2b068fc378daa952ba7f163c4a11628f55a4df523b3ef",
            "0x00000000000000000000000039c5d3e3b8f5594623636ecdbdf135838b47b558",
            "0x000000000000000000000000be1e2c05a20df20a3ecd0ec12617b296a58ee2a1"
          ],
          "data": "0x00000000000000000000000000000000000000000000d3c21bcecceda1000000",
          "blockHash": "0xc8d961400b9e30a05a75ef478a492f33d5b0b43f828afea5322e37420f4c55a6",
          "blockNumber": "0x3c322a6",
          "transactionHash": "0x1fe038b387c50b07b0b6ce46f5fae5c69e90bf03f7c55a69f281ed1a20161726",
          "transactionIndex": "0x0",
          "logIndex": "0x0",
          "removed": false
        },
        {
          "address": "0x39c5d3e3b8f5594623636ecdbdf135838b47b558",
          "topics": [
            "0xb39d7dbd236dcbba6b8dfc4428f15329fb261b996797b453737266986d3a1937",
            "0x000000000000000000000000be1e2c05a20df20a3ecd0ec12617b296a58ee2a1",
            "0x0000000000000000000000001db6ac824338cd4d5dd67afdc8281bbafcc2378c"
          ],
          "data": "0x00000000000000000000000000000000000000000000d3c21bcecceda10000000000000000000000000000000000000000000000000000000000000068ad2fdf",
          "blockHash": "0xc8d961400b9e30a05a75ef478a492f33d5b0b43f828afea5322e37420f4c55a6",
          "blockNumber": "0x3c322a6",
          "transactionHash": "0x1fe038b387c50b07b0b6ce46f5fae5c69e90bf03f7c55a69f281ed1a20161726",
          "transactionIndex": "0x0",
          "logIndex": "0x1",
          "removed": false
        }
      ],
      "logsBloom": "0x00000000000000000000000010000000010080000000000000000000000000000000000004000000000000000000000000000000000000000020000000000000000000000000000000000008000000000000000000000000000000200000000000000000000010000000000000020000000000000000000400000010000000000000010000000000000000000000000000000002000000000000000000800000000000000000080000000000000000000000001080000000000000000000020000000002000000000000040000800000000000000000000000000000000000000000000000000000000000000000000000000000000000000000000000000000",
      "type": "0x0",
      "transactionHash": "0x1fe038b387c50b07b0b6ce46f5fae5c69e90bf03f7c55a69f281ed1a20161726",
      "transactionIndex": "0x0",
      "blockHash": "0xc8d961400b9e30a05a75ef478a492f33d5b0b43f828afea5322e37420f4c55a6",
      "blockNumber": "0x3c322a6",
      "gasUsed": "0xc4d2",
      "effectiveGasPrice": "0x3b9aca00",
      "from": "0xbe1e2c05a20df20a3ecd0ec12617b296a58ee2a1",
      "to": "0x39c5d3e3b8f5594623636ecdbdf135838b47b558",
      "contractAddress": null
    },
    {
      "status": "0x1",
      "cumulativeGasUsed": "0xf024",
      "logs": [
        {
          "address": "0x026e9af77da76842086e2bcf6dc5421f16252087",
          "topics": [
            "0xddf252ad1be2c89b69c2b068fc378daa952ba7f163c4a11628f55a4df523b3ef",
            "0x00000000000000000000000039c5d3e3b8f5594623636ecdbdf135838b47b558",
            "0x000000000000000000000000be1e2c05a20df20a3ecd0ec12617b296a58ee2a1"
          ],
          "data": "0x00000000000000000000000000000000000000000000d3c21bcecceda1000000",
          "blockHash": "0x8fc13c4b884caeca2f392b91b71090c0cd15c6318cd8cceb9757bbb2a73d416b",
          "blockNumber": "0x3c322a9",
          "transactionHash": "0x8d9bb388d15a29e6a170237b0526f4ea05cfaf8c1ef1f3d6efc23a68472add40",
          "transactionIndex": "0x0",
          "logIndex": "0x0",
          "removed": false
        },
        {
          "address": "0x39c5d3e3b8f5594623636ecdbdf135838b47b558",
          "topics": [
            "0xb39d7dbd236dcbba6b8dfc4428f15329fb261b996797b453737266986d3a1937",
            "0x000000000000000000000000be1e2c05a20df20a3ecd0ec12617b296a58ee2a1",
            "0x000000000000000000000000026e9af77da76842086e2bcf6dc5421f16252087"
          ],
          "data": "0x00000000000000000000000000000000000000000000d3c21bcecceda10000000000000000000000000000000000000000000000000000000000000068ad2fe1",
          "blockHash": "0x8fc13c4b884caeca2f392b91b71090c0cd15c6318cd8cceb9757bbb2a73d416b",
          "blockNumber": "0x3c322a9",
          "transactionHash": "0x8d9bb388d15a29e6a170237b0526f4ea05cfaf8c1ef1f3d6efc23a68472add40",
          "transactionIndex": "0x0",
          "logIndex": "0x1",
          "removed": false
        }
      ],
      "logsBloom": "0x00000000000000000000000010000000000000000000000000000000000000000000000004000000000000000000000000000000000000000000000000000000008000000000000000000008000000000000000000000000000000200000000000000000000010000000000000000000000000000000000000000010000000000000010000000000000000000000000000000000000000000000000000800000000000000000088000000000000800000000001080000000000000000000020000000002000000000000040000800000000000000000000000000000000000000000000000000000000000000000000000404000000000000000000000000000",
      "type": "0x0",
      "transactionHash": "0x8d9bb388d15a29e6a170237b0526f4ea05cfaf8c1ef1f3d6efc23a68472add40",
      "transactionIndex": "0x0",
      "blockHash": "0x8fc13c4b884caeca2f392b91b71090c0cd15c6318cd8cceb9757bbb2a73d416b",
      "blockNumber": "0x3c322a9",
      "gasUsed": "0xf024",
      "effectiveGasPrice": "0x3b9aca00",
      "from": "0xbe1e2c05a20df20a3ecd0ec12617b296a58ee2a1",
      "to": "0x39c5d3e3b8f5594623636ecdbdf135838b47b558",
      "contractAddress": null
    }
  ],
  "libraries": [],
  "pending": [],
  "returns": {},
  "timestamp": 1756180450,
  "chain": 97,
  "commit": "fd06cee"
}