{
  "transactions": [
    {
      "hash": "0xcc6de3ed1173ee422ddcecf0132f09f81eff1189ba5a6cd34cafacbfda59b953",
      "transactionType": "CALL",
      "contractName": null,
      "contractAddress": "0x34c8ae68a1b68d48f508c00580cab739e8d15df6",
      "function": "addToken(address,uint256)",
      "arguments": [
        "0xaE49bFCe31392A55eF3332B9a07d0534122327CA",
        "100000000000000000"
      ],
      "transaction": {
        "from": "0xbe1e2c05a20df20a3ecd0ec12617b296a58ee2a1",
        "to": "0x34c8ae68a1b68d48f508c00580cab739e8d15df6",
        "gas": "0x2b5c7",
        "value": "0x0",
        "input": "0xaf81c5b9000000000000000000000000ae49bfce31392a55ef3332b9a07d0534122327ca000000000000000000000000000000000000000000000000016345785d8a0000",
        "nonce": "0x2a3",
        "chainId": "0x61"
      },
      "additionalContracts": [],
      "isFixedGasLimit": false
    }
  ],
  "receipts": [
    {
      "status": "0x1",
      "cumulativeGasUsed": "0x1da61",
      "logs": [
        {
          "address": "0x34c8ae68a1b68d48f508c00580cab739e8d15df6",
          "topics": [
            "0x43d0c6e87fb4451f8fa42b8d91ca306a62b49d3535b2dba8c09952da149d2ece",
            "0x000000000000000000000000be1e2c05a20df20a3ecd0ec12617b296a58ee2a1",
            "0x000000000000000000000000ae49bfce31392a55ef3332b9a07d0534122327ca"
          ],
          "data": "0x000000000000000000000000000000000000000000000000016345785d8a000000000000000000000000000000000000000000000000000000000000689eedb4",
          "blockHash": "0x19e8a961d136b95df36b9fd5e8c1ffb1e0bc3270e32c308c78a40b1e2ba33d6f",
          "blockNumber": "0x3b028e4",
          "transactionHash": "0xcc6de3ed1173ee422ddcecf0132f09f81eff1189ba5a6cd34cafacbfda59b953",
          "transactionIndex": "0x0",
          "logIndex": "0x0",
          "removed": false
        }
      ],
      "logsBloom": "0x00000000000000000000000000000000000000000000000000000800000000020000000000000000000000000000000000000000000000000000000000000000000000000000000000000000000000000040000000000000000000200000000000000000000000000000000000000000000000000000000000000000040000002000000000000000000000000000000000000000000000000000200000000000000000000000000000000000000000000000000000000000000000000000000000000000000000000000040000800000000000000000008000000000080000000000000000000000000000000000000000000000000004000000000000000000",
      "type": "0x0",
      "transactionHash": "0xcc6de3ed1173ee422ddcecf0132f09f81eff1189ba5a6cd34cafacbfda59b953",
      "transactionIndex": "0x0",
      "blockHash": "0x19e8a961d136b95df36b9fd5e8c1ffb1e0bc3270e32c308c78a40b1e2ba33d6f",
      "blockNumber": "0x3b028e4",
      "gasUsed": "0x1da61",
      "effectiveGasPrice": "0x3b9aca00",
      "from": "0xbe1e2c05a20df20a3ecd0ec12617b296a58ee2a1",
      "to": "0x34c8ae68a1b68d48f508c00580cab739e8d15df6",
      "contractAddress": null
    }
  ],
  "libraries": [],
  "pending": [],
  "returns": {},
  "timestamp": 1755246005,
  "chain": 97,
  "commit": "ab0d9b2"
}