{
  "transactions": [
    {
      "hash": "0xbc9d315434a3544e56a9ba8767bcccae488d067356114e088b1d2c82f47ee64e",
      "transactionType": "CALL",
      "contractName": null,
      "contractAddress": "0x34c8ae68a1b68d48f508c00580cab739e8d15df6",
      "function": "addToken(address,uint256)",
      "arguments": [
        "0x026E9aF77DA76842086E2BcF6dC5421F16252087",
        "100000000000000000"
      ],
      "transaction": {
        "from": "0xbe1e2c05a20df20a3ecd0ec12617b296a58ee2a1",
        "to": "0x34c8ae68a1b68d48f508c00580cab739e8d15df6",
        "gas": "0x2b5c7",
        "value": "0x0",
        "input": "0xaf81c5b9000000000000000000000000026e9af77da76842086e2bcf6dc5421f16252087000000000000000000000000000000000000000000000000016345785d8a0000",
        "nonce": "0x2a1",
        "chainId": "0x61"
      },
      "additionalContracts": [],
      "isFixedGasLimit": false
    }
  ],
  "receipts": [
    {
      "status": "0x1",
      "cumulativeGasUsed": "0x1da61",
      "logs": [
        {
          "address": "0x34c8ae68a1b68d48f508c00580cab739e8d15df6",
          "topics": [
            "0x43d0c6e87fb4451f8fa42b8d91ca306a62b49d3535b2dba8c09952da149d2ece",
            "0x000000000000000000000000be1e2c05a20df20a3ecd0ec12617b296a58ee2a1",
            "0x000000000000000000000000026e9af77da76842086e2bcf6dc5421f16252087"
          ],
          "data": "0x000000000000000000000000000000000000000000000000016345785d8a000000000000000000000000000000000000000000000000000000000000689eed8c",
          "blockHash": "0x2979ce12e08a061160c82e1552f46e8fb385de69422230a8905ffe9ae4fcd528",
          "blockNumber": "0x3b028af",
          "transactionHash": "0xbc9d315434a3544e56a9ba8767bcccae488d067356114e088b1d2c82f47ee64e",
          "transactionIndex": "0x0",
          "logIndex": "0x0",
          "removed": false
        }
      ],
      "logsBloom": "0x00000000000000000000000000000000000000000000000000000800000000000000000000000000000000000000000000000000000000000000000000000000000000000000000000000000000000000000000000000000000000200000000000000000000000000000000000000000000000000000000000000000000000002000000000000000000000000000000000000000000000000000200000000000000000000000000000000000000800000000000000000000000000000000000000000000000000000000040000800000000000000000008000000000080000000000000000000000000000000000000000404000000004000000000000000000",
      "type": "0x0",
      "transactionHash": "0xbc9d315434a3544e56a9ba8767bcccae488d067356114e088b1d2c82f47ee64e",
      "transactionIndex": "0x0",
      "blockHash": "0x2979ce12e08a061160c82e1552f46e8fb385de69422230a8905ffe9ae4fcd528",
      "blockNumber": "0x3b028af",
      "gasUsed": "0x1da61",
      "effectiveGasPrice": "0x3b9aca00",
      "from": "0xbe1e2c05a20df20a3ecd0ec12617b296a58ee2a1",
      "to": "0x34c8ae68a1b68d48f508c00580cab739e8d15df6",
      "contractAddress": null
    }
  ],
  "libraries": [],
  "pending": [],
  "returns": {},
  "timestamp": 1755245965,
  "chain": 97,
  "commit": "ab0d9b2"
}