{
  "transactions": [
    {
      "hash": "0xfdf150e3f20635914e4d593b2191ea0607c03f73e9ea8785f2ec6d4c2d32d744",
      "transactionType": "CALL",
      "contractName": null,
      "contractAddress": "0x345ab62117f9567fa808ef7290679427b2d583e2",
      "function": "setBuyFee(address,bool,uint256)",
      "arguments": [
        "0x55d398326f99059fF775485246999027B3197955",
        "true",
        "1000"
      ],
      "transaction": {
        "from": "0xbe1e2c05a20df20a3ecd0ec12617b296a58ee2a1",
        "to": "0x345ab62117f9567fa808ef7290679427b2d583e2",
        "gas": "0xb13d",
        "value": "0x0",
        "input": "0x0cff060700000000000000000000000055d398326f99059ff775485246999027b3197955000000000000000000000000000000000000000000000000000000000000000100000000000000000000000000000000000000000000000000000000000003e8",
        "nonce": "0xf4",
        "chainId": "0x38"
      },
      "additionalContracts": [],
      "isFixedGasLimit": false
    }
  ],
  "receipts": [
    {
      "status": "0x1",
      "cumulativeGasUsed": "0x6de529",
      "logs": [],
      "logsBloom": "0x00000000000000000000000000000000000000000000000000000000000000000000000000000000000000000000000000000000000000000000000000000000000000000000000000000000000000000000000000000000000000000000000000000000000000000000000000000000000000000000000000000000000000000000000000000000000000000000000000000000000000000000000000000000000000000000000000000000000000000000000000000000000000000000000000000000000000000000000000000000000000000000000000000000000000000000000000000000000000000000000000000000000000000000000000000000",
      "type": "0x0",
      "transactionHash": "0xfdf150e3f20635914e4d593b2191ea0607c03f73e9ea8785f2ec6d4c2d32d744",
      "transactionIndex": "0x23",
      "blockHash": "0x2140170bd4e12f0086ddd9a36368dda6090ee5e7691f50c636052ed805d46c76",
      "blockNumber": "0x35d132b",
      "gasUsed": "0x7931",
      "effectiveGasPrice": "0x5f5e100",
      "from": "0xbe1e2c05a20df20a3ecd0ec12617b296a58ee2a1",
      "to": "0x345ab62117f9567fa808ef7290679427b2d583e2",
      "contractAddress": null
    }
  ],
  "libraries": [],
  "pending": [],
  "returns": {},
  "timestamp": 1754321594,
  "chain": 56,
  "commit": "ab0d9b2"
}