{
  "transactions": [
    {
      "hash": "0xf4ca3e237a4c125151683f1c87d8fcfc01b8c2d52346af9313c5e9f9f5a0f12f",
      "transactionType": "CALL",
      "contractName": null,
      "contractAddress": "0x345ab62117f9567fa808ef7290679427b2d583e2",
      "function": "setBuyFee(address,bool,uint256)",
      "arguments": [
        "0x55d398326f99059fF775485246999027B3197955",
        "true",
        "1000"
      ],
      "transaction": {
        "from": "0xbe1e2c05a20df20a3ecd0ec12617b296a58ee2a1",
        "to": "0x345ab62117f9567fa808ef7290679427b2d583e2",
        "gas": "0xb13d",
        "value": "0x0",
        "input": "0x0cff060700000000000000000000000055d398326f99059ff775485246999027b3197955000000000000000000000000000000000000000000000000000000000000000100000000000000000000000000000000000000000000000000000000000003e8",
        "nonce": "0xf6",
        "chainId": "0x38"
      },
      "additionalContracts": [],
      "isFixedGasLimit": false
    }
  ],
  "receipts": [
    {
      "status": "0x1",
      "cumulativeGasUsed": "0x8b297c",
      "logs": [],
      "logsBloom": "0x00000000000000000000000000000000000000000000000000000000000000000000000000000000000000000000000000000000000000000000000000000000000000000000000000000000000000000000000000000000000000000000000000000000000000000000000000000000000000000000000000000000000000000000000000000000000000000000000000000000000000000000000000000000000000000000000000000000000000000000000000000000000000000000000000000000000000000000000000000000000000000000000000000000000000000000000000000000000000000000000000000000000000000000000000000000",
      "type": "0x0",
      "transactionHash": "0xf4ca3e237a4c125151683f1c87d8fcfc01b8c2d52346af9313c5e9f9f5a0f12f",
      "transactionIndex": "0x2f",
      "blockHash": "0x7abed6052363471747430bb473606bd2b6ea2dbd55bb99bca60c5f3c537fb603",
      "blockNumber": "0x35d1376",
      "gasUsed": "0x7931",
      "effectiveGasPrice": "0x5f5e100",
      "from": "0xbe1e2c05a20df20a3ecd0ec12617b296a58ee2a1",
      "to": "0x345ab62117f9567fa808ef7290679427b2d583e2",
      "contractAddress": null
    }
  ],
  "libraries": [],
  "pending": [],
  "returns": {},
  "timestamp": 1754321651,
  "chain": 56,
  "commit": "ab0d9b2"
}