{
  "transactions": [
    {
      "hash": "0x8cfd805ce1dde74fe39c90fec6268f2ea61abdbe833aebf5e083006b74b2d9ac",
      "transactionType": "CALL",
      "contractName": null,
      "contractAddress": "0x345ab62117f9567fa808ef7290679427b2d583e2",
      "function": "setBuyFee(address,bool,uint256)",
      "arguments": [
        "0x55d398326f99059fF775485246999027B3197955",
        "true",
        "1000"
      ],
      "transaction": {
        "from": "0xbe1e2c05a20df20a3ecd0ec12617b296a58ee2a1",
        "to": "0x345ab62117f9567fa808ef7290679427b2d583e2",
        "gas": "0xb13d",
        "value": "0x0",
        "input": "0x0cff060700000000000000000000000055d398326f99059ff775485246999027b3197955000000000000000000000000000000000000000000000000000000000000000100000000000000000000000000000000000000000000000000000000000003e8",
        "nonce": "0xf8",
        "chainId": "0x38"
      },
      "additionalContracts": [],
      "isFixedGasLimit": false
    }
  ],
  "receipts": [
    {
      "status": "0x1",
      "cumulativeGasUsed": "0x55812",
      "logs": [],
      "logsBloom": "0x00000000000000000000000000000000000000000000000000000000000000000000000000000000000000000000000000000000000000000000000000000000000000000000000000000000000000000000000000000000000000000000000000000000000000000000000000000000000000000000000000000000000000000000000000000000000000000000000000000000000000000000000000000000000000000000000000000000000000000000000000000000000000000000000000000000000000000000000000000000000000000000000000000000000000000000000000000000000000000000000000000000000000000000000000000000",
      "type": "0x0",
      "transactionHash": "0x8cfd805ce1dde74fe39c90fec6268f2ea61abdbe833aebf5e083006b74b2d9ac",
      "transactionIndex": "0x2",
      "blockHash": "0xda5386b0cbfbe921248c4ec774d276e97926e230e22f45983fd33b04677502fa",
      "blockNumber": "0x35d374c",
      "gasUsed": "0x7931",
      "effectiveGasPrice": "0x5f5e100",
      "from": "0xbe1e2c05a20df20a3ecd0ec12617b296a58ee2a1",
      "to": "0x345ab62117f9567fa808ef7290679427b2d583e2",
      "contractAddress": null
    }
  ],
  "libraries": [],
  "pending": [],
  "returns": {},
  "timestamp": 1754328531,
  "chain": 56,
  "commit": "ab0d9b2"
}