{
  "transactions": [
    {
      "hash": "0x8efb72011b37fc3a01a37eb197ac5b973afb20a6324742f09ff08c413d35f672",
      "transactionType": "CALL",
      "contractName": null,
      "contractAddress": "0x345ab62117f9567fa808ef7290679427b2d583e2",
      "function": "setBuyFee(address,bool,uint256)",
      "arguments": [
        "0x55d398326f99059fF775485246999027B3197955",
        "true",
        "1000"
      ],
      "transaction": {
        "from": "0xbe1e2c05a20df20a3ecd0ec12617b296a58ee2a1",
        "to": "0x345ab62117f9567fa808ef7290679427b2d583e2",
        "gas": "0xc13c",
        "value": "0x0",
        "input": "0x0cff060700000000000000000000000055d398326f99059ff775485246999027b3197955000000000000000000000000000000000000000000000000000000000000000100000000000000000000000000000000000000000000000000000000000003e8",
        "nonce": "0xee",
        "chainId": "0x38"
      },
      "additionalContracts": [],
      "isFixedGasLimit": false
    }
  ],
  "receipts": [
    {
      "status": "0x1",
      "cumulativeGasUsed": "0x13e2f0",
      "logs": [],
      "logsBloom": "0x00000000000000000000000000000000000000000000000000000000000000000000000000000000000000000000000000000000000000000000000000000000000000000000000000000000000000000000000000000000000000000000000000000000000000000000000000000000000000000000000000000000000000000000000000000000000000000000000000000000000000000000000000000000000000000000000000000000000000000000000000000000000000000000000000000000000000000000000000000000000000000000000000000000000000000000000000000000000000000000000000000000000000000000000000000000",
      "type": "0x0",
      "transactionHash": "0x8efb72011b37fc3a01a37eb197ac5b973afb20a6324742f09ff08c413d35f672",
      "transactionIndex": "0xa",
      "blockHash": "0xdefb30df52664af16f396d5d1939c56d13a301391f254f9fb86337f85d313c21",
      "blockNumber": "0x351130f",
      "gasUsed": "0x8421",
      "effectiveGasPrice": "0x5f5e100",
      "from": "0xbe1e2c05a20df20a3ecd0ec12617b296a58ee2a1",
      "to": "0x345ab62117f9567fa808ef7290679427b2d583e2",
      "contractAddress": null
    }
  ],
  "libraries": [],
  "pending": [],
  "returns": {},
  "timestamp": 1753731692,
  "chain": 56,
  "commit": "e2b48d5"
}