{
  "transactions": [
    {
      "hash": "0xd7337f80c7993d44b7735bee3cc6dcc2ee5ff9f72bdae24fa6c6394c448b8bd3",
      "transactionType": "CALL",
      "contractName": null,
      "contractAddress": "0x345ab62117f9567fa808ef7290679427b2d583e2",
      "function": "setBuyFee(address,bool,uint256)",
      "arguments": [
        "0x55d398326f99059fF775485246999027B3197955",
        "true",
        "1000"
      ],
      "transaction": {
        "from": "0xbe1e2c05a20df20a3ecd0ec12617b296a58ee2a1",
        "to": "0x345ab62117f9567fa808ef7290679427b2d583e2",
        "gas": "0xb13d",
        "value": "0x0",
        "input": "0x0cff060700000000000000000000000055d398326f99059ff775485246999027b3197955000000000000000000000000000000000000000000000000000000000000000100000000000000000000000000000000000000000000000000000000000003e8",
        "nonce": "0xf2",
        "chainId": "0x38"
      },
      "additionalContracts": [],
      "isFixedGasLimit": false
    }
  ],
  "receipts": [
    {
      "status": "0x1",
      "cumulativeGasUsed": "0xd06857",
      "logs": [],
      "logsBloom": "0x00000000000000000000000000000000000000000000000000000000000000000000000000000000000000000000000000000000000000000000000000000000000000000000000000000000000000000000000000000000000000000000000000000000000000000000000000000000000000000000000000000000000000000000000000000000000000000000000000000000000000000000000000000000000000000000000000000000000000000000000000000000000000000000000000000000000000000000000000000000000000000000000000000000000000000000000000000000000000000000000000000000000000000000000000000000",
      "type": "0x0",
      "transactionHash": "0xd7337f80c7993d44b7735bee3cc6dcc2ee5ff9f72bdae24fa6c6394c448b8bd3",
      "transactionIndex": "0x74",
      "blockHash": "0x37208237d94335219b9358437ed2d6fdd950fc025a1afa050cd65c2ea72bc398",
      "blockNumber": "0x35d12ce",
      "gasUsed": "0x7931",
      "effectiveGasPrice": "0x5f5e100",
      "from": "0xbe1e2c05a20df20a3ecd0ec12617b296a58ee2a1",
      "to": "0x345ab62117f9567fa808ef7290679427b2d583e2",
      "contractAddress": null
    }
  ],
  "libraries": [],
  "pending": [],
  "returns": {},
  "timestamp": 1754321525,
  "chain": 56,
  "commit": "ab0d9b2"
}