{
  "transactions": [
    {
      "hash": "0xee614b1843c915e065f8e36290ecf61cbf8ec5d312eb3c3773f8f0b87d95c029",
      "transactionType": "CALL",
      "contractName": null,
      "contractAddress": "0x345ab62117f9567fa808ef7290679427b2d583e2",
      "function": "setWithdrawable(address,bool)",
      "arguments": [
        "0x026E9aF77DA76842086E2BcF6dC5421F16252087",
        "false"
      ],
      "transaction": {
        "from": "0xbe1e2c05a20df20a3ecd0ec12617b296a58ee2a1",
        "to": "0x345ab62117f9567fa808ef7290679427b2d583e2",
        "gas": "0x9358",
        "value": "0x0",
        "input": "0x8f73de52000000000000000000000000026e9af77da76842086e2bcf6dc5421f162520870000000000000000000000000000000000000000000000000000000000000000",
        "nonce": "0xf5",
        "chainId": "0x38"
      },
      "additionalContracts": [],
      "isFixedGasLimit": false
    }
  ],
  "receipts": [
    {
      "status": "0x1",
      "cumulativeGasUsed": "0xc7b8b1",
      "logs": [],
      "logsBloom": "0x00000000000000000000000000000000000000000000000000000000000000000000000000000000000000000000000000000000000000000000000000000000000000000000000000000000000000000000000000000000000000000000000000000000000000000000000000000000000000000000000000000000000000000000000000000000000000000000000000000000000000000000000000000000000000000000000000000000000000000000000000000000000000000000000000000000000000000000000000000000000000000000000000000000000000000000000000000000000000000000000000000000000000000000000000000000",
      "type": "0x0",
      "transactionHash": "0xee614b1843c915e065f8e36290ecf61cbf8ec5d312eb3c3773f8f0b87d95c029",
      "transactionIndex": "0x61",
      "blockHash": "0x998630e464d93bfa9467665751fb15b0fe9528882efca30da57b22fd43a0382c",
      "blockNumber": "0x35d1369",
      "gasUsed": "0x6aae",
      "effectiveGasPrice": "0x5f5e100",
      "from": "0xbe1e2c05a20df20a3ecd0ec12617b296a58ee2a1",
      "to": "0x345ab62117f9567fa808ef7290679427b2d583e2",
      "contractAddress": null
    }
  ],
  "libraries": [],
  "pending": [],
  "returns": {},
  "timestamp": 1754321641,
  "chain": 56,
  "commit": "ab0d9b2"
}