{
  "transactions": [
    {
      "hash": "0xd5c290aa022f80aff43b4e857e95f969c98b628814179229aef3e24230d39015",
      "transactionType": "CALL",
      "contractName": null,
      "contractAddress": "0x8d41cab7b454500ad2ec2c15ba51a44582f1f5d6",
      "function": "emergencyWithdraw(address,uint256)",
      "arguments": [
        "0x0000000000000000000000000000000000000000",
        "100000000000000"
      ],
      "transaction": {
        "from": "0xbe1e2c05a20df20a3ecd0ec12617b296a58ee2a1",
        "to": "0x8d41cab7b454500ad2ec2c15ba51a44582f1f5d6",
        "gas": "0xc10e",
        "value": "0x0",
        "input": "0x95ccea67000000000000000000000000000000000000000000000000000000000000000000000000000000000000000000000000000000000000000000005af3107a4000",
        "nonce": "0x3cf",
        "chainId": "0x61"
      },
      "additionalContracts": [],
      "isFixedGasLimit": false
    },
    {
      "hash": "0xad0e90055df5e457d80cc900e14d5ec97f3a65065520ba6707894a5150cf4a8c",
      "transactionType": "CALL",
      "contractName": null,
      "contractAddress": "0x8d41cab7b454500ad2ec2c15ba51a44582f1f5d6",
      "function": "emergencyWithdraw(address,uint256)",
      "arguments": [
        "0xaE49bFCe31392A55eF3332B9a07d0534122327CA",
        "100000000000000"
      ],
      "transaction": {
        "from": "0xbe1e2c05a20df20a3ecd0ec12617b296a58ee2a1",
        "to": "0x8d41cab7b454500ad2ec2c15ba51a44582f1f5d6",
        "gas": "0xf573",
        "value": "0x0",
        "input": "0x95ccea67000000000000000000000000ae49bfce31392a55ef3332b9a07d0534122327ca00000000000000000000000000000000000000000000000000005af3107a4000",
        "nonce": "0x3d0",
        "chainId": "0x61"
      },
      "additionalContracts": [],
      "isFixedGasLimit": false
    }
  ],
  "receipts": [
    {
      "status": "0x1",
      "cumulativeGasUsed": "0x2bd3e",
      "logs": [],
      "logsBloom": "0x00000000000000000000000000000000000000000000000000000000000000000000000000000000000000000000000000000000000000000000000000000000000000000000000000000000000000000000000000000000000000000000000000000000000000000000000000000000000000000000000000000000000000000000000000000000000000000000000000000000000000000000000000000000000000000000000000000000000000000000000000000000000000000000000000000000000000000000000000000000000000000000000000000000000000000000000000000000000000000000000000000000000000000000000000000000",
      "type": "0x0",
      "transactionHash": "0xd5c290aa022f80aff43b4e857e95f969c98b628814179229aef3e24230d39015",
      "transactionIndex": "0x1",
      "blockHash": "0x74d7602bc7d611c2d93f02cca75b68b09285989d2846b6fa873af9913197fddf",
      "blockNumber": "0x3ce1d70",
      "gasUsed": "0x8bc5",
      "effectiveGasPrice": "0x3b9aca00",
      "from": "0xbe1e2c05a20df20a3ecd0ec12617b296a58ee2a1",
      "to": "0x8d41cab7b454500ad2ec2c15ba51a44582f1f5d6",
      "contractAddress": null
    },
    {
      "status": "0x1",
      "cumulativeGasUsed": "0xb1b4",
      "logs": [
        {
          "address": "0xae49bfce31392a55ef3332b9a07d0534122327ca",
          "topics": [
            "0xddf252ad1be2c89b69c2b068fc378daa952ba7f163c4a11628f55a4df523b3ef",
            "0x0000000000000000000000008d41cab7b454500ad2ec2c15ba51a44582f1f5d6",
            "0x000000000000000000000000be1e2c05a20df20a3ecd0ec12617b296a58ee2a1"
          ],
          "data": "0x00000000000000000000000000000000000000000000000000005af3107a4000",
          "blockHash": "0x9eec9aa8db420eabd946e148613c476ba93b6d027f72ccbc6264d36f2c2d668c",
          "blockNumber": "0x3ce1d72",
          "transactionHash": "0xad0e90055df5e457d80cc900e14d5ec97f3a65065520ba6707894a5150cf4a8c",
          "transactionIndex": "0x0",
          "logIndex": "0x0",
          "removed": false
        }
      ],
      "logsBloom": "0x00000000000000000000000000000000000000000000000000000000000000000000000000000000000000000000100000000000000000000000000000200000000000000000000000000008000000000000000000000000000000200000000000000000000000000000000000000000000000000000000000000010000000000000000000000000000000000000000000000000000000000000000000000200000000000000000000000000000000000000000000000000000000000000000000000002000000000000040000800000080000000000000000000000000000000020000000000008000000000000000000000000000000000000000000000000",
      "type": "0x0",
      "transactionHash": "0xad0e90055df5e457d80cc900e14d5ec97f3a65065520ba6707894a5150cf4a8c",
      "transactionIndex": "0x0",
      "blockHash": "0x9eec9aa8db420eabd946e148613c476ba93b6d027f72ccbc6264d36f2c2d668c",
      "blockNumber": "0x3ce1d72",
      "gasUsed": "0xb1b4",
      "effectiveGasPrice": "0x3b9aca00",
      "from": "0xbe1e2c05a20df20a3ecd0ec12617b296a58ee2a1",
      "to": "0x8d41cab7b454500ad2ec2c15ba51a44582f1f5d6",
      "contractAddress": null
    }
  ],
  "libraries": [],
  "pending": [],
  "returns": {},
  "timestamp": 1756721107,
  "chain": 97,
  "commit": "1903752"
}